:020000040800F2
:1000000018DE00206D020008750200087702000863
:10001000790200087B0200087D0200080000000051
:100020000000000000000000000000007F02000847
:10003000810200080000000083020008E9B3000804
:10004000870200088702000887020008870200086C
:10005000870200088702000887020008870200085C
:10006000870200088702000887020008870200084C
:10007000870200088702000887020008870200083C
:10008000870200088702000887020008870200082C
:10009000870200088702000887020008870200081C
:1000A000870200088702000887020008870200080C
:1000B00087020008870200088702000887020008FC
:1000C00087020008870200088702000887020008EC
:1000D00087020008870200088702000887020008DC
:1000E000870200088702000887020008000000005D
:1000F0000000000000000000000000000000000000
:1001000000000000000000008702000887020008CD
:1001100087020008870200088702000871B60008FD
:10012000870200088702000887020008870200088B
:10013000870200088702000887020008870200087B
:10014000870200088702000887020008870200086B
:1001500000F002F800F061F80AA090E8000C824478
:100160008344AAF10107DA4501D100F056F8AFF255
:10017000090EBAE80F0013F0010F18BFFB1A43F085
:100180000103184778710300987103000A444FF087
:10019000000C10F8013B13F0070408BF10F8014BE6
:1001A0001D1108BF10F8015B641E05D010F8016B2B
:1001B000641E01F8016BF9D113F0080F1EBF10F88F
:1001C000014BAD1C0C1B09D16D1E58BF01F801CBB2
:1001D000FAD505E014F8016B01F8016B6D1EF9D535
:1001E0009142D6D37047000000230024002500264A
:1001F000103A28BF78C1FBD8520728BF30C148BF8A
:100200000B607047692900F09980002070471FB586
:1002100000F0E5F81FBD10B510BD00F04DFB114614
:10022000FFF7F5FF18F070FF00F06BFB03B4FFF76A
:10023000F2FF03BC00F070FB0B49D1F800C04A6824
:100240005CF8043B1068184442F8040B8C4528BF46
:10025000A1F1DC0C8A4228BFA1F1DC02C1F800C088
:100260004A6020F000407047B0D100200948804724
:1002700009480047FEE7FEE7FEE7FEE7FEE7FEE788
:10028000FEE7FEE7FEE7FEE704480549054A064BA0
:100290007047000079B400085101000818D200200E
:1002A00018DE002018D6002018D600200FB41CB588
:1002B000074B06AA7B4469460090059800F09FFA18
:1002C0000020694600F0AEFA1CBC5DF814FB00008B
:1002D0006D0500002DE9F0410E4604460020206225
:1002E0002046E168884730B3252805D0D4E90121AC
:1002F0009047206A401CF2E7E168204600278847C3
:10030000050018D0A5F14100192802D820354FF476
:1003100000673246294620462760FFF773FF40B149
:10032000012804D0F61D26F007060836D8E7361D4A
:10033000D6E72846DAE7206ABDE8F0812DE9F041EA
:100340000646002410687529314616A510D0AFF373
:100350000080002802DA404213A507E031688A07CE
:1003600001D512A502E0490704D511A5012401E039
:10037000AFF3008000210A2206F1240709E0B0FB58
:10038000F2FCB0FBF2F302FB1C003030785418464C
:10039000491C0028F3D123462A463046BDE8F041E7
:1003A00000F0CEB9000000002D0000002B0000007E
:1003B000200000000B4910B5A1F17C020A4CC2E9F3
:1003C0003712372106E000EB104342F82130074B8B
:1003D00000FB03400B1EA1F10101F4DC10BD012064
:1003E000E8E7000050D10020E119D666CD0D0100EC
:1003F00040EA0103024630B59B0710D14FF00134AB
:1004000000E008C208C91D1B9D4315EAC41FF8D0AF
:1004100013F0FF0102F8011B0DD01B0AF8E711F8D9
:10042000013B002B02F8013B05D011F8013B002BEA
:1004300002F8013BF3D130BD10B5431C02E010F8C7
:10044000011B71B18107FAD14FF0013202C88C1A39
:100450008C4314EAC211F9D0C01A0A0603D0C01E98
:1004600010BDC01A10BD0A0401D0801E10BD0902C3
:10047000FCD0401E10BD421E12F8013F002BFBD1E4
:1004800011F8013B002B02F8013BF9D17047032A18
:1004900040F2308010F0030C00F0158011F8013BA1
:1004A000BCF1020F624498BF11F801CB00F8013B88
:1004B00038BF11F8013BA2F1040298BF00F801CB4C
:1004C00038BF00F8013B11F0030300F06780083AE1
:1004D000C0F0088051F8043B083A51F804CBA0E87A
:1004E0000810F5E7121D5CBF51F8043B40F8043BCF
:1004F000AFF30080D20724BF11F8013B11F801CB04
:1005000048BF11F8012B24BF00F8013B00F801CBD4
:1005100048BF00F8012B7047431A28BF9A427FF664
:10052000B6AF032A1044114440F2268010F0030FA6
:100530001EBF11F8013D521E00F8013D10F0030FDF
:100540007FF4F6AF11F0030300F08481083AC0F0A5
:100550000B8051F8043D083A51F804CD40F8043DB1
:1005600040F804CDFFF7F3BF121D5CBF51F8043D06
:1005700040F8043DAFF30080D20724BF11F8013DDD
:1005800011F801CD48BF11F8012C24BF00F8013D3E
:1005900000F801CD48BF00F8012C704710B5203A93
:1005A000C0F00B80B1E81850203AA0E81850B1E82C
:1005B0001850A0E81850BFF4F5AF5FEA027C24BFE2
:1005C000B1E81850A0E8185044BF18C918C0BDE8D9
:1005D00010405FEA827C24BF51F8043B40F8043BA2
:1005E00008BF7047D20728BF31F8023B48BF11F857
:1005F000012B28BF20F8023B48BF00F8012B7047B1
:1006000002F0FF0343EA032242EA024200F002B88A
:100610004FF000020429C0F0128010F0030C00F02B
:100620001B80CCF1040CBCF1020F18BF00F8012BA9
:10063000A8BF20F8022BA1EB0C0100F00DB85FEA77
:10064000C17C24BF00F8012B00F8012B48BF00F843
:10065000012B70474FF0000200B5134694469646B2
:10066000203922BFA0E80C50A0E80C50B1F12001C5
:10067000BFF4F7AF090728BFA0E80C5048BF0CC073
:100680005DF804EB890028BF40F8042B08BF7047D1
:1006900048BF20F8022B11F0804F18BF00F8012B43
:1006A000704700004FF0013C50F8042B51F8043B18
:1006B0009A4221D1A2EB0C03934313EACC1317D136
:1006C00050F8042B51F8043B9A4215D1A2EB0C03CD
:1006D000934313EACC130BD150F8042B51F8043B8D
:1006E0009A4209D1A2EB0C03934313EACC13DBD05B
:1006F0004FF00000704700BFD01A01BAB1FA81F183
:1007000001F0180122FA01F0CB40C1F12001DBB267
:10071000C0B2C01A2CFA01F3D11A914311EAC311E5
:10072000E6D1704770477047704710B500F0BCF8CD
:10073000006810BD10B5044600F0B6F8046010BDA6
:100740002DE9F0470D4699469246044600F12408EB
:100750000168880604D5E06921F01001216000E0FD
:100760000120A84201DD471B00E00027A1697A199A
:1007700002EB0900081AA0612078C00602D42046C6
:10078000AFF30080002608E0D4E901211AF8060042
:100790009047206A401C761C20624E45F4DB20788E
:1007A000C0060AD52046AFF3008006E0D4E9012157
:1007B00030209047206A401C2062381EA7F10107B4
:1007C000F4DC07E0D4E9012118F805009047206A1D
:1007D000401C2062281EA5F10105F3DC2046AFF382
:1007E00000802078000602D50220BDE8F0870120B5
:1007F000FBE7000001694A1C02610878704700B5F8
:100800008FB0CDE901310021059105497944CDE949
:10081000031011466846FFF75DFD0FB000BD0000F4
:10082000E5FFFFFF0A6802F8010B0A607047431AF0
:1008300028BF9A427FF6B2AE104410F0030F114465
:100840001EBF11F8013D521E00F8013D10F0030FCC
:100850007FF4F6AF103AC0F00A8010B531E91850B5
:10086000103A20E91850BFF4F9AFBDE81040530723
:1008700024BF31E9081020E9081044BF51F8043DB5
:1008800040F8043D12F0030F08BF7047D20728BF9D
:1008900031F8023D48BF11F8012C28BF20F8023D75
:1008A00048BF00F8012C704700487047B8D10020BD
:1008B00000487047B8D100207546FFF7F9FFAE46F3
:1008C00005006946534620F00700854618B020B55C
:1008D000FFF7DAFCBDE820404FF000064FF00007BC
:1008E0004FF000084FF0000B21F00701AC46ACE8D8
:1008F000C009ACE8C009ACE8C009ACE8C0098D4645
:10090000704710B50446AFF300802046BDE81040A4
:10091000FFF78CBC7047000001491820ABBEFEE712
:1009200026000200002800DC4042704738B54568C8
:100930000446014628460AF003FF00282AD0206812
:10094000304A0F2819D006DC0B2824D00C2810D0F0
:100950000E2851D12FE0112802D028284CD145E093
:100960009268002A16D02146284601B0BDE83040E2
:100970001047214628465268F7E7284603F0B2F9A7
:100980000090406E0468684603F0F6F9002C01D030
:100990002846A04738BD284603F0A4F900906830E7
:1009A00003F0FEF8009803216C3003F001F968466B
:1009B00003F0E2F920E0E168486809680D2902D0F7
:1009C000202913D105E0002810DD284614F083FA11
:1009D00006E0002804DD2846BDE8384014F07BBA64
:1009E0002846BDE83840022114F08BBAE06818B9F7
:1009F0000021284600F090F92046BDE838400BF071
:100A000033BA0000A0050020F0B5044685B0806927
:100A1000B4F90850668A0027CDE90265CDE90017D0
:100A20000490B4F90C00B4F91060C118B4F90A00CC
:100A3000B4F90E50104433462A4600F007F8054634
:100A4000616800F07FF905B02846F0BDF0B585B0CB
:100A50000C46DDE90D514C31DFF850C0DDE90A6785
:100A6000CDE902C12146CDE900670BF04DF9040044
:100A700018D003F037F91022294604900BF080F8C3
:100A8000049830220A493430FFF788FD084D049954
:100A90000C3D2868486604A803F06EF92868416890
:100AA0002046884705B02046F0BD00002D0900080B
:100AB000AC050020F0B5044680688B4989B051F838
:100AC0002050606800287DD0052804D006287AD000
:100AD000122879D1AEE0E86900284FD095E80E00E1
:100AE0008DE80F0004F110010FC906F009F9002686
:100AF00055F8260005F048FAA169E8690A1A216943
:100B000001446069304404F0B5F8A169E8690A1A43
:100B100021690144E069801B04F0ACF8E169E869EF
:100B20000A1A616901442069304404F043F9E1691B
:100B3000E8690A1A61690144A069801B04F03AF966
:100B4000761C022ED4DBA86805F01EFAE069E9697C
:100B50006669431A20694218521E3144801C04F011
:100B6000A3F9E169E869A2690B1A61690144101AE5
:100B7000401C921E04F098F9EE6913E05FF0000645
:100B800055F8260005F000FAE069831BA069821B76
:100B9000606981192069304404F0CEF8761C022E79
:100BA000EEDB0226D5E90301CDE900016169E069C8
:100BB00008444310A069891C821B2069304404F05A
:100BC00025F802E089E012E08AE0D5E90501CDE9E7
:100BD0000001E36960690121184401EB6001A0692B
:100BE0009B1E821B2069304404F010F878E02068D6
:100BF00003F078F8049020680CF016FA40B1A06871
:100C000008B1002008E00498006F28B1012003E03B
:100C10000498406F00B10220049901EB8000C56E7A
:100C200004A803F0A9F800231A462846216803F017
:100C3000EFFC55E0206803F055F80490866EEEB3A3
:100C4000B0F95C70A168D1B3032942D05FF0000114
:100C500000EB8101406D0C6C05F0AAF9204605F00F
:100C600093F905A804F0C0F9BDF81410A88B01444D
:100C7000ADF81410BDF81810081AADF81800BDF83A
:100C80001600801CADF81600BDF81A00801EADF8E5
:100C90001A0004985E30B0F90220B0F9001005A8DF
:100CA00004F08CFF04A803F067F8022005F0C6F9F1
:100CB000304603F017F83A4605A901E00BE006E0DC
:100CC000079003F0BDFD07A803F056F808E00121E6
:100CD000BEE70221BCE704A8F6E720680BF036FE69
:100CE00009B00020F0BD000038510308044A034950
:100CF000116004494A6A486210467047DC050020CA
:100D0000A0050020AC05002000294FF0100101D003
:100D10000AF0A0BD0AF0F2BC4FF48072002911461F
:100D200001D00AF097BD0AF0E9BC0000034802496F
:100D3000416003498160704783580108A005002085
:100D40001F5501082DE9FF410E4605004FF0010433
:100D50001CD002F0C7FF0190876E01A8009703F036
:100D60000BF83146684606F01BFB78B1009800246A
:100D7000B84208D0284602F0B5FF0190009981667C
:100D800001A802F0F9FF28460BF061FB04B02046F1
:100D9000BDE8F0817CB5214C0546216831F8220F71
:100DA0004A8D104408804888CA8D104448802846DF
:100DB00004F00AF92168498CADF80010461828465D
:100DC00006F08EF93044401EADF8040004F02AF914
:100DD0002168898CADF802100844401EADF8060069
:100DE00068460BF0B5FF04E0284600F087FE0BF0E4
:100DF00047FF0028F8D10A2D04D0BDF8040021686F
:100E0000401C4884206830F8221F428D891A0180D6
:100E10004188C28D891A41807CBD0000E404002015
:100E20000A480B490068038990F8702053430B80EF
:100E3000438953434B8083895B1C53435B1E8B80E8
:100E4000C089401C5043401EC8807047E404002005
:100E5000B80400202DE9FC5F15460746DFF89C80AA
:100E600028440190D8F800001C460E46C06E01EBE5
:100E700004094946426801989047781B0090D8F8C9
:100E800000004946C06E426800989047D8F80000BC
:100E900006EB050B07EB0409C06E5946426848464D
:100EA0009047D8F80000A6EB050A5146C06E42688C
:100EB00048469047002C1ED0D8F80000361B454607
:100EC000C06E314642680198904728683146C06E2E
:100ED00042680098904728683C1B5946C06E42689B
:100EE0002046904728685146C06E426802B02046AE
:100EF000BDE8F05F1047BDE8FC9F0000E40400205F
:100F00002DE9F047456804468EB00026284602F0D9
:100F1000E9FE00905C30B0F820A0D0F80C90D0F83A
:100F20002480C76A006800B10668684602F024FFA2
:100F300005E079682046884700283DD13F68002FAA
:100F4000F7D12068142844D009DCA0F10B00072851
:100F500039D2DFE800F0BE3989B434B4110020285A
:100F60007ED004DC17283ED01E282CD14BE026284A
:100F70003CD02A2827D110E02846E66802F0B2FECD
:100F80000190717A39B9317A012904D130F87C1F86
:100F900041F48071018001A88FE0284602F0A2FE92
:100FA0000090E16811B1C0F8841002E0D0F884002C
:100FB000E060684602F0E0FE0EB0BDE8F087002E6B
:100FC0007DD02846B0477AE02146284614F0FCFA46
:100FD000F2E705A9284600F0E3FBE0680699016006
:100FE00007994160E8E7C4F80C90E5E7E06802285B
:100FF000E2D10C95E0680D9027200A900AA9A0681C
:101000000CF0FEF9D8E7E068012804D0002128465A
:1010100000F02DFBD0E740460BF07BFA58B140467C
:101020000BF01EFC40460BF049F988B10121404607
:101030000AF010FC0CE048460BF060FC80462846A5
:1010400002F050FE0090C0F88080684602F094FEE6
:101050000121284600F00BFBB8F1000FACD100E0F5
:101060000EE00020E060A7E75FEA0A7027D4E0689E
:10107000C06820B3007A10B328460BF0F1FB1EE0E5
:10108000E668E6B1294670680BF0B7FF20B1012190
:10109000284615F033FE12E00021284615F02EFEFA
:1010A000294630680BF098FF48B1284602F01AFE36
:1010B00003903168C0F8801003A802F05DFE21465D
:1010C00028460AF03DFB00288CD020460AF0CCFED2
:1010D00072E7284602F006FE0090703002F060FDD4
:1010E0006846EAE7F0B587B0B0F908400DF10C0C9E
:1010F0000C9E87694568ACE8F000448A0025CDE97C
:1011000000150294B0F90C10B0F91050B0F90E406F
:10111000B0F90A00194410442B46224600F002F8A8
:1011200007B0F0BD2DE9F0478AB00DF14C0CDDE9B8
:101130001784BCE86006129F45F480556034DFF8E0
:10114000B8C0CDE902C4CDE900750AF0DDFD0400A8
:101150004DD002F0C7FD3022494604900AF010FD40
:101160000498282225493430FFF718FA0498234FB1
:101170005C30083FC0F8088006840026466206619D
:10118000C6627968016004A802F0F6FD05A9204650
:1011900000F006FB1A4841F2827103960094CDE9F3
:1011A0000110BDF91E00BDF91A10BDF91C20431A2B
:1011B000BDF918005B1C121A521C0AF0A5FD064668
:1011C0007868416820468847204602F08BFD0490ED
:1011D000866604A802F0D0FD42F20400054202D166
:1011E00020460AF0D9FE5146204600F091FA0AB096
:1011F0002046BDE8F0870000010F000870060020BF
:101200005F1900082DE9F041044694B0006800F031
:10121000B7F908B1D94D01E0D84D2C3560681528D3
:101220001ED00CDC0B281FD004DC00287ED0052843
:101230007DD12EE10E287BD01228F9D141E116286C
:1012400006D0172808D0182808D01C28F0D109E0AB
:10125000E86914B0BDE8F081286AFAE7686AF8E73F
:10126000A86AF6E76869F4E720680B901C200C90E8
:10127000206802F037FD0390016D0BA888470646F1
:1012800003A802F079FD022E0EDB95E807008DE839
:101290000700D4E904023346A16905F0FFFC206988
:1012A0008719A069801B2BE0286804F06DFE216976
:1012B000E8690A18521E606903F0DCFCA269E8695B
:1012C000111A491C606903F0D5FC676920697F1C0D
:1012D000394603F011FD3946A06903F00DFD686839
:1012E00004F052FE20693946401C03F005FDA06958
:1012F0003946401E03F000FD2769A069BF1C801E0F
:101300008046286804F040FE42463946606903F092
:10131000B1FC686804F038FE60694246401C3946FA
:1013200003F0A8FC686A02280FDD02E015E1AFE0D7
:1013300000E1A86804F028FE61696A6A881C8B18BD
:1013400001465B1E4246384627E0296AB14226DD47
:101350006069022E074600F1020801DB374401E014
:1013600007F10207206901DB304401E000F10200CF
:1013700022693B460A44A2F10102414603F094FD72
:10138000022E02DBA069821B01E0A269921EA06905
:10139000E9693B46401A401C414603F085FD022E98
:1013A00002DB6069064401E06669B61CE7692868EB
:1013B0007F1E04F0E9FD3A463146206903F0FAFC4D
:1013C0003A463146A06903F0F5FCE7696868BF1E3C
:1013D00004F0DAFD20693A46401C314603F0EAFC8D
:1013E000A0693A46401E314603F0E4FCE869022851
:1013F00002DC286A022823DDA86A022802DDE169EE
:101400000F1A01E0E769BF1EA86804F0BDFDE96995
:10141000022909DD20693B46421800F1020C521EE8
:101420003146604603F040FD286A022808DDA269C3
:10143000E8693B46101A401C921E314603F034FD09
:10144000286804F0A1FDD4E90620216903F012FC0C
:10145000686804F099FDA2692169E069521E491C7F
:10146000401E03F007FCA86A022811DD2669A16965
:10147000E469B61C271AA1F102087F1CA41EA86803
:1014800004F082FD234642463946304603F00CFD07
:1014900072E0208A06B2ADF81460A08A01B2ADF8FD
:1014A0001610208B02B2ADF81820A08B03B2ADF855
:1014B0001A30D5E90304CDE90004304603F0A6FB59
:1014C0005AE0208A298B0844ADF81400A08AADF8B0
:1014D0001600208B298B401AADF81800A08BADF8B0
:1014E0001A00206802F0FEFB0390006FF0B10220AA
:1014F00004F0A4FD039991F87C00C0F3C00001EB57
:101500008000006C04F040FD0398406B04F050FD37
:101510000398006F02F0E6FB03990A90B1F95A2094
:1015200005A903F08DF90AA802F026FC03A802F031
:1015300023FC21E0208AADF81400A08AADF8160043
:10154000208BADF81800A08BADF81A00A86804F045
:101550001BFD05A803F0CCFC0EE0206802F0C2FBE6
:10156000039030F85A1F41F00C01018003A802F0EB
:1015700003FC20680BF0EAF900206AE6AC060020C4
:1015800038B5002450B102F0ADFB009090F87C001B
:10159000000700D50124684602F0EEFB204638BD66
:1015A000022905D2034A52F821102C22FEF7F6BF79
:1015B000704700004851030830B504468BB00068FE
:1015C00002F090FB009090F87C10246A006FC1F349
:1015D000C00508B102F086FB0690E0680290206921
:1015E0000390A088401EADF81000E089ADF812000D
:1015F0002089401CADF81400608AADF81600BDF8D3
:101600000800401CADF80800BDF80A00401CADF809
:101610000A00BDF80C00401EADF80C000098406BAD
:1016200004F0C6FC009808AA02A9B0F95A3006983E
:1016300004F090FF009800EB8500806B07F024FF1A
:10164000009800EB8500006C07F056FF08AB02AA7B
:1016500004A906980AF0C8F9684602F08DFB0698BE
:1016600010B106A802F088FB0BB0002030BD0028A6
:1016700001D015F043BB7047074A0649054B11607E
:10168000064A083BD16958601B68C2E90630084623
:1016900070470000A00600206C06002070060020A5
:1016A00038B50D46040009D002F01CFB0090056619
:1016B000684602F061FB20460AF0C9FE38BD000012
:1016C00070B50D460146022D1ED2104C2C2254F846
:1016D0002500FEF763FF54F825100220CA69022A8C
:1016E00000DAC86154F825100A6A022A00DA086292
:1016F00054F825104A6A022A00DA486254F8251084
:101700008A6A022A00DA886270BD00004851030824
:101710007CB50D46040019D002F0E4FA0090006F89
:101720000190684602F028FB294601A805F038FE22
:1017300000280BD0204602F0D5FA009001990167ED
:10174000684602F019FB20460AF081FE7CBD38B5E0
:101750000C4605000ED002F0C5FA0090B0F95A1000
:10176000A14204D0A0F85A4028460AF070FE68460C
:1017700002F002FB38BD38B50C4605000FD002F070
:10178000B1FA0022009000EB8201521C0C64022A84
:10179000F9D3684602F0F0FA28460AF058FE38BD40
:1017A0002DE9F34F85B000270C46B846059802F0A6
:1017B00099FA0090C06D0121856805982A689047C4
:1017C00082462A6803210598904704902A680221DE
:1017D0000598904703902A6800210598904706468F
:1017E00000980BF0A7FA834600980BF0AAFA8146FE
:1017F000009890F83210890601D5B0F9588000F0B1
:1018000036F805460098C06E10B10AF036FD07465E
:1018100025806780A4F804A0049AABEB020006EBD5
:101820000802401E2A4420813A44E280039BA9EB2F
:101830000302521E6281A4F80CA020827019E68176
:10184000401E6082684602F097FAB4F90C000190DD
:10185000B4F91000029002AA01A9059800F039F825
:101860000198A0810298208207B0BDE8F08F10B5E2
:101870000146002091F83220920607D5B1F95400B4
:10188000002803D1486B03F003FC801C10BD70B529
:101890008AB00C46054602F025FA0990C06D8668AC
:1018A00009A802F069FA009534B1012C06D0022C87
:1018B0000BD0032C04D10AE0182000E01620019080
:1018C0007168684688470AB070BD1520F7E7172091
:1018D000F5E72DE9FC4790468946044602F002FAF6
:1018E0000090C16D056868468E6802F045FA32685E
:1018F000002120469047064620460AF0D3FB2F14CD
:1019000004462DB227E002F0EDF90190B0F9001085
:10191000B0F90420B0F90230491B521BDB1BB34263
:1019200012D190F82800000607D5D8F800008842A8
:101930000ADB491EC8F8001006E0D9F80000904202
:1019400002DC521CC9F8002001A802F015FA20465A
:101950000AF038FC0446002CD5D1BDE8FC872DE9FF
:10196000F0430446406885B006460AF032FC8146E2
:1019700002F0B8F90090D0F88080876C456E684618
:1019800002F0FAF92068172859D008DC0E2837D061
:101990000F280BD0142852D015283AD14FE01E281A
:1019A00018D01F2827D0222833D146E06FF070408E
:1019B000874204D0384607F067FD02F0E9FC002DAD
:1019C00012D0D4E902122068CDE90106CDE9031254
:1019D00001A822E0E068002806D05FEA080006D0EF
:1019E000B04504D00AF03CFF05B0BDE8F0833046B6
:1019F0000AF084FF16E02146484609F0A1FEF3E70D
:101A0000E0684168002904DD00680928EFD00A2851
:101A100005D0A5B12046C4F80490A847E4E73046B5
:101A20000AF074FF0446484602F05CF90090C0F8E2
:101A30008040684602F0A0F9D6E7E760D4E7204688
:101A40000AF012FAD0E700002DE9F74F14468A4653
:101A500002FB04F002EBD47100EB61062649AAEB0D
:101A600004080AEB04090868406948B1B0F9062087
:101A70004A4500DA9146B0F90200404500DD804653
:101A8000012527468B4616E0AAEB0501414511DBEF
:101A900049450FDC05FB05F007FB0702B24201DDFB
:101AA0007F1EF9E7DBF800300098DB6EC219C01B1F
:101AB0001B6898476D1CA542E6DB0025274616E00B
:101AC0000AEB0501414511DB49450FDC05FB05F03B
:101AD00007FB0702B24201DD7F1EF9E7DBF80030A9
:101AE0000098DB6EC219C01B1B6898476D1CA5428D
:101AF000E6DBBDE8FE8F0000E404002010B50446DC
:101B00000A280FD00D2C11D009480068C06901685F
:101B10002046884707480168002907D02046BDE8CD
:101B200010400847BDE8104002F0DABD10BD0000CB
:101B3000E40400200C0500202DE9F0430446C568AC
:101B400087B090468946002004F030FA064625B159
:101B5000287910B146F0020001E026F0020004F0FE
:101B600025FA2069012558B1D4E902128DE8260032
:101B7000039563882288046841464846A0471EE0D2
:101B8000124F134B214638681B68427CE068984727
:101B900030B9E088012801D0002001E03868806B6E
:101BA000A288E388A1680095CDE90410CDE902324E
:101BB0000195638822884146484607F073F807B0CC
:101BC0003046BDE8F04304F0F1B90000E404002021
:101BD000DC0400202DE9F0478146884640F2C3200E
:101BE00050434FF47A7190FBF1F502FB02F002EBE7
:101BF000D27100EB61066D1C174600234146484632
:101C0000FFF728F9012413E004FB04F007FB0700A9
:101C1000B04206DD3B46224641464846FFF71AF9E8
:101C20007F1E3B46224641464846FFF713F9641C97
:101C3000AC42E9DDBDE8F0871CB50024019401AC9D
:101C4000009400F0E7F81CBD2DE9FF4F83B08146FA
:101C500006988A46A0EB0A08109E00200090A2EB8E
:101C600009043568934654EA080018D02046FEF768
:101C700059FE07464046FEF755FE87420BDA2046DE
:101C8000444680464846D14682465846DDF818B05C
:101C9000069001200090002C07DD204606E007B0EA
:101CA0004846BDE8F04F00F03BB96042A0420AD080
:101CB0004846D9466442C8F1000883464FF0FF37D2
:101CC000DDF818A000E001275148B8F1000F11D04D
:101CD00004EBD4714FEA610B01DACBF1000B4C48F5
:101CE0000068807E88B3002F02DA306820443060BC
:101CF00000257BE000990029016821D0897E11B17F
:101D00000027804615E007B05A4649465046BDE8D0
:101D1000F04F07F02BB928466D1C15F04FF938B974
:101D2000D8F8000009EB0701C06E426850469047A2
:101D30007F1CA742EFDD6D1E356007B0BDE8F08F58
:101D40008A7E1AB10027804617E019E0C86E5A460D
:101D50005146036807B04846BDE8F04F184728468B
:101D60006D1C15F02BF938B9D8F8001009EB0700F5
:101D7000C96E4A68514690477F1CA742EFDDDAE7FB
:101D800000250FE008FB05B090FBF4F101EB0A0021
:101D9000009951B11E4A09EB05011268D26E5268D2
:101DA00090476D1CA542EDDDC7E7194909EB050316
:101DB0000968C96E4A6801461846F1E708FB05B094
:101DC00090FBF4F101EB0A00019030683844306078
:101DD00015F0F4F848B9009890B10D4809EB0501E9
:101DE0000068C06E4268019890476D1CA542E5DD11
:101DF0003068002F01DA20443060C01B30609CE75F
:101E0000034909EB05000968C96E4A680199EBE7C7
:101E1000E40400202DE9FF470F464049164680465E
:101E200009680C981D460A7E012A1CD0A8EB060002
:101E3000791B50EA01031CD0A2F1010916F07CFDC8
:101E400000F58060824605F0D3FB00FB09F45046A4
:101E500005F0D2FB00FB09F1002C0CDAC4F5007090
:101E6000801240420AE00090324639464046FFF771
:101E7000EBFEBDE8FF8704F50074A012002904DA28
:101E8000C1F5007189124C4202E001F500718C121B
:101E9000002804DD411C01EBD171491003E000EB87
:101EA000D0714910401E00EBD0704210002C04DDB0
:101EB000601C00EBD070401003E004EBD4704010C5
:101EC000641E04EBD47308EB0104ADF800403C1829
:101ED000ADF80240A8EB02045B10B21AADF8044062
:101EE000ADF808203144FC1AEA1AADF80C10284469
:101EF000ADF80A20ADF80E000023ADF806401A46F2
:101F00000421684600F08CF8394640460FF054FD35
:101F1000294630460FF050FDABE70000E4040020F6
:101F2000064A13681A7E012A05D0521E02EBD272AD
:101F3000521000F005B8DA6E52681047E404002031
:101F40002DE9F05F0646884640F2C32050434FF427
:101F50007A7190FBF1F702FB02F002EBD27100EB19
:101F6000610B254914467F1C09683244301BC96E39
:101F70000B684146984701253AE000BF05FB05F094
:101F800004FB040159451CDDBC4219DD1A4B06EB6C
:101F9000050AA6EB05091B68AAF1010208EB04017A
:101FA000DB6E09F101001B689847134BAAF101028F
:101FB000A8EB04011B6809F10100DB6E1B68984760
:101FC000641E0D4806EB040AA6EB0409006808EB42
:101FD00005015246C06E0368484698470648A8EB7C
:101FE000050152460068C06E0368484698476D1C5C
:101FF000BD42C3DDBDE8F09FE404002070B5144687
:102000000E4605460119001B01F00AFD2246314625
:102010002846FFF719FDBDE8704001F02DBC000017
:102020002DE9FF4F40F6FF740F46664283B09B4692
:10203000814600210BE000BF09EB8100B0F90200EE
:10204000A04200DA0446B04200DD0646491CB9420F
:10205000F2DB68480068406900280DD0B0F906102E
:102060001A46A1EB0B01B14200DA0E46B0F90200AC
:10207000801AA04200DD0446B5E0DFF87CA1002014
:102080000546CAF8000089E0781E854201DA6B1C1B
:1020900000E0002309EB850C09EB8302BCF9020088
:1020A000B2F90210A04245D1A14215D139F923302D
:1020B000059A39F9251003EB020C4E4A059812686F
:1020C000084404EB0B01D26E6045136801DA6246E6
:1020D0002BE00246604628E02846A4464FF0000860
:1020E0007A1E0BE008B1401E00E0781E09EB800369
:1020F000B3F90230634504D108F101089045F1DBE2
:102100002346A34249D0A3EB040239F92500A1EBF1
:10211000040C059B92EA0C0209D4364A184404EBDD
:102120000B011268D26E13680246984735E00BF037
:10213000C5FA32E0A14230D001DBA04203DDA0426B
:102140002BDBA14229DCE04688420ADC0346A042A0
:1021500023DC0846A14220DBB8F900C0B2F9001028
:1021600008E00B46A14218DCA04216DBB2F900C021
:10217000B8F90010E21AA1EB0C0151430029A0EBC1
:10218000030202DD01EB620102E0A1EB6201491CE6
:10219000C01A91FBF0F06044C9E76D1CBD42FFF628
:1021A00073AF0598009004EB0B000190002080466F
:1021B000054613E01149B8F1000F31F915A009D017
:1021C000009901EB0A0208440A490968C96E0B68C4
:1021D0000199984788F0010850466D1C0649096826
:1021E0008D42E7DB641CB4427FF747AF07B0BDE820
:1021F000F08F0000E4040020600900201CD00020C3
:1022000010B5002003F0BCFE6FF07F4003F0BCFE71
:10221000012003F001FF002003F006FF002003F07F
:102220000DFF002003F0C2FE0448006803F0C0FE6A
:10223000BDE81040002003F0CBBE0000E004002009
:102240002DE9F047002426464FF080494FF0010861
:10225000204617F03BFF02460B460020494616F089
:1022600069FF07460D4608FA04F017F018FF3A46D2
:102270002B4617F07BFF07460D46304617F026FF2A
:102280003A462B4617F09AFC17F0DCFE641CE4B2C9
:1022900086B2102CDCD33046BDE8F0872DE9FF4133
:1022A000002206460092019202926D46CDF80C2063
:1022B00001F00100A854521C4908D2B2102AF7D3E9
:1022C0000024012707FA04F081B22A5D304605F0A8
:1022D000CDFA641CE4B2102CF4D3BDE8FF810000F9
:1022E00030B5002300E05B1CC25C002AFBD1012456
:1022F000224603E004EB84046400521CB1FBF4F5B5
:102300000A2DF7D2002403440A209C540BE000BF9E
:10231000B1FBF0F400FB1414B1FBF0F19D18303464
:1023200005F8014C521E002AF2D130BD10B5002232
:10233000134600E0521C845C002CFBD102E0845464
:10234000521C5B1CCC5C002CF9D10021815410BDC7
:1023500010B50BA117A000F09DFC012000F0C0FA01
:10236000012002F047FD04460FF020FD4FF47A6093
:1023700000F000FE2046BDE8104002F03BBD00002A
:102380004F757470757420616E7469616C696173E6
:10239000656420746578740A6F6E2064696666658A
:1023A00072656E74206261636B67726F756E6473C1
:1023B0002E000000416E7469616C69617365642070
:1023C00054657874000000002DE9F041002723A136
:1023D0002CA000F05FFC06F0B9FE064606F0BEFE3B
:1023E0000446C438032190FBF1F12B4D2B4AC83E23
:1023F000E96013885B1DB3EB660F03DB5088401D5B
:10240000884200DA012726A002F010FE314601269C
:10241000B0EB610F05DBE868283C4000C430A04207
:1024200000DA2E60224803F0C3FD044602F0F2FDFC
:10243000E968401C884200DA6E60204603F0B8FD6F
:1024400038460EF0CFFC01F00FFA032001F0F4FA49
:102450000BF098FABDE8F04101F0FEB94578616DE6
:10246000706C657320666F72207468650A6175749C
:102470006F6D6F7469766520696E647573747269C7
:10248000650000004175746F6D6F74697665207327
:10249000616D706C6573000068000020E41C030827
:1024A0006D7365632F706963747572653A0A000015
:1024B000642F020810B507A114A000F0EBFB002068
:1024C00000F00EFA0BF042FBBDE810404FF47A60CA
:1024D00000F050BD53686F77696E670A646966667D
:1024E0006572656E74206269746D617073207769BE
:1024F00074680A616E6420776974686F757420630C
:102500006F6D7072657373696F6E00004269746DF0
:102510006170730010B5084C02E00A2002F0B0F8B8
:10252000606A0128F9D0A06A01284FF0000001D1AB
:10253000A062012010BD0000140000202DE9F04F22
:1025400097B0502102A8FEF785F806F0FFFD8346FC
:1025500006F004FE0446864986A000F09BFB01209D
:1025600000F0BEF96FF07F49484603F00DFD844846
:1025700003F01EFD4FEA6B010C2282A002F046F927
:10258000834803F015FD2B22012182A002F036F9C9
:102590003F22012180A002F031F95322012180A0C5
:1025A00002F02CF9622201217FA002F027F97122AA
:1025B00001217FA002F022F9852201217EA002F0F4
:1025C0001DF9992201217EA002F018F97E4803F03E
:1025D000EFFC06F021FD014602A8FFF781FE7BA17A
:1025E00002A8FFF7A3FE092006F032FD05000BD07C
:1025F00078A102A8FFF79AFE294602A8FFF770FE0D
:1026000075A102A8FFF792FEA4F119020C2102A8FD
:1026100002F0F4F800F074F906464FF4FA7A41F249
:10262000707798E000F06CF9801B4FF4FA6190FB32
:10263000F1F201FB1200491090FBF1F16FF07C0206
:102640004A4300EBC20050457EDCC0EB002090FB0B
:10265000FAF0C1EB0121484000EB002101EB0044FE
:102660004FF0FF08CDE90084A9EB040534235A4656
:102670002B213C2002F096FACDE900853E235A46F4
:1026800035213C2002F08EFA4FF47F48CDE90084DA
:1026900048235A463F213C2002F084FACDE90085C8
:1026A00052235A4649213C2002F07CFA4FF47F081D
:1026B000CDE900845C235A4653213C2002F072FA93
:1026C000CDE9008566235A465D213C2002F06AFA76
:1026D0004348CDE9000470235A4667213C2002F0AC
:1026E00061FA4FF6FF78CDE900857A235A467121C9
:1026F0003C2002F057FACDE9008484235A467B211E
:102700003C2002F04FFA4FEA0828CDE900858E23DD
:102710005A4685213C2002F045FACDE900849823F1
:102720005A468F213C2002F03DFA4FF0FF18CDE9C8
:102730000085A2235A4699213C2002F033FAAC23AB
:10274000A3215A463C2000E005E0CDE9008402F0D8
:1027500029FA02F08FFB00F0D3F8801BB84204DAAC
:10276000FFF7D8FE00283FF45DAF17B0BDE8F08F4B
:10277000C4690308436F6C6F7220626172000000CD
:10278000642F0208436F6C6F7220626172730000E5
:102790008849030852656400477265656E00000051
:1027A000426C75650000000047726579000000000A
:1027B00059656C6C6F7700004379616E0000000012
:1027C0004D6167656E746100282703082062707090
:1027D000000000002C20000020636F6C6F727300FB
:1027E000808080000349016008214160052101814A
:1027F000704700009800002010B50DA115A000F052
:1028000049FA012000F06CF801F0A4FC0BF03EFF47
:102810004FF47A6000F0AEFB01F078FD002108462D
:1028200001F034FDBDE810400C4801F0C3BC0000CD
:102830005354656D57696E20737570706F72747341
:102840000A736F66747761726520637572736F7255
:1028500000000000437572736F720000F81E0308D9
:102860002DE9F0471D4F04464FF404794946B868F6
:1028700009F010FC8046642C05DD4946B86809F073
:1028800009FC0AF0D6F80021404608F0A3F92246D8
:102890000021404608F075F902F0D2FB4FEA00062D
:1028A00000F02EF8851B642C03DD2946404608F015
:1028B00091F9052001F0E4FEFFF72CFEA54201D2BC
:1028C0000028EDD0642C05DD4946B86809F0E2FB2C
:1028D00009F004FDBDE8F04702F0CCBA1400002076
:1028E00001490969084700001400002003490989CB
:1028F000014201D00120704700207047F8CD002030
:1029000010B5054C606A08B1206A10BD02F098FB52
:10291000E169401A10BD000014000020054810B500
:10292000C06809F0DBFC09F0A9FBBDE810400AF023
:1029300093B80000140000202DE9F04188B0202257
:1029400038496846FDF72AFE06F000FC054606F009
:1029500005FC04466E100020FFF7C2FF022003F0C2
:102960006DFB6FF07F48404603F00EFB2E4803F0EE
:102970001FFB44F3191231462CA001F047FF2D48EC
:1029800003F016FB04EB440000EBC4008211314657
:1029900029A001F03BFF364803F0F6FA162004FBAD
:1029A00000F7BA11314633A001F030FF3D4803F083
:1029B000FFFA122000EBA71231463BA001F026FFE0
:1029C000404603F0E1FA1B4803F0F2FA02F03AFB4A
:1029D00001466846FDF74FFDC4EB441082113146B5
:1029E000684601F013FF26206043821136480088B4
:1029F000281A4110354801F0CDFF404603F0C4FAD3
:102A0000094803F0D5FAC4EBC40040F3D9023146BB
:102A10002FA001F0FBFE41F28830FFF721FF08B044
:102A2000BDE8F081E4FC0108642F02085354656D91
:102A300057696E0088490308556E6976657273613F
:102A40006C206772617068696320736F6674776168
:102A500072650A666F7220656D62656464656420E4
:102A60006170706C69636174696F6E73000000005F
:102A7000FF882200466F722053544D3332204D435D
:102A8000552050726F6475637473202D20436F72EC
:102A9000746578204D33202D20436F727465782043
:102AA0004D340000102E0308436F6D70696C65642F
:102AB000204A756E20203920323031362031303AAC
:102AC00034353A3134000000545D020888F60208BB
:102AD0007777772E73742E636F6D2F73746D333227
:102AE0000000000010B506A110A000F0D3F80120EE
:102AF000FFF7F6FE00F0C8F8BDE810400BF07EBD11
:102B000053686F777320736F6D65206665617475A8
:102B1000726573206F660A746865204C4953545679
:102B20004557207769646765740000004C697374C9
:102B3000766965772064656D6F0000008CB0294967
:102B4000294802F069FE09F099FA284909F0FCFDCC
:102B5000FEF7ECF800216846FEF722FD002421462E
:102B600068460594FEF7ACFD01216846FEF718FDA6
:102B7000012168460594FEF7A3FD1D48FEF77CFD84
:102B80001C4807F0E1FF1C48FEF7B0F81B4808F0AE
:102B900045FB1B4808F01AFC1A4805F0D7FF022035
:102BA00003F04CFA1848FFF71DFE06F035FA0D4CFD
:102BB0002C3C102813DB0420FFF798FE78B101F0BD
:102BC00079F8B0F5001F01DD104800E010482061E1
:102BD000012000F02FF800BF12F00AF8FCE70D48C2
:102BE000F5E7000040000020F9890108C1890108CB
:102BF000C92A0108C5AA0008B50A000881B0000862
:102C0000CDB20008718A0008F8CD0020910E0108AD
:102C1000A10D0108C10F0108054810B58169491CC3
:102C200081610BF0A1F9BDE8104000F069B9000026
:102C30001400002000B10120014908707047000015
:102C400014000020044810B5806809F0F2FEBDE8C9
:102C5000104002F00FB900001400002070B5094CBC
:102C60000546E06809F048FC002809D04FF4B0712F
:102C7000E06809F00FFA2946BDE8704008F0D2BCC0
:102C800070BD0000140000200148C06809F0D1BEEA
:102C9000140000202DE9F0410C46064606F056FAD5
:102CA000054606F05BFA6D104710FFF737FEFFF799
:102CB000C9FF02F0DFF80120FFF712FE6FF07F403E
:102CC00003F062F9022003F0B9F9104803F070F93B
:102CD0003C222946304601F099FD0D4803F068F981
:102CE00002F098F93A1A294620460A3201F08EFD80
:102CF000002200E0521CA05C0028FBD1BDE8F0419E
:102D000002EB8200000100F035B90000642F0208D8
:102D1000884903082DE9F04FA1B0282107A8FDF745
:102D200099FC06F013FA054606F018FA044606F078
:102D300001FA074601F00EFAA7420BDD0020ADF8BC
:102D40007400ADF87600ADF87850ADF87A401DA863
:102D500003F018F954A160A0FFF79CFFDFF88491FD
:102D600000270DF1440800BF59F8270001F058FB77
:102D700048F827007F1C082FF6DBFFF7C1FD074648
:102D80004FF0000941F2883A51E000BF09F0070115
:102D900058F8210003F0FAF8FDF74EFA90FBF5F130
:102DA00005FB110005EBD571A0EB61000FFA80FB6C
:102DB000FDF742FA90FBF4F104FB110004EBD4712F
:102DC000A0EB610001B21F91FDF736FA90FBF5F11F
:102DD00005FB1101143101EB0B0002B262F30F0687
:102DE0000592FDF729FA90FBF4F104FB11001F99FD
:102DF0001430084403B263F31F4602935846059A01
:102E000002F052F8059AAA4202DB681E60F30F0630
:102E10000298A04202DB601E60F31F46301402D508
:102E2000002060F31F4602F025F809F10109FFF7C1
:102E300067FDC11B514503DAFFF76CFB0028A5D0E5
:102E4000FFF7EAFE11F0B3F90646002003F09AF806
:102E50000020FFF745FD6FF07F4003F095F802205A
:102E600003F0ECF8204803F0A3F8052211461F48B0
:102E700001F090FD1EA107A8FFF758FA314607A8F8
:102E8000FFF72EFA02F0CEF8201A4210691007A8B8
:102E900001F0BCFC4FF47A60FFF7E2FC01F036FA77
:102EA00021B0BDE8F08F00004D756C7469206C6135
:102EB00079657220636C697070696E670A4869672A
:102EC000686C79206F7074696D697A6564206472CA
:102ED00069766572730000004869676820737065E1
:102EE00065640000F81C0308642F0208E41C030852
:102EF000506978656C732F7365633A200000000099
:102F000030B585B014216846FDF7A4FB134C4FF48F
:102F1000B071A06809F0BEF8054611A16846FFF738
:102F200005FA61696846491CFFF7DAF90EA168469F
:102F3000FFF7FCF96846A169FFF7D2F90BA16846D3
:102F4000FFF7F4F90A4841686846491EFFF7C8F9D7
:102F50006946284608F066FB05B030BD1400002025
:102F600044656D6F200000002E0000002F0000005F
:102F7000F8CD002010B5FFF773FCBDE81040FFF757
:102F80004BBE70B50C46054600F0EEF8A868216807
:102F9000C16261680163A1684163490707D5D0E94F
:102FA0000021C0E90012D0E90221C0E90212A18982
:102FB00081842169002903D001DC4FF00001016206
:102FC00070BD2DE9F0411E4617468846054600F0C3
:102FD000CBF8AC686822414604F58470FDF7DEFA50
:102FE0002846B8472846B047286980688047A062CD
:102FF000BDE8F08110B5044600F0B6F8A0680C49B1
:10300000483001660B49C1650B4941660B49C166F1
:103010000B4981660B4981670B49C16730F8221C57
:1030200021F0030120F8221C0849816410BD000032
:10303000B17001087975010875700108F769010818
:10304000DF690108096B0108416B01088D6F0108F8
:1030500010B5044600F088F8A4680C48903410219C
:1030600020650B4860650B48A0650B48E0650B4880
:10307000E0600B482061206BA06654F89029204640
:1030800090471020A0630748606410BD4D020108FE
:10309000BD2C0108A9300008D9310008C169010818
:1030A000557F01086C670308F8B5846815460F461C
:1030B00094F8260080074CD5D4F8FC302046984779
:1030C0000646D4F800312A46394620469847D4F8B7
:1030D000943005461BB10022012120469847206903
:1030E000B04201DD012000E00020A169B14201DA17
:1030F000012100E0002108436169A94201DD0121AD
:1031000000E000210843E169A94201DA012100E061
:10311000002108430AD06068401E00902368D4F85C
:10312000A4705B1E002211462046B847D4F8A83090
:103130002A46314620469847D4F89C1020468847B6
:10314000D4F8943005466BB10122002120469847FF
:1031500008E0D4F8A83020469847D4F89C102046C0
:10316000884705462846F8BD70B5044680680028A3
:1031700012D14FF4B875284600F028FD2A460021E8
:10318000A06004F0B9F9A0680221C184012104649F
:1031900001620249C0F8041170BD0000A1310008AD
:1031A00010B590B0044620220A496846FDF7F6F9AA
:1031B00008492022203108A8FDF7F0F9606B5DF87E
:1031C0002010C4F8FC1008A951F82000C4F8000130
:1031D00010B010BDEC2003082DE9F8438468984630
:1031E000154694F826000F46800740D5D4F8FC30E9
:1031F000204698470646D4F800312A4639462046EC
:10320000984705462069B04201DD012000E000201A
:10321000A169B14201DA012100E00021084361699E
:10322000A94201DD012100E000210843E169A94232
:1032300001DA012100E0002108430AD06068401E45
:1032400000902368D4F8A4705B1E0022114620462B
:10325000B847D4F8A8302A46314620469847D4F8D3
:10326000A02001B041462046BDE8F0431047D4F805
:10327000A830F2E72DE9F04FDFF828B191B04FF018
:10328000FF35DBF80030B3F922100691DE69B3F99F
:1032900024A0F469A189814206D8E289824203D33D
:1032A000471AD4F8008012E0D4E90181002970D0D7
:1032B0000A8882426DD84D8885426AD3801A82B2CC
:1032C000486800EB8200B0F90070B0F90250781C39
:1032D0005FD0307EA27C014600FB02F9207CCDE964
:1032E0000810B3F92A60304606F018F9C0B20E9003
:1032F000DBF8001007FB0980A37C8A6B0127CDE96E
:103300000402CDE90273C869DDE90832C17E807E1E
:10331000CDE900015146069805F0C4FC681C18D0A0
:1033200046F0020006F0FAF8DBF80000A37C05FB8B
:103330000981826BCDE90273CDE90412C069DDE930
:103340000832C17E807ECDE900015146069805F025
:10335000A9FCDBF800005D46C069417E007E814229
:1033600014D9022E12D086F0040006F0D7F828688F
:10337000C069027EC37E857E02FB03A1437E099A5B
:103380000698534402FB050205F01AFE0E9806F05B
:10339000C5F8DBF80000627C418C1144418411B017
:1033A000BDE8F08FE404002004480068C069C069EB
:1033B00009B1027C0A60407C70470000E4040020F0
:1033C000022008807047C06982898A4202D8C28977
:1033D0008A4210D2806880B102888A420DD8438820
:1033E0008B420AD3406800EB8100A0EB8200B0F969
:1033F0000000002801DB012070470020704700001A
:10340000F0B52B4D044687B028682146B0F92A60F4
:10341000C069C06900F0DEF9002847D04168008823
:10342000201A00EB400001EB80042078C01C8708C4
:10343000304606F073F806461E48D0F800C0BCF1CE
:10344000000F19D00021A068CDE90401022201205B
:1034500001A9009085C1286894F90320DCF8007068
:10346000B0F92410B0F92200114494F902206378D5
:1034700010442278B84711E0A068CDE900702868B0
:1034800094F903206378B0F92410B0F922001144B4
:1034900094F902201044227800F0D6FA304606F063
:1034A0003DF828682279418C1144418407B0F0BD71
:1034B000E404002010050020F0B52B4D044687B031
:1034C00028682146B0F92A60C069C06900F082F915
:1034D000002847D041680088201A00EB400001EB2B
:1034E00080042078401C4708304606F017F806464E
:1034F0001E48D0F800C0BCF1000F19D00021A06810
:10350000CDE904010422012001A9009085C12868A9
:1035100094F90320DCF80070B0F92410B0F922000F
:10352000114494F90220637810442278B84711E0DE
:10353000A068CDE90070286894F903206378B0F999
:103540002410B0F92200114494F90220104422788A
:1035500000F09EFA304605F0E1FF28682279418CA0
:103560001144418407B0F0BDE404002010050020A0
:103570002DE9F0432F4C034687B020681946B0F977
:103580002A80C069C06900F05CF900284ED041680B
:103590000088181A01EBC0054046AE7805F0BEFF62
:1035A000814620686A680123816BCDE90236CDE946
:1035B0000421C169CB7E8A7ECDE900230B7EB0F960
:1035C00024102A78B0F9220005F06CFB2068C0694D
:1035D000477E067EB7421DD9C07E47434643B8F1B9
:1035E000020F17D001F005FD804601F0E5FC02F066
:1035F000CBFC21682A78CB69B1F92200B1F92410FB
:10360000DB7E02FB0302CB19314405F0D9FC4046B6
:1036100002F0BAFC484605F081FF20686A78C36969
:10362000B0F922109B7E02FB0311418407B0BDE874
:10363000F0830000E404002030B50F4C05460B4633
:1036400020682946C069C06900F0C4F8002812D07B
:10365000416800882468281A00EB40020420E469CD
:1036600000EB8200085CA47E6043002B03D011F8BD
:1036700022106143196030BDE404002003460D4868
:1036800010B500680C461946C069C06900F0A2F880
:1036900070B141680088181A00EB400001EB80000F
:1036A000D0E9001280682160C4E90120002010BD2B
:1036B000012010BDE404002001200880704700B5FF
:1036C000C06900F087F8002800D0012000BD00008C
:1036D0002DE9F35F0E46002501F08BFCDFF8A88092
:1036E0008346D8F8000090F82A00400702D501F080
:1036F00080FC01E001F060FC02F046FCD8F800001C
:103700000024C269B0F92290B0F92470517ED27EB3
:1037100001FB02FA1EE0684602F098FD0546D8F863
:1037200000002946C069C06900F054F890B14168B2
:103730000088281A00EB400001EB800090F902108D
:1037400000790844D8F80010C969897E48430028E8
:1037500000DD0444761EDED51DB1284603F0C0FC12
:10376000044407EB0A0309EB04025B1E4846521EA1
:10377000394605F025FC584602F006FC03490120B5
:103780000870BDE8FC9F0000E40400205005002004
:103790002DE9F3410D4D0E4F0E462868B0F92A4031
:1037A000A0070AD17A680098904706E0684602F0C0
:1037B0004DFD2968C96909688847761EF6D500203D
:1037C000387028684485BDE8FC810000E4040020CE
:1037D0005005002006E002888A4202D842888A42C8
:1037E00002D280680028F6D17047000030B50E4C38
:1037F00005460B4620682946C069C06900F021F8DB
:10380000002810D04168008824682A1A0120E46941
:1038100000EBC200085CA47E6043002B03D011F8CB
:1038200032106143196030BDE4040020012008809B
:10383000704700B5C06900F004F8002800D00120EE
:1038400000BD06E002888A4202D842888A4202D23B
:1038500080680028F6D1704702490020096881F885
:1038600071007047E404002002490120096881F8D2
:1038700071007047E404002010B50FF0A1FD04486A
:10388000016A04480068C16600F10801416110BD89
:103890008C040020E40400207CB514460D46064646
:1038A00009F00EFA064409F019FA054415480068B3
:1038B00090F8711021B990F870104E434D434C436D
:1038C000301B00F059F8ADF80000301900F054F842
:1038D000ADF80400281B00F04FF8ADF802002819DD
:1038E00000F04AF8ADF80600684609F031FA06E043
:1038F000224629463046FEF781FB09F0C1F900282F
:10390000F6D17CBDE40400202DE9FC471C46154699
:103910008846814609F0D4F9054409F0DFF90444EA
:10392000002009F015FA00281FD0114E114F122166
:103930003068407C57F820000190C068426A01A8B6
:1039400090475FEA000C06D02B4642464946009459
:103950000198E04705E023462A46414648460FF0D5
:10396000DDF809F08DF90028E1D1BDE8FC87000001
:10397000E4040020FC0400200449096891F8701058
:1039800009B190FBF1F000B270470000E4040020A0
:103990002DE9F0411E4C05460E462068002768B907
:1039A00005F0C5FBE06100F011F9206068B304F197
:1039B000240118480860084603F0B2FC002D00DA24
:1039C0000025E169731B4A1E2046934201DD6E18F3
:1039D000761EAE4201DA2E4601270F4C2268D16EC8
:1039E0004B68836301620A490C4B34310B60D1662A
:1039F00002C862C00AF0A4FAFDF712FA044821686E
:103A00002C3048613846BDE8F0810127D6E7000038
:103A10008C0400203D4F0108E40400200517010834
:103A2000044A126892F8702090FBF2F091FBF2F1D8
:103A3000FFF7AEBFE40400200249096881F8700076
:103A4000FDF7EEB9E4040020FEB50E4EDDE90854A2
:103A50003668367C16F003060CD0012E03D0022EF9
:103A60000DD0032E05D1084ECDE9005402960DF07D
:103A70000DFBFEBDCDE900540DF0B6FAFEBD034EC0
:103A8000F2E70000E4040020DD95000855950008E9
:103A9000FEB50E4EDDE908543668367C16F0030696
:103AA0000CD0012E03D0022E0DD0032E05D1084ECE
:103AB000CDE9005402960DF097FBFEBDCDE9005410
:103AC0000DF042FBFEBD034EF2E70000E4040020CF
:103AD000DD95000855950008F8B505460C000DD099
:103AE000084600F015F8060010D000F0FBF822465A
:103AF00000902DB12946FCF7CAFC04E00020F8BD77
:103B0000002103F0F9FC684600F036F93046F8BDB4
:103B1000002801D009F0D8BE704738B50546FFF738
:103B2000F7FF040009D000F0DDF82A4600210090DC
:103B300003F0E2FC684600F01FF9204638BD0000A3
:103B4000024A106021F0030050607047C0CE002090
:103B500010B5002814D004460A48006B10F8341041
:103B600000290DD002290BD2042101EBC4014158D8
:103B7000486809F0BFFD2046BDE8104012F00EBFB6
:103B800010BD000004CE0020002805D0034A916B30
:103B9000016001B1486090637047000004CE0020CE
:103BA00010B504460068FFF7D3FF0020206010BD69
:103BB00070B50D460646002405E000BF06EB840004
:103BC000FFF7EEFF641CAC42F8DB70BD2DE9F0415D
:103BD000044610F0B7FE2648E41C24F00305C16B30
:103BE0002D1DA94200D90D46846B13E054F8042C16
:103BF000AA420ED184B1216809B162684A60616845
:103C000009B122680A60826BA2422ED121688163C9
:103C10002BE02468002CE9D18046416B80680F18A6
:103C200057F8040C3E1A306838B1002013F000F841
:103C300057F8040C3E1A3068B8B97068A84214DB13
:103C40003044441B304612F0ABFFD8F80810491B33
:103C5000C8F80810D8F810102944C8F81010706877
:103C60003146401B09F046FD20C42046BDE8F081E6
:103C700004CE002010B5002410F064FE0C490F2083
:103C800001EBC002126C1AB101EBC000006C08E03D
:103C9000401EF5D508E04168A14200D90C46806875
:103CA00010B180680028F6D1A4F10C0010BD00000E
:103CB00004CE0020034800680C38002800DC0020F7
:103CC0007047000004CE0020002138B104490422CE
:103CD00002EBC000096B085841680C390846704770
:103CE00004CE002005498A69521C8A61096B01EBE8
:103CF000C0010A78521C0A7000F056B804CE0020A9
:103D00007CB506460C460846FFF702FF05001CD0AE
:103D1000DEB13046FFF7D8FFA04200DA044628465D
:103D2000FFF7E0FF00903046FFF7DCFF014601900F
:103D300022460098FCF7ABFB684600F01DF801A88E
:103D400000F01AF83046FFF703FF28467CBD00005C
:103D500010B5FFF78FFF64220649B0F5800F04D934
:103D600090FBF2F0C969484310BDC9694143B1FBFA
:103D7000F2F010BD04CE00200A4902680B6B52F825
:103D8000082C03EBC2021378022B03D38B690BB10F
:103D90005B1E8B611178491E11700021016008467D
:103DA0007047000004CE0020002806D003490422FA
:103DB00002EBC000096B08580830704704CE0020A1
:103DC0002DE9FC414FF000060B465FEA000834463F
:103DD0002BD032B111461846FFF77EFE060000D107
:103DE00001244046FFF77EFF00900788456868463B
:103DF000FFF7C2FFCCB9B900091D2846FFF780FFC5
:103E0000050015D0FFF76EFF019040F8276001A86C
:103E1000FFF7B2FF4046FFF765FF0090456001885D
:103E2000491C01806846FFF7A7FF2046BDE8FC81DA
:103E30003046FFF78DFE0124F7E70820FFF76DBE3F
:103E40007CB5050023D0FFF74DFF00904068C0B15E
:103E5000FFF748FF0024019005E0019800EB840083
:103E6000FFF79EFE641C00980088A042F5DC01A8C4
:103E7000FFF782FF0098001DFFF792FE00990020D7
:103E800008806846FFF778FF2846FFF761FE7CBD93
:103E90001CB50C46FFF726FF00900188A1421CD9F3
:103EA0004068D0B1FFF71EFF019000EB8400FFF7E0
:103EB00077FE00990888401E80B20880401E019954
:103EC00006E000BF01EB8402526841F82420641C24
:103ED0008442F7DD01A8FFF74FFF6846FFF74CFF6C
:103EE0001CBD38B5002430B1FFF7FCFE00900488FB
:103EF0006846FFF741FF204638BD38B50D4600241F
:103F000048B1FFF7EFFE2946009000F0B6F80446EE
:103F10006846FFF731FF204638BD2DE9FE430C46C9
:103F20005FEA00083DD0FFF7DDFE00900688476895
:103F30006846FFF721FFB44233D2B000001DFFF7FF
:103F4000ECFD05002DD0FFF7CDFE01903846FFF7C0
:103F5000C9FE01460290A2000198FCF71FFB301B2E
:103F60008200029800EB8401019800EB8400001DA0
:103F7000FCF714FB01A8FFF7FFFE02A8FFF7FCFE09
:103F80003846FFF7E5FD4046FFF7ACFE0090456080
:103F90000188491C01806846FFF7EEFE0120BDE85C
:103FA000FE830020FBE72DE9F04115460E4607464B
:103FB0000024FFF7B2FF30B12B46002231463846CD
:103FC00000F004F804462046BDE8F0812DE9FE43E8
:103FD000984691460D460024D0B3FFF783FE01902A
:103FE0000788466801A8FFF7C7FEBD4230D27EB3FE
:103FF0003046FFF777FE009050F825406846FFF7FF
:10400000BBFE24B12046FFF75FFE404511D040467D
:10401000FFF783FD04000CD03046FFF763FE00EB92
:10402000850500902846FFF7BBFD68462C60FFF72A
:10403000A3FEB9F1000F0BD054B12046FFF752FE9A
:10404000424649460290FCF722FA02A8FFF794FE86
:104050002046BDE8FE8338B50D4601880024A942FC
:1040600009D9406838B1FFF73DFE009050F825406F
:104070006846FFF781FE204638BD10B50024FFF7E3
:10408000EAFF10B1FFF72EFE0446204610BD70B5C2
:104090000C46054601F04CF8C1B223462846BDE85F
:1040A00070400022AFF30080F0B52D271C68B0F1FE
:1040B000004F08D0002500280DDA661C1E6027700E
:1040C0004042012408E0661C01251E606FF000409C
:1040D0002770491E01E00024091BC9B22AB3491EFA
:1040E000C9B222E00C46491EC9B2944205D1124C15
:1040F00027781C68661C1E602770104C54F82160DD
:1041000090FBF6F4E4B20A2C11D804FB160011B9A6
:104110000DB1641CE4B20A2C02D10124491CC9B2BD
:104120001E683034771C1F6034700029DAD119689A
:1041300000200870F0BD0000D8040020B853030828
:10414000034900EB800001EB8000407970470000DC
:1041500044CF002002480068407C00F003B8000013
:10416000E404002070B5054600EB850110480026E8
:1041700000EB81046671236953B150F82100E268B5
:1041800081684068521AA168091A184601F022FE97
:10419000284600F035FF18B1002101F017FF05E0B7
:1041A0002079002803D0206901F0FCFD267170BD44
:1041B00044CF002002490968497C00F003B80000A0
:1041C000E40400202DE9FC5F04468946084600F01F
:1041D00017FF2B4E09EB8907824656F827000190FE
:1041E00028484FF00108016841B92649C0F800800D
:1041F000091D25480860084603F092F8204A09EB9B
:1042000089015FEA0A0002EB81051BD001F06AFE1A
:1042100083464FF07F4001F0B3FE00F0B9F8002272
:104220001146206800F0B6FB20684288018850469D
:1042300001F0CAFE46F8274085F80580584601F08F
:1042400051FE17E046F8274085F805802869464664
:1042500018B101F089FD0020286174B10096E8686A
:10426000A1684B46421AA8686168411A206801F0AB
:10427000D5FD2861484613F021FB0198BDE8FC9F5D
:1042800044CF002018050020B14F0108024A1268EF
:10429000527C00F003B80000E404002070B506462C
:1042A0000D461446104600F0ABFE0300164804EB22
:1042B00084010AD050F8210041688068711A2A1AD6
:1042C000BDE87040184601F07DBE00EB8104A26895
:1042D000B24201D0012200E00022E368AB4201D0EB
:1042E000012300E000231A430CD0236943B150F8A6
:1042F0002100816840686A1A311A184601F06AFD87
:10430000C4E9026570BD000044CF00200248006887
:10431000407C00F003B80000E404002030B40949F8
:1043200000EB800201EB82040123637151F822103B
:1043300011B130BC13F0C2BA014630BC0248FFF7DD
:1043400041BF000044CF0020F81E030810B5C2B2E0
:10435000CBB2D21A02D5C2F1000212B293B2C0F3AC
:104360000722C1F3072403FB03F3121B01D55242BA
:1043700012B2000C92B2A0EB114002FB023200B26A
:10438000002801DA404200B280B200FB002010BDDC
:1043900010B50021084600F08FFE40F6FF72504233
:1043A000BDE8104013460146AFF300802DE9FC4103
:1043B00007461C4615460E46042005F0AFF8804619
:1043C0001148C068C16C006D0F4406440D4404449C
:1043D000ADF80070ADF80450ADF80260ADF80640DD
:1043E000684608F0B5FC07E023462A4631463846C1
:1043F00004F0E6FD08F044FC0028F5D1404605F045
:104400008DF8BDE8FC810000D8040020B0F906302A
:10441000B0F90420B0F90210B0F90000FFF7C6BFF0
:1044200004F032BC2DE9F8431C00DDE9089816467B
:104430000F46054602D107F021FE044600962E687D
:1044400043464A4621462846B047060035D007F085
:1044500009FE8146698A304607F0FCF9304608F0CB
:10446000E8FA484608F0E5FA4FF000080CE000BF13
:10447000CDF8008055F81CCF00231A46494628463F
:10448000E047E0B108F0D5FA7F1E002FF0DC1D21D7
:10449000484608F048F9601C0ED007F015FE30B110
:1044A000FFF782FC8469B44201D02000F8D1B44205
:1044B00002D0304608F022FA3046BDE8F883304694
:1044C00007F006FD0020F8E72DE9F0411C461646EE
:1044D0000D460746022B02DB0020BDE8F0811C20C0
:1044E000FFF774FB0028F8D00DB105610AE0094A16
:1044F00052F8241009B905E011460A68002AFBD1D8
:104500000969016184618682002101604160C0E91E
:104510000217E2E7FC04002070B51D46FFF7D4FF48
:10452000040001D000F00EF8E068006820B90348EC
:10453000006800EB85008465204670BDE40400201F
:10454000FFF722BB70B590B38269022A30DA1C4CA7
:1045500054F8221019B944F822002FE019464B688C
:10456000002BFBD106E0CB68C5681B682D68AB4209
:1045700003DD09680029F6D11AE0C1B1CB68C6682D
:104580001B683668B3420CD1838A012B05D008E042
:104590001946DB681B68AB4203DB0B68002BF7D1C5
:1045A00029B14B6833B118604A68426004E0FFE704
:1045B000012070BD44F8220048600160002070BDF9
:1045C000FC04002013F064BC022801DB00207047CB
:1045D000054A52F8200004E0C26812688A42F6D008
:1045E00000680028F8D17047FC040020022801DB95
:1045F00000207047054951F8200004E0C1680968AF
:104600000029F6D000680028F8D17047FC0400208B
:104610002DE9F8431D461646884604000CD0FFF7E6
:1046200061FB0090006807686846FFF7A5FB2B4612
:10463000324641462046B847BDE8F88338B5040005
:104640004FF000000AD02046FFF74CFB00900068B6
:1046500045686846FFF790FB2046A84738BD38B547
:1046600004004FF000000AD02046FFF73BFB00900B
:10467000006885686846FFF77FFB2046A84738BD7D
:1046800070B5044601F042FF051908E000F0F2FBA6
:10469000052C01DD052000E0204601F02BFF01F094
:1046A00035FF2C1A002CF1DC70BD0000024B1B689A
:1046B00059849A84FCF76EBBE40400207FB51E4643
:1046C00014460D46CDF80CD003AB00223146FFF75F
:1046D000EBFC22462946684600F090F87FBD0000BA
:1046E00000B500F097FC044909688A8C104488845E
:1046F000088C488400BD0000E40400202DE9FC473C
:1047000006005BD000F086FC3B4C81462068B0F987
:10471000228000F0A1FC216807468A8CD01B888487
:1047200041E000BF47F6FF71304602F0A1FC82462F
:104730000146304602F072FC2168054691F82C00D3
:1047400000F0030001283FD0022839D000204A8C15
:10475000101A4884ADF800006A1E1044ADF8040039
:10476000888CADF80200A9F101010844ADF80600FB
:104770006A465146304602F0ABF82168BDF80200A7
:1047800088845146304601F077FD064430780A2887
:104790001CD00D281AD0BDF8000021682844488498
:1047A000307818B1761C30780028BBD12068818C15
:1047B00039448184818D21F003018185BDE8FC8726
:1047C00005EBD5704010C2E72846C0E7206890F896
:1047D0002C1001F0030101290BD0022909D0018C12
:1047E000418431780A29DBD1828C02EB0901818472
:1047F000D6E7A0F82280F4E7E4040020024B1B680F
:1048000059849A84FFF77ABFE40400202DE9F0412F
:1048100007460A4815460E460068B0F92C0040F0DD
:10482000020001F001FC04462A4631463846FFF7F3
:10483000E5FF2046BDE8F04101F0F6BBE4040020AE
:1048400047F6FF73AFF300802DE9FC411F46904609
:1048500006000D464FF0000416D065B1084608F07A
:10486000CDF8040007D002462946684602F06DFCE8
:10487000684608F0C3F83B4642462946304602F0F7
:104880007FF8204608F0BAF8BDE8FC812DE9FF4F1B
:1048900085B090468A46070078D00C68DAF8046044
:1048A00021B230B2401A401C029000F0B3FB054622
:1048B00018F00C0F1ED03846089A029901F0F7FD47
:1048C00008F00C01042904D0082902D00C2911D1C8
:1048D00004E0311400FB1510401C09E02114C1EB69
:1048E000264200FB1520401C00EBD07001EB60005D
:1048F00060F31F44504601F045FBA5F1010B049005
:104900003846089A029902F0C5FD03904FEA2449FF
:1049100009EB0B0060F31F46CDE9004638460399CA
:1049200002F07CFB18F003010ED0012928D00229E7
:104930000ED1BAF90420BAF90010521A101A00EB7D
:10494000D07001EB600001E0BAF80000ADF80000A3
:104950006A463846039901F0BBFF3846089A029927
:1049600002F08EFD074409EB050060F31F44387820
:104970000028C5D1049809B0BDE8F04F01F002BB92
:10498000BAF80410081A401CE0E7FFE709B0BDE8D8
:10499000F08F00007CB5064610480068C36C006DBF
:1049A0005D1884183188681E0844ADF80400ADF81D
:1049B00000507188601E0844ADF80600ADF8024052
:1049C000684608F0C5F906E0224629463046FDF75C
:1049D000B3F808F055F90028F6D17CBDE4040020B6
:1049E0002DE9FF4F324F98460446B0F800B0B0F8BA
:1049F00002A0C66838682F4B89B0427C1B68DDF87E
:104A00005890214630469847050005D1E088012896
:104A100000D001E03868856B1EB1307908B1022002
:104A200000E0002001F0C2FA069038680A99C26CD2
:104A30005718016D0B98ADF81C700E18781E0BFB03
:104A40000800ADF82000701E0AFB0900ADF8220036
:104A5000ADF81E6007A808F07BF920E0206968B176
:104A6000D4E9023CCDE9003CCDE90289D0F800C090
:104A70006388228831463846E0470EE0A188E28804
:104A8000A068CDE90221CDE9040553465A463146D6
:104A90003846CDE9008904F005F908F0F1F800285E
:104AA000DCD106980DB0BDE8F04F01F07FBA0000F0
:104AB000E4040020DC0400207CB514460F4A126890
:104AC000D36C1E18106D4518301BADF8000030195E
:104AD000ADF80400281BADF802002819ADF8060057
:104AE000684608F035F906E0224629463046FDF7CB
:104AF00071F808F0C5F80028F6D17CBDE404002068
:104B00001CB50A460146684602F0FDFB2448BDF884
:104B10000010006830F84C2F1144ADF80010BDF8BB
:104B2000021082881144ADF80210BDF8041002880A
:104B30001144ADF80410BDF8061080880844ADF8A3
:104B40000600684608F004F927E000BFBDF9004000
:104B50000BE000BFBDF90210204604F0D3F9BDF907
:104B60000610204604F0CEF9A41CBDF90400A042B2
:104B7000F0DABDF902400AE0BDF90000214604F078
:104B8000C1F9BDF90400214604F0BCF9A41CBDF92B
:104B90000600A042F0DA08F073F80028D6D11CBD58
:104BA000E40400202DE9F04F0C46164987B00D684B
:104BB000DDE91098E96C0F18286D8D180619C418D6
:104BC000ADF81070ADF81450ADF81260ADF81640A5
:104BD00004A808F0BDF8002811D0DFF82CB04FF081
:104BE000000ACDE90098CDE902BA2B4622463946A3
:104BF00030460CF06EFC08F043F80028F1D107B005
:104C0000BDE8F08FE40400206D8F00082DE9F04F1F
:104C1000164C87B02568DDE91098EC6C2718286DD4
:104C2000A5184618C418ADF81070ADF81450ADF8BA
:104C30001260ADF8164004A808F08AF8002811D0D8
:104C4000DFF82CB04FF0010ACDE90098CDE902BAA7
:104C500023462A46314638460CF03BFC08F010F853
:104C60000028F1D107B0BDE8F08F0000E404002077
:104C7000AD8E00082DE9FC41104F04463B68D86C0E
:104C80004518196DADF800500E198418ADF80440A0
:104C9000ADF80260ADF80660684608F059F808E023
:104CA000386822463146C06E03682846984707F0A8
:104CB000E7FF0028F4D1BDE8FC810000E4040020F7
:104CC0002DE9F0410B4C2568EC6C2718286DA518D0
:104CD0004618C418002008F03BF807E023462A468F
:104CE00031463846FCF7A8FF07F0CAFF0028F5D187
:104CF000BDE8F081E40400207CB50E4D2A68D36C39
:104D00001E18106DADF804604418ADF80060ADF8E1
:104D10000640ADF80240684608F01AF807E0286837
:104D20002146C06E42683046904707F0A9FF002830
:104D3000F5D17CBDE40400202DE9FC411C4C246825
:104D4000E66C94F818C03718206DACF1010C4518CA
:104D5000C418A7EB0C001644ADF8000006EB0C00DD
:104D6000ADF80400A5EB0C00ADF8020004EB0C005C
:104D7000ADF80600684607F0EBFF15E0324629461D
:104D8000384604F093F832462146384604F08EF84F
:104D9000621E691C384604F0E9F8621E691C304640
:104DA00004F0E4F807F06CFF0028E7D1BDE8FC81CF
:104DB000E40400207CB50E4B1B68DC6C2618186DD3
:104DC000ADF8006045188418ADF80460ADF80250E5
:104DD000ADF80640684607F0BBFF06E022462946CC
:104DE000304604F0C3F807F04BFF0028F6D17CBD35
:104DF000E404002070B51B4C05466069E0B904F17D
:104E0000240119480860084602F08AFA012001F0DE
:104E10007BF8002001F078F8144900231A4601F1CC
:104E20001800FFF751FB606104F081F9C01DC00854
:104E3000E061FEF7CBFE20610D4955B1606808B115
:104E4000012070BD0A686260084A00204C320A6086
:104E500070BD626822B101200A600021616070BDEE
:104E6000002070BD24050020C94F01083020030830
:104E7000A409002010B5002400E0012400F004F88B
:104E80000028FAD1204610BD064810B5006800245D
:104E900010B1804700B1012407F094F800B101245B
:104EA000204610BD040500202DE9FC410F4C25686B
:104EB000EC6C2718286DA5184618C418ADF80070BA
:104EC000ADF80450ADF80260ADF80640684607F052
:104ED0003FFF07E023462A463146384604F070F883
:104EE00007F0CEFE0028F5D1BDE8FC81E4040020E7
:104EF000B0F90630B0F90420B0F90210B0F90000A2
:104F0000FFF7D2BF08B50B46002805D00092818874
:104F10008268C08800F001F808BD10B50828029C1E
:104F200030D008DC04FB01F401280AD0022813D099
:104F3000042804D11CE0102828D020282CD00020E0
:104F400010BD04EBD30003F00701105CC1F10701B1
:104F5000C84000F0010010BD04EB93000621105C76
:104F600001EA4301C1F10601C84000F0030010BD91
:104F700004EB5300D907105C02D000F00F0010BD05
:104F8000000910BD04FB0130105C10BD481004FB8B
:104F9000003032F8100010BD881004FB003052F8C9
:104FA000200010BD034951F82000C1688A6A082119
:104FB00010470000FC04002010B504F039F8BDE8EB
:104FC000104004F0FBB8000002490968C9694A684A
:104FD00000211047E4040020024A1268D269526896
:104FE00010470000E4040020002801D007F02AB890
:104FF000704710B504F024F8BDE8104004F0DEB8A6
:105000000021022802D2024951F8201008467047B8
:105010007009002002480068C069407E70470000A7
:10502000E404002001F0F0BF02F04CB810B50446D3
:1050300002F03AF801462046BDE8104001F0EEBF0C
:1050400001F064BA03483521017032218170C170CA
:1050500070470000580500200A490020096891F8AF
:105060002C2002F00C02042A07D0082A01D00C2AB6
:1050700002D1C869007E40087047C869007E401EA2
:1050800070470000E4040020417EC07E4843704722
:10509000017EC07E48437047024951F820000069F4
:1050A00000687047FC040020024951F820000069A4
:1050B00040687047FC04002070B50D460FF008FAF8
:1050C000044628460FF00CFA204370BD124810B574
:1050D000016821F00101016010480121816010493F
:1050E000016000680F49884200D0FEE701F0D0FB64
:1050F0000D492E20087001F00FFA0C480FF0B8FB94
:1051000013F0C8FD04460021084600F069FF07F0CF
:10511000F9F8204610BD0000002000E000300240F9
:10512000C2A507F4CDB5E8B5D8040020CCCE002048
:1051300010B5011E01DD024600E04A42064B012087
:1051400053F82040944202D8401C0A28F8DB00297A
:1051500000DA401C10BD0000B853030808B5002851
:105160000CD0FEF7BFFD40F6FF7100908180C1803A
:105170004942018141816846FEF7FEFD08BD0000FD
:1051800038B5134800220068437C124850F82300C9
:1051900001691148FFF798F9040011D01820FEF7B3
:1051A000BCFC05000ED02846A560FEF79BFD0090D4
:1051B00004602846FFF7D2FF6846FEF7DDFD04E0F5
:1051C000002038BD2046FFF7BBF9284638BD000057
:1051D000E4040020FC040020A067030838B504465E
:1051E0000C480068006EA04201D100F071FE20461C
:1051F000FEF778FD009005686846FEF7BDFD204685
:10520000FEF7A6FC2846FFF7DDF92846FFF798F9D8
:1052100038BD0000E404002038B50C4600280FD04B
:10522000002C0DD0FEF75EFD009081882180C188A2
:1052300061800189A1804089E0806846FEF79CFD7D
:1052400038BD000038B5040014D006F003FE0B4D45
:10525000286804662046FEF745FD00900068FFF7C9
:1052600071F92968002048616846FEF785FD04F061
:1052700035F938BD00F02CFE38BD0000E4040020F4
:105280001CB520B90C480068006E002812D0FEF74B
:1052900029FD009044696846FEF76EFD002C09D098
:1052A0002046FEF71FFD019081688968884701A8A4
:1052B000FEF762FD1CBD0000E404002001490A461F
:1052C00000F002B801F0FFFF2DE9F04387B015466A
:1052D0000C465FEA000842D0002000F067FE8146DD
:1052E00020480068066E4046FEF7FCFC009000680F
:1052F000806900F0F7FD074640F6FF70001904D101
:105300000098B0F90440B0F906500098611E028977
:10531000ADF804401144ADF808104189681E0844F6
:10532000ADF80650ADF80A0006F054FC6846FEF7EA
:1053300023FD01A807F00CFD06E02A462146404661
:1053400000F0F2FB07F09CFC0028F6D1384600F094
:10535000C9FD304600F036FA484600F027FE07B097
:10536000BDE8F083E40400200121017400207047AF
:105370002DE9FE4F834619488A46194900680C9E5C
:105380009846407C9146002751F82040E168096822
:10539000042903D02468002CF8D100E014B9FFF7E9
:1053A00025F904460121E068C26A204690470500BD
:1053B00011D02469A0688047401C02D1094C46F0F6
:1053C00001060096CDE9015443464A4651465846E7
:1053D00000F08AFA07463846BDE8FE8FE404002054
:1053E000FC04002094200308FEB50546DDE90964AD
:1053F0000020089F002C05D00097CDE901642846C5
:1054000000F072FAFEBD000038B5040018D00D4857
:105410000068006EA04201D100F05AFD2046FEF760
:1054200061FC0090406908B101F02FF80098006815
:10543000FFF786F86846FEF79FFC2046FEF788FBDC
:1054400038BD0000E4040020704700002DE9FF4F44
:1054500083B0454CDDF840B098468A4607002BD013
:1054600002A901A8FFF7E0FDB7F90060002E00DAFD
:105470000026B7F90250002D00DA00252068A14669
:10548000407C03F051FE01990144491EB7F9040024
:105490000FF090FC0446D9F80000407C03F052FE67
:1054A00002990144491EB7F906000FF083FCA71BBF
:1054B0007F1C441B641C0BE0206800263546407CA2
:1054C00003F032FE07462068407C03F03BFE0446B2
:1054D000B8F1000F01D1C4F10008002F01DD002C4C
:1054E00003DC002007B0BDE8F08F43463A4629466A
:1054F0003046CDF800B0FFF73BFF5FEA000909D066
:1055000000F02CF98046484600F05CF90027DFF8EF
:105510005CB01FE05146059888470120E2E7E11B97
:10552000414502DA484600F037F93FB1EA19314601
:10553000484600F077F94846FFF7A2FE5146059825
:105540008847DBF8001009B1002088474846FFF77C
:10555000B5FE4744A742E2DB4846FFF755FF00206F
:1055600000F030F9BDE70000E4040020BC09002091
:105570002DE9FF4F83B016460D460446FFF700FEA7
:105580005FEA000945D0FFF75DFE01276F70217CBF
:1055900004F1080891B12F700698B047214648469B
:1055A000FFF73AFE4846FFF7D9FD0020287006981D
:1055B000B04741464846FFF72FFE1AE00698B0472D
:1055C00021464846FFF728FE20880190A0880090D9
:1055D0002146B4F802B0B4F806A04246084600F0EE
:1055E000C1FA019820810098A081A4F80AB0A4F81B
:1055F0000EA04846FFF7F2FD4FF0000885F8018045
:105600002F704346009731462046069AFFF71EFF4B
:1056100018B1012007B0BDE8F08F85F8008084F84C
:1056200010800020F6E700002DE9F04786B099468B
:10563000DDE90F460E9F8246002C30D019480068E5
:10564000C36C006D03EB010885180FFA88F1ADF803
:105650000C10002E01DA304600E00020621E2844C3
:10566000114400B2ADF81010ADF80E004946B9452E
:1056700000DC3946491E0844ADF8120003A807F0C3
:1056800067FB0AE00097CDE901464B462A464146B2
:1056900050460CF09BF907F0F3FA0028F2D106B05F
:1056A000BDE8F087E404002038B5002460B1FEF7BF
:1056B00019FB0090006800698068804704F0BEF91B
:1056C00004466846FEF758FB204638BD38B5FEF75D
:1056D00009FB00F1180400906846FEF74DFB2046D8
:1056E00038BD000038B5002418B907480068006EBE
:1056F00038B1FEF7F7FA0090B0F904406846FEF7BB
:105700003BFB204638BD0000E404002038B50024EF
:1057100018B907480068006E38B1FEF7E3FA009048
:10572000B0F908406846FEF727FB204638BD000068
:10573000E404002038B5002418B907480068006E5A
:1057400038B1FEF7CFFA0090B0F906406846FEF790
:1057500013FB204638BD0000E404002038B50024C7
:1057600018B907480068006E38B1FEF7BBFA009020
:10577000B0F90A406846FEF7FFFA204638BD00003F
:10578000E404002010B508F091FE002803D0BDE825
:10579000104000F073B810BD38B50C4620B9084869
:1057A0000068006E00280AD0FEF79CFA0090B0F95D
:1057B0000A10A14200DD44816846FEF7DDFA38BDDB
:1057C000E4040020F8B5134E05003068046E0CD0D8
:1057D0000CB100F07DFB06F03DFB2846FEF782FA97
:1057E000009031680A6E1AB106E000F071FB0EE01D
:1057F000D1E90223C1E919230D660068FEF7A2FE74
:105800006846FEF7B9FA03F0B1FF03F067FE2046E1
:10581000F8BD0000E4040020014AC2E9000170471D
:10582000980500207CB515460C4620B91248006842
:10583000006E00281FD0FEF755FA2DB20090C580EB
:1058400024B2848003F04AFE0098406980B1FEF7DC
:1058500049FA009A0190B2F908108180B2F90A2041
:10586000C28011B10AB10480458001A8FEF784FA14
:105870006846FEF781FA7CBDE404002001490A462F
:1058800000F002B801F0FFFF7FB515460C46060098
:1058900028D0FEF727FA40F6FF710190091903D1CD
:1058A000B0F90440B0F906500289611E1144ADF808
:1058B0000840ADF80C104189681E0844ADF80E0090
:1058C000ADF80A5001A8FEF757FA02A807F040FA0F
:1058D00006E02A462146304600F00EF907F0D0F9DE
:1058E0000028F6D17FBD00002DE9FF4FDFF8E0B0C2
:1058F00083B01C46DBF80010DDE9106092460027FB
:105900004B7C3A461299FEF7DFFD05005DD0286911
:105910008068804704F092F881460AFB09F0C01DB8
:105920004FEAD008FEF714FAF10705D1C11700EBD2
:105930009170801000EB4000002C06DC1838B0FBA2
:10594000F8F06442A04200DC0446F00707D1009062
:10595000DDE903012346524600F00EFD0746002C08
:1059600003DC2846FEF7ECFD2FE004FB08F01830BE
:10597000F10702D0FEF7CCF801E0FEF7CEF8060002
:105980001CD0FEF7AFF9019005600399818004995E
:10599000C180A0F808A04481C0F80C80C0E9049739
:1059A00001A8FEF7E9F91298AE602861DBF8000063
:1059B000407CA861304607B0BDE8F08F2846FEF76E
:1059C000BFFD17B13846FEF7C3F80020F3E700002B
:1059D000E40400200149086070470000BC09002071
:1059E0002DE9F74F92B090461298FEF77BF90B9095
:1059F000B0F908100691B0F90A100D91006800691D
:105A0000D0F804B00BA8FEF7B7F9384C384D206831
:105A1000407C55F82000C1688A6A08219047814679
:105A2000182801D34FF020092068407C55F8200049
:105A30000069079003C80C902E48814201D00120D4
:105A400000E000201090002000F067FD002849D100
:105A50000026DDE91207B2460FAB069C4546761CD0
:105A60000193FFF733FE014604FB0AF001EB8002CD
:105A7000234629463846CDF800B001F031F805003C
:105A800030D01098D0B1DDE906134A46284600F020
:105A900044FE98B9DDE906702C46D0F810C0BCF180
:105AA000000F05D0294604233A460846E04705E0A2
:105AB0000C992068884701C47F1EF9D10020CDE9E8
:105AC0000305059001200090CDE9010941460346F8
:105AD00008F10108069A139803F0E4F80D98401EA7
