:020000040800F2
:1000000048020020650100086D0100086F0100082A
:10001000710100087301000875010008000000006C
:100020000000000000000000000000007701000850
:1000300079010008000000007B010008711400082D
:100040007F0100087F0100087F0100087F01000890
:100050007F0100087F0100087F0100087F01000880
:100060007F0100087F0100087F0100087F01000870
:100070007F0100087F0100087F0100087F01000860
:100080007F0100087F0100087F0100087F01000850
:100090007F0100087F0100087F0100087F01000840
:1000A0007F0100087F0100087F0100087F01000830
:1000B0007F0100087F010008551500087F01000836
:1000C0007F0100087F0100087F0100087F01000810
:1000D0007F0100087F0100087F0100087F01000800
:1000E0007F0100087F0100087F0100080000000078
:1000F0000000000000000000000000000000000000
:1001000000000000000000007F0100087F010008DF
:100110007F0100087F0100087F0100087F010008BF
:100120007F0100087F0100087F0100087F010008AF
:100130007F0100087F0100087F0100087F0100089F
:100140007F0100087F0100087F0100087F0100088F
:10015000DFF80CD000F018F800480047E51600085A
:10016000480200200648804706480047FEE7FEE7B1
:10017000FEE7FEE7FEE7FEE7FEE7FEE7FEE7FEE757
:100180000115000851010008064C074D06E0E06823
:1001900040F0010394E8070098471034AC42F6D3CE
:1001A000FFF7DAFF741700089417000831B500F064
:1001B000EDF8044600F0EAF80099001B8842F9D3F4
:1001C00038BD00002DE9F84FDFF890A100220AF1B8
:1001D000040B144601274FF00F090BF1040E00BF6A
:1001E0000B6807FA04F52B40AB4274D1DFF870C1FD
:1001F0004E68A6EB0C0866452BD00DDC032E34D0E0
:1002000005DC36B3012E19D0022E2FD11BE0112EA2
:1002100016D0122E2AD119E0B8F5881F19D006DCA5
:10022000B8F5803F15D0B8F5801F1FD111E0B8F5A3
:10023000001F0ED0B8F5041F18D10AE0CA6815E0F7
:10024000CA68121D12E0CA6808320FE0CA680C3290
:100250000CE08A682AB1012A4FF0080203D04561F8
:1002600004E0042202E0056100E00022FF2B01D837
:10027000064601E000F104064FEA840501D9A5F124
:100280002005D6F800C009FA05F82CEA080C02FA95
:1002900005F54CEA050CC6F800C04D68ED0057D5D1
:1002A000304DAE6946F00106AE61AD6924F003063B
:1002B00005F0010500952C4D06EB050CDCF8085007
:1002C000A6074FEA167809FA08F6B543274EB0425A
:1002D00002D1002610E03BE0254EB04201D10126BC
:1002E0000AE0244EB04201D1022605E0224EB0427F
:1002F00001D1032600E0042606FA08F62E43CCF8C6
:1003000008604D68DAF80060ED03554601D51E43DC
:1003100000E09E432E604D68DBF80060AD035D4653
:1003200001D51E4300E09E432E604D68DEF800605C
:10033000ED02754601D51E4300E09E432E604D68D8
:10034000AD020E4D2E6801D51E4300E09E432E6087
:10035000641C102CFFF444AFBDE8F88F000401408A
:100360000000111000100240000001400008014090
:10037000000C014000100140001401400C04014039
:100380000AB1016170470904FBE7000001480068F9
:10039000704700000000002002480168491C01600D
:1003A0007047000000000020074810B5016841F0C8
:1003B00010010160032000F065F8002000F006F84D
:1003C00000F016F8002010BD0020024010B50446D1
:1003D00000F0AEF94FF47A71B0FBF1F000F00EFED0
:1003E00000222146501E00F02DF8002010BD000014
:1003F0000C4808B5816941F001018161806900F014
:1004000001000090072000F03DF800221146501E28
:1004100000F018F80448416821F0E06141F00071F3
:10042000416008BD001002400000014000F01F02C2
:10043000012191404009800000F1E020C0F8001146
:1004400070470000F0B40E4B1B680C46C3F3022348
:10045000C3F10705042D00D90425191D072901D270
:10046000002300E0DB1E012606FA05F1491E2140AB
:1004700099409E40761E16403143F0BC00F0E8BF24
:100480000CED00E0064900F0070208684FF6FF0394
:10049000184040EA0220034A1043086070470000F9
:1004A0000CED00E00000FA052DE9F047DFF8789246
:1004B00005460E46D9F80000022300F00707012088
:1004C00041044206994C41F28838B74271D2D9F8BA
:1004D00000C02CF0070C4CEA060CC9F800C0D9F893
:1004E000007007F00707B7426FD12E78B60705D521
:1004F0006668AF6826F0F0063E4366602E78F60721
:1005000056D06E68012E0BD0022E1ED093FAA3F1A6
:10051000B1FA81F141F02001490924D0216823E09A
:1005200091FAA1F2B2FA82F242F02002520901D00D
:10053000226800E0626A91FAA1F1B1FA81F101F05A
:100540001F018840024240D017E092FAA2F1B1FAAE
:1005500081F141F02001490901D0216800E0616A80
:1005600092FAA2F202E0616A93FAA3F2B2FA82F27C
:1005700002F01F029040014227D0606820F0030083
:1005800030436060FFF702FF06466868012809D023
:100590000228474613D01EE0FFF7F8FE801BB84242
:1005A00001D992E047466068C0F381000128F3D189
:1005B000A1E015E0FFF7EAFE801BB84273D860683F
:1005C000C0F381000228F5D195E092E0FFF7DEFE4E
:1005D000801BB84279D8606810F00C0FF6D18AE021
:1005E0002F78BF0707D56768D5F808C027F0F00750
:1005F00047EA0C0767602F78FF076DD06F68012FFF
:100600000BD0022F1ED093FAA3F1B1FA81F141F081
:100610002001490924D0216823E091FAA1F2B2FA1D
:1006200082F242F02002520901D0226800E0626AA0
:1006300091FAA1F1B1FA81F101F01F018840024263
:1006400057D017E092FAA2F1B1FA81F141F02001FE
:10065000490901D0216800E0616A92FAA2F202E041
:10066000616A93FAA3F2B2FA82F202F01F0290409A
:1006700001423ED0606820F0030038436060FFF71D
:1006800085FE07466868012807D0022811D01FE0C0
:10069000FFF77CFEC11B414517D86068C0F381009D
:1006A0000128F5D118E010E0FFF770FEC11B4145AD
:1006B0000BD86068C0F381000228F5D10CE000BFC0
:1006C000FFF764FEC11B414502D90320BDE8F08756
:1006D000606810F00C0FF3D1D9F8001021F0070179
:1006E0003143C9F80010D9F8000000F00700B0420B
:1006F00001D00120EAE72878400705D56068E9685D
:1007000020F4E060084360602878000706D5606840
:10071000296920F4605040EAC10060600020FFF7C2
:1007200055FE0020D2E700000020024000100240E9
:1007300000B500F017F808494968F02292FAA2F2D1
:1007400001F0F001B2FA82F2D140044A515CC84093
:100750000349086000BD0000001002404417000873
:1007600008000020F0B52DA28AB007CA8DE8070066
:100770002DA103AC0FC984E80F002F494B682F4807
:1007800003F00C02042A02D0082A02D02C480AB036
:10079000F0BD4FF4701595FAA5F403F47012B4FA95
:1007A00084F4E2406E461DF80220DB0333D5CB6AA9
:1007B0000F2494FAA4F403F00F03B4FA84F4E34092
:1007C00003ACE45CCB6ADB0316D5CB6AF02797FA5F
:1007D000A7F703F0F003B7FA87F7C96AFB40AF1237
:1007E00097FAA7F701F47061B7FA87F7F9405B1C35
:1007F000B0FBF3F0891C4843B0FBF4F095FAA5F385
:1008000050434FF45011B3FA83F3D940715C9142D5
:10081000BDD14008BBE70B485043B8E700000405D2
:10082000060708090000000D010203040506070879
:10083000090A0B0C0D0E0F100010024040787D01CC
:1008400000127A0000093D002DE9F84F04460078B7
:10085000FC4DC0074FF0010625D068687704C0F34F
:100860008100012807D06868C0F3810002281BD1ED
:100870006868C00318D597FAA7F0B0FA80F040F086
:100880002000400901D0286800E0686A97FAA7F1C3
:10089000B1FA81F101F01F0106FA01F1084202D01C
:1008A000A068002876D081E0286820F48030286095
:1008B000286820F480202860FFF768FD804605E066
:1008C000FFF764FDA0EB080064287DD897FAA7F035
:1008D000B0FA80F040F02000400901D0286800E024
:1008E000686A97FAA7F1B1FA81F101F01F0106FADF
:1008F00001F10842E4D1A068B0F5803F0BD010B1FF
:10090000B0F5A02F11D0286820F480302860286826
:1009100020F4802002E0286840F480302860A0683D
:1009200020B3FFF733FD80460AE0286840F48020BA
:100930002860F0E7FFF72AFDA0EB08006428C4D880
:1009400097FAA7F0B0FA80F040F02000400901D0FB
:10095000286800E0686A97FAA7F1B1FA81F101F01E
:100960001F0106FA01F10842E4D01FE0FFF70EFD77
:10097000804605E0FFF70AFDA0EB08006428A4D834
:1009800097FAA7F0B0FA80F040F02000400902D0BA
:10099000286801E0B8E0686A97FAA7F1B1FA81F136
:1009A00001F01F0106FA01F10842E3D12078A64FB9
:1009B00080074FF002084FF000095BD568684FF0E0
:1009C000F80B10F00C0F00E01DE207D06868C0F3D0
:1009D000810002281BD16868C00318D498FAA8F0D7
:1009E000B0FA80F040F02000400901D0286800E013
:1009F000686A98FAA8F1B1FA81F101F01F0106FACC
:100A000001F108422BD0606901287DD127E060699F
:100A100088B396FAA6F0B0FA80F047F82060FFF7A6
:100A2000B5FC824606E000BFFFF7B0FCA0EB0A0071
:100A3000022884D898FAA8F0B0FA80F040F020009C
:100A4000400901D0286800E0686A98FAA8F1B1FA74
:100A500081F101F01F0106FA01F10842E4D0286893
:100A60009BFAABF2A169B2FA82F220F0F800914051
:100A70000843286025E0FFE796FAA6F1B1FA81F174
:100A800047F82190FFF782FC824605E0FFF77EFCE5
:100A9000A0EB0A000228CCD898FAA8F0B0FA80F0AF
:100AA00040F02000400901D0286800E0686A98FA08
:100AB000A8F1B1FA81F101F01F0106FA01F1084233
:100AC000E4D1207800076FD5E069C0B396FAA6F0AC
:100AD000B0FA80F007EB8000C0F88064FFF756FCA6
:100AE000824605E0FFF752FCA0EB0A000228A0D8DE
:100AF00098FAA8F1B1FA81F141F060014046B6EBF5
:100B0000511F02D129680CE0A0E190FAA0F1B1FADE
:100B100081F141F06001B0EB511F01D1296A00E081
:100B2000696A98FAA8F0B0FA80F000F01F0206FA9D
:100B300002F00142D6D00120FFF738FB34E0FFE796
:100B400096FAA6F1B1FA81F107EB8101C1F8809420
:100B5000FFF71CFC824605E0FFF718FCA0EB0A003B
:100B6000022898D898FAA8F1B1FA81F141F0600111
:100B70004046B6EB511F01D129680BE090FAA0F175
:100B8000B1FA81F141F06001B0EB511F01D1296A46
:100B900000E0696A98FAA8F0B0FA80F000F01F024D
:100BA00006FA02F00142D7D12078400773D5E869F0
:100BB00040F08050E861E869DFF890B000F08050C4
:100BC0000090DBF8001041F48071CBF80010FFF7C3
:100BD000DDFB824606E000BFFFF7D8FBA0EB0A0072
:100BE000642884D8DBF80000C005F5D5286A20F019
:100BF00001002862286A20F004002862FFF7C6FB83
:100C0000834641F2883A05E0FFF7C0FBA0EB0B01F9
:100C10005145A6D898FAA8F1B1FA81F141F0400106
:100C20004046B6EB511F01D1296812E090FAA0F1BD
:100C3000B1FA81F141F04001B0EB511F08D1296AAE
:100C400007E0000000100240000042420070004037
:100C5000696A98FAA8F0B0FA80F000F01F0006FA6E
:100C600000F00142D0D1206901280AD008B105283E
:100C700012D0286A20F001002862286A20F00400BF
:100C800002E0286A40F001002862206998B3FFF76B
:100C90007DFB83460CE05BE0286A40F0040028629C
:100CA000EFE700BFFFF772FBA0EB0B01514598D8AF
:100CB00098FAA8F1B1FA81F141F040014046B6EB53
:100CC000511F01D129680BE090FAA0F1B1FA81F12E
:100CD00041F04001B0EB511F01D1296A00E0696A7F
:100CE00098FAA8F0B0FA80F000F01F0206FA02F0BD
:100CF0000142D7D02CE0FFE7FFF748FB834605E031
:100D0000FFF744FBA0EB0B0151457CD898FAA8F102
:100D1000B1FA81F141F040014046B6EB511F01D1DB
:100D200029680BE090FAA0F1B1FA81F141F040019D
:100D3000B0EB511F01D1296A00E0696A98FAA8F066
:100D4000B0FA80F000F01F0206FA02F00142D7D19B
:100D5000E16AA1B36868C00307D56868C0F3810081
:100D6000022802D1E86AC00370D44FF080604FF0CF
:100D7000006B02290DD0E96A21F48031E96290FA12
:100D8000A0F0B0FA80F047F82090FFF7FFFA804615
:100D900070E02968C90005D5E96A626B01F0F001CD
:100DA000914253D14FF0806090FAA0F0B0FA80F0F9
:100DB00047F82090FFF7EAFA8246D84606E06EE050
:100DC000FFF7E4FAA0EB0A0064281CD898FAA8F010
:100DD000B0FA80F040F02000400901D0286800E01F
:100DE000686A98FAA8F1B1FA81F101F01F0106FAD8
:100DF00001F10842E4D1E86A616B20F0F000084399
:100E0000E862E86A00E082E0216B20F47060084349
:100E1000E8624FF0806090FAA0F0B0FA80F047F8F6
:100E20002060FFF7B3FA824606E000BFFFF7AEFA94
:100E3000A0EB0A0064286AD898FAA8F0B0FA80F00B
:100E400040F02000400902D0286801E0A7E0686A6D
:100E500098FAA8F1B1FA81F101F01F0106FA01F147
:100E60000842E3D01BE000BFFFF790FAA0EB0800B8
:100E700064284CD89BFAABF0B0FA80F040F0200028
:100E8000400901D0286800E0686A9BFAABF1B1FA2A
:100E900081F101F01F0106FA01F10842E4D1206A54
:100EA000A0B36968C1F38101022978D002284FF00C
:100EB00080714FF0007A48460AD091FAA1F1B1FA58
:100EC00081F147F82100FFF761FA074654466FE0C9
:100ED0008B4691FAA1F1B1FA81F1B94647F82100A8
:100EE000FFF754FA8046574606E000BFFFF74EFA78
:100EF000A0EB0800022858D897FAA7F0B0FA80F0C3
:100F000040F02000400903D0286802E065E04CE092
:100F1000686A97FAA7F1B1FA81F101F01F0106FAA8
:100F200001F10842E2D1606AB0F5803F09D1E86A78
:100F300061680843E862E86AE16820F00F0008434E
:100F4000E862D4E909010843696821F4741108438F
:100F500068609BFAABF0B0FA80F049F82060FFF7C8
:100F600015FA044605E000BFFFF710FA001B02283F
:100F70001BD897FAA7F0B0FA80F040F020004009A3
:100F800001D0286800E0686A97FAA7F1B1FA81F108
:100F900001F01F0106FA01F10842E5D01DE01EE054
:100FA000FFF7F4F9C01B022802D90320BDE8F88F2F
:100FB00094FAA4F0B0FA80F040F02000400901D08B
:100FC000286800E0686A94FAA4F1B1FA81F101F0AE
:100FD0001F0106FA01F10842E2D10020E6E70120F4
:100FE000E4E74FF0E0210428086903D020F0040072
:100FF0000861704740F00400FAE7704710B5401EE2
:10100000B0F1807F01D3012010BD4FF0E02460617A
:101010000F21601700F01CFA0020A061072020615A
:10102000002010BD10B5FFF7E8FF10BD70477047F6
:1010300030B590F83820012A20D0012280F83820DD
:10104000022380F8393003685C6824F070045C6027
:1010500003685C680D682C435C6003689C6824F03E
:1010600080049C6003689C6849680C439C6080F81D
:101070003920002180F83810084630BD022030BDEC
:1010800010B5040003D094F8390010B107E0012036
:1010900010BD002084F83800204600F00DF8022032
:1010A00084F83900211D206800F060FA012084F8DE
:1010B0003900002010BD000008B500680B498842C7
:1010C00012D10B48C16941F00401C161C06900221D
:1010D00000F00400009011461E20FFF7B3F9BDE8B0
:1010E00008401E20FFF7A2B908BD0000000800401C
:1010F000001002400168CA6842F00102CA6000683C
:10110000016841F0010101600020704770B504469C
:1011100090F83800012817D0012584F838500220B3
:1011200084F839002068826822F0770222F47F4236
:1011300082600868502837D00DDC202859D005DCA3
:1011400088B3102841D151E0022070BD302853D01F
:1011500040283AD13FE060282ED070280BD0B0F55F
:10116000805F03D0B0F5005F2FD110E02068816868
:1011700021F0070115E0CB68D1E90121206800F0DA
:101180002FFA2168886840F0770088601DE0CB68FE
:10119000D1E90121206800F023FA2068816841F438
:1011A0008041816011E01EE0CA684968206800F053
:1011B00029FA5021206806E0CA684968206800F0D2
:1011C00032FA6021206800F015FA84F839500020C6
:1011D00084F8380070BDCA684968206800F012FAC7
:1011E00040212068EFE700212068ECE7102120680B
:1011F000E9E720212068E6E730212068E3E770472F
:1012000070B50446006801694FF00005C9438907BD
:1012100015D4C168C943890711D4E91E01610120B1
:101220002076206880698007204602D0FFF7E7FF1C
:1012300004E000F098F8204600F096F82576206843
:101240000169C943490717D4C168C943490713D481
:101250006FF004010161022020762068806910F49B
:10126000407F204602D0FFF7CAFF04E000F07BF881
:10127000204600F079F8257620680169C9430907FE
:1012800016D4C168C943090712D46FF0080101617F
:10129000042020762068C0698007204602D0FFF72E
:1012A000AEFF04E000F05FF8204600F05DF8257620
:1012B00020680169C943C90617D4C168C943C90672
:1012C00013D46FF010010161082020762068C069F6
:1012D00010F4407F204602D0FFF791FF04E000F0B9
:1012E00042F8204600F040F8257620680169C9439D
:1012F000C90708D1C168C943C90704D1891E016162
:10130000204600F032F820680169C943090609D473
:10131000C168C943090605D46FF080010161204608
:10132000FFF784FE20680169C943490609D4C168F2
:10133000C943490605D46FF040010161204600F021
:1013400015F820680169C94389060BD4C168C943EF
:10135000890607D46FF0200101612046BDE8704086
:10136000FFF765BE70BD704770477047704700005B
:101370001F4810B5816986B041F010018161816913
:1013800001F010010491816941F0040181618169DA
:1013900001F004010491816941F0200181618069BB
:1013A000012400F0200004904FF4005000901148F8
:1013B000CDE9010469461048FEF704FF0F4869466D
:1013C000CDE900400E480294FEF7FCFE9C20CDE9DA
:1013D000000402200B4C039069462046FEF7F2FE03
:1013E00000229C212046FEF7CBFF06B010BD000076
:1013F00000100240000021100010014000001110F8
:10140000000801400014014010B5104886B00E4994
:10141000016042F2CF010024C0E9011442F20F71D1
:10142000C0E90314FFF72CFE4FF48050009069468A
:101430000648FFF76BFE2020CDE9040404A9034809
:10144000FFF7F6FD06B010BD000800400C000020BC
:101450000907090E002806DA00F00F0000F1E0206D
:1014600080F8141D704700F1E02080F800147047E8
:1014700010B5FEF791FFBDE81040FFF7D3BD0000A7
:1014800030B593B0012528040421CDE902010224DE
:10149000CDE90050CDE908404FF4E010CDE90A0451
:1014A0004FF4C0600C9040200D906846FFF7CCF9D7
:1014B0000F20CDE90E0400206102CDE91001129049
:1014C00002210EA8FEF7F0FFFFF732F94FF47A7110
:1014D000B0FBF1F0FFF792FD0420FFF782FDE0067C
:1014E00090FAA0F00549B0FA80F041F820500022AF
:1014F0001146501EFEF7A6FF13B030BD0000424259
:101500001048016841F00101016041680E4A114034
:10151000416001680D4A11400160016821F4802199
:101520000160416821F4FE014160016821F0A05191
:1015300001604FF47F0181600021C1620449C00352
:1015400008607047001002400000FFF0FFFFF6FE49
:1015500008ED00E010B50448FFF752FEBDE810406A
:10156000022000F0E9B800000C000020F0B502688D
:10157000174B184C184D194E4FF08047984207D022
:10158000B84205D0A04203D0A84201D0B04204D155
:1015900022F0700C4A6842EA0C02984207D0B84226
:1015A00005D0A04203D0A84201D0B04203D122F41A
:1015B0004074CA68224302608A68C2620A68826212
:1015C000984201D10969016301214161F0BD000028
:1015D000002C01400004004000080040000C0040C6
:1015E00010B5846842EA032224F47F440A4322436C
:1015F000826010BD826822F070020A4342F0070147
:101600008160704710B5036A046A24F00104046223
:10161000846924F0F00444EA021423F00A020A4325
:101620008461026210BD10B5036A23F010030362E7
:101630008369046A23F4704343EA023224F0A0036E
:1016400043EA01118261016210BD02E008C8121F65
:1016500008C1002AFAD170477047002001E001C19B
:10166000121F002AFBD1704742F6DF6303E01946E0
:10167000491E89B2FCD2401EF9D270472DE9F041D3
:1016800000240A4E0746012505FA04F0384207D027
:1016900006EBC4000022818856F83400FEF770FE85
:1016A000641CE4B2042CEFD3BDE8F08154170008A9
:1016B0002DE9F04100240A4E0746012505FA04F001
:1016C000384207D006EBC4000122818856F8340066
:1016D000FEF756FE641CE4B2042CEFD3BDE8F081A3
:1016E00054170008FEF760FEFFF7CAFEFFF740FE42
:1016F000FFF78AFE0B48FFF7FDFC4FF4FA74022057
:1017000000F012F80028FAD00320FFF7D1FF20469E
:10171000FFF7AAFF0320FFF7B1FF2046FFF7A4FF62
:10172000EDE700000C000020024900230A5C0B5486
:101730001046704704000020014A012111547047EF
:101740000400002000000000010203040102030461
:1017500006070809001401400400000000140140BD
:1017600008000000001401401000000000140140B7
:101770008000000094170008000000200C0000000A
:101780004A160008A01700080C0000203C020000C8
:101790005A160008000000000000000000A24A04E1
:04000005080001519D
:00000001FF
