:020000040800F2
:10000000E0C80020650100086D0100086F010008CC
:10001000710100087301000875010008000000006C
:100020000000000000000000000000007701000850
:1000300079010008000000007B010008C9450008A4
:100040007F0100087F0100087F0100087F01000890
:100050007F0100087F0100087F0100087F01000880
:100060007F0100087F0100087F0100082D090008BA
:100070007F0100087F0100087F0100087F01000860
:100080007F0100087F0100087F0100087F01000850
:100090007F0100087F0100087F0100087F01000840
:1000A0007F0100087F0100087F0100087F01000830
:1000B0007F0100087F0100087F0100087F01000820
:1000C0007F0100087F0100087F0100087F01000810
:1000D0007F0100087F0100087F0100087F01000800
:1000E0007F0100087F0100087F0100080000000078
:1000F0000000000000000000000000000000000000
:1001000000000000000000007F0100087F010008DF
:100110007F0100087F0100087F010008B946000840
:100120007F0100087F0100087F0100087F010008AF
:100130007F0100087F0100087F0100087F0100089F
:100140007F0100087F0100087F0100087F0100088F
:10015000DFF80CD000F0C6FA00480047917F000895
:10016000E0C800200648804706480047FEE7FEE753
:10017000FEE7FEE7FEE7FEE7FEE7FEE7FEE7FEE757
:100180006546000851010008202A04DB203A21FAC4
:1001900002F00021704721FA02F3D040C2F12002A0
:1001A000914008431946704710B5431A934209D24B
:1001B0008318881803E010F8011D03F8011D521E72
:1001C000F9D210BD40EA01039B0703D009E008C93A
:1001D000121F08C0042AFAD203E011F8013B00F80C
:1001E000013B521EF9D210BDD2B201E000F8012B42
:1001F000491EFBD270470022F6E710B513460A46A7
:1002000004461946FFF7F0FF204610BD2DE9FE4FCA
:10021000804681EA0300C00F0C46009021F00041A7
:1002200023F00045B8EB0200A94105D24046214623
:1002300090461C460B46024623F00040104347D030
:10024000270DC7F30A00C3F30A510290401A019028
:1002500040286BDAC3F3130040F4801B00989246E9
:1002600020B10023D2EB030A63EB0B0B0198594634
:10027000C0F14002504600F019F906460D465046BE
:100280005946019A00F021F910EB08006141002461
:1002900087EA115284EAE7731A4340D0009A62B3A6
:1002A000019A012A4FEA075215DC001B61EB02019B
:1002B0004FF0004202EA0752CDE90042001C41F52E
:1002C000801132462B4600F021F903B0BDE8F08FD3
:1002D00040462146F9E7001B61EB0201001C41F595
:1002E000801300185B412018A2F5001747EB0301AB
:1002F00040EAD570B6196D4111E06D084FEA360637
:1003000045EAC0754FEA0752001B61EB0201001C71
:1003100041F5801149084FEA300000195141324639
:100320002B4603B0BDE8F04F00F0E1B80098012281
:1003300040000023D0EB020263EBE07300982146FB
:100340004FEAE074B8EB000061EB0401E9E783F0E9
:1003500000435BE781F0004158E72DE9FE4F81EA59
:10036000030404F0004421F0004100944FF0000B1E
:1003700023F0004350EA01045ED052EA03045BD04C
:10038000C3F30A54C1F30A552C44A4F2F334019484
:10039000A0FB0254C1F3130141F48011C3F3130312
:1003A00043F4801301FB024400FB034E840A970AC6
:1003B00044EA815447EA8357A4FB076802958D0AF3
:1003C00005FB07854FEA932C04FB0C542705029D7F
:1003D0004FEA065847EA1637B5EB08056EEB070CEF
:1003E000870E920E47EA811742EA8312A7FB0201A9
:1003F000B6EB0B0164EB00042B0D43EA0C335E18E3
:1004000044EB1C50DA465146E7FB0201C5F31304E6
:100410004FEA0B3343EA14534FEA0432019C43EA98
:100420000603A4F10C040294009CCDE900B400F092
:100430006DF803B0BDE8F08F00200146F9E70EB576
:10044000C10F80EAE0700844CA07002140F233433C
:100450008DE80E000A460B4600F058F803B000BDC8
:100460000EB540F2334102910021CDE900110A4658
:100470000B4600F04BF803B000BDC1F30A5210B5B3
:10048000C1F3130140F2FF3341F480119A4201DAC3
:10049000002010BD40F233439A42A2F2334203DC03
:1004A0005242FFF771FE10BD904010BD202A04DBC0
:1004B000203A00FA02F1002070479140C2F1200377
:1004C00020FA03F3194390407047202A06DBCB172C
:1004D000203A41FA02F043EAE07306E041FA02F3FF
:1004E000D040C2F12002914008431946704710B530
:1004F000141E73F1000408DA401C41F10001921847
:100500005B411A4301D120F0010010BD2DE9F04DEF
:1005100092469B4611B1B1FA81F202E0B0FA80F244
:1005200020329046FFF7C2FF04460F4640EA0A0019
:1005300041EA0B0153465A46084313D0114653EA89
:10054000010019D0C8F140025046FFF71DFE0546D4
:100550000E46504659464246FFF7A8FF084305D0CD
:10056000012004E020463946BDE8F08D0020054317
:1005700046EAE0762C4337430A986305E40AA0EB89
:1005800008000022FD0A44EA47540A3002D5002040
:100590000146E9E7010510196941DDE9084500193F
:1005A0006941BDE8F04DA2E72DE9F04D81EA030471
:1005B00004F0004B21F0004514464FF0000A23F0F0
:1005C000004150EA050220D054EA01021DD0C5F3D3
:1005D0000A570246C5F31303C1F31300C1F30A56C9
:1005E00040F4801543F48013A7EB0608101BD64691
:1005F00008F2FD3873EB050002D308F1010801E0B1
:1006000092185B41B8F1000F03DA00200146BDE803
:10061000F08D00204FF48011064684460EE0171B33
:1006200073EB050705D3121B63EB050306434CEA86
:10063000010C49084FEA300092185B4150EA01076B
:10064000EDD152EA030012D082EA040083EA0501E8
:10065000084305D0101BAB4106D20122002306E05F
:1006600000224FF0004302E06FF0010253101AEB3A
:1006700006004CEB085110EB0A0041EB0B01BDE802
:10068000F04DFFF734BF70B521F0004303430CD0A9
:10069000C1F30A550024D5EB040564EB0403D61717
:1006A000AD1AB34102DB0020014670BD201841EBBA
:1006B000025170BD30B5041E71F1000404DB4FF02F
:1006C0000044404264EB0101141E73F1000405DB99
:1006D0001C464FF00043524263EB0403994208BFAB
:1006E000904230BD064C074D06E0E06840F0010343
:1006F00094E8070098471034AC42F6D3FFF72CFD7E
:1007000090B50008B0B500082DE9F04D00231A4659
:100710001B1A8A4103DB00200146BDE8F08DC1F3BE
:100720000A52C1F3130141F480154FF0000BD107B9
:1007300002D100186D41521E0027044640F2FF11FD
:10074000384601EB620A3E468046024600204FF4DE
:100750008011FFF719FDC2197141BB1846EB01006A
:10076000B4EB030C75EB000C04D3E41A65EB000545
:1007700017460E46241908F101006D4180463428C1
:10078000E3DDF91946EB0600091BA84103D24FF03F
:10079000FF32134601E0002213461BEB070046EB35
:1007A0000A51BDE8F04DFFF7A2BE000070B5044647
:1007B00000688168C943C9071CD1816821F0010123
:1007C000816002F027F905460FE000BF02F022F930
:1007D000401B022809D9A06A40F01000A062E06A1C
:1007E00040F00100E062012070BD20688068C043D5
:1007F000C007EBD0002070BD10B50146406A826A88
:1008000012F0500F05D0006A026BBDE81040084698
:100810001047816A41F40071816201688968C1F3FF
:10082000424107290CD1C16851B9816A21F4807114
:100830008162816AC90403D4816A41F00101816245
:1008400001F0C6FB10BD10B5406A816A41F040015D
:100850008162C16A41F00401C16201F0BBFB10BDBD
:1008600010B5406A01F0B5FB10BD0000F8B50026D8
:100870000446009600688168C943C90728D081688A
:1008800041F001018160134813490068B0FBF1F0A9
:1008900000E0401E00900028FBD102F0BBF80546A6
:1008A00011E000BF02F0B6F8401B02280BD9A06A85
:1008B00040F01000A062E06A40F00100E06284F8BD
:1008C00024600120F8BD20688068C043C007E9D1DA
:1008D0000020F8BD0400002040420F0000200A4A1A
:1008E000014600BF32F81030401CC0B21944102835
:1008F000F8D3080940F6E441484340F6FF71B0FBE5
:10090000F1F080B2704700000C01002010B50548DE
:1009100001F046FABDE8104010220349014801F0F9
:100920002DBC00002C0100200C010020014801F02A
:10093000D1BC00005C01002010B50468636043680E
:10094000102B036803D099600068C26010BD9A60E4
:100950000068C16010BD2DE9F047002426464FF025
:1009600080494FF001082046FFF77AFD02460B460A
:100970000020494607F05AFB07460D4608FA04F0E6
:10098000FFF75DFD3A462B46FFF7E7FC07460D46AD
:100990003046FFF765FD3A462B46FFF737FCFFF779
:1009A0006CFD641CE4B286B2102CDCD33046BDE88A
:1009B000F08700002DE9FF410022064600920192D7
:1009C00002926D46CDF80C2001F00100A854521C93
:1009D0004908D2B2102AF7D30024012707FA04F0FD
:1009E00081B22A5D304602F00FF8641CE4B2102C8C
:1009F000F4D3BDE8FF8170B50C46054600F0EEF873
:100A0000A8682168C16261680163A1684163490700
:100A100007D5D0E90021C0E90012D0E90221C0E9E0
:100A20000212A18981842169002903D001DC4FF0E1
:100A30000001016270BD2DE9F0411E46174688464F
:100A4000054600F0CBF8AC686822414604F5847096
:100A5000FFF7AAFB2846B8472846B04728698068B0
:100A60008047A062BDE8F08110B5044600F0B6F8FA
:100A7000A0680C49483001660B49C1650B494166C5
:100A80000B49C1660B4981660B4981670B49C167F8
:100A900030F8221C21F0030120F8221C084981644F
:100AA00010BD0000896E0008956F00084D6E0008AB
:100AB0001B6B0008036B0008976B0008CF6B0008E6
:100AC000116E000810B5044600F088F8A4680C48C0
:100AD0009034102120650B4860650B48A0650B48D9
:100AE000E0650B48E0600B482061206BA06654F87D
:100AF0009029204690471020A0630748606410BDED
:100B0000395A0008B55F00081D0B00084D0C00089D
:100B1000E56A00085D720008A8B30008F8B58468AB
:100B200015460F4694F8260080074CD5D4F8FC30C3
:100B3000204698470646D4F800312A4639462046D2
:100B40009847D4F8943005461BB100220121204675
:100B500098472069B04201DD012000E00020A16932
:100B6000B14201DA012100E0002108436169A94294
:100B700001DD012100E000210843E169A94201DA19
:100B8000012100E0002108430AD06068401E009067
:100B90002368D4F8A4705B1E002211462046B84793
:100BA000D4F8A8302A46314620469847D4F89C10FD
:100BB00020468847D4F8943005466BB101220021C5
:100BC0002046984708E0D4F8A83020469847D4F843
:100BD0009C102046884705462846F8BD70B5044657
:100BE0008068002812D14FF4B875284600F024FA26
:100BF0002A460021A06001F08FF8A0680221C1847C
:100C00000121046401620249C0F8041170BD0000B2
:100C1000150C000810B590B0044620220A49684619
:100C2000FFF7C2FA08492022203108A8FFF7BCFAD2
:100C3000606B5DF82010C4F8FC1008A951F8200082
:100C4000C4F8000110B010BDC48A00082DE9F843B3
:100C500084689846154694F826000F46800740D5CC
:100C6000D4F8FC30204698470646D4F800312A468E
:100C700039462046984705462069B04201DD0120EB
:100C800000E00020A169B14201DA012100E0002169
:100C900008436169A94201DD012100E00021084308
:100CA000E169A94201DA012100E0002108430AD0EC
:100CB0006068401E00902368D4F8A4705B1E002278
:100CC00011462046B847D4F8A8302A463146204677
:100CD0009847D4F8A02001B041462046BDE8F04333
:100CE0001047D4F8A830F2E72DE9F04FDFF828B12B
:100CF00091B04FF0FF35DBF80030B3F922100691C8
:100D0000DE69B3F924A0F469A189814206D8E28999
:100D1000824203D3471AD4F8008012E0D4E901815B
:100D2000002970D00A8882426DD84D8885426AD3E6
:100D3000801A82B2486800EB8200B0F90070B0F906
:100D40000250781C5FD0307EA27C014600FB02F985
:100D5000207CCDE90810B3F92A60304603F0AAF9E7
:100D6000C0B20E90DBF8001007FB0980A37C8A6BF1
:100D70000127CDE90402CDE90273C869DDE9083233
:100D8000C17E807ECDE900015146069802F0BAFE90
:100D9000681C18D046F0020003F08CF9DBF8000064
:100DA000A37C05FB0981826BCDE90273CDE90412B6
:100DB000C069DDE90832C17E807ECDE9000151467F
:100DC000069802F09FFEDBF800005D46C069417E98
:100DD000007E814214D9022E12D086F0040003F066
:100DE00069F92868C069027EC37E857E02FB03A183
:100DF000437E099A0698534402FB050202F0E6FF7F
:100E00000E9803F057F9DBF80000627C418C114426
:100E1000418411B0BDE8F08F2C0000200448006828
:100E2000C069C06909B1027C0A60407C704700005B
:100E30002C000020022008807047C06982898A4205
:100E400002D8C2898A4210D2806880B102888A4260
:100E50000DD843888B420AD3406800EB8100A0EB99
:100E60008200B0F90000002801DB0120704700205B
:100E7000704700002DE9F0432F4C034687B02068EF
:100E80001946B0F92A80C069C06900F082F80028CC
:100E90004ED041680088181A01EBC0054046AE7874
:100EA00003F008F9814620686A680123816BCDE967
:100EB0000236CDE90421C169CB7E8A7ECDE90023CB
:100EC0000B7EB0F924102A78B0F9220002F01AFE45
:100ED0002068C069477E067EB7421DD9C07E474361
:100EE0004643B8F1020F17D000F026FB804600F011
:100EF0000BFB00F065FC21682A78CB69B1F9220070
:100F0000B1F92410DB7E02FB0302CB19314402F05D
:100F10005DFF404600F054FC484603F0CBF82068E3
:100F20006A78C369B0F922109B7E02FB03114184E9
:100F300007B0BDE8F08300002C00002030B50E4C57
:100F400005460B4620682946C069C06900F021F8B3
:100F5000002810D04168008824682A1A0120E4691A
:100F600000EBC200085CA47E6043002B03D011F8A4
:100F700032106143196030BD2C0000200120088030
:100F8000704700B5C06900F004F8002800D00120C7
:100F900000BD06E002888A4202D842888A4202D214
:100FA00080680028F6D17047002801D004F020B8EE
:100FB000704738B50546FFF7F7FF040009D000F089
:100FC0008FF82A460021009000F0A6FE684600F047
:100FD00095F8204638BD0000024A106021F0030059
:100FE00050607047A0C5002010B5002814D00446FA
:100FF0000A48006B10F8341000290DD002290BD2DA
:10100000042101EBC4014158486803F0B5FF2046B4
:10101000BDE8104005F054BD10BD0000E4C4002040
:10102000002805D0034A916B016001B148609063CC
:1010300070470000E4C400202DE9F041044605F0AB
:1010400007FC2648E41C24F00305C16B2D1DA942B2
:1010500000D90D46846B13E054F8042CAA420ED13B
:1010600084B1216809B162684A60616809B1226887
:101070000A60826BA2422ED1216881632BE0246832
:10108000002CE9D18046416B80680F1857F8040C9A
:101090003E1A306838B1002005F0D6FD57F8040C30
:1010A0003E1A3068B8B97068A84214DB3044441B5B
:1010B000304605F0AFFDD8F80810491BC8F80810F5
:1010C000D8F810102944C8F8101070683146401B39
:1010D00003F052FF20C42046BDE8F081E4C40020A4
:1010E00005498A69521C8A61096B01EBC0010A78C3
:1010F000521C0A7000F01AB8E4C400200A490268C1
:101100000B6B52F8082C03EBC2021378022B03D3AB
:101110008B690BB15B1E8B611178491E1170002128
:101120000160084670470000E4C40020002806D093
:101130000349042202EBC000096B085808307047CD
:10114000E4C40020F0B52D271C68B0F1004F08D092
:10115000002500280DDA661C1E602770404201241D
:1011600008E0661C01251E606FF000402770491ED4
:1011700001E00024091BC9B22AB3491EC9B222E00A
:101180000C46491EC9B2944205D1124C27781C68FE
:10119000661C1E602770104C54F8216090FBF6F41A
:1011A000E4B20A2C11D804FB160011B90DB1641C6D
:1011B000E4B20A2C02D10124491CC9B21E683034A1
:1011C000771C1F6034700029DAD11968002008707C
:1011D000F0BD00002000002024B3000810B5C2B20A
:1011E000CBB2D21A02D5C2F1000212B293B2C0F34E
:1011F0000722C1F3072403FB03F3121B01D552425C
:1012000012B2000C92B2A0EB114002FB023200B20B
:10121000002801DA404200B280B200FB002010BD7D
:1012200010B50021084600F0BFF940F6FF725042A9
:10123000BDE8104013460146AFF300802DE9FC41A4
:1012400007461C4615460E46042002F033FF804632
:101250001148C068C16C006D0F4406440D4404443D
:10126000ADF80070ADF80450ADF80260ADF806407E
:10127000684603F013FD07E023462A463146384608
:1012800002F0A4FD03F0CCFC0028F5D1404602F0AA
:1012900011FFBDE8FC810000200000202DE9F04195
:1012A0001C4616460D460746022B02DB0020BDE811
:1012B000F0811C20FFF7C0FE0028F8D00DB10561B9
:1012C0000AE0094A52F8241009B905E011460A68F3
:1012D000002AFBD1096901618461868200210160D5
:1012E0004160C0E90217E2E74400002070B51D46E6
:1012F000FFF7D4FF040001D000F00EF8E0680068AA
:1013000020B90348006800EB85008465204670BD65
:101310002C000020FFF784BE70B590B38269022ACA
:1013200030DA1C4C54F8221019B944F822002FE08E
:1013300019464B68002BFBD106E0CB68C5681B68DB
:101340002D68AB4203DD09680029F6D11AE0C1B16E
:10135000CB68C6681B683668B3420CD1838A012B00
:1013600005D008E01946DB681B68AB4203DB0B685D
:10137000002BF7D129B14B6833B118604A6842603D
:1013800004E0FFE7012070BD44F8220048600160DE
:10139000002070BD4400002005F048BF022801DB9A
:1013A00000207047054951F8200004E0C168096831
:1013B0000029F6D000680028F8D1704744000020CA
:1013C0007FB51E4614460D46CDF80CD003AB002267
:1013D0003146FFF7B7FE22462946684600F082F8FC
:1013E0007FBD00002DE9FC4706005BD000F0ACF8A3
:1013F0003B4C81462068B0F9228000F0ADF82168AE
:1014000007468A8CD01B888441E000BF47F6FF71F5
:10141000304600F0ADFB82460146304600F07EFBD0
:101420002168054691F82C0000F0030001283FD008
:10143000022839D000204A8C101A4884ADF80000E8
:101440006A1E1044ADF80400888CADF80200A9F1C2
:1014500001010844ADF806006A465146304600F0E6
:1014600005FB2168BDF8020088845146304600F033
:1014700003FA064430780A281CD00D281AD0BDF88B
:101480000000216828444884307818B1761C3078F0
:101490000028BBD12068818C39448184818D21F062
:1014A00003018185BDE8FC8705EBD5704010C2E7DC
:1014B0002846C0E7206890F82C1001F003010129AC
:1014C0000BD0022909D0018C418431780A29DBD163
:1014D000828C02EB09018184D6E7A0F82280F4E730
:1014E0002C000020024B1B6859849A84FFF77ABFB6
:1014F0002C000020034951F82000C1688A6A0821A5
:10150000104700004400002010B502F08FFCBDE839
:10151000104002F0EDBC000002490968C9694A6840
:10152000002110472C000020024A1268D26952683C
:10153000104700002C00002010B502F07FFCBDE831
:10154000104002F0D5BC000002480068C069407E2F
:10155000704700002C0000200A490020096891F81B
:101560002C2002F00C02042A07D0082A01D00C2AF1
:1015700002D1C869007E40087047C869007E401EDD
:10158000704700002C000020024951F8200000693B
:101590000068704744000020024951F820000069AB
:1015A000406870474400002070B50D4605F0CCF847
:1015B0000446284605F0D0F8204370BD124810B507
:1015C000016821F00101016010480121816010498A
:1015D000016000680F49884200D0FEE700F02CFA55
:1015E0000D492E20087000F092F90C4805F0F8F82B
:1015F00006F094FA04460021084600F0F3F803F0E0
:1016000089F9204610BD0000002000E000300240B3
:10161000C2A507F4CDB5E8B520000020ACC5002078
:1016200038B5040018D00D480068006EA04201D102
:1016300000F0A8F82046FFF753FD0090406908B17C
:1016400000F042F900980068FFF764FE6846FFF773
:1016500055FD2046FFF7C8FC38BD00002C000020D7
:1016600038B5002460B1FFF73BFD009000680069C9
:101670008068804702F0CEFE04466846FFF73EFDD4
:10168000204638BD38B5FFF72BFD00F11804009057
:101690006846FFF733FD204638BDF8B515460E46BF
:1016A0000746FFF71DFD009044696846FFF726FDD9
:1016B0003846FFF7D5FF0346082800DD2CB12A463F
:1016C0003146384605F0E8FDF8BD2A463146384631
:1016D00005F07AFFF8BD10B5002821D009B30AB390
:1016E000B1F90040B2F900309C4200DA2346038091
:1016F000B1F90240B2F902309C4200DA234643803D
:10170000B1F90440B2F904309C4200DD23468380E5
:10171000B1F90610B2F90620914200DC1146C180F1
:1017200010BD11460A6802604968416010BD00287A
:101730000BD003880B44038083881944818041883F
:1017400011444180C1881144C1807047B0F9022022
:10175000B1F906309A4213DCB1F90220B0F9063033
:101760009A420DDCB0F90020B1F904309A4207DC4E
:10177000B1F90010B0F90400814201DC012070478A
:101780000020704710B502F029FC02F0DBFCBDE838
:10179000104002F093BF000070B504460548022CCB
:1017A0000068457C02D24474FFF7ECFF02480460F5
:1017B000284670BD2C0000209000002002F030BCB4
:1017C00002F066BC014988607047000020000020DC
:1017D00003490968CA6900B1C86110467047000032
:1017E0002C000020094A30B41080094A1180094AAF
:1017F0001268537C084A52F82330DA68146A0A46A1
:10180000A446014630BC1846604700005400002042
:10181000560000202C0000204400002002480068F0
:10182000002800D000477047F800002002498A686D
:1018300002B98860FFF7F2BFEC00002002490148BE
:1018400008607047808A0008300000202DE9F041D0
:10185000084E0446056830680168284688470746F0
:101860003068416828468847284420603846BDE8EB
:10187000F0810000300000202DE9F0410C460646C2
:101880000025064F05E03868416830468847064421
:101890000544641EF7D22846BDE8F08130000020E0
:1018A0002DE9F0411E46069C1746884605463A46F5
:1018B000A8687F1C3346D0F804C041462846E0475C
:1018C000641EF4D1BDE8F08138B50546FFF708FC89
:1018D00000908189491E0CB284816846FFF70EFC96
:1018E000002C02D12846FFF77FFB38BD10B54CF223
:1018F00050310448FFF770FBBDE810400248FFF785
:1019000061BF000094010020A0B00008704770473C
:1019100010B5082A0EDC0346012A1AD0022A58D034
:10192000042A78D010F8042B03F8012B491EF9D1B2
:10193000012010BD102A0ADC0222022AF8D1024638
:1019400030F8043B22F8023B491EF9D1F0E70020B1
:1019500010BD10F8042BD207120E491E34D010F817
:10196000044B491E04F0010442EA84122CD010F802
:10197000044B491E04F0010442EA441224D010F83A
:10198000044B491E04F0010442EA04121CD010F872
:10199000044B491E04F0010442EAC40214D010F8BA
:1019A000044B491E04F0010442EA84020CD010F8F2
:1019B000044B491E04F0010442EA440204D010F82A
:1019C000044B04F00104224303F8012B0029C0D189
:1019D000AEE710F8042B9207120E491E15D010F82E
:1019E000044B491E04F0030442EA04120DD010F81F
:1019F000044B491E04F0030442EA840205D010F8A7
:101A0000044B04F003042243491E03F8012B002970
:101A1000DFD18DE7FFE710F8042B1207120E491EE5
:101A200005D010F8044B04F00F042243491E03F8BC
:101A3000012B0029EFD17BE70A4810B58169002905
:101A40000ED101218161FFF751FF02F08DFB0549A5
:101A500005481C310860BDE81040084600F054B944
:101A600010BD0000200000200D6A00087CB506466D
:101A700028480D46006868B1002003F00FF906E021
:101A80006A462946304603F0AFFB03F0C9F8002848
:101A9000F6D17CBD106800901F4C50680190226800
:101AA000BDF8000032F84C1F0844ADF80000BDF846
:101AB000020091880844ADF80200BDF804001188C6
:101AC0000844ADF80400BDF8060091880844ADF85C
:101AD0000600684603F0E2F80EE000BF2068BDF89B
:101AE00000106A464184BDF80210818429463046C0
:101AF00003F07AFB03F094F80028EFD1206830F867
:101B0000221F428D891A01804188C28D891A418025
:101B10007CBD0000500000202C00002073B5124A4C
:101B200001A900981268904700240090C8B10F499D
:101B300000250968C969496959B10A684AB101991A
:101B400090477CBD6846FFF781FE0546FFF7E4FC41
:101B500004440198401E0190F4D5284600F024F872
:101B6000044420467CBD0000E80000202C0000203A
:101B700073B50D460098002490B10A490968C969F7
:101B8000496959B14A684AB1294690477CBD6846BF
:101B9000FFF75CFE20B10A2802D0641CAC42F6DBE1
:101BA00020467CBD2C00002038B5002469460094F6
:101BB000FFF7BAFC0099814200DD0C1A204638BDBF
:101BC000B0F90030B1F90020934200DA0280B0F998
:101BD0000230B1F90220934200DA4280B0F90430B9
:101BE000B1F90420934200DD8280B0F90620B1F9FA
:101BF00006108A4200DDC180704770B5B1F900401F
:101C0000B2F900309C4200DD23460380B1F9025056
:101C1000B2F90240A54200DD2C464480B1F90460CF
:101C2000B2F90450AE4200DA35468580B1F90610AB
:101C3000B2F90620914200DB1146C1809D4201DBD2
:101C4000A14201DA002070BD012070BD01460248AA
:101C50000068407C00F002B82C000020F8B5012696
:101C60000F46054602284BDA264C5FB3012F02D0FF
:101C7000022F45D116E054F8250088B92846FFF711
:101C80008DFB0090B8B3C0680D21426A684690474A
:101C9000020035D039460098904754F825000026B8
:101CA000401C2BE0FFF77AFB009020B3C0680D21A9
:101CB000426A68469047020022D039460098904711
:101CC00000261DE054F8250001280FD12846FFF713
:101CD00065FB009050B1C0680D21426A684690478C
:101CE000020003D0394600989047002654F825009A
:101CF00010B1012101E003E00021401A44F8250061
:101D00003046F8BDE000002002494A69426048615F
:101D1000704700002000002010B502E000F8011B11
:101D2000521E0AB18307F9D1930818D001EB014480
:101D300002F0030204EB042405E0046044608460C4
:101D4000C46010301B1F042BF7DA01E010C05B1ECB
:101D5000002BFBD103E000BF00F8011B521E002A3C
:101D6000FAD110BD10B5830702D520F8021B521E10
:101D7000530810D001EB0144042B08DB04604460DD
:101D80008460C46010301B1F042BF7DA01E010C020
:101D90005B1E002BFBD1D20700D0018010BD0000DC
:101DA000F8B500250446009590F82400012808D0D5
:101DB000012084F824002046FEF7F8FC060002D03B
:101DC0004BE00220F8BDA06A20F4885040F00200E9
:101DD000A062022000F0C4FE22490968B1FBF0F0C5
:101DE000400000E0401E00900028FBD12046FEF796
:101DF0003DFD2068816841F00801816000F00AFE25
:101E0000074604E000F006FEC01B0A2811D820682F
:101E100080680007F6D42068816841F00401816081
:101E200000F0F8FD07460EE000F0F4FDC01B0A28A4
:101E300009D9A06A20F0020040F01000A06284F8E6
:101E400024500120F8BD206880684007ECD4A06AC7
:101E500020F0020040F00100A06284F824503046D7
:101E6000F8BD000004000020F8B50025009590F8AA
:101E70002420AE46012A1ED0012280F824204A6880
:101E80001F244FF47873072A17D20668776B93FAEA
:101E9000A3FCBCFA8CFC521E02FB0CFC04FA0CF4F2
:101EA000A74393FAA3F3B3FA83F30C685A4394401D
:101EB000274377632DE00220F8BD06680D2A14D26F
:101EC000376B93FAA3FCBCFA8CFCD21F02FB0CFC10
:101ED00004FA0CF4A74393FAA3F3B3FA83F30C6860
:101EE0005A4394402743376313E0F76A93FAA3FCFD
:101EF000BCFA8CFC0D3A02FB0CFC04FA0CF4A74370
:101F000093FAA3F3B3FA83F30C685A43944027433C
:101F1000F7620A683823072406680A2A14D3F76888
:101F200093FAA3FCBCFA8CFC0A3A02FB0CFC04FA00
:101F30000CF4A74393FAA3F3B3FA83F38C685A43E0
:101F400094402743F76012E0376993FAA3FCBCFA88
:101F50008CFC02FB0CFC04FA0CF4A74393FAA3F3E9
:101F6000B3FA83F38C685A439440274337610A6875
:101F7000102A01D0112A20D1124B02689A4217D19F
:101F800093681B0219D4936843F4000393600968B3
:101F9000102912D10C490D4A0968B1FBF2F101EB8D
:101FA0008101490000E0491E00910029FBD104E0B5
:101FB000816A41F020018162012580F824E02846F1
:101FC000F8BD0000002401400400002040420F0042
:101FD00070477047704700002DE9F04104004FF052
:101FE000000514D0A06A002628B9E66284F82460AF
:101FF000204600F08BF82046FEF7D8FBA16A01F0DE
:102000001001014304D0A06A40F01000A06277E004
:10201000A16A21F4885141F00201A1626268E1697C
:1020200002270A43E16897FAA7F70B46B7FA87F742
:10203000B9400A43A1684FF48077B94208D001291A
:1020400006D00021D4F814C0BCF1010F02D00AE080
:102050003946F7E7F3B1A36A43F02003A362E36ACA
:1020600043F00103E3622368D3F804C02CF4694C05
:102070004CEA010CC3F804C021688B68DFF884C007
:1020800003EA0C0313438B60A168B94210D0012905
:102090000ED016E04FF4604CA3699CFAACFCBCFA7D
:1020A0008CFC5B1E03FA0CF30B4343F40061DAE78C
:1020B0004FF47001256991FAA1F1B1FA81F16D1E19
:1020C0008D402168CB6A23F470032B43CB622168D7
:1020D00089680D4B1940914208D1E662A16A21F04E
:1020E000020141F00101A162BDE8F081A06A20F087
:1020F000020040F01000A062E06A40F00100E062DF
:102100000120F1E7FDF7E1FFFE0E1FFF30B50546A8
:102110000068154985B0884224D11448816941F48A
:10212000007181618069694600F4007004900120AB
:102130000090032001900E4800F088FB0E4C0D48E3
:102140008021206000206060C4E902014900216113
:10215000890061612021C4E90610204600F016FBC9
:102160002C62656205B030BD0024014000100240C1
:1021700000100140080002405C0100202DE9F047FA
:10218000894604463B4900683B4F0E1D90468842F5
:1021900001D0B84207D1306810F4702F03D0012568
:1021A0002846BDE8F08794F8240001280CD00120CF
:1021B00084F824002046FEF759FB05004FF000008C
:1021C00004D084F82400EBE70220EAE7A16A40F695
:1021D0000162914341F48071A1622168B94218D132
:1021E000326812F4702F14D0A16A41F48011A162F8
:1021F0003168490505D5A16A21F4005141F48051A7
:10220000A162A16AC9040AD5E16A21F00601E1626E
:1022100006E0A26A22F48012A2624968E9E7E0625D
:1022200084F82400216A15488862216A1448C8622B
:10223000216A1448086321686FF002000860206872
:10224000816841F480718160216843464A464C317F
:10225000206A00F0C3FA20688168C1F3424107296F
:10226000816803D041F48011816099E741F4A001B5
:10227000FAE700000024014000280140F9070008A7
:10228000610800084708000810B5040002D0607912
:1022900010B106E0012010BD00202071204600F0A2
:1022A00005F801206071002010BD000008B500682D
:1022B0000649884208D10648416941F04001416120
:1022C000406900F04000009008BD0000003002406E
:1022D000001002402DE9F05F0446F94AF84DF84E2F
:1022E000F74F0068DFF8D893DFF8D4A3DFF8D0B356
:1022F000D114783D643E503F4FF4000E4FF4004C33
:102300004FF40028A9F13C09AAF1280AABF1140BFB
:10231000904221D9EB4A1368A8420FD0B0420FD0A7
:10232000B84213D0484513D0504513D0584501D179
:10233000724624E0E34A083290423CD108221EE073
:1023400080221CE0DF4A3032904239D10A4616E042
:10235000624614E0424612E0D94A803A1368A84225
:10236000ECD0B042ECD0B842F0D04845F0D0504567
:10237000F0D05845DCD0D24A9042DBD1020513425E
:1023800079D00268D243120775D4026822F008029D
:102390000260CB4A2068904232D9A84219D0B0429C
:1023A0001DD0B84228D0484523D0504523D05845A9
:1023B0000BD1714620E0C34A1C329042C2D1BFE724
:1023C000C04A44329042C5D1C2E7BE4A0832904268
:1023D00001D1082110E0BB4A1C32904201D180217A
:1023E0000AE0B84A3032904206D0B64944318842B9
:1023F00001D1614600E04146B248001D01602CE079
:10240000A84214D0B04218D0B84223D048451ED0BC
:1024100050451ED0584501D171461BE0904202D173
:102420004FF0006116E0A74A0832904201D108211E
:1024300010E0A44A1C32904201D180210AE0A14A56
:102440003032904206D09F494431884201D16146E2
:1024500000E041469A4880384160606B40F00100DE
:102460006063042084F82100002084F82000216BA0
:1024700009B120468847924A206811154FF4800E12
:102480004FF4804C4FF48028904221D98D4A136834
:10249000A8420FD0B0420FD0B84213D0484513D055
:1024A000504513D0584501D1724624E0854A083280
:1024B00090423FD104221EE040221CE0814A30328B
:1024C00090423CD10A4616E0624614E0424612E0D1
:1024D0007B4A803A1368A842ECD0B042ECD0B842B4
:1024E000F0D04845F0D05045F0D05845DCD0744A83
:1024F0009042DBD1C204134275D00268D243520726
:1025000071D40268920603D4026822F004020260C9
:102510006B4A2068904232D9A84219D0B0421DD0EF
:10252000B84228D0484523D0504523D058450BD138
:10253000714620E0634A1C329042BFD1BCE7614A39
:1025400044329042C2D1BFE75E4A0832904201D184
:10255000042110E05B4A1C32904201D140210AE084
:10256000584A3032904206D056494431884201D10F
:10257000614600E041465348001D01602CE0A8423E
:1025800014D0B04218D0B84223D048451ED0504590
:102590001ED0584501D171461BE0904202D14FF048
:1025A000806116E0474A0832904201D1042110E0D0
:1025B000444A1C32904201D140210AE0414A303263
:1025C000904206D03F494431884201D1614600E043
:1025D00041463B4880384160112084F82100E16A7F
:1025E00009B120468847364A206851154FF4005CEF
:1025F0004FF4003E904228D9324B1B68A84212D0BB
:10260000B04213D0B8421AD048451AD050451AD01B
:10261000584502D14FF400182AE0DFF8A88008F1ED
:102620000808404544D14FF0020821E04FF020084F
:102630001EE0DFF8908008F13008404544D188461C
:1026400016E0E04614E0F04612E01D4B803B1B68AC
:10265000A842E8D0B042E9D0B842F0D04845F0D026
:102660005045F0D05845D5D09042D6D14FF00078A3
:1026700013EA080F70D00368DB439B077FD403681D
:102680009B0603D4036823F0020303602068904292
:1026900039D9A84221D0B04225D0B8422FD04845E0
:1026A0002AD050452AD0584513D14FF4001126E0C6
:1026B000DFF8108008F11C084045BAD1B6E70000E9
:1026C0008000024000040240DFF8B8804045BAD1E3
:1026D000B7E72C4A3C3A904201D102210FE0294A47
:1026E000283A904201D1202109E0264A143A90422A
:1026F00005D02449884201D1614600E07146214855
:10270000403801602CE0A84215D0B04219D0B84240
:1027100024D048451ED050451FD0584502D14FF413
:1027200000111BE0904202D14FF0007116E0154AF3
:102730003C3A904201D1022110E0124A283A9042DC
:1027400001D120210AE00F4A143A904206D00D49E7
:10275000884202D1614601E011E071460A484160B9
:10276000606B6063012084F82100002084F8200061
:10277000A16A002903D02046BDE8F05F0847BDE804
:10278000F09F0000440402400000024070B520B1F8
:1027900090F82110002411B103E0012070BD80F8F1
:1027A0002040022180F8211003681A6843F6F07176
:1027B0008A43D0E901152943D0E90356354329431B
:1027C0004569294385692943C5692943114319602E
:1027D0004463012180F82110002070BD70B50446CB
:1027E00090F82000012823D0012084F82000022046
:1027F00084F821002068056825F001050560204661
:10280000FEF79AF82068016841F002010160206833
:10281000016841F0040101602068016841F008018D
:1028200001602068016841F001010160002070BD75
:10283000022070BD31B500F0EDF8044600F0EAF872
:102840000099001B8842F9D338BD00002DE9F84FEC
:10285000DFF890A100220AF1040B144601274FF083
:102860000F090BF1040E00BF0B6807FA04F52B40AB
:10287000AB4274D1DFF870C14E68A6EB0C08664518
:102880002BD00DDC032E34D005DC36B3012E19D04D
:10289000022E2FD11BE0112E16D0122E2AD119E0B4
:1028A000B8F5881F19D006DCB8F5803F15D0B8F50B
:1028B000801F1FD111E0B8F5001F0ED0B8F5041F1E
:1028C00018D10AE0CA6815E0CA68121D12E0CA6889
:1028D00008320FE0CA680C320CE08A682AB1012A7B
:1028E0004FF0080203D0456104E0042202E00561D4
:1028F00000E00022FF2B01D8064601E000F10406AB
:102900004FEA840501D9A5F12005D6F800C009FADF
:1029100005F82CEA080C02FA05F54CEA050CC6F895
:1029200000C04D68ED0057D5304DAE6946F0010648
:10293000AE61AD6924F0030605F0010500952C4D4C
:1029400006EB050CDCF80850A6074FEA167809FAE2
:1029500008F6B543274EB04202D1002610E03BE016
:10296000254EB04201D101260AE0244EB04201D1E9
:10297000022605E0224EB04201D1032600E00426E3
:1029800006FA08F62E43CCF808604D68DAF80060C5
:10299000ED03554601D51E4300E09E432E604D6871
:1029A000DBF80060AD035D4601D51E4300E09E43A9
:1029B0002E604D68DEF80060ED02754601D51E43BD
:1029C00000E09E432E604D68AD020E4D2E6801D58D
:1029D0001E4300E09E432E60641C102CFFF444AFA5
:1029E000BDE8F88F00040140000011100010024003
:1029F0000000014000080140000C014000100140AF
:102A0000001401400C0401400AB10161704709043F
:102A1000FBE700000148006870470000000000204C
:102A200002480168491C0160704700000000002056
:102A3000074810B5016841F010010160032000F063
:102A40007DF8002000F006F800F016F8002010BD18
:102A50000020024010B5044600F0B2FB4FF47A713A
:102A6000B0FBF1F001F028F800222146501E00F0E2
:102A700045F8002010BD0000184808B5816941F0F4
:102A800001018161806900F001000090062000F0E2
:102A900055F8002211466FF00B0000F02FF80022CD
:102AA00011466FF00A0000F029F8002211466FF07D
:102AB000090000F023F800221146101F00F01EF854
:102AC00000221146501E00F019F80548416821F017
:102AD000E06141F00071416008BD0000001002405B
:102AE0000000014000F01F020121914040098000D8
:102AF00000F1E020C0F8001170470000F0B40E4B68
:102B00001B680C46C3F30223C3F10705042D00D94B
:102B10000425191D072901D2002300E0DB1E012630
:102B200006FA05F1491E214099409E40761E164046
:102B30003143F0BC01F038BD0CED00E0064900F077
:102B4000070208684FF6FF03184040EA0220034AD4
:102B500010430860704700000CED00E00000FA052B
:102B6000F0B56BA38BB001460DCB8DE80D006BA4C7
:102B700003AD1DCC85E81D00F02300206B4A1D022B
:102B80006B4C04296DD012DC012970D0022966D16A
:102B900000F030FB61684FF4804292FAA2F201F437
:102BA0004041B2FA82F2D140491C490055E008295F
:102BB00079D0102953D167682168C9014FD54FF4E6
:102BC000701595FAA5F107F47010B1FA81F1C840BB
:102BD0006E461DF80010F80337D5E06A0F2797FA04
:102BE000A7F700F00F00B7FA87F7F84003AF3F5C94
:102BF000E06AC0031AD5E06A93FAA3F300F0F0008C
:102C0000B3FA83F3D840E36A4FF4706C9CFAACFCDF
:102C100003F47063BCFA8CFC23FA0CF3401CB2FB87
:102C2000F0F09B1C5843B0FBF7F001E0B2FBF7F06B
:102C300095FAA5F348434FF45012B3FA83F3DA4000
:102C4000B25C8A4204D1400802E008463949484350
:102C50006168490203D440000321B0FBF1F00BB0DE
:102C6000F0BDE16A890303D400F0DAFAF7E737E050
:102C70002168C900F3D5E06A00F0F00193FAA3F0EF
:102C8000B0FA80F0C140E06A95FAA5F300F4704014
:102C9000B3FA83F3D840491CB2FBF1F1801C4143E5
:102CA0004800DCE7FFE7E16A4903DDD52168C90098
:102CB000D5D5E06A93FAA3F100F0F000B1FA81F102
:102CC000C840E16A95FAA5F301F47041B3FA83F3C1
:102CD000D940401CB2FBF0F0891C48434000BEE7DD
:102CE000226AC2F30121012903D1920701D5C80349
:102CF000B5E7022905D1626A920702D549F640403C
:102D0000ADE70329ABD121688903A8D50A48A6E716
:102D100000000405060708090000000D0102030475
:102D200005060708090A0B0C0D0E0F1040787D01EF
:102D30000010024000093D00F0FA02002DE9F84FB2
:102D400004460078DFF8E481794DC0074FF00109AF
:102D50006FD0E86940F08050E861E869754E00F096
:102D600080500090306840F480703060FFF752FE71
:102D7000074604E0FFF74EFEC01B64287ED830688B
:102D8000C005F7D5286AA18800F4407001F44071AD
:102D900088424ED0286A4FF4803292FAA2F1B1FAFA
:102DA00081F108EB810320F440704E46C3F8009493
:102DB00092FAA2F2B2FA82F208EB82010023C1F881
:102DC0000034286280072ED5FFF724FE074641F223
:102DD000883B4FF0020A04E0FFF71CFEC11B594577
:102DE00077D89AFAAAF1B1FA81F141F04001504640
:102DF000B6EB511F01D129680BE090FAA0F1B1FAAE
:102E000081F141F04001B0EB511F01D1296A00E08E
:102E1000696A9AFAAAF0B0FA80F000F01F0206FA86
:102E200002F00142D8D0286A616820F4407008435B
:102E300028622078800705D56868A16820F44040A2
:102E4000084368602078400705D5E86AE16820F407
:102E500000300843E8622078000705D5E86A216958
:102E600020F480200843E862E86A800302D4E86A1C
:102E700040034FD52868C00044D400E029E028680A
:102E8000400105D5E86AA16900F0F00088423FD111
:102E9000E86AA16920F0F0000843E862E86A616925
:102EA00020F470400843E8624FF0805090FAA0F0A0
:102EB000B0FA80F04F4648F82090FFF7ABFDB846D7
:102EC00006464FF0005707E0FFF7A4FD801B64287B
:102ED00002D90320BDE8F88F97FAA7F0B0FA80F086
:102EE00040F02000400901D0286800E0686A97FAA5
:102EF000A7F1B1FA81F101F01F0208FA02F10842CC
:102F0000E2D007E0E86A616900F47040884201D0CD
:102F10000120DFE72078C00605D56868E16920F464
:102F20008000084368600020D4E7000000004242AF
:102F300000100240007000402DE9F047DFF8789261
:102F400005460E46D9F80000022300F007070120CD
:102F500041044206994C41F28838B74271D2D9F8FF
:102F600000C02CF0070C4CEA060CC9F800C0D9F8D8
:102F7000007007F00707B7426FD12E78B60705D566
:102F80006668AF6826F0F0063E4366602E78F60766
:102F900056D06E68012E0BD0022E1ED093FAA3F1EC
:102FA000B1FA81F141F02001490924D0216823E0E0
:102FB00091FAA1F2B2FA82F242F02002520901D053
:102FC000226800E0626A91FAA1F1B1FA81F101F0A0
:102FD0001F018840024240D017E092FAA2F1B1FAF4
:102FE00081F141F02001490901D0216800E0616AC6
:102FF00092FAA2F202E0616A93FAA3F2B2FA82F2C2
:1030000002F01F029040014227D0606820F00300C8
:1030100030436060FFF7FEFC06466868012809D06F
:103020000228474613D01EE0FFF7F4FC801BB8428D
:1030300001D992E047466068C0F381000128F3D1CE
:10304000A1E015E0FFF7E6FC801BB84273D860688A
:10305000C0F381000228F5D195E092E0FFF7DAFC99
:10306000801BB84279D8606810F00C0FF6D18AE066
:103070002F78BF0707D56768D5F808C027F0F00795
:1030800047EA0C0767602F78FF076DD06F68012F44
:103090000BD0022F1ED093FAA3F1B1FA81F141F0C7
:1030A0002001490924D0216823E091FAA1F2B2FA63
:1030B00082F242F02002520901D0226800E0626AE6
:1030C00091FAA1F1B1FA81F101F01F0188400242A9
:1030D00057D017E092FAA2F1B1FA81F141F0200144
:1030E000490901D0216800E0616A92FAA2F202E087
:1030F000616A93FAA3F2B2FA82F202F01F029040E0
:1031000001423ED0606820F0030038436060FFF762
:1031100081FC07466868012807D0022811D01FE00B
:10312000FFF778FCC11B414517D86068C0F38100E8
:103130000128F5D118E010E0FFF76CFCC11B4145F8
:103140000BD86068C0F381000228F5D10CE000BF05
:10315000FFF760FCC11B414502D90320BDE8F087A1
:10316000606810F00C0FF3D1D9F8001021F00701BE
:103170003143C9F80010D9F8000000F00700B04250
:1031800001D00120EAE72878400705D56068E968A2
:1031900020F4E060084360602878000706D5606886
:1031A000296920F4605040EAC10060600020FFF708
:1031B00051FC0020D2E70000002002400010024035
:1031C00000B500F02DF808494968F02292FAA2F201
:1031D00001F0F001B2FA82F2D140044A515CC840D9
:1031E0000349086000BD000000100240508A00083A
:1031F0000400002000B5FFF7E3FF074949684FF4DA
:10320000605292FAA2F201F46051B2FA82F2D14015
:10321000024A515CC84000BD00100240508A0008BC
:10322000F0B52DA28AB007CA8DE807002DA103AC26
:103230000FC984E80F002F494B682F4803F00C0298
:10324000042A02D0082A02D02C480AB0F0BD4FF45C
:10325000701595FAA5F403F47012B4FA84F4E24000
:103260006E461DF80220DB0333D5CB6A0F2494FA97
:10327000A4F403F00F03B4FA84F4E34003ACE45C79
:10328000CB6ADB0316D5CB6AF02797FAA7F703F0D2
:10329000F003B7FA87F7C96AFB40AF1297FAA7F7AE
:1032A00001F47061B7FA87F7F9405B1CB0FBF3F0EB
:1032B000891C4843B0FBF4F095FAA5F350434FF452
:1032C0005011B3FA83F3D940715C9142BDD14008EB
:1032D000BBE70B485043B8E70000040506070809A0
:1032E0000000000D0102030405060708090A0B0C83
:1032F0000D0E0F100010024040787D0100127A0080
:1033000000093D002DE9F84F04460078FC4DC00748
:103310004FF0010625D068687704C0F381000128CA
:1033200007D06868C0F3810002281BD16868C00319
:1033300018D597FAA7F0B0FA80F040F020004009C5
:1033400001D0286800E0686A97FAA7F1B1FA81F124
:1033500001F01F0106FA01F1084202D0A06800281E
:1033600076D081E0286820F480302860286820F436
:1033700080202860FFF74EFB804605E0FFF74AFB00
:10338000A0EB080064287DD897FAA7F0B0FA80F087
:1033900040F02000400901D0286800E0686A97FAF0
:1033A000A7F1B1FA81F101F01F0106FA01F108421B
:1033B000E4D1A068B0F5803F0BD010B1B0F5A02FDC
:1033C00011D0286820F480302860286820F48020FC
:1033D00002E0286840F480302860A06820B3FFF73E
:1033E00019FB80460AE0286840F480202860F0E756
:1033F000FFF710FBA0EB08006428C4D897FAA7F0E9
:10340000B0FA80F040F02000400901D0286800E0C8
:10341000686A97FAA7F1B1FA81F101F01F0106FA83
:1034200001F10842E4D01FE0FFF7F4FA804605E01E
:10343000FFF7F0FAA0EB08006428A4D897FAA7F0E9
:10344000B0FA80F040F02000400902D0286801E086
:10345000B8E0686A97FAA7F1B1FA81F101F01F01AB
:1034600006FA01F10842E3D12078A64F80074FF019
:1034700002084FF000095BD568684FF0F80B10F0B8
:103480000C0F00E01DE207D06868C0F3810002283D
:103490001BD16868C00318D498FAA8F0B0FA80F07D
:1034A00040F02000400901D0286800E0686A98FADE
:1034B000A8F1B1FA81F101F01F0106FA01F1084209
:1034C0002BD0606901287DD127E0606988B396FA26
:1034D000A6F0B0FA80F047F82060FFF79BFA82462A
:1034E00006E000BFFFF796FAA0EB0A00022884D896
:1034F00098FAA8F0B0FA80F040F02000400901D01E
:10350000286800E0686A98FAA8F1B1FA81F101F040
:103510001F0106FA01F10842E4D028689BFAABF2D9
:10352000A169B2FA82F220F0F800914008432860C5
:1035300025E0FFE796FAA6F1B1FA81F147F821906C
:10354000FFF768FA824605E0FFF764FAA0EB0A008D
:103550000228CCD898FAA8F0B0FA80F040F0200009
:10356000400901D0286800E0686A98FAA8F1B1FA29
:1035700081F101F01F0106FA01F10842E4D120783F
:1035800000076FD5E069C0B396FAA6F0B0FA80F0F4
:1035900007EB8000C0F88064FFF73CFA824605E044
:1035A000FFF738FAA0EB0A000228A0D898FAA8F191
:1035B000B1FA81F141F060014046B6EB511F02D1F2
:1035C00029680CE0A0E190FAA0F1B1FA81F141F094
:1035D0006001B0EB511F01D1296A00E0696A98FAD5
:1035E000A8F0B0FA80F000F01F0206FA02F00142E3
:1035F000D6D00120FFF71EF934E0FFE796FAA6F1D6
:10360000B1FA81F107EB8101C1F88094FFF702FA6A
:10361000824605E0FFF7FEF9A0EB0A00022898D8E1
:1036200098FAA8F1B1FA81F141F060014046B6EB99
:10363000511F01D129680BE090FAA0F1B1FA81F194
:1036400041F06001B0EB511F01D1296A00E0696AC5
:1036500098FAA8F0B0FA80F000F01F0206FA02F023
:103660000142D7D12078400773D5E86940F08050F7
:10367000E861E869DFF890B000F080500090DBF876
:10368000001041F48071CBF80010FFF7C3F98246B7
:1036900006E000BFFFF7BEF9A0EB0A00642884D85B
:1036A000DBF80000C005F5D5286A20F0010028628B
:1036B000286A20F004002862FFF7ACF9834641F243
:1036C000883A05E0FFF7A6F9A0EB0B015145A6D813
:1036D00098FAA8F1B1FA81F141F040014046B6EB09
:1036E000511F01D1296812E090FAA0F1B1FA81F1DD
:1036F00041F04001B0EB511F08D1296A07E00000FA
:10370000001002400000424200700040696A98FACE
:10371000A8F0B0FA80F000F01F0006FA00F00142B5
:10372000D0D1206901280AD008B1052812D0286A12
:1037300020F001002862286A20F0040002E0286AD4
:1037400040F001002862206998B3FFF763F98346CF
:103750000CE05BE0286A40F004002862EFE700BF5D
:10376000FFF758F9A0EB0B01514598D898FAA8F14A
:10377000B1FA81F141F040014046B6EB511F01D151
:1037800029680BE090FAA0F1B1FA81F141F0400113
:10379000B0EB511F01D1296A00E0696A98FAA8F0DC
:1037A000B0FA80F000F01F0206FA02F00142D7D012
:1037B0002CE0FFE7FFF72EF9834605E0FFF72AF933
:1037C000A0EB0B0151457CD898FAA8F1B1FA81F130
:1037D00041F040014046B6EB511F01D129680BE092
:1037E00090FAA0F1B1FA81F141F04001B0EB511F24
:1037F00001D1296A00E0696A98FAA8F0B0FA80F06D
:1038000000F01F0206FA02F00142D7D1E16AA1B32B
:103810006868C00307D56868C0F38100022802D138
:10382000E86AC00370D44FF080604FF0006B02294B
:103830000DD0E96A21F48031E96290FAA0F0B0FA83
:1038400080F047F82090FFF7E5F8804670E029689F
:10385000C90005D5E96A626B01F0F001914253D1CC
:103860004FF0806090FAA0F0B0FA80F047F8209016
:10387000FFF7D0F88246D84606E06EE0FFF7CAF8B8
:10388000A0EB0A0064281CD898FAA8F0B0FA80F0DF
:1038900040F02000400901D0286800E0686A98FAEA
:1038A000A8F1B1FA81F101F01F0106FA01F1084215
:1038B000E4D1E86A616B20F0F0000843E862E86A4E
:1038C00000E082E0216B20F470600843E8624FF072
:1038D000806090FAA0F0B0FA80F047F82060FFF71F
:1038E00099F8824606E000BFFFF794F8A0EB0A00C3
:1038F00064286AD898FAA8F0B0FA80F040F0200066
:10390000400902D0286801E0A7E0686A98FAA8F1A7
:10391000B1FA81F101F01F0106FA01F10842E3D08A
:103920001BE000BFFFF776F8A0EB080064284CD836
:103930009BFAABF0B0FA80F040F02000400901D0D3
:10394000286800E0686A9BFAABF1B1FA81F101F0F6
:103950001F0106FA01F10842E4D1206AA0B36968A8
:10396000C1F38101022978D002284FF080714FF015
:10397000007A48460AD091FAA1F1B1FA81F147F8EC
:103980002100FFF747F8074654466FE08B4691FA4F
:10399000A1F1B1FA81F1B94647F82100FFF73AF8F1
:1039A0008046574606E000BFFFF734F8A0EB08005A
:1039B000022858D897FAA7F0B0FA80F040F020001B
:1039C000400903D0286802E065E04CE0686A97FA95
:1039D000A7F1B1FA81F101F01F0106FA01F10842E5
:1039E000E2D1606AB0F5803F09D1E86A61680843B6
:1039F000E862E86AE16820F00F000843E862D4E971
:103A000009010843696821F47411084368609BFA4E
:103A1000ABF0B0FA80F049F82060FEF7FBFF0446F7
:103A200005E000BFFEF7F6FF001B02281BD897FA3F
:103A3000A7F0B0FA80F040F02000400901D02868DB
:103A400000E0686A97FAA7F1B1FA81F101F01F016D
:103A500006FA01F10842E5D01DE01EE0FEF7DAFFAC
:103A6000C01B022802D90320BDE8F88F94FAA4F005
:103A7000B0FA80F040F02000400901D0286800E052
:103A8000686A94FAA4F1B1FA81F101F01F0106FA13
:103A900001F10842E2D10020E6E70120E4E74FF01F
:103AA000E0210428086903D020F004000861704771
:103AB00040F00400FAE7704710B5401EB0F1807F77
:103AC00001D3012010BD4FF0E02460610F21601789
:103AD00000F06AFD0020A06107202061002010BDD9
:103AE00010B5FFF7E8FF10BD0449054A0968497C95
:103AF00052F8211009690968084700002C000020CD
:103B0000440000202DE9F04F05468DB07C48DDF8DB
:103B100060901A9C00681E4617464FF0000A78B164
:103B20001B9B199ACDF808900593CDE90324DDE994
:103B30001623CDE90023046833463A46284682E03E
:103B4000DDE9160201EB060805EB070C1043A8F1AE
:103B50000108ACF1010C012806D0C9F1080005905C
:103B6000002002910890C8E066480268B2F90A3065
:103B7000581A002806DD361A002E65DD1946199BF5
:103B800000FB0344B2F90E00A8EB0000002802DDA0
:103B9000361A002E58DDB2F90C00ACEB00000028FC
:103BA00000DD3F1AB2F908300020AB4237DD581B68
:103BB0003F1A4B46B9F1080F28D007DC012B0DD076
:103BC000022B13D0B9F1040F29D117E0102B1FD00D
:103BD000182B20D0B9F1200F21D11CE020F00703D1
:103BE00004EBE0041D4400F0070018E020F003039C
:103BF00004EBA0041D4400F0030010E020F00103DA
:103C000004EB60041D4400F0010008E0044404E0FB
:103C100004EB400401E004EB800405440020002F85
:103C200012DD1B9BDDF864C0CDE90403CDE902C4BD
:103C3000CDE90069527C34483B4650F82200C26806
:103C400054680A462946A0470DB0BDE8F08F179981
:103C50000298084409902B49401E00900A68B2F966
:103C60000A30834241DCB2F90E10029881423CDBFB
:103C70004FF0000BD84603950B9434E0BBF1000FD6
:103C800005D10B984FF0080B10F801AB0B9005997C
:103C9000ABEB090B3AFA01F00AFA09F101F0FF0A5D
:103CA00004D118490968097C890716D4154909689F
:103CB000C96B0A680C921B9A0AB152F8200008607E
:103CC00016990398009B4218521E029900F07EF844
:103CD0000C490C980968C96B08600399169808F19B
:103CE000010808440390B845C8DB0898401C0890B8
:103CF00009980290199804440898B042A7DBA3E7FA
:103D0000500000202C00002044000020F0B40C469D
:103D100012490968B1F90A30A3421CDCB1F90E302E
:103D2000A34218DBB1F90830834200DD1846B1F92F
:103D30000C30934200DA1A4682420CDB4B7C084975
:103D400051F8235013462246E9688E6801462846FA
:103D5000B446F0BC6047F0BC704700002C00002067
:103D6000440000200A46174930B40968B1F90A3006
:103D7000934225DCB1F90E30934221DBB1F90830D2
:103D800083421DDCB1F90C30834219DB0B7C0E4CF5
:103D9000DB0709D0497C54F82130D968CC69014649
:103DA000A44630BC18466047CB6B497C1B6854F86E
:103DB0002140E1688D6901462046AC4630BC604731
:103DC00030BC70472C0000204400002038B5134C54
:103DD0002468B4F90850854200DD2846B4F90C5037
:103DE000954200DA2A46824217DBB4F90A508D4226
:103DF00000DD2946B4F90E509D4200DA2B468B4275
:103E00000BDB0093647C064B53F82440E3681D6988
:103E100013460A4601462046A84738BD2C0000201C
:103E200044000020082102F018BC0000024800688D
:103E3000806B0068704700002C000020024800687A
:103E4000C06B0068704700002C0000200248092168
:103E50000068407C02F001BC2C000020092102F027
:103E6000FCBB70B500252C462046FDF797FA00B143
:103E70006D1C641C022CF7DB284670BD02480068EC
:103E8000407C00F003B800002C00002010B5FDF7C6
:103E900085FA002805D0C168CA6ABDE81040022131
:103EA000104710BDAFF300802DE9F041002809D084
:103EB000876837B10D4E716819B10468B4F5807F19
:103EC00002DD0020BDE8F0813068844200DD044658
:103ED000002507E057F82500FFF706FE716841F856
:103EE00025006D1CA542F5DB7068EBE7780000202B
:103EF0000449054A0968497C52F821100969496852
:103F0000084700002C0000204400002010B500F0FD
:103F10001F01074A074BC0F34514C0F3C4201B5DC3
:103F2000105C515C00EB032000EB014010BD000071
:103F3000C4B20008E4B2000810B50A4C606860B969
:103F400020688000FDF778F8606040B104F1080156
:103F5000054808600846FDF7D7FE002010BD012087
:103F600010BD000078000020396A00082DE9F041FA
:103F7000FFF777FF0746002528E02846FDF70EFAF1
:103F800018B32846FDF708FC80462846FFF74AFF8D
:103F9000082817DC0F48104950F8250000698842AE
:103FA00010D02846FFF75AFF0646002408E0E0B28A
:103FB000FFF79EFF0246E1B2284600F081F8641C3C
:103FC000B442F4DB4046FDF7E7FB6D1CBD42D4DB99
:103FD000BDE8F08144000020DCB3000810B50E4CB1
:103FE0000E492068407C51F8200050B1C168096832
:103FF000042903D000680028F8D102E008B1FDF7D9
:10400000CBF920680021016600F108014161BDE89B
:10401000104000F02FB800002C00002044000020C9
:104020000149096849680847740000200449096883
:104030000A7C520701D5C96B00E0896B08607047A4
:104040002C0000207CB5094C05462068417C0848BE
:1040500050F82100C1680A6B6946904720686A469B
:1040600029460830FDF7C9FD7CBD00002C0000206A
:10407000440000200448016804484A7C083150F894
:104080002200C268126B10472C0000204400002060
:104090000149096809680847740000200449096853
:1040A0000A7C520701D5896B00E0C96B0860704734
:1040B0002C00002001490968896808477400002025
:1040C000F8B515460E460124FDF768F9009058B181
:1040D000C0681021426A68469047030004D02A460F
:1040E00031460098984700242046F8BDF8B515469B
:1040F0000E460124FDF752F9009058B1C0680B211B
:10410000426A68469047030004D02A463146009828
:10411000984700242046F8BDF8B515460E46012400
:10412000FDF73CF9009058B1C0680A21426A684620
:104130009047030004D02A4631460098984700244F
:104140002046F8BD10B5074C2068006BFFF7CCFC8B
:10415000FFF7A4FF2068406BFFF7C6FCBDE81040E6
:10416000FFF764BF2C00002030B59FB014211AA8BF
:10417000FCF741F868216846FCF73DF800231A4631
:1041800013491448FDF7B2F804464FF4A0752A46C7
:10419000F0210020FFF7AAFF2A46F0210020FFF7B8
:1041A000BBFF04201C901AA92046FCF724FC0A48F7
:1041B00008900A4809900A480B900A480F900A4B49
:1041C0000A4A69462046FCF736FC1FB030BD0000A5
:1041D000608A0008908A0008774400085D4400085F
:1041E0006144000847440008C50A0008690A00083D
:1041F00010B5012902D04FF0FF3010BD03F0D4FC00
:10420000002010BD2DE9FF4F8DB01746674ADDF83D
:1042100070901E9E209812681D4600248AB11D9B36
:104220001F98CDE90293CDE90460DDE91A03CDE9D9
:10423000000314682B463A460D98A04711B0BDE81C
:10424000F08F0D9A01EB050802EB070CDDE91A234C
:104250001A43A8F10108ACF1010C012A06D0C9F1FA
:1042600008004FF0000B029105909CE0504A126844
:10427000B2F90A40631A002B06DDED1A002DDDDDD0
:1042800021461D9C03FB0466B2F90E30A8EB030324
:10429000002B02DDED1A002DD0DDB2F90C30ACEBB5
:1042A0000303002B00DDFF1A0D9B1C1AB2F9083026
:1042B000A3420DDDA3EB040C0CEB0003181A20F055
:1042C00007000444A7EB0C0706EBE30603F0070026
:1042D000002FB3DD1F9BDDF874C0CDE90403039606
:1042E0008DE82012527C33483B4650F82200C268C9
:1042F00055680A462146A847A0E71B99029808443A
:1043000009902B49401E03900A68B2F90A30834293
:1043100043DCB2F90E10029881423EDB4FF0000AF6
:104320000D980B96D046009035E000BFBAF1000F13
:1043300005D10B984FF0080A10F8014B0B90059926
:10434000AAEB090A34FA01F004FA09F4E4B204D140
:1043500017490968097C890717D415490968C96B89
:104360000A680C921F9A0AB152F82000086000995E
:104370001A980A180846DDE90213521EFFF726FDB7
:104380000B490C980968C96B086000991A9808F1E4
:10439000010808440090B845C8DB099802901D98B0
:1043A0000BF1010B0644AB45A7DB47E750000020AB
:1043B0002C00002044000020002818D0410817D00D
:1043C000810817D0C10817D0010917D0410917D0AB
:1043D000010A17D0410A17D0010B15D0C10B13D019
:1043E000010C11D0810C11D0000E11D0202070478B
:1043F0000120704702207047032070470420704757
:104400000520704708207047102070471220704721
:104410001820704700B50022FFF7CEFF012804D016
:10442000811E062903D808220BE0012209E0A0F131
:104430000901072901D8102203E011380F2800D8FC
:104440002022104600BD70B50C46054603E0A1B21F
:10445000284603F0C7FC641EF9D270BD03F028BDE6
:1044600070B50D46044603E034F8020B03F020FD5E
:104470006D1EF9D270BD03F0EDBC00003EB50D48D5
:104480000B49012401600021C0E9021441614FF48D
:1044900060220461C2614160FDF79EFD0A20CDE902
:1044A00000040720029069460248FDF7DDFC3EBD8E
:1044B000002401402C0100200349024808600846FE
:1044C000FDF7E2BE0030024008000020094808B5B0
:1044D000416941F0010141614069002200F00100A1
:1044E000009011460B20FEF709FBBDE808400B20A9
:1044F000FEF7F8BA00100240F0B5274885B0816990
:1045000041F040018161816901F0400104918169BC
:1045100041F010018161816901F01001049181690C
:1045200041F020018161816901F0200104918169DC
:1045300041F0040181618069184E00F004004FF6DB
:10454000FF740490002221463046FEF75DFA144FB6
:104550004FF46045002229463846FEF755FA00948C
:10456000032001240390694601943046FEF76EF95A
:104570000220CDE90054039069463846FEF766F9FB
:104580008020009000200190029069460548FEF7C7
:104590005DF905B0F0BD00000010024000180140B8
:1045A00000140140001001400907090E002806DA36
:1045B00000F00F0000F1E02080F8141D704700F1BA
:1045C000E02080F80014704710B5FEF729FABDE826
:1045D0001040FFF785BA000030B59BB001252804D4
:1045E0000421CDE902010224CDE90050CDE90840C3
:1045F0004FF4A010CDE90A044FF4C0600C904020A5
:104600000D906846FEF77EFE0F20CDE90E040020D7
:104610006102CDE91001129002210EA8FEF78CFC78
:1046200060031590139413A8FEF788FBFEF7C8FDEE
:104630004FF47A71B0FBF1F0FFF73EFA0420FFF778
:104640002EFAE00690FAA0F00549B0FA80F041F8A1
:10465000205000221146501EFEF750FA1BB030BD0C
:10466000000042421048016841F0010101604168C8
:104670000E4A1140416001680D4A11400160016815
:1046800021F480210160416821F4FE01416001684C
:1046900021F0A05101604FF47F0181600021C162CF
:1046A0000449C00308607047001002400000FFF09A
:1046B000FFFFF6FE08ED00E0704700000249012010
:1046C000096881F8540070472C0000202DE9F04162
:1046D0008AB0040036D0FCF703FD0190D0E9001247
:1046E000CDE90412876A056A01A8FCF707FD204698
:1046F00000F0B6FA060025D0204600F004F9804606
:10470000B80704D52A46414604A800F0F2FB20462B
:10471000FCF7E6FC01904046FCF7E2FC06903046D0
:10472000FCF7DEFC039005620698019AC1691162EC
:10473000C46101A8FCF7E2FC06A8FCF7DFFC03A8B3
:10474000FCF7DCFC0AB0BDE8F08100002DE9FC5F5D
:10475000DFF838A10746DDE90C54DAF81400DDF87B
:104760003CB0984691460E4604434DB9BAF8020053
:1047700048B347480AF138010068407C51F820509E
:10478000681C0ED0FDB12846FCF7AAFC0190B0F9D8
:104790000010B0F902200F441644B9F1000F02D006
:1047A00006E000250FE0B0F90430591A01F10109C3
:1047B000B8F1000F04D1B0F90600801A00F1010829
:1047C00001A8FCF79BFC0BF12C00FCF7F2FB5FEA65
:1047D000000B57D0BAF80200401CAAF80200584655
:1047E000FCF77EFC0090078007EB09014680491E1C
:1047F000818006EB0801491EC1800E990161254A9E
:10480000816A2240114381626846FCF777FCDAF83E
:104810000C005E4650B1FCF789FC07463046FCF7B9
:1048200085FC0146786948617E6101E0CAF80CB0F8
:104830002946584600F0AAFAA00602D5584600F0CC
:1048400041F9E00705D0DAF8201001F10101CAF8BA
:104850002010600602D55846FFF738FFA0070DD597
:104860005846FCF73DFC0090816A41F002018162EC
:104870006846FCF743FC584600F0F1F80121584621
:1048800000F072FB5846BDE8FC9F00008800002045
:104890002C0000209F3F070010B50446C168D4E9F2
:1048A0000020172A0DD004DC0E2A0CD0142A07D1C0
:1048B00004E0222A0CD0282A02D10CE000F08BF967
:1048C0000020E06010BD2146BDE8104000F018B99E
:1048D0006FF07040F5E7BDE8104000F0C0B8000090
:1048E000034804490068407C51F8200070470000EC
:1048F0002C000020C000002010B5002802D0FCF7DA
:1049000015FCC06910BD10B5002802D0FCF70EFCE4
:10491000806910BD2DE9FF5F2C4D6878002853D1C8
:1049200000272B48EF60AF620068DFF8A8903C4694
:104930004764AF806F804FF0020A4FF0FF3B40F6B4
:10494000FF7805F138062046FCF728FD98B1CDE93F
:104950000297CDE900BA0021424643460846FFF7D8
:10496000F5FE1A4A46F8240040326FF0704142F8D2
:10497000241000F074F8641C022CE4DB164FDFF8FE
:104980005C80DFF85C90002407EBC40000F0ECF8DA
:1049900008EBC40000F0E8F809EBC40000F0E4F80C
:1049A000641C022CF0DB306800F08CF8FFF786FE08
:1049B00001200649687030310A48086004B0084692
:1049C000BDE8F05FFDF7A0B9BDE8FF9F88000020BB
:1049D0002C000020B57A0008ACC60020BCC6002020
:1049E000CCC600204D6A000870B586B00D460600A2
:1049F0002CD0FCF775FB0090846AA10723D5D0E981
:104A00000010CDE90110E00302D5304600F013FAA2
:104A10005DB1286803906868049003A9009800F0CD
:104A2000ABF803A901A8FDF7CBF8314601A800F0C7
:104A3000ABF840B140F601000440012C08D001A9B8
:104A4000304600F0F5F96846FCF758FB06B070BD3B
:104A50000098026A816901A800F04BFAF3E700218F
:104A6000FFF7C2BFFEB515460E4604001CD0FCF78A
:104A700037FB0246009090F82800800711D5314698
:104A800001A8FDF7BAF860B16846FCF737FB2A4683
:104A900001A9204601F02EFF2046FFF72DFF044616
:104AA0000CE06846FCF72AFBFEBD2A4601A9204619
:104AB000FFF7D8FF2046FCF739FB046A002CF4D13D
:104AC000FEBD000070B50C4D04002868866C01D155
:104AD0000A49CC688464204600F01EFAFFF7CAFA3F
:104AE0002046FCF723FB2968B0F90020CA64B0F91E
:104AF00002000865304670BD2C00002088000020B0
:104B000070B50C00054609D0FFF7FDFE002805D062
:104B10002146A560BDE8704000F008BA70BD0000F5
:104B20000EB50E48006890F8541009B10C4811E019
:104B3000806CFCF7D5FA0090D0E90010CDE90110A7
:104B40006846FCF7DBFA0748416A11B101A800F09A
:104B50001BF801A802F0D8F80EBD00002C000020C0
:104B60002CC600208800002002490A680260086004
:104B700070470000980000200B46B0F90220B0F901
:104B800000101846FCF7D3BD38B50C460546204644
:104B9000FCF7A6FA0146009090F82800800703D49D
:104BA0006846FCF7ABFA12E02846FDF709F80098D2
:104BB000806920B104466846FCF7A0FAE7E768463A
:104BC000FCF79CFA204600F0FFFA002801DA0020EA
:104BD00038BD012038BD38B50C4600280AD0002C5D
:104BE00008D0FCF77DFA2146009000F004F86846F2
:104BF000FCF784FA38BD00224A800A808288038844
:104C0000D21A8A80C2884088101AC880704710B5AE
:104C1000FFF779FE002802D0FCF788FAC06910BDC2
:104C20000D4810B5006890F85400002806D00B4CD1
:104C30006069012803DD401E6061002010BD20690D
:104C4000401C206101F088FA18B1FFF769FF0120CC
:104C500010BD6069EFE700002C00002024C6002092
:104C600070B50546FFF7D3FF08E0AC4201D1002440
:104C700006E0FCF75BFA006AA84201D00400F4D118
:104C8000204670BD10B50446FCF750FA8069002834
:104C9000F9D12046BDE8104000F096BAF0B5384E84
:104CA000074687B0306890F8541041B1354C6169BF
:104CB000491C6161012905DD012007B0F0BDFFF746
:104CC0002FFFF9E7806CFCF70BFA2F4D4FF0FF3107
:104CD00000902161297821B181680291C068039018
:104CE00007E090F8281089073CD5D0E90010CDE9FD
:104CF00002101FB1394602A8FCF762FF3068406C11
:104D000078B3009804903068406C01680591406861
:104D10000690686A30B104A8FCF7F0F9686AFCF7FD
:104D2000DFF9049005A90498FFF726FF05A902A85A
:104D3000FCF746FF0DF11000FCF7E0F9696A19B1C4
:104D400002A8FFF721FFB0B13068816C02A8FFF71D
:104D50001BFF80B1DDE90201C4E90001FFF760FF3C
:104D6000ABE706E06069401E60616846FCF7C6F983
:104D700004E06846E0E76069401E606100209CE74F
:104D80002C00002024C6002088000020FEB50D0065
:104D9000044647D0FCF7A4F9009000218561016228
:104DA0002846FCF79DF900990290C56991F82810F2
:104DB00001F008062DB12846FCF792F9019036B1B2
:104DC00015E0C4616846FCF799F902A828E090F85C
:104DD000280000070BD5009805620298C461684658
:104DE000FCF78CF902A8FCF789F901A818E002A8E1
:104DF000FCF784F901A8FCF781F92846FCF796F93D
:104E000011E004620BE02846FCF790F95EB990F8D7
:104E10002810090707D501980462009805626846C2
:104E2000FCF76CF9FEBD0190056A002DEBD1E8E7B7
:104E3000202201F05FBD38B504001ED0FCF750F908
:104E4000009090F82810890714D5406A20B1FCF72B
:104E5000E7FB0099002048622046FFF74DFD04461D
:104E600006E02046FFF7E7FF2046FCF75FF9046AFB
:104E7000002CF6D16846FCF741F938BD2DE9FF4119
:104E80009846164607460D0031D00846FCF728F92B
:104E90000090846A0246A00726D5394601A8FCF78F
:104EA000ACFE08B340F601000440012C07D0424696
:104EB00001A9284601F01EFD0098C46912E000987F
:104EC0004346026A816901A8FFF7D8FFF4E7B442BC
:104ED0000AD0424601A92046FFF7C4FD2046FCF750
:104EE00025F9046A002CF2D16846FCF707F9BDE801
:104EF000FF812023FFF7C2BFB0F90010B0F90420F2
:104F0000914205DCB0F90210B0F90600814201DDE2
:104F1000002070470120704710B5FFF7B3FE00284E
:104F200003DBBDE81040FCF737BC10BD70B50D4C7D
:104F300006460D46206814280DDA3046FCF7F6F8D0
:104F400001696E6041B12068401C20602846884796
:104F50002068401E206070BD2846BDE87040FFF705
:104F60009BBC0000040100201FB5CDE9001069467C
:104F7000FFF7DCFF1FBD00002DE9F0411B4D0C4683
:104F80000646A968686B0144491EA019884205D8E5
:104F9000016819B941680E4401F03CFE686BA042FB
:104FA0000AD254F8040C271A386828B978680644DD
:104FB000384601F02FFE3C46304601F089FB05EBF8
:104FC000C0073246002120463B6C02F05DF957F8DD
:104FD000400F083400B144602060002060603C60F5
:104FE0002868304428603046BDE8F081E4C40020E1
:104FF0002DE9F041054601F02BFC2B48C46BAC4277
:1050000002D8ED1C25F00304804600680C34A04251
:1050100002D20020BDE8F08101F032FD0600F9D097
:10502000204601F055FB424611E000BF02EBC001F3
:10503000096C59B18D686B68A3420BD2A96829B17C
:105040008D686B68A34205D2002DF7D1401C102853
:10505000ECD31FE0F5B1D8F83C00191B0C301F460B
:10506000814200D23C46284601F0D4FD0421D8F804
:10507000300001EBC6010023455022463146284648
:1050800002F002F9A74203DD2919381BFFF774FF6C
:105090003046BFE7204601F0D7FD0028C0D030469B
:1050A00001F00EFDB5E70000E4C40020C10A01D004
:1050B00003207047C00901D00220704701207047CB
:1050C00001207047F0B40E4C246814B1A446F0BC23
:1050D00060470C4DDFF830C010C8521EE6B2AF5D1D
:1050E000C4F30726C4F307441CF806602C5D04EBE8
:1050F000461404EBC7240C801944EDD1F0BC704772
:1051000010000020C4B00008C4B100082DE9F04729
:105110008146FEF79BFE4FF0000807466FF07F4484
:105120004546FEF7ABFE060018D000BF56F8251026
:10513000494502D12846BDE8F0876D1CBD42F5DB2C
:105140005FF00005484656F82510FCF747F8A042E6
:1051500001D20446A8466D1CBD42F3DB4046EAE797
:1051600010B5C1B2064A074BC0F30724C0F307408D
:105170001B5D105C515C00EB431000EBC12010BDC7
:10518000C4B00008C4B100082DE9F05F9A46DDE91B
:105190000A8791460C4605468B46164635F8020BA3
:1051A00041468847B84701C4761EF7D15046BAF148
:1051B000200F06D2024649465846BDE8F05FFCF78C
:1051C000A7BBBDE8F09F00000146064A002000BFD3
:1051D00052F820308B4204D0401C0228F8DB4FF0FC
:1051E000FF307047C0000020F7B51546184A01A9E6
:1051F000009812689047174C00902068406920B1D1
:105200002946FCF7A3FA002821D00120FCF71EFD57
:105210002068C069406920B18268DDE900019047DB
:1052200012E00D4D0CE06846FCF710FB06462068C6
:10523000C069016830468847296809B13046884707
:105240000198401E0190EED50020FCF7FFFCFEBD4A
:10525000E80000202C0000204C0000202DE9FF4F2A
:1052600085B08346DDE91390129ED0E900A0DBF8FB
:105270000850039047488C191F4600684FF080087B
:10528000007C10F0030006D0012865D0022819D058
:10529000032814D160E0387828FA06F1084201D0DA
:1052A000039800E05046D5F82C1180B28847761C50
:1052B000082E01D100267F1CB9F10109EBD109B0FC
:1052C000BDE8F08F4FF0000ACDF808A0D5F86CB01B
:1052D0000194397828FA06F0014202980BD020B9DF
:1052E0000120CDE90140D5F86CB003982BF8020BF2
:1052F0000AF1010012E0012811D1631E0020029082
:10530000079800900246D5F8A4C028460199E047C6
:10531000D5F834215146E86E904700208246641C3F
:10532000761C082E01D100267F1CB9F10109D0D1CD
:10533000BAF1000FC3D00798631E00900246D5F85B
:10534000A44028460199A047D5F83421E86E09B059
:105350005146BDE8F04F1047397828FA06F001426F
:105360000DD0D5F8E83021465846079A9847AB6AE1
:10537000D5F8ECC0434021465846079AE047641CE4
:10538000761C082E01D100267F1CB9F10109E3D15A
:1053900095E700002C0000202DE9FF5F9046DDE935
:1053A0000E924B4B99F80050C2F108048A465D5D9D
:1053B000DDE91071D540474A139E1268127C12F045
:1053C000030225D0012A03D0022A37D0032A7DD137
:1053D0000069806880471FFA80FBBC4200D93C46C8
:1053E0003F1BBAF1000F65D0E8070AD0DAF80800D1
:1053F0004146039A036850469847318881EA0B0179
:105400003180B61C6D0808F10108641EECD15BE028
:105410002F4ABC4200D93C46B7EB040705F0010017
:105420006D0831F8200026F8020B641EF6D1002F1B
:105430004CD019F8010F0824155CEAE788881FFA98
:1054400080FBBC4200D93C463F1BBAF1000F16D08E
:105450008DB1E80708D0DAF808004146039A0368DE
:1054600050469847A6F800B0B61C08F10108641E23
:1054700011D06D08ECE706EB4406A0440BE045B103
:10548000E80701D0A6F800B0B61C641E03D06D0872
:10549000F5E706EB4406002F18D019F8011F0C4859
:1054A0000824455CCDE719F8011F09480824455C2C
:1054B00093E70BE0E80703D0308880EA0B003080E8
:1054C000B61C6D08641EF5D1002FECD1BDE8FF9F1E
:1054D000F4B300082C0000202DE9FF4F85B086684A
:1054E000DDE9125714989B4600283AD03F489BF8B4
:1054F00000904C1900684FF0C008007C10F00300C9
:1055000016D002282DD14FF0000ACDF80CA0F06E75
:10551000CDE90140C5F103004100C1F1060228FABE
:1055200002F000EA0900C8402ED00399E1B120E062
:10553000C5F103004100C1F1060228FA02F000EAB9
:105540000900C840149931F82000D6F82C1180B217
:1055500088476D1C042D02D11BF8019F00257F1E7A
:10556000E6D109B0BDE8F08F012101940391F16EFD
:105570000291149931F82000029908800298801C49
:1055800002900AF1010013E00398012811D1631E73
:1055900000200390079800900246D6F8A4C0304639
:1055A0000199E047D6F834215146F06E904700202B
:1055B0008246641C6D1C042D02D11BF8019F00253E
:1055C0007F1EA7D1BAF1000FCBD00798631E0090C1
:1055D0000246D6F8A44030460199A047D6F83421B7
:1055E000F06E09B05146BDE8F04F10472C00002086
:1055F0002DE9FF5F8B460FA9DDF83880B1E8210463
:10560000C0F10401CCB298F80010400081402F484E
:10561000129F91460068CEB2007C10F0030004D0C7
:1056200001283AD002284FD114E0AC4200DDECB2A0
:105630002D1BB1093AF8210027F8020BB006060E1F
:10564000641E14F0FF04F4D1002D3DD0042418F89A
:10565000016FEAE7AC4200DDECB22D1BB0090DD0C2
:10566000B109BBF1000F3AF82100388006D0DBF811
:1056700008004946039A036858469847B006BF1C7D
:10568000060E641E09F1010914F0FF04E6D1002D95
:105690001AD0042418F8016FDCE7AC4200DDECB24C
:1056A0002D1BB00903D0388880F0FF003880B00689
:1056B000BF1C060E641E14F0FF04F2D1002D03D0AF
:1056C000042418F8016FE8E7BDE8FF9F2C000020D4
:1056D0002DE9FF4F85B08668DDE9125714989B4687
:1056E00000283AD03F489BF800904C1900684FF0D2
:1056F000F008007C10F0030016D002282DD14FF0E6
:10570000000ACDF80CA0F06ECDE90140C5F1010012
:105710008100C1F1040228FA02F000EA0900C84041
:105720002ED00399E1B120E0C5F101008100C1F163
:10573000040228FA02F000EA0900C840149931F87E
:105740002000D6F82C1180B288476D1C022D02D1A2
:105750001BF8019F00257F1EE6D109B0BDE8F08F40
:10576000012101940391F16E0291149931F8200006
:10577000029908800298801C02900AF1010013E04F
:105780000398012811D1631E002003900798009010
:105790000246D6F8A4C030460199E047D6F8342135
:1057A0005146F06E904700208246641C6D1C022D0D
:1057B00002D11BF8019F00257F1EA7D1BAF1000F6F
:1057C000CBD00798631E00900246D6F8A44030461E
:1057D0000199A047D6F83421F06E09B05146BDE8D2
:1057E000F04F10472C0000202DE9F05F92460BAAE5
:1057F0008946B2E842010A9F9B468B003A78C1F184
:1058000002009A40D5B24D4A0E9CC0B21268127C7A
:1058100012F003021AD0012A79D0022A38D10029C5
:105820005FD028090DD02909B9F1000F38F82100FF
:10583000208006D0D9F808005A46514603684846E9
:105840009847A41C0AF1010A761E48E039B12909DB
:10585000761E38F8210024F8020B17F8015F022E9B
:1058600010DB701006F001062A0938F8221005F046
:105870000F02218038F822106180241D17F8015F83
:10588000401EF1D1002E03D0290938F821002080D4
:10589000BDE8F09F28090DD02909B9F1000F38F8AB
:1058A0002100208006D0D9F808005A4651460368E6
:1058B0004846984715F00F000DD038F8200060805A
:1058C000B9F1000F07D0D9F808005A460AF10101D2
:1058D000036848469847241D0AF1020AB61E17F8C5
:1058E000015F022ED6DA002ED2D02809D0D038F8A7
:1058F00020002080B9F1000FCAD0D9F808005A461C
:10590000514603684846BDE8F05F1847FFE7B042DC
:1059100000DDF0B2361AA90903D0218881F0FF0119
:1059200021802907A41C0D0E401E10F0FF00F2D1AB
:10593000002EADD0022017F8015FE8E72C00002010
:105940002DE9FF4F83B08568DDE9107B1E460C46CC
:10595000BBF1000F20D02E480068007C10F003003F
:1059600018D0022818D14FF00008D5F86C90C24624
:10597000CDF8044016F8010BE8B1BAF1000F0ED0D3
:1059800012E03078D5F82C113BF8200080B288471F
:105990007F1E761C002FF4DC07B0BDE8F08F019469
:1059A000D5F86C904FF0010A3BF8200029F8020B63
:1059B00008F1010013E0BAF1010F11D10598009030
:1059C0000246D5F8A4C0631E4FF0000A284601998C
:1059D000E047D5F834214146E86E904700208046E4
:1059E000641C7F1EC6D1B8F1000FD5D00598631E88
:1059F00000900246D5F8A44028460199A047D5F862
:105A00003421E86E07B04146BDE8F04F1047000072
:105A10002C0000202DE9F04387B089460EA9B1E89B
:105A2000F01181688DE8F011D1F8E0404946A047B7
:105A300007B0BDE8F08300002DE9FF4F83B0994621
:105A40000398DDE91075DDE9138B86689246012D18
:105A500005D0022D03D0042D01D0082D06D13248E7
:105A60000068007C00F0030002280ED00AEB07005B
:105A7000401E00900498D6F8A44000EB0B0101EB07
:105A800009035B1E52463046A047002446E0042D21
:105A900024D004DC012D07D0022D3CD111E0082DCB
:105AA00029D0102D37D131E01598CDF800B0CDE9CF
:105AB0000190DDE9030104EB0A024346FFF7CEFB48
:105AC00029E01598CDF800B0CDE90190DDE903019A
:105AD00004EB0A024346FFF7FFFC1CE01598CDF8E3
