:020000040800F2
:10000000B0020020650100086D0100086F010008C2
:10001000710100087301000875010008000000006C
:100020000000000000000000000000007701000850
:1000300079010008000000007B010008FF1900089A
:100040007F0100087F0100087F0100087F01000890
:100050007F0100087F0100087F0100087F01000880
:100060007F0100087F0100087F0100087F01000870
:100070007F0100087F0100087F0100087F01000860
:100080007F0100087F0100087F0100087F01000850
:100090007F0100087F0100087F0100087F01000840
:1000A0007F0100087F0100087F0100087F01000830
:1000B0007F0100087F0100087F0100087F01000820
:1000C0007F0100087F0100087F0100087F01000810
:1000D0007F0100087F0100087F0100087F01000800
:1000E0007F0100087F0100087F0100080000000078
:1000F0000000000000000000000000000000000000
:1001000000000000000000007F0100087F010008DF
:100110007F0100087F0100087F0100087F010008BF
:100120007F0100087F0100087F0100087F010008AF
:100130007F0100087F0100087F0100087F0100089F
:100140007F0100087F0100087F0100087F0100088F
:10015000DFF80CD000F068F8004800476D1F000879
:10016000B00200200648804706480047FEE7FEE749
:10017000FEE7FEE7FEE7FEE7FEE7FEE7FEE7FEE757
:100180008D1A000851010008202A04DB203A21FAC8
:1001900002F00021704721FA02F3D040C2F12002A0
:1001A00091400843194670472DE9F05F054600204D
:1001B00092469B4688460646814640241BE02846D8
:1001C000414647462246FFF7DFFF53465A46C01ACC
:1001D000914110D311461846224600F016F82D1A08
:1001E00067EB01084F4622460120002100F00DF880
:1001F00017EB00094E41201EA4F10104DFDC484644
:1002000031462A464346BDE8F09F202A04DB203AC7
:1002100000FA02F1002070479140C2F1200320FA59
:1002200003F3194390407047064C074D06E0E06821
:1002300040F0010394E8070098471034AC42F6D32D
:10024000FFF78AFFD4210008F421000810B504004C
:1002500002D0607910B106E0012010BD00202071AD
:10026000204600F005F801206071002010BD00005C
:1002700008B500680649884208D10648416941F03E
:1002800040014161406900F04000009008BD00005D
:10029000003002400010024031B500F0EDF8044695
:1002A00000F0EAF80099001B8842F9D338BD00003D
:1002B0002DE9F84FDFF890A100220AF1040B144653
:1002C00001274FF00F090BF1040E00BF0B6807FA6E
:1002D00004F52B40AB4274D1DFF870C14E68A6EB39
:1002E0000C0866452BD00DDC032E34D005DC36B36C
:1002F000012E19D0022E2FD11BE0112E16D0122E56
:100300002AD119E0B8F5881F19D006DCB8F5803F6E
:1003100015D0B8F5801F1FD111E0B8F5001F0ED021
:10032000B8F5041F18D10AE0CA6815E0CA68121DA2
:1003300012E0CA6808320FE0CA680C320CE08A6822
:100340002AB1012A4FF0080203D0456104E00422DB
:1003500002E0056100E00022FF2B01D8064601E023
:1003600000F104064FEA840501D9A5F12005D6F86D
:1003700000C009FA05F82CEA080C02FA05F54CEA67
:10038000050CC6F800C04D68ED0057D5304DAE697C
:1003900046F00106AE61AD6924F0030605F00105E3
:1003A00000952C4D06EB050CDCF80850A6074FEA2B
:1003B000167809FA08F6B543274EB04202D1002656
:1003C00010E03BE0254EB04201D101260AE0244E68
:1003D000B04201D1022605E0224EB04201D10326EF
:1003E00000E0042606FA08F62E43CCF808604D68B3
:1003F000DAF80060ED03554601D51E4300E09E4348
:100400002E604D68DBF80060AD035D4601D51E43EC
:1004100000E09E432E604D68DEF80060ED027546F8
:1004200001D51E4300E09E432E604D68AD020E4D87
:100430002E6801D51E4300E09E432E60641C102CE4
:10044000FFF444AFBDE8F88F000401400000111034
:10045000001002400000014000080140000C014073
:1004600000100140001401400C0401400AB1016178
:1004700070470904FBE7000001480068704700006E
:100480000400002002480168491C01607047000018
:1004900004000020074810B5016841F01001016018
:1004A000032000F071F8002000F006F800F016F8C4
:1004B000002010BD0020024010B5044600F0BAF93B
:1004C0004FF47A71B0FBF1F001F0B3F8002221464D
:1004D000501E00F039F8002010BD0000184808B583
:1004E000816941F001018161806900F001000090A3
:1004F000062000F049F8002211466FF00B0000F0D2
:1005000023F8002211466FF00A0000F01DF80022C7
:1005100011466FF0090000F017F800221146101F75
:1005200000F012F800221146501E00F00DF80548A8
:10053000416821F0E06141F00071416008BD0000B8
:100540000010024000000140F0B40E4B1B680C4646
:10055000C3F30223C3F10705042D00D90425191D97
:10056000072901D2002300E0DB1E012606FA05F16F
:10057000491E214099409E40761E16403143F0BCF2
:1005800001F0DEB90CED00E0064900F00702086852
:100590004FF6FF03184040EA0220034A1043086068
:1005A000704700000CED00E00000FA052DE9F0476F
:1005B000DFF8789205460E46D9F80000022300F0D5
:1005C0000707012041044206994C41F28838B7429E
:1005D00071D2D9F800C02CF0070C4CEA060CC9F80F
:1005E00000C0D9F8007007F00707B7426FD12E7826
:1005F000B60705D56668AF6826F0F0063E4366602C
:100600002E78F60756D06E68012E0BD0022E1ED023
:1006100093FAA3F1B1FA81F141F02001490924D004
:10062000216823E091FAA1F2B2FA82F242F02002AC
:10063000520901D0226800E0626A91FAA1F1B1FA90
:1006400081F101F01F018840024240D017E092FA88
:10065000A2F1B1FA81F141F02001490901D02168EC
:1006600000E0616A92FAA2F202E0616A93FAA3F2F0
:10067000B2FA82F202F01F029040014227D0606875
:1006800020F0030030436060FFF7F6FE064668681E
:10069000012809D00228474613D01EE0FFF7ECFEE0
:1006A000801BB84201D992E047466068C0F38100E0
:1006B0000128F3D1A1E015E0FFF7DEFE801BB84270
:1006C00073D86068C0F381000228F5D195E092E00C
:1006D000FFF7D2FE801BB84279D8606810F00C0F8B
:1006E000F6D18AE02F78BF0707D56768D5F808C02C
:1006F00027F0F00747EA0C0767602F78FF076DD0F7
:100700006F68012F0BD0022F1ED093FAA3F1B1FA1C
:1007100081F141F02001490924D0216823E091FAB8
:10072000A1F2B2FA82F242F02002520901D022680C
:1007300000E0626A91FAA1F1B1FA81F101F01F01C2
:100740008840024257D017E092FAA2F1B1FA81F143
:1007500041F02001490901D0216800E0616A92FA64
:10076000A2F202E0616A93FAA3F2B2FA82F202F014
:100770001F02904001423ED0606820F003003843E1
:100780006060FFF779FE07466868012807D00228F5
:1007900011D01FE0FFF770FEC11B414517D86068FC
:1007A000C0F381000128F5D118E010E0FFF764FEE6
:1007B000C11B41450BD86068C0F381000228F5D108
:1007C0000CE000BFFFF758FEC11B414502D90320D2
:1007D000BDE8F087606810F00C0FF3D1D9F8001075
:1007E00021F007013143C9F80010D9F8000000F0EA
:1007F0000700B04201D00120EAE72878400705D57C
:100800006068E96820F4E0600843606028780007C9
:1008100006D56068296920F4605040EAC100606034
:100820000020FFF749FE0020D2E700000020024030
:100830000010024000B500F043F808494968F02272
:1008400092FAA2F201F0F001B2FA82F2D140044A27
:10085000515CC8400349086000BD00000010024020
:10086000C22100080000002000B5FFF7E3FF0749A0
:1008700049684FF4E06292FAA2F201F4E061B2FA40
:1008800082F2D140024A515CC84000BD00100240D3
:10089000C221000800B5FFF7CDFF074949684FF4B2
:1008A000605292FAA2F201F46051B2FA82F2D1409F
:1008B000024A515CC84000BD00100240C22100083D
:1008C000F0B52DA28AB007CA8DE807002DA103ACB0
:1008D0000FC984E80F002F494B682F4803F00C0222
:1008E000042A02D0082A02D02C480AB0F0BD4FF4E6
:1008F000701595FAA5F403F47012B4FA84F4E2408A
:100900006E461DF80220DB0333D5CB6A0F2494FA20
:10091000A4F403F00F03B4FA84F4E34003ACE45C02
:10092000CB6ADB0316D5CB6AF02797FAA7F703F05B
:10093000F003B7FA87F7C96AFB40AF1297FAA7F737
:1009400001F47061B7FA87F7F9405B1CB0FBF3F074
:10095000891C4843B0FBF4F095FAA5F350434FF4DB
:100960005011B3FA83F3D940715C9142BDD1400874
:10097000BBE70B485043B8E7000004050607080929
:100980000000000D0102030405060708090A0B0C0C
:100990000D0E0F100010024040787D0100127A0009
:1009A00000093D002DE9F84F04460078FC4DC007D2
:1009B0004FF0010625D068687704C0F38100012854
:1009C00007D06868C0F3810002281BD16868C003A3
:1009D00018D597FAA7F0B0FA80F040F0200040094F
:1009E00001D0286800E0686A97FAA7F1B1FA81F1AE
:1009F00001F01F0106FA01F1084202D0A0680028A8
:100A000076D081E0286820F480302860286820F4BF
:100A100080202860FFF730FD804605E0FFF72CFDC1
:100A2000A0EB080064287DD897FAA7F0B0FA80F010
:100A300040F02000400901D0286800E0686A97FA79
:100A4000A7F1B1FA81F101F01F0106FA01F10842A4
:100A5000E4D1A068B0F5803F0BD010B1B0F5A02F65
:100A600011D0286820F480302860286820F4802085
:100A700002E0286840F480302860A06820B3FFF7C7
:100A8000FBFC80460AE0286840F480202860F0E7FC
:100A9000FFF7F2FCA0EB08006428C4D897FAA7F08F
:100AA000B0FA80F040F02000400901D0286800E052
:100AB000686A97FAA7F1B1FA81F101F01F0106FA0D
:100AC00001F10842E4D01FE0FFF7D6FC804605E0C4
:100AD000FFF7D2FCA0EB08006428A4D897FAA7F08F
:100AE000B0FA80F040F02000400902D0286801E010
:100AF000B8E0686A97FAA7F1B1FA81F101F01F0135
:100B000006FA01F10842E3D12078A64F80074FF0A2
:100B100002084FF000095BD568684FF0F80B10F041
:100B20000C0F00E01DE207D06868C0F381000228C6
:100B30001BD16868C00318D498FAA8F0B0FA80F006
:100B400040F02000400901D0286800E0686A98FA67
:100B5000A8F1B1FA81F101F01F0106FA01F1084292
:100B60002BD0606901287DD127E0606988B396FAAF
:100B7000A6F0B0FA80F047F82060FFF77DFC8246CF
:100B800006E000BFFFF778FCA0EB0A00022884D83B
:100B900098FAA8F0B0FA80F040F02000400901D0A7
:100BA000286800E0686A98FAA8F1B1FA81F101F0CA
:100BB0001F0106FA01F10842E4D028689BFAABF263
:100BC000A169B2FA82F220F0F8009140084328604F
:100BD00025E0FFE796FAA6F1B1FA81F147F82190F6
:100BE000FFF74AFC824605E0FFF746FCA0EB0A004F
:100BF0000228CCD898FAA8F0B0FA80F040F0200093
:100C0000400901D0286800E0686A98FAA8F1B1FAB2
:100C100081F101F01F0106FA01F10842E4D12078C8
:100C200000076FD5E069C0B396FAA6F0B0FA80F07D
:100C300007EB8000C0F88064FFF71EFC824605E0E9
:100C4000FFF71AFCA0EB0A000228A0D898FAA8F136
:100C5000B1FA81F141F060014046B6EB511F02D17B
:100C600029680CE0A0E190FAA0F1B1FA81F141F01D
:100C70006001B0EB511F01D1296A00E0696A98FA5E
:100C8000A8F0B0FA80F000F01F0206FA02F001426C
:100C9000D6D00120FFF700FB34E0FFE796FAA6F17B
:100CA000B1FA81F107EB8101C1F88094FFF7E4FB11
:100CB000824605E0FFF7E0FBA0EB0A00022898D887
:100CC00098FAA8F1B1FA81F141F060014046B6EB23
:100CD000511F01D129680BE090FAA0F1B1FA81F11E
:100CE00041F06001B0EB511F01D1296A00E0696A4F
:100CF00098FAA8F0B0FA80F000F01F0206FA02F0AD
:100D00000142D7D12078400773D5E86940F0805080
:100D1000E861E869DFF890B000F080500090DBF8FF
:100D2000001041F48071CBF80010FFF7A5FB82465C
:100D300006E000BFFFF7A0FBA0EB0A00642884D800
:100D4000DBF80000C005F5D5286A20F00100286214
:100D5000286A20F004002862FFF78EFB834641F2E8
:100D6000883A05E0FFF788FBA0EB0B015145A6D8B8
:100D700098FAA8F1B1FA81F141F040014046B6EB92
:100D8000511F01D1296812E090FAA0F1B1FA81F166
:100D900041F04001B0EB511F08D1296A07E0000083
:100DA000001002400000424200700040696A98FA58
:100DB000A8F0B0FA80F000F01F0006FA00F001423F
:100DC000D0D1206901280AD008B1052812D0286A9C
:100DD00020F001002862286A20F0040002E0286A5E
:100DE00040F001002862206998B3FFF745FB834675
:100DF0000CE05BE0286A40F004002862EFE700BFE7
:100E0000FFF73AFBA0EB0B01514598D898FAA8F1EF
:100E1000B1FA81F141F040014046B6EB511F01D1DA
:100E200029680BE090FAA0F1B1FA81F141F040019C
:100E3000B0EB511F01D1296A00E0696A98FAA8F065
:100E4000B0FA80F000F01F0206FA02F00142D7D09B
:100E50002CE0FFE7FFF710FB834605E0FFF70CFBF4
:100E6000A0EB0B0151457CD898FAA8F1B1FA81F1B9
:100E700041F040014046B6EB511F01D129680BE01B
:100E800090FAA0F1B1FA81F141F04001B0EB511FAD
:100E900001D1296A00E0696A98FAA8F0B0FA80F0F6
:100EA00000F01F0206FA02F00142D7D1E16AA1B3B5
:100EB0006868C00307D56868C0F38100022802D1C2
:100EC000E86AC00370D44FF080604FF0006B0229D5
:100ED0000DD0E96A21F48031E96290FAA0F0B0FA0D
:100EE00080F047F82090FFF7C7FA804670E0296845
:100EF000C90005D5E96A626B01F0F001914253D156
:100F00004FF0806090FAA0F0B0FA80F047F820909F
:100F1000FFF7B2FA8246D84606E06EE0FFF7ACFA79
:100F2000A0EB0A0064281CD898FAA8F0B0FA80F068
:100F300040F02000400901D0286800E0686A98FA73
:100F4000A8F1B1FA81F101F01F0106FA01F108429E
:100F5000E4D1E86A616B20F0F0000843E862E86AD7
:100F600000E082E0216B20F470600843E8624FF0FB
:100F7000806090FAA0F0B0FA80F047F82060FFF7A8
:100F80007BFA824606E000BFFFF776FAA0EB0A0084
:100F900064286AD898FAA8F0B0FA80F040F02000EF
:100FA000400902D0286801E0A7E0686A98FAA8F131
:100FB000B1FA81F101F01F0106FA01F10842E3D014
:100FC0001BE000BFFFF758FAA0EB080064284CD8DC
:100FD0009BFAABF0B0FA80F040F02000400901D05D
:100FE000286800E0686A9BFAABF1B1FA81F101F080
:100FF0001F0106FA01F10842E4D1206AA0B3696832
:10100000C1F38101022978D002284FF080714FF09E
:10101000007A48460AD091FAA1F1B1FA81F147F875
:101020002100FFF729FA074654466FE08B4691FAF4
:10103000A1F1B1FA81F1B94647F82100FFF71CFA96
:101040008046574606E000BFFFF716FAA0EB0800FF
:10105000022858D897FAA7F0B0FA80F040F02000A4
:10106000400903D0286802E065E04CE0686A97FA1E
:10107000A7F1B1FA81F101F01F0106FA01F108426E
:10108000E2D1606AB0F5803F09D1E86A616808433F
:10109000E862E86AE16820F00F000843E862D4E9FA
:1010A00009010843696821F47411084368609BFAD8
:1010B000ABF0B0FA80F049F82060FFF7DDF90446A4
:1010C00005E000BFFFF7D8F9001B02281BD897FAEC
:1010D000A7F0B0FA80F040F02000400901D0286865
:1010E00000E0686A97FAA7F1B1FA81F101F01F01F7
:1010F00006FA01F10842E5D01DE01EE0FFF7BCF959
:10110000C01B022802D90320BDE8F88F94FAA4F08E
:10111000B0FA80F040F02000400901D0286800E0DB
:10112000686A94FAA4F1B1FA81F101F01F0106FA9C
:1011300001F10842E2D10020E6E70120E4E70000E7
:1011400010B5040003D094F8510010B104E0012060
:1011500010BD204600F038F8022084F851002068C5
:10116000016821F040010160D4E901010843D4E99C
:1011700003121143084361690843218B01F4007194
:101180000843E1690843216A0843A16A08432168CA
:101190000860A069042101EA1040616A08432168DF
:1011A00048602168E06A08612068C16921F4006133
:1011B000C1610449002008706065012084F8510075
:1011C000002010BD0800002010B50068114986B04D
:1011D00088421CD11048816941F480518161806945
:1011E0000E4C00F480500490A0200090022001904A
:1011F0000320039069462046FFF75AF8002140205B
:10120000CDE90001029169462046FFF751F806B08A
:1012100010BD0000003001400010024000080140F5
:101220002DE9F843044690F851009846012870D102
:1012300039B332B394F8500001286AD0012684F8FB
:101240005060122084F85100002565652163A28654
:10125000E286E564A564A563A587E587A06A7703B0
:10126000B84209D12068016821F40051016020686A
:10127000016841F400510160A068B0F5004F03D04F
:1012800007E00120BDE8F8832068016841F480414F
:10129000016020680168490603D4016841F04001FB
:1012A0000160E0680028606804D0D8B1E08E0128B1
:1012B00018D021E010B1E08E012808D1206B411C2C
:1012C000216321680078C860E08E401EE08600043B
:1012D000000C1FD0434600220221204600F040FBB4
:1012E000A8B9EBE7206B21680088C860206B801CE0
:1012F0002063E08E401EE0860004000C0AD04346C6
:1013000000220221204600F02BFB0028EAD0032017
:10131000B8E726E0A06AB84204D12068016841F429
:1013200080510160434600220221204600F018FB54
:1013300030B9434601228021204600F011FB20B144
:10134000606D40F010006065E1E7A06818B92068A2
:10135000C1688068009084F8516084F85050002083
:1013600090E702208EE72DE9F8430025DDF8208084
:101370000446ADF8005090F85100012803D094F8CD
:10138000510022287DD169B162B15BB194F850005F
:10139000012876D0012684F8506094F85100012885
:1013A00003D005E00120BDE8F883322084F8510025
:1013B0006565A263A387E3872163A386E386A564AB
:1013C000E564A06A4FF40057B84209D1206801686B
:1013D00021F4005101602068016841F4005101606E
:1013E00020680168490603D4016841F040010160AA
:1013F000E0684FF48271B0F5006F606807D0002894
:1014000067D088426ED1E08E012862D06AE020B1B8
:1014100088420CD1E08E012809D1206B2168008818
:10142000C860206B801C2063E08E401EE086E08E4A
:1014300080B9A06AB84244D12068016841F4805163
:1014400001603EE02068C068A16B0880A06B801C32
:10145000A0639EE0434600220221204600F080FA6D
:10146000002874D1206B21680088C860206B801C24
:101470002063E08E401E0004000CE08609D1A06AC3
:1014800000E0C7E0B84204D12068016841F480510F
:101490000160434600220121204600F061FA002845
:1014A0006FD12068C068A16B0880A06B801CA0630E
:1014B000E08F401EE087E08E0028CBD160680028D6
:1014C0006AD1434600220121204600F049FAF0BBD0
:1014D000B8E7206B411C216321680078C860E08E6A
:1014E000401EE086E08E98B9A06AB84204D1206818
:1014F000016841F4805101604346002201212046E9
:1015000000F02EFA18BB2068C068A16B087040E09C
:10151000434600220221204600F022FAB8B9206B8F
:10152000411C216321680078C860E08E401E0004E1
:10153000000CE08607D1A06AB84204D12068016897
:1015400041F48051016000224346012100E018E08F
:10155000204600F005FAA0B92068C168A06B421CC3
:10156000A2630170E08F401EE087E08E0028CFD19B
:10157000606888B9434600220121204600F0F0F956
:1015800008B103200FE72068C168A06B421CA2636A
:101590000170E08F401EE087A06AB84210D1434638
:1015A00000220121204600F0DBF918B1606D40F007
:1015B00002000FE02068C068ADF80000BDF8000030
:1015C000434601228021204600F0CAF920B1606D17
:1015D00040F010006065D4E784F85160A06AB8421A
:1015E00014D120688168C943C9060FD4616D41F0E8
:1015F00002016165016821F4005101602068016801
:1016000041F40051016084F85050CBE684F850500A
:101610000020C8E60220C6E64FF0E0210428086951
:1016200003D020F004000861704740F00400FAE79E
:10163000704710B5401EB0F1807F01D3012010BD6E
:101640004FF0E02460610F21601700F079F900206D
:10165000A06107202061002010BD10B5FFF7E8FF52
:1016600010BD70B5040004D094F83900002510B105
:1016700006E0012070BD84F83850204600F020F8C4
:10168000022084F839002068C16821F40051C1604B
:10169000204600F025FA2068016921F4904101619B
:1016A0002068416921F02A0141612068C16841F444
:1016B0000051C160E563012084F83900002070BD4D
:1016C00010B50068114986B088421DD11048816963
:1016D00041F48041816180690E4C00F480400490A7
:1016E0004FF400700090022001900320039069469F
:1016F0002046FEF7DDFD00212015CDE90001029115
:1017000069462046FEF7D4FD06B010BD0038014002
:1017100000100240000801402DE9F047044690F80F
:10172000390099460D46012801D0222858D12DB301
:1017300022B394F83800012852D0012684F838608A
:101740000027E76394F8390022281AD05FF01200CE
:1017500084F83900A284E2844FF48058E08C4B4630
:10176000401EE084A0684FF0000240454FF0800129
:10177000204613D100F024FA08BB04E00120BDE8A4
:10178000F0873220E4E728882168C0F30800486029
:10179000206908B16D1C08E0AD1C06E000F010FAED
:1017A00068B9216815F8010B4860E08C0028D5D194
:1017B0004B4600224021204600F002FA08B10320E7
:1017C000DDE794F83900322806D084F8396000BF8C
:1017D00084F838700020D2E7222084F83900F7E737
:1017E0000220CCE70349024808600846FEF72EBDF8
:1017F000003002400C0000202DE9F043334885B052
:10180000816941F040018161816901F040010491E9
:10181000816941F010018161816901F01001049139
:10182000816941F004018161816901F00401049141
:10183000816941F020018161816901F020010491F9
:10184000816941F0080181618069214F00F0080041
:101850004FF6FF740490002221463846FEF706FE3C
:10186000DFF870804EF29C05002229464046FEF7C4
:10187000FDFDDFF864907E15002231464846FEF7F4
:10188000F5FD009403200124039069460194384635
:10189000FEF70EFD0220CDE9005403906946404654
:1018A000FEF706FD8020009000200190029069461E
:1018B0000A48FEF7FDFCCDE90064694648460394FA
:1018C000FEF7F6FC05B0BDE8F08300000010024012
:1018D0000018014000140140000C014000100140BC
:1018E0000C480B49022201604FF4827141600021D3
:1018F0008160C0E903120122426152028261282202
:10190000C0E90721416281620A21C162FFF718BC68
:1019100000300140580000200848074901604FF49A
:10192000E1314160002181600C22C160C0E90412F4
:101930008161C161FFF795BE0038014018000020A9
:101940000907090E002806DA00F00F0000F1E02078
:1019500080F8141D704700F1E02080F800147047F3
:101960002DE9F0471D4690460E460446FEF784FDDD
:1019700007465FEA08004FF000084FF4005A4FF0A6
:10198000010926D034E0681C23D025B1FEF774FD90
:10199000C01BA8421DD92068416821F0E0014160C8
:1019A0002068016821F040010160A06A504509D11A
:1019B0002068016821F4005101602068016841F449
:1019C0000051016084F8519084F850800320BDE8F4
:1019D000F0872068806836EA0000D4D10DE0681CEA
:1019E00006D0002DD7D0FEF747FDC01BA842D2D8A5
:1019F0002068806836EA0000F1D00020E7E710B5E3
:101A0000FEF740FDBDE81040FFF727BE30B593B0AC
:101A1000012528040421CDE902010224CDE900506A
:101A2000CDE908404FF4E010CDE90A044FF4C0605E
:101A30000C9040200D906846FEF7B4FF0F20CDE9D2
:101A40000E0400206102CDE91001129002210EA8BF
:101A5000FEF7ACFDFEF7EEFE4FF47A71B0FBF1F04D
:101A6000FFF7E7FD0420FFF7D7FDE00690FAA0F0AE
:101A70000549B0FA80F041F8205000221146501E6E
:101A8000FEF762FD13B030BD00004242104801680D
:101A900041F00101016041680E4A11404160016856
:101AA0000D4A11400160016821F480210160416804
:101AB00021F4FE014160016821F0A05101604FF462
:101AC0007F0181600021C1620449C0030860704742
:101AD000001002400000FFF0FFFFF6FE08ED00E0FE
:101AE0002DE9F041044600680169E26821F44051A3
:101AF000114301612169A0680843616908432168B5
:101B0000CA6841F20C639A430243CA602068416983
:101B1000A26921F44071114341612849206864257C
:101B20004FF03208884218D1FEF7B4FE00EBC00136
:101B300001EB001061688900B0FBF1F0B0FBF5F635
:101B4000FEF7A8FE00EBC00101EB00106168890000
:101B5000B0FBF1F7FEF79EFE17E0FEF785FE00EB07
:101B6000C00101EB001061688900B0FBF1F0B0FB2F
:101B7000F5F6FEF779FE00EBC00101EB001061689D
:101B80008900B0FBF1F7FEF76FFE00EBC00101EB3F
:101B9000001061688900B0FBF1F0B0FBF5F06FF068
:101BA0001801484307EB800108EB0110B0FBF5F08A
:101BB000216866F31F108860BDE8F081003801409D
:101BC0002DE9F0471D4690460E460446FEF754FCAC
:101BD00007465FEA08004FF000094FF0010808D0FF
:101BE00030E0681C05D095B1FEF746FCC01BA8424A
:101BF0000DD82068006836EA0000F2D127E0681CA2
:101C000020D025B1FEF738FCC01BA8421AD92068A5
:101C1000C16821F08001C1602068C16821F0200105
:101C2000C1602068C16821F48071C1602068416989
:101C300021F00101416184F8398084F83890032053
:101C4000BDE8F0872068006836EA0000D7D00020A1
:101C5000F6E700000FB4054B10B503A9044A02983B
:101C600000F018F810BC5DF814FB0000551F0008C8
:101C70001400002002E008C8121F08C1002AFAD18F
:101C800070477047002001E001C1121F002AFBD1FC
:101C9000704700002DE9FF4F8DB09B460F4604466C
:101CA000002606E025280BD05A460F999047641C61
:101CB000761C20780028F5D111B03046BDE8F08FB1
:101CC0000025A8460122984900E0054314F8013F89
:101CD000203B02FA03F00842F7D120782E2817D1D2
:101CE00014F8010F45F004052A280ED06FF02F02DA
:101CF0002078A0F1300109290AD808EB880102EB0D
:101D0000410100EB0108641CF2E757F8048B641CE6
:101D100020786C280DD004DC4C2812D06A2811D110
:101D200004E074280DD07A280CD10AE045F400159F
:101D300007E0617845F48015814202D1641C05F505
:101D40008015641C2278692A45D008DC002AB3D0AB
:101D5000582A69D0632A10D0642A08D13BE0702A3F
:101D600067D0732A13D0752A5CD0782A5CD01046CD
:101D70005A460F999047761CD3E017F8040B8DF85C
:101D8000000000208DF80100E946012003E057F82B
:101D9000049B4FF0FF3069074FF0000501D40AE0C3
:101DA0006D1C45450DDA8542FADB19F8051000294E
:101DB000F6D106E06D1C8542FCDB19F80510002900
:101DC000F8D12E4404E019F8010B5A460F999047B8
:101DD0006D1EF8D2A5E00A200021CDE90801C5F367
:101DE000025002280DD001CFC117031E71F100036C
:101DF0000DDA4FF0000CD0EB0C006CEB01012D2341
:101E000008E0FF1D27F00707F7E80201EDE72B05C3
:101E100004D52B238DF8283001233BE0EB0739D084
:101E20002023F7E70A2000E010200021CDE9080177
:101E300007E01020002145F00405CDE908014FF02E
:101E40000808C5F3025002280FD001CF00214FF03F
:101E5000000A2B071FD5702A0DD0DDE908C38CF0CE
:101E6000100C5CEA030C0CD015E0FF1D27F00707EF
:101E7000F7E80201EBE740228DF828204FF0010A35
:101E80000BE050EA010306D030238DF828308DF89E
:101E9000292002239A46582A04D024A20DF12009B1
:101EA0000B9209E026A2F9E7DDE90823FEF77CF9A9
:101EB0000B9B9B5C09F8013D50EA0102F4D1ADEBAC
:101EC000090020300890680701D44FF001080899F4
:101ED000884502DDA8EB010000E0002080460025D7
:101EE00006E00AA85A46405D0F9990476D1C761C83
:101EF0005545F6DB04E030205A460F999047761C92
:101F0000B8F10001A8F10108F5DC05E019F8010BB2
:101F10005A460F999047761C0899481E0890002948
:101F2000F4DC641CC5E600000928010030313233BE
:101F30003435363738396162636465660000000005
:101F400030313233343536373839414243444546EF
:101F50000000000013B541F28833012269460248AF
:101F6000FFF7DAFB00981CBD18000020FEF792FA7C
:101F7000FFF74CFDFFF740FCFFF734FCFFF7CCFC0C
:101F8000FFF7AEFC02A0FFF765FE00F09DF8FEE74C
:101F900077323578313620746573740D0A0000008D
:101FA000A52000F00BB800000A4601464FF4FA7372
:101FB0000148FFF735B900005800002001B582B094
:101FC0004FF4FA700090012301AA02A90248FFF71A
:101FD000CAF99DF804000EBD5800002070B50446F3
:101FE00015460E46012000F05DF8002000F04AF88A
:101FF0000220FFF7E3FF204600F036F8FF2D03D95B
:102000004FF48075002401E0002404E0305DFFF708
:10201000D5FF641CE4B2AC42F8D3012000F032F8E2
:10202000BDE8704000F0BCB870B5064614460D46D9
:10203000002000F027F80320FFF7C0FF304600F033
:1020400013F84FF48070844206D9044604E000BFC0
:10205000FFF7A6FF05F8010B641EA4B2F8D2BDE895
:102060007040012000F00EB808B5000C8DF800009B
:1020700000208DF801008DF8020003216846FFF76B
:1020800093FF08BD064B4FF4007128B1012805D11C
:1020900001221846FEF7EAB90022FAE7704700006D
:1020A000000C014010B504460020FFF7EBFF44B1DF
:1020B0005FF00600FFF782FFBDE810400120FFF748
:1020C000E1BF0420F6E7000070B5B2B00020024680
:1020D0006C4619AD411C2954225488B26428F9D3A6
:1020E00000261BA0A95DFFF7B5FD761CB6B2642ED5
:1020F000F7D318A0FFF7AEFD642219A90020FFF75F
:102100006DFF15A0FFF7A6FD642269460020FFF7CA
:102110008BFF15A0FFF79EFD00260DA0A15DFFF728
:1021200099FD761CB6B2642EF7D30AA0FFF792FD94
:102130000020215C2A5C914201D011A004E0401CE7
:1021400080B26428F5D312A0FFF784FD32B070BDD1
:10215000256420000D0A0000D0B4C8EBCAFDBEDD26
:10216000B3C9B9A6200D0A00D0B4C8EBBAF3B6C102
:10217000C8A1B5BDB5C4CAFDBEDDCAC7200D0A00E1
:10218000B6C1D0B4B2E2CAD4CAA7B0DC0D0A00000E
:10219000B6C1D0B4B2E2CAD4B3C9B9A60D0A000020
:1021A00010B50020FFF76EFF0520FFF707FF00BF07
:1021B000FFF7F6FEC007FBD1BDE810400120FFF796
:1021C00061BF0000000001020304010203040607CE
:1021D00008090000F4210008000000201800000099
:1021E000741C00080C22000818000020980200004F
:1021F000841C000800A24A04000000000000000047
:0C220000000000000000000000000000D2
:04000005080001519D
:00000001FF
