:020000040800F2
:1000000088DA002009020008110200081302000823
:10001000150200081702000819020008000000007D
:100020000000000000000000000000006501000862
:100030001D02000800000000A9010008B53A0008F0
:1000400023020008230200082302000823020008FC
:1000500023020008230200082302000823020008EC
:1000600023020008230200082302000823020008DC
:100070002302000823020008A5080008B1080008B0
:1000800023020008230200082302000823020008BC
:1000900023020008230200082302000823020008AC
:1000A000230200082302000823020008230200089C
:1000B000230200082302000823020008230200088C
:1000C000230200082302000823020008230200087C
:1000D00023020008113E0008230200082302000842
:1000E0002302000823020008230200080000000089
:1000F0000000000000000000000000000000000000
:100100000000000000000000230200082302000895
:100110002302000823020008230200088D3B000888
:10012000230200082302000823020008230200081B
:10013000230200082302000823020008230200080B
:1001400023020008230200082302000823020008FB
:10015000DFF80CD000F018FB00480047F1750008EC
:1001600088DA0020204B19680868B0E8F00F80F3A7
:100170000988BFF36F8F4FF0000080F311884EF0B5
:100180000D0E70470000000006480068006880F30C
:10019000088862B661B6BFF34F8FBFF36F8F00DF81
:1001A00000BF00BF08ED00E0EFF30980BFF36F8FE1
:1001B0000D4B1A6820E9F00F106008B54FF05000A1
:1001C00080F3118808F0A6F94FF0000080F3118841
:1001D000BDE8084019680868B0E8F00F80F30988A6
:1001E000BFF36F8F704700BF3C000020EFF311801A
:1001F0004FF0500181F31188704780F311887047E8
:10020000EFF3058070470000064880470648004726
:10021000FEE7FEE7FEE7FEE7FEE7FEE7FEE7FEE7B6
:10022000FEE7FEE7393B000851010008202A04DB05
:10023000203A21FA02F00021704721FA02F3D0405F
:10024000C2F12002914008431946704710B5431A85
:10025000934209D28318881803E010F8011D03F8AF
:10026000011D521EF9D210BD40EA01039B0703D0C5
:1002700009E008C9121F08C0042AFAD203E011F8E5
:10028000013B00F8013B521EF9D210BDD2B201E091
:1002900000F8012B491EFBD270470022F6E710B58B
:1002A00013460A4604461946FFF7F0FF204610BDE4
:1002B0002DE9FE4F804681EA0300C00F0C460090F6
:1002C00021F0004123F00045B8EB0200A94105D21E
:1002D0004046214690461C460B46024623F000400D
:1002E000104347D0270DC7F30A00C3F30A51029009
:1002F000401A019040286BDAC3F3130040F4801BCE
:100300000098924620B10023D2EB030A63EB0B0B5B
:1003100001985946C0F14002504600F019F90646CE
:100320000D4650465946019A00F021F910EB08009D
:100330006141002487EA115284EAE7731A4340D0EE
:10034000009A62B3019A012A4FEA075215DC001B9A
:1003500061EB02014FF0004202EA0752CDE9004290
:10036000001C41F5801132462B4600F021F903B004
:10037000BDE8F08F40462146F9E7001B61EB020122
:10038000001C41F5801300185B412018A2F50017EE
:1003900047EB030140EAD570B6196D4111E06D08D5
:1003A0004FEA360645EAC0754FEA0752001B61EB7B
:1003B0000201001C41F5801149084FEA3000001984
:1003C000514132462B4603B0BDE8F04F00F0E1B892
:1003D0000098012240000023D0EB020263EBE0739F
:1003E000009821464FEAE074B8EB000061EB04018D
:1003F000E9E783F000435BE781F0004158E72DE92E
:10040000FE4F81EA030404F0004421F0004100940F
:100410004FF0000B23F0004350EA01045ED052EA93
:1004200003045BD0C3F30A54C1F30A552C44A4F26D
:10043000F3340194A0FB0254C1F3130141F4801181
:10044000C3F3130343F4801301FB024400FB034E88
:10045000840A970A44EA815447EA8357A4FB076851
:1004600002958D0A05FB07854FEA932C04FB0C547B
:100470002705029D4FEA065847EA1637B5EB0805EF
:100480006EEB070C870E920E47EA811742EA831241
:10049000A7FB0201B6EB0B0164EB00042B0D43EA52
:1004A0000C335E1844EB1C50DA465146E7FB020160
:1004B000C5F313044FEA0B3343EA14534FEA0432F3
:1004C000019C43EA0603A4F10C040294009CCDE9CC
:1004D00000B400F06DF803B0BDE8F08F00200146D5
:1004E000F9E70EB5C10F80EAE0700844CA070021A1
:1004F00040F233438DE80E000A460B4600F058F8F0
:1005000003B000BD0EB540F2334102910021CDE9A8
:1005100000110A460B4600F04BF803B000BDC1F3D2
:100520000A5210B5C1F3130140F2FF3341F48011B8
:100530009A4201DA002010BD40F233439A42A2F2FF
:10054000334203DC5242FFF771FE10BD904010BDF4
:10055000202A04DB203A00FA02F100207047914083
:10056000C2F1200320FA03F3194390407047202A78
:1005700006DBCB17203A41FA02F043EAE07306E0CB
:1005800041FA02F3D040C2F12002914008431946DB
:10059000704710B5141E73F1000408DA401C41F1D5
:1005A000000192185B411A4301D120F0010010BDF7
:1005B0002DE9F04D92469B4611B1B1FA81F202E06D
:1005C000B0FA80F220329046FFF7C2FF04460F4691
:1005D00040EA0A0041EA0B0153465A46084313D049
:1005E000114653EA010019D0C8F140025046FFF706
:1005F0001DFE05460E46504659464246FFF7A8FFE7
:10060000084305D0012004E020463946BDE8F08DBE
:100610000020054346EAE0762C4337430A986305F9
:10062000E40AA0EB08000022FD0A44EA47540A301D
:1006300002D500200146E9E7010510196941DDE90D
:10064000084500196941BDE8F04DA2E72DE9F04DDC
:1006500081EA030404F0004B21F0004514464FF0FA
:10066000000A23F0004150EA050220D054EA0102BA
:100670001DD0C5F30A570246C5F31303C1F3130097
:10068000C1F30A5640F4801543F48013A7EB060823
:10069000101BD64608F2FD3873EB050002D308F1B3
:1006A000010801E092185B41B8F1000F03DA002065
:1006B0000146BDE8F08D00204FF4801106468446C7
:1006C0000EE0171B73EB050705D3121B63EB050345
:1006D00006434CEA010C49084FEA300092185B418E
:1006E00050EA0107EDD152EA030012D082EA040079
:1006F00083EA0501084305D0101BAB4106D2012255
:10070000002306E000224FF0004302E06FF00102F8
:1007100053101AEB06004CEB085110EB0A0041EBAA
:100720000B01BDE8F04DFFF734BF70B521F0004379
:1007300003430CD0C1F30A550024D5EB040564EB48
:100740000403D617AD1AB34102DB0020014670BD89
:10075000201841EB025170BD30B5041E71F1000448
:1007600004DB4FF00044404264EB0101141E73F1BE
:10077000000405DB1C464FF00043524263EB0403C8
:10078000994208BF904230BD064C074D06E0E06834
:1007900040F0010394E8070098471034AC42F6D3C8
:1007A000FFF7DAFCD8950008F89500082DE9F04D20
:1007B00000231A461B1A8A4103DB00200146BDE8CC
:1007C000F08DC1F30A52C1F3130141F480154FF0CB
:1007D000000BD10702D100186D41521E00270446BC
:1007E00040F2FF11384601EB620A3E46804602465F
:1007F00000204FF48011FFF719FDC2197141BB1899
:1008000046EB0100B4EB030C75EB000C04D3E41AC7
:1008100065EB000517460E46241908F101006D41ED
:1008200080463428E3DDF91946EB0600091BA84190
:1008300003D24FF0FF32134601E0002213461BEBB8
:10084000070046EB0A51BDE8F04DFFF7A2BE70B5B8
:100850008C1810F8015B15F0070301D110F8013B6B
:100860002A1106D110F8012B03E010F8016B01F8F2
:10087000016B5B1EF9D12B0705D40023521E0DD44A
:1008800001F8013BFAE710F8013BCB1A921C03E098
:1008900013F8015B01F8015B521EF9D5A142D8D3D0
:1008A000002070BD014800F049BF00001402002084
:1008B000014800F043BF0000DC0100202DE9F047B3
:1008C000002426464FF080494FF001082046FFF7EC
:1008D00019FE02460B460020494606F0DBFE07469D
:1008E0000D4608FA04F0FFF7FCFD3A462B46FFF7E9
:1008F00086FD07460D463046FFF704FE3A462B4676
:10090000FFF7D6FCFFF70BFE641CE4B286B2102C96
:10091000DCD33046BDE8F0872DE9FF4100220646D2
:100920000092019202926D46CDF80C2001F0010078
:10093000A854521C4908D2B2102AF7D30024012728
:1009400007FA04F081B22A5D304601F069FA641CAE
:10095000E4B2102CF4D3BDE8FF8170B50C46054617
:1009600000F0EEF8A8682168C16261680163A168BF
:100970004163490707D5D0E90021C0E90012D0E959
:100980000221C0E90212A18981842169002903D0D2
:1009900001DC4FF00001016270BD2DE9F0411E46FF
:1009A00017468846054600F0CBF8AC6868224146F9
:1009B00004F58470FFF74AFC2846B8472846B0473C
:1009C000286980688047A062BDE8F08110B50446C0
:1009D00000F0B6F8A0680C49483001660B49C165C3
:1009E0000B4941660B49C1660B4981660B4981671A
:1009F0000B49C16730F8221C21F0030120F8221CAA
:100A00000849816410BD0000B5640008C165000894
:100A100079640008476100082F610008C36100087D
:100A2000FB6100083D64000810B5044600F088F83A
:100A3000A4680C489034102120650B4860650B4871
:100A4000A0650B48E0650B48E0600B482061206B17
:100A5000A06654F89029204690471020A0630748CC
:100A6000606410BD1151000841560008810A000859
:100A7000B10B00081161000889680008D8930008CC
:100A8000F8B5846815460F4694F8260080074CD5C3
:100A9000D4F8FC30204698470646D4F800312A4660
:100AA000394620469847D4F8943005461BB10022B9
:100AB0000121204698472069B04201DD012000E075
:100AC0000020A169B14201DA012100E000210843C0
:100AD0006169A94201DD012100E000210843E169CB
:100AE000A94201DA012100E0002108430AD0606830
:100AF000401E00902368D4F8A4705B1E00221146AB
:100B00002046B847D4F8A8302A46314620469847B0
:100B1000D4F89C1020468847D4F8943005466BB131
:100B2000012200212046984708E0D4F8A83020464A
:100B30009847D4F89C102046884705462846F8BDBB
:100B400070B504468068002812D14FF4B875284665
:100B500000F088F92A460021A06000F087FDA06817
:100B60000221C1840121046401620249C0F8041118
:100B700070BD0000790B000810B590B0044620222B
:100B80000A496846FFF762FB08492022203108A87D
:100B9000FFF75CFB606B5DF82010C4F8FC1008A93F
:100BA00051F82000C4F8000110B010BDC48900083D
:100BB0002DE9F84384689846154694F826000F46B8
:100BC000800740D5D4F8FC30204698470646D4F834
:100BD00000312A4639462046984705462069B042EA
:100BE00001DD012000E00020A169B14201DA01210C
:100BF00000E0002108436169A94201DD012100E014
:100C000000210843E169A94201DA012100E0002145
:100C100008430AD06068401E00902368D4F8A4708E
:100C20005B1E002211462046B847D4F8A8302A4659
:100C3000314620469847D4F8A02001B041462046CE
:100C4000BDE8F0431047D4F8A830F2E72DE9F04FA3
:100C5000DFF828B191B04FF0FF35DBF80030B3F981
:100C600022100691DE69B3F924A0F469A1898142BA
:100C700006D8E289824203D3471AD4F8008012E0F2
:100C8000D4E90181002970D00A8882426DD84D884C
:100C900085426AD3801A82B2486800EB8200B0F9BC
:100CA0000070B0F90250781C5FD0307EA27C014603
:100CB00000FB02F9207CCDE90810B3F92A60304628
:100CC00002F040FCC0B20E90DBF8001007FB098078
:100CD000A37C8A6B0127CDE90402CDE90273C869C0
:100CE000DDE90832C17E807ECDE9000151460698DB
:100CF00002F060F9681C18D046F0020002F022FCF5
:100D0000DBF80000A37C05FB0981826BCDE902734F
:100D1000CDE90412C069DDE90832C17E807ECDE9EB
:100D200000015146069802F045F9DBF800005D46E7
:100D3000C069417E007E814214D9022E12D086F015
:100D4000040002F0FFFB2868C069027EC37E857E36
:100D500002FB03A1437E099A0698534402FB050255
:100D600002F08CFA0E9802F0EDFBDBF80000627CDA
:100D7000418C1144418411B0BDE8F08F90000020F7
:100D800004480068C069C06909B1027C0A60407CFF
:100D90007047000090000020022008807047C06962
:100DA00082898A4202D8C2898A4210D2806880B180
:100DB00002888A420DD843888B420AD3406800EBF0
:100DC0008100A0EB8200B0F90000002801DB0120C7
:100DD000704700207047002801D003F0B9BC70476D
:100DE00038B50546FFF7F7FF040009D000F08EF88C
:100DF0002A460021009000F039FC684600F094F883
:100E0000204638BD024A106021F003005060704750
:100E100048D7002010B5002814D004460A48006BBB
:100E200010F8341000290DD002290BD2042101EB57
:100E3000C4014158486803F04FFC2046BDE810400B
:100E400005F054B910BD00008CD60020002805D054
:100E5000034A916B016001B14860906370470000E4
:100E60008CD600202DE9F041044605F009F826480B
:100E7000E41C24F00305C16B2D1DA94200D90D46C9
:100E8000846B13E054F8042CAA420ED184B121687B
:100E900009B162684A60616809B122680A60826BC0
:100EA000A2422ED1216881632BE02468002CE9D175
:100EB0008046416B80680F1857F8040C3E1A306862
:100EC00038B1002005F0D6F957F8040C3E1A306806
:100ED000B8B97068A84214DB3044441B304605F0B2
:100EE000AFF9D8F80810491BC8F80810D8F8101046
:100EF0002944C8F8101070683146401B03F0ECFB21
:100F000020C42046BDE8F0818CD6002005498A69BE
:100F1000521C8A61096B01EBC0010A78521C0A70ED
:100F200000F01AB88CD600200A4902680B6B52F800
:100F3000082C03EBC2021378022B03D38B690BB18D
:100F40005B1E8B611178491E1170002101600846FB
:100F5000704700008CD60020002806D003490422E8
:100F600002EBC000096B0858083070478CD600208F
:100F700010B5C2B2CBB2D21A02D5C2F1000212B27F
:100F800093B2C0F30722C1F3072403FB03F3121B40
:100F900001D5524212B2000C92B2A0EB114002FBFA
:100FA000023200B2002801DA404200B280B200FBF7
:100FB000002010BD10B50021084600F0E5F840F60D
:100FC000FF725042BDE8104013460146AFF3008067
:100FD0002DE9FC4107461C4615460E46042002F04A
:100FE000B1FA80461148C068C16C006D0F440644D8
:100FF0000D440444ADF80070ADF80450ADF8026043
:10100000ADF80640684603F0F9F907E023462A46A2
:101010003146384602F032F903F0B2F90028F5D132
:10102000404602F08FFABDE8FC81000084000020F9
:101030002DE9F0411C4616460D460746022B02DB01
:101040000020BDE8F0811C20FFF70CFF0028F8D03D
:101050000DB105610AE0094A52F8241009B905E00A
:1010600011460A68002AFBD1096901618461868200
:10107000002101604160C0E90217E2E7A8000020FA
:1010800070B51D46FFF7D4FF040001D000F00EF844
:10109000E068006820B90348006800EB85008465BB
:1010A000204670BD90000020FFF7D0BE70B590B311
:1010B0008269022A30DA1C4C54F8221019B944F81B
:1010C00022002FE019464B68002BFBD106E0CB68CD
:1010D000C5681B682D68AB4203DD09680029F6D19D
:1010E0001AE0C1B1CB68C6681B683668B3420CD140
:1010F000838A012B05D008E01946DB681B68AB42E8
:1011000003DB0B68002BF7D129B14B6833B11860B2
:101110004A68426004E0FFE7012070BD44F8220005
:1011200048600160002070BDA800002005F094BB5D
:10113000022801DB00207047054951F8200004E037
:10114000C16809680029F6D000680028F8D1704706
:10115000A8000020034951F82000C1688A6A0821CC
:1011600010470000A8000020024951F82000006943
:1011700000687047A8000020024951F8200000696B
:1011800040687047A800002070B50D4604F0F4FDDB
:101190000446284604F0F8FD204370BD124810B5FF
:1011A000016821F0010101601048012181601049AE
:1011B000016000680F49884200D0FEE700F0EEF9B8
:1011C0000D492E20087000F054F90C4804F020FE60
:1011D00005F0BAFF04460021084600F0E7F802F0E7
:1011E00049FF204610BD0000002000E00030024012
:1011F000C2A507F4CDB5E8B58400002054D700207F
:1012000038B5040018D00D480068006EA04201D126
:1012100000F0A8F82046FFF779FE0090406908B179
:1012200000F004F900980068FFF73EFF6846FFF7FA
:101230007BFE2046FFF7EEFD38BD00009000002049
:1012400038B5002460B1FFF761FE009000680069C6
:101250008068804702F026FB04466846FFF764FE7C
:10126000204638BD38B5FFF751FE00F11804009054
:101270006846FFF759FE204638BDF8B515460E46BC
:101280000746FFF743FE009044696846FFF74CFEAF
:101290003846FFF7D5FF0346082800DD2CB12A4663
:1012A0003146384605F00EFBF8BD2A463146384631
:1012B00005F0A0FCF8BD10B5002821D009B30AB391
:1012C000B1F90040B2F900309C4200DA23460380B5
:1012D000B1F90240B2F902309C4200DA2346438061
:1012E000B1F90440B2F904309C4200DD234683800A
:1012F000B1F90610B2F90620914200DC1146C18016
:1013000010BD11460A6802604968416010BD00289E
:101310000BD003880B440380838819448180418863
:1013200011444180C1881144C1807047B0F9022046
:10133000B1F906309A4213DCB1F90220B0F9063057
:101340009A420DDCB0F90020B1F904309A4207DC72
:10135000B1F90010B0F90400814201DC01207047AE
:101360000020704710B502F081F802F033F9BDE8B3
:10137000104002F053BD000070B504460548022C31
:101380000068457C02D24474FFF7ECFF0248046019
:10139000284670BD90000020F000002002F088B8C0
:1013A000014988607047000084000020094A30B479
:1013B0001080094A1180094A1268537C084A52F881
:1013C0002330DA68146A0A46A446014630BC18463F
:1013D00060470000B4000020B6000020900000200C
:1013E000A800002002480068002800D0004770478D
:1013F0004C01002002498A6802B98860FFF7F2BFF9
:10140000400100202DE9F0411E46069C1746884603
:1014100005463A46A8687F1C3346D0F804C04146CA
:101420002846E047641EF4D1BDE8F08138B5054692
:10143000FFF76CFD00908189491E0CB284816846DB
:10144000FFF772FD002C02D12846FFF7E3FC38BD00
:1014500010B54CF250310448FFF7D4FCBDE8104001
:101460000248FFF79DBF00004C020020F8900008E2
:101470007047704710B5082A0EDC0346012A1AD0BF
:10148000022A58D0042A78D010F8042B03F8012B34
:10149000491EF9D1012010BD102A0ADC0222022ABD
:1014A000F8D1024630F8043B22F8023B491EF9D13C
:1014B000F0E7002010BD10F8042BD207120E491ED1
:1014C00034D010F8044B491E04F0010442EA84129F
:1014D0002CD010F8044B491E04F0010442EA4412D7
:1014E00024D010F8044B491E04F0010442EA04120F
:1014F0001CD010F8044B491E04F0010442EAC40257
:1015000014D010F8044B491E04F0010442EA84028E
:101510000CD010F8044B491E04F0010442EA4402C6
:1015200004D010F8044B04F00104224303F8012B0B
:101530000029C0D1AEE710F8042B9207120E491E05
:1015400015D010F8044B491E04F0030442EA0412BB
:101550000DD010F8044B491E04F0030442EA840243
:1015600005D010F8044B04F003042243491E03F88D
:10157000012B0029DFD18DE7FFE710F8042B1207BC
:10158000120E491E05D010F8044B04F00F0422433C
:10159000491E03F8012B0029EFD17BE70A4810B55B
:1015A000816900290ED101218161FFF751FF02F00D
:1015B00023F8054905481C310860BDE8104008467D
:1015C00000F04CB810BD0000840000203960000815
:1015D000B0F90030B1F90020934200DA0280B0F98E
:1015E0000230B1F90220934200DA4280B0F90430AF
:1015F000B1F90420934200DD8280B0F90620B1F9F0
:1016000006108A4200DDC180704770B5B1F9004014
:10161000B2F900309C4200DD23460380B1F902504C
:10162000B2F90240A54200DD2C464480B1F90460C5
:10163000B2F90450AE4200DA35468580B1F90610A1
:10164000B2F90620914200DB1146C1809D4201DBC8
:10165000A14201DA002070BD012070BD02494A6933
:1016600042604861704700008400002010B502E02D
:1016700000F8011B521E0AB18307F9D1930818D054
:1016800001EB014402F0030204EB042405E00460D2
:1016900044608460C46010301B1F042BF7DA01E043
:1016A00010C05B1E002BFBD103E000BF00F8011B44
:1016B000521E002AFAD110BD10B5830702D520F8BA
:1016C000021B521E530810D001EB0144042B08DB0F
:1016D000046044608460C46010301B1F042BF7DA80
:1016E00001E010C05B1E002BFBD1D20700D00180AF
:1016F00010BD10B5040002D0607910B106E00120E1
:1017000010BD00202071204600F004F80120607117
:10171000002010BD08B500680649884208D1064877
:10172000416941F040014161406900F04000009092
:1017300008BD000000300240001002402DE9F05FBB
:101740000446F94AF84DF84EF74F0068DFF8D89391
:10175000DFF8D4A3DFF8D0B3D114783D643E503F16
:101760004FF4000E4FF4004C4FF40028A9F13C094F
:10177000AAF1280AABF1140B904221D9EB4A136865
:10178000A8420FD0B0420FD0B84213D0484513D072
:10179000504513D0584501D1724624E0E34A08323F
:1017A00090423CD108221EE080221CE0DF4A303209
:1017B000904239D10A4616E0624614E0424612E0F1
:1017C000D94A803A1368A842ECD0B042ECD0B84273
:1017D000F0D04845F0D05045F0D05845DCD0D24A42
:1017E0009042DBD10205134279D00268D24312073E
:1017F00075D4026822F008020260CB4A2068904249
:1018000032D9A84219D0B0421DD0B84228D048459C
:1018100023D0504523D058450BD1714620E0C34A10
:101820001C329042C2D1BFE7C04A44329042C5D177
:10183000C2E7BE4A0832904201D1082110E0BB4AFB
:101840001C32904201D180210AE0B84A30329042E5
:1018500006D0B6494431884201D1614600E0414694
:10186000B248001D01602CE0A84214D0B04218D04C
:10187000B84223D048451ED050451ED0584501D10E
:1018800071461BE0904202D14FF0006116E0A74A7A
:101890000832904201D1082110E0A44A1C32904243
:1018A00001D180210AE0A14A3032904206D09F49FE
:1018B0004431884201D1614600E041469A4880386F
:1018C0004160606B40F001006063042084F82100F7
:1018D000002084F82000216B09B120468847924AF5
:1018E000206811154FF4800E4FF4804C4FF480287F
:1018F000904221D98D4A1368A8420FD0B0420FD030
:10190000B84213D0484513D0504513D0584501D1A3
:10191000724624E0854A083290423FD104221EE0FC
:1019200040221CE0814A303290423CD10A4616E007
:10193000624614E0424612E07B4A803A1368A842AD
:10194000ECD0B042ECD0B842F0D04845F0D0504591
:10195000F0D05845DCD0744A9042DBD1C204134227
:1019600075D00268D243520771D40268920603D43C
:10197000026822F0040202606B4A2068904232D969
:10198000A84219D0B0421DD0B84228D0484523D033
:10199000504523D058450BD1714620E0634A1C3294
:1019A0009042BFD1BCE7614A44329042C2D1BFE706
:1019B0005E4A0832904201D1042110E05B4A1C3299
:1019C000904201D140210AE0584A3032904206D07C
:1019D00056494431884201D1614600E041465348AE
:1019E000001D01602CE0A84214D0B04218D0B842CB
:1019F00023D048451ED050451ED0584501D17146D0
:101A00001BE0904202D14FF0806116E0474A083255
:101A1000904201D1042110E0444A1C32904201D18D
:101A200040210AE0414A3032904206D03F494431D9
:101A3000884201D1614600E041463B488038416020
:101A4000112084F82100E16A09B120468847364A0E
:101A5000206851154FF4005C4FF4003E904228D9A5
:101A6000324B1B68A84212D0B04213D0B8421AD0F1
:101A700048451AD050451AD0584502D14FF40018A5
:101A80002AE0DFF8A88008F10808404544D14FF06B
:101A9000020821E04FF020081EE0DFF8908008F1F6
:101AA0003008404544D1884616E0E04614E0F04650
:101AB00012E01D4B803B1B68A842E8D0B042E9D041
:101AC000B842F0D04845F0D05045F0D05845D5D078
:101AD0009042D6D14FF0007813EA080F70D0036817
:101AE000DB439B077FD403689B0603D4036823F082
:101AF000020303602068904239D9A84221D0B04245
:101B000025D0B8422FD048452AD050452AD0584534
:101B100013D14FF4001126E0DFF8108008F11C0803
:101B20004045BAD1B6E70000800002400004024000
:101B3000DFF8B8804045BAD1B7E72C4A3C3A90422A
:101B400001D102210FE0294A283A904201D12021F7
:101B500009E0264A143A904205D02449884201D12E
:101B6000614600E071462148403801602CE0A842FF
:101B700015D0B04219D0B84224D048451ED05045A7
:101B80001FD0584502D14FF400111BE0904202D102
:101B90004FF0007116E0154A3C3A904201D1022103
:101BA00010E0124A283A904201D120210AE00F4A5F
:101BB000143A904206D00D49884202D1614601E0B4
:101BC00011E071460A484160606B6063012084F84F
:101BD0002100002084F82000A16A002903D02046BB
:101BE000BDE8F05F0847BDE8F09F000044040240F4
:101BF0000000024070B520B190F82110002411B10E
:101C000003E0012070BD80F82040022180F82110FF
:101C100003681A6843F6F0718A43D0E90115294335
:101C2000D0E903563543294345692943856929434A
:101C3000C5692943114319604463012180F82110CB
:101C4000002070BD31B500F0F1F8044600F0EEF868
:101C50000099001B8842F9D338BD00002DE9F84FE8
:101C6000DFF890A100220AF1040B144601274FF07F
:101C70000F090BF1040E00BF0B6807FA04F52B40A7
:101C8000AB4274D1DFF870C14E68A6EB0C08664514
:101C90002BD00DDC032E34D005DC36B3012E19D049
:101CA000022E2FD11BE0112E16D0122E2AD119E0B0
:101CB000B8F5881F19D006DCB8F5803F15D0B8F507
:101CC000801F1FD111E0B8F5001F0ED0B8F5041F1A
:101CD00018D10AE0CA6815E0CA68121D12E0CA6885
:101CE00008320FE0CA680C320CE08A682AB1012A77
:101CF0004FF0080203D0456104E0042202E00561D0
:101D000000E00022FF2B01D8064601E000F10406A6
:101D10004FEA840501D9A5F12005D6F800C009FADB
:101D200005F82CEA080C02FA05F54CEA050CC6F891
:101D300000C04D68ED0057D5304DAE6946F0010644
:101D4000AE61AD6924F0030605F0010500952C4D48
:101D500006EB050CDCF80850A6074FEA167809FADE
:101D600008F6B543274EB04202D1002610E03BE012
:101D7000254EB04201D101260AE0244EB04201D1E5
:101D8000022605E0224EB04201D1032600E00426DF
:101D900006FA08F62E43CCF808604D68DAF80060C1
:101DA000ED03554601D51E4300E09E432E604D686D
:101DB000DBF80060AD035D4601D51E4300E09E43A5
:101DC0002E604D68DEF80060ED02754601D51E43B9
:101DD00000E09E432E604D68AD020E4D2E6801D589
:101DE0001E4300E09E432E60641C102CFFF444AFA1
:101DF000BDE8F88F000401400000111000100240FF
:101E00000000014000080140000C014000100140AA
:101E1000001401400C040140C2684A40C26070478F
:101E20000AB1016170470904FBE70000014800683E
:101E3000704700000000002002480168491C016052
:101E40007047000000000020074810B5016841F00D
:101E500010010160032000F0A5F8002000F006F852
:101E600000F03EF8002010BD0020024000B5014601
:101E700087B00022372000F075F8372000F066F8B0
:101E80001348C16941F02001C161C06905A900F092
:101E900020000690684600F0DBF900F013FA0D49C7
:101EA0004000B0FBF1F10D480B4A491E0260416051
:101EB00040F2E7320021C0E90321816000F08FFE8B
:101EC00010B1012007B000BD044800F0A4FEF9E7FE
:101ED0000010024040420F0000140040600100204A
:101EE000184808B5816941F001018161806900F0FD
:101EF00001000090032000F055F8002211466FF019
:101F00000B0000F02FF8002211466FF00A0000F0DD
:101F100029F8002211466FF0090000F023F8002292
:101F20001146101F00F01EF800220F21501E00F075
:101F300019F80548416821F0E06141F00071416005
:101F400008BD0000001002400000014000F01F0228
:101F5000012191404009800000F1E020C0F800110B
:101F600070470000F0B40E4B1B680C46C3F302230D
:101F7000C3F10705042D00D90425191D072901D235
:101F8000002300E0DB1E012606FA05F1491E214070
:101F900099409E40761E16403143F0BC01F076BD5C
:101FA0000CED00E0064900F0070208684FF6FF0359
:101FB000184040EA0220034A1043086070470000BE
:101FC0000CED00E00000FA052DE9F047DFF878920B
:101FD00005460E46D9F80000022300F0070701204D
:101FE00041044206994C41F28838B74271D2D9F87F
:101FF00000C02CF0070C4CEA060CC9F800C0D9F858
:10200000007007F00707B7426FD12E78B60705D5E5
:102010006668AF6826F0F0063E4366602E78F607E5
:1020200056D06E68012E0BD0022E1ED093FAA3F16B
:10203000B1FA81F141F02001490924D0216823E05F
:1020400091FAA1F2B2FA82F242F02002520901D0D2
:10205000226800E0626A91FAA1F1B1FA81F101F01F
:102060001F018840024240D017E092FAA2F1B1FA73
:1020700081F141F02001490901D0216800E0616A45
:1020800092FAA2F202E0616A93FAA3F2B2FA82F241
:1020900002F01F029040014227D0606820F0030048
:1020A00030436060FFF7C2FE06466868012809D029
:1020B0000228474613D01EE0FFF7B8FE801BB84247
:1020C00001D992E047466068C0F381000128F3D14E
:1020D000A1E015E0FFF7AAFE801BB84273D8606844
:1020E000C0F381000228F5D195E092E0FFF79EFE53
:1020F000801BB84279D8606810F00C0FF6D18AE0E6
:102100002F78BF0707D56768D5F808C027F0F00714
:1021100047EA0C0767602F78FF076DD06F68012FC3
:102120000BD0022F1ED093FAA3F1B1FA81F141F046
:102130002001490924D0216823E091FAA1F2B2FAE2
:1021400082F242F02002520901D0226800E0626A65
:1021500091FAA1F1B1FA81F101F01F018840024228
:1021600057D017E092FAA2F1B1FA81F141F02001C3
:10217000490901D0216800E0616A92FAA2F202E006
:10218000616A93FAA3F2B2FA82F202F01F0290405F
:1021900001423ED0606820F0030038436060FFF7E2
:1021A00045FE07466868012807D0022811D01FE0C5
:1021B000FFF73CFEC11B414517D86068C0F38100A2
:1021C0000128F5D118E010E0FFF730FEC11B4145B2
:1021D0000BD86068C0F381000228F5D10CE000BF85
:1021E000FFF724FEC11B414502D90320BDE8F0875B
:1021F000606810F00C0FF3D1D9F8001021F007013E
:102200003143C9F80010D9F8000000F00700B042CF
:1022100001D00120EAE72878400705D56068E96821
:1022200020F4E060084360602878000706D5606805
:10223000296920F4605040EAC10060600020FFF787
:1022400015FE0020D2E700000020024000100240EE
:102250000F2202600C4A536803F003034360536883
:1022600003F0F0038360536803F4E063C3605268D3
:102270004FF4E06303EAD20202610448006800F010
:102280000700086070470000001002400020024074
:1022900000B500F043F808494968F02292FAA2F22A
:1022A00001F0F001B2FA82F2D140044A515CC84018
:1022B0000349086000BD00000010024014890008B6
:1022C0000400002000B5FFF7E3FF074949684FF419
:1022D000E06292FAA2F201F4E061B2FA82F2D14035
:1022E000024A515CC84000BD001002401489000839
:1022F00000B5FFF7CDFF074949684FF4605292FAE5
:10230000A2F201F46051B2FA82F2D140024A515C69
:10231000C84000BD0010024014890008F0B52DA28D
:102320008AB007CA8DE807002DA103AC0FC984E865
:102330000F002F494B682F4803F00C02042A02D0EB
:10234000082A02D02C480AB0F0BD4FF4701595FA57
:10235000A5F403F47012B4FA84F4E2406E461DF85A
:102360000220DB0333D5CB6A0F2494FAA4F403F0E4
:102370000F03B4FA84F4E34003ACE45CCB6ADB0300
:1023800016D5CB6AF02797FAA7F703F0F003B7FA50
:1023900087F7C96AFB40AF1297FAA7F701F470619B
:1023A000B7FA87F7F9405B1CB0FBF3F0891C484390
:1023B000B0FBF4F095FAA5F350434FF45011B3FA83
:1023C00083F3D940715C9142BDD14008BBE70B4813
:1023D0005043B8E700000405060708090000000D97
:1023E0000102030405060708090A0B0C0D0E0F1065
:1023F0000010024040787D0100127A0000093D0083
:102400002DE9F84F04460078FC4DC0074FF0010657
:1024100025D068687704C0F38100012807D0686878
:10242000C0F3810002281BD16868C00318D597FA51
:10243000A7F0B0FA80F040F02000400901D02868F1
:1024400000E0686A97FAA7F1B1FA81F101F01F0183
:1024500006FA01F1084202D0A068002876D081E097
:10246000286820F480302860286820F480202860C4
:10247000FFF7DCFC804605E0FFF7D8FCA0EB080086
:1024800064287DD897FAA7F0B0FA80F040F02000D9
:10249000400901D0286800E0686A97FAA7F1B1FA0C
:1024A00081F101F01F0106FA01F10842E4D1A068B0
:1024B000B0F5803F0BD010B1B0F5A02F11D0286837
:1024C00020F480302860286820F4802002E028680A
:1024D00040F480302860A06820B3FFF7A7FC804656
:1024E0000AE0286840F480202860F0E7FFF79EFCAF
:1024F000A0EB08006428C4D897FAA7F0B0FA80F0DF
:1025000040F02000400901D0286800E0686A97FA8E
:10251000A7F1B1FA81F101F01F0106FA01F10842B9
:10252000E4D01FE0FFF782FC804605E0FFF77EFC69
:10253000A0EB08006428A4D897FAA7F0B0FA80F0BE
:1025400040F02000400902D0286801E0B8E0686A45
:1025500097FAA7F1B1FA81F101F01F0106FA01F132
:102560000842E3D12078A64F80074FF002084FF0D1
:1025700000095BD568684FF0F80B10F00C0F00E015
:102580001DE207D06868C0F3810002281BD168688B
:10259000C00318D498FAA8F0B0FA80F040F02000F8
:1025A000400901D0286800E0686A98FAA8F1B1FAF9
:1025B00081F101F01F0106FA01F108422BD0606998
:1025C00001287DD127E0606988B396FAA6F0B0FAB9
:1025D00080F047F82060FFF729FC824606E000BF44
:1025E000FFF724FCA0EB0A00022884D898FAA8F090
:1025F000B0FA80F040F02000400901D0286800E0E7
:10260000686A98FAA8F1B1FA81F101F01F0106FA9F
:1026100001F10842E4D028689BFAABF2A169B2FA52
:1026200082F220F0F80091400843286025E0FFE79F
:1026300096FAA6F1B1FA81F147F82190FFF7F6FB7F
:10264000824605E0FFF7F2FBA0EB0A000228CCD897
:1026500098FAA8F0B0FA80F040F02000400901D0CC
:10266000286800E0686A98FAA8F1B1FA81F101F0EF
:102670001F0106FA01F10842E4D1207800076FD566
:10268000E069C0B396FAA6F0B0FA80F007EB8000DC
:10269000C0F88064FFF7CAFB824605E0FFF7C6FB7F
:1026A000A0EB0A000228A0D898FAA8F1B1FA81F1AB
:1026B00041F060014046B6EB511F02D129680CE0A1
:1026C000A0E190FAA0F1B1FA81F141F06001B0EB24
:1026D000511F01D1296A00E0696A98FAA8F0B0FA9E
:1026E00080F000F01F0206FA02F00142D6D001206D
:1026F000FFF7A8FA34E0FFE796FAA6F1B1FA81F104
:1027000007EB8101C1F88094FFF790FB824605E05A
:10271000FFF78CFBA0EB0A00022898D898FAA8F1E2
:10272000B1FA81F141F060014046B6EB511F01D191
:1027300029680BE090FAA0F1B1FA81F141F0600153
:10274000B0EB511F01D1296A00E0696A98FAA8F03C
:10275000B0FA80F000F01F0206FA02F00142D7D171
:102760002078400773D5E86940F08050E861E86957
:10277000DFF890B000F080500090DBF8001041F4DA
:102780008071CBF80010FFF751FB824606E000BFD6
:10279000FFF74CFBA0EB0A00642884D8DBF80000AC
:1027A000C005F5D5286A20F001002862286A20F0CB
:1027B00004002862FFF73AFB834641F2883A05E0BD
:1027C000FFF734FBA0EB0B015145A6D898FAA8F10E
:1027D000B1FA81F141F040014046B6EB511F01D101
:1027E000296812E090FAA0F1B1FA81F141F04001BC
:1027F000B0EB511F08D1296A07E000000010024029
:102800000000424200700040696A98FAA8F0B0FAED
:1028100080F000F01F0006FA00F00142D0D12069DC
:1028200001280AD008B1052812D0286A20F001003A
:102830002862286A20F0040002E0286A40F00100C3
:102840002862206998B3FFF7F1FA83460CE05BE059
:10285000286A40F004002862EFE700BFFFF7E6FABD
:10286000A0EB0B01514598D898FAA8F1B1FA81F183
:1028700041F040014046B6EB511F01D129680BE001
:1028800090FAA0F1B1FA81F141F04001B0EB511F93
:1028900001D1296A00E0696A98FAA8F0B0FA80F0DC
:1028A00000F01F0206FA02F00142D7D02CE0FFE749
:1028B000FFF7BCFA834605E0FFF7B8FAA0EB0B017F
:1028C00051457CD898FAA8F1B1FA81F141F0400164
:1028D0004046B6EB511F01D129680BE090FAA0F1F8
:1028E000B1FA81F141F04001B0EB511F01D1296AE9
:1028F00000E0696A98FAA8F0B0FA80F000F01F02D0
:1029000006FA02F00142D7D1E16AA1B36868C003B8
:1029100007D56868C0F38100022802D1E86AC003C5
:1029200070D44FF080604FF0006B02290DD0E96A3F
:1029300021F48031E96290FAA0F0B0FA80F047F813
:102940002090FFF773FA804670E02968C90005D52A
:10295000E96A626B01F0F001914253D14FF080605F
:1029600090FAA0F0B0FA80F047F82090FFF75EFAF6
:102970008246D84606E06EE0FFF758FAA0EB0A0060
:1029800064281CD898FAA8F0B0FA80F040F0200033
:10299000400901D0286800E0686A98FAA8F1B1FA05
:1029A00081F101F01F0106FA01F10842E4D1E86A61
:1029B000616B20F0F0000843E862E86A00E082E022
:1029C000216B20F470600843E8624FF0806090FA59
:1029D000A0F0B0FA80F047F82060FFF727FA8246AF
:1029E00006E000BFFFF722FAA0EB0A0064286AD8CD
:1029F00098FAA8F0B0FA80F040F02000400902D028
:102A0000286801E0A7E0686A98FAA8F1B1FA81F1B4
:102A100001F01F0106FA01F10842E3D01BE000BFFC
:102A2000FFF704FAA0EB080064284CD89BFAABF03F
:102A3000B0FA80F040F02000400901D0286800E0A2
:102A4000686A9BFAABF1B1FA81F101F01F0106FA55
:102A500001F10842E4D1206AA0B36968C1F38101A1
:102A6000022978D002284FF080714FF0007A484652
:102A70000AD091FAA1F1B1FA81F147F82100FFF7EC
:102A8000D5F9074654466FE08B4691FAA1F1B1FAA9
:102A900081F1B94647F82100FFF7C8F9804657464B
:102AA00006E000BFFFF7C2F9A0EB0800022858D8E3
:102AB00097FAA7F0B0FA80F040F02000400903D068
:102AC000286802E065E04CE0686A97FAA7F1B1FA7D
:102AD00081F101F01F0106FA01F10842E2D1606ABA
:102AE000B0F5803F09D1E86A61680843E862E86AA6
:102AF000E16820F00F000843E862D4E909010843C7
:102B0000696821F47411084368609BFAABF0B0FA6D
:102B100080F049F82060FFF789F9044605E000BF1E
:102B2000FFF784F9001B02281BD897FAA7F0B0FA28
:102B300080F040F02000400901D0286800E0686A79
:102B400097FAA7F1B1FA81F101F01F0106FA01F13C
:102B50000842E5D01DE01EE0FFF768F9C01B02281F
:102B600002D90320BDE8F88F94FAA4F0B0FA80F0FF
:102B700040F02000400901D0286800E0686A94FA1B
:102B8000A4F1B1FA81F101F01F0106FA01F1084246
:102B9000E2D10020E6E70120E4E74FF0E02104283D
:102BA000086903D020F004000861704740F0040079
:102BB000FAE710B5401EB0F1807F01D3012010BDAF
:102BC0004FF0E02460610F21601700F05FFF0020EC
:102BD000A06107202061002010BD7047704710B52C
:102BE000040003D094F8390010B107E0012010BDB3
:102BF000002084F83800204600F00CF8022084F809
:102C00003900211D206800F0C7FF012084F8390039
:102C1000002010BD70470168CA6842F00102CA6016
:102C20000068016841F001010160002070477047B1
:102C300070B50446006801694FF00005C943890773
:102C400015D4C168C943890711D4E91E0161012067
:102C50002076206880698007204602D0FFF7E7FFD2
:102C600004E000F098F8204600F096F825762068F9
:102C70000169C943490717D4C168C943490713D437
:102C80006FF004010161022020762068806910F451
:102C9000407F204602D0FFF7CAFF04E000F07BF837
:102CA000204600F079F8257620680169C9430907B4
:102CB00016D4C168C943090712D46FF00801016135
:102CC000042020762068C0698007204602D0FFF7E4
:102CD000AEFF04E000F05FF8204600F05DF82576D6
:102CE00020680169C943C90617D4C168C943C90628
:102CF00013D46FF010010161082020762068C069AC
:102D000010F4407F204602D0FFF791FF04E000F06E
:102D100042F8204600F040F8257620680169C94352
:102D2000C90708D1C168C943C90704D1891E016117
:102D3000204600F032F820680169C943090609D429
:102D4000C168C943090605D46FF0800101612046BE
:102D5000FFF743FF20680169C943490609D4C168E8
:102D6000C943490605D46FF040010161204600F0D7
:102D700016F820680169C94389060BD4C168C943A4
:102D8000890607D46FF0200101612046BDE870403C
:102D9000FFF724BF70BD70477047FFF74DB870470D
:102DA0007047000038B5044600680168C26811F039
:102DB000010F02F4807204D01AB1E16B41F00101FD
:102DC000E1630168C1F34002416901F0010122B1F0
:102DD00019B1E26B42F00402E2630268C2F38002BE
:102DE00022B119B1E26B42F00202E2630268C2F35F
:102DF000C00222B119B1E16B41F00801E163016841
:102E0000C068C1F3401100F0200019B110B1204694
:102E100000F006FF20680168C068C1F3C01100F02F
:102E2000800019B110B1204600F0BEFF216808688B
:102E3000CA68C0F3801002F04002012570B16AB187
:102E4000CA68204622F04002CA6094F8391032293C
:102E500011D080F8395000BF00F09DF8E06B0028D9
:102E600008D0206801684068009084F839502046F6
:102E7000FFF796FF38BD222180F83910ECE770B5D6
:102E8000040004D094F83900002510B106E00120B8
:102E900070BD84F83850204600F020F8022084F8F5
:102EA00039002068C16821F40051C160204600F05B
:102EB0000BFF2068016921F490410161206841699C
:102EC00021F02A0141612068C16841F40051C160CC
:102ED000E563012084F83900002070BDF0B5064696
:102EE0000068274985B0884248D12648816941F465
:102EF000804181618069244D00F4804004904FF44A
:102F0000007000900220019003200390694628463B
:102F1000FEF7A4FE00242815CDE9000469462846E2
:102F20000294FEF79BFE1A4D1848C5E90004AC60F8
:102F30002020EC60C701EF612C61C5E905402846FF
:102F4000FEF758FE756311486E62383514382860F4
:102F50001020C5E901048020C5E903046C61C5E9BE
:102F600006472846FEF746FE356300220521252048
:102F70006E62FEF7F7FF2520FEF7E8FF05B0F0BD13
:102F80000038014000100240000801405800024093
:102F9000DC010020704770470449054A0968497CF4
:102FA00052F82110096909680847000090000020C4
:102FB000A80000202DE9F04F05468DB07C48DDF8D3
:102FC00060901A9C00681E4617464FF0000A78B1C0
:102FD0001B9B199ACDF808900593CDE90324DDE9F0
:102FE0001623CDE90023046833463A46284682E09A
:102FF000DDE9160201EB060805EB070C1043A8F10A
:103000000108ACF1010C012806D0C9F108000590B7
:10301000002002910890C8E066480268B2F90A30C0
:10302000581A002806DD361A002E65DD1946199B50
:1030300000FB0344B2F90E00A8EB0000002802DDFB
:10304000361A002E58DDB2F90C00ACEB0000002857
:1030500000DD3F1AB2F908300020AB4237DD581BC3
:103060003F1A4B46B9F1080F28D007DC012B0DD0D1
:10307000022B13D0B9F1040F29D117E0102B1FD068
:10308000182B20D0B9F1200F21D11CE020F007032C
:1030900004EBE0041D4400F0070018E020F00303F7
:1030A00004EBA0041D4400F0030010E020F0010335
:1030B00004EB60041D4400F0010008E0044404E057
:1030C00004EB400401E004EB800405440020002FE1
:1030D00012DD1B9BDDF864C0CDE90403CDE902C419
:1030E000CDE90069527C34483B4650F82200C26862
:1030F00054680A462946A0470DB0BDE8F08F1799DD
:103100000298084409902B49401E00900A68B2F9C1
:103110000A30834241DCB2F90E10029881423CDB56
:103120004FF0000BD84603950B9434E0BBF1000F31
:1031300005D10B984FF0080B10F801AB0B900599D7
:10314000ABEB090B3AFA01F00AFA09F101F0FF0AB8
:1031500004D118490968097C890716D415490968FA
:10316000C96B0A680C921B9A0AB152F820000860D9
:1031700016990398009B4218521E029900F07EF89F
:103180000C490C980968C96B08600399169808F1F6
:10319000010808440390B845C8DB0898401C089013
:1031A00009980290199804440898B042A7DBA3E755
:1031B000B000002090000020A8000020F0B40C46D1
:1031C00012490968B1F90A30A3421CDCB1F90E308A
:1031D000A34218DBB1F90830834200DD1846B1F98B
:1031E0000C30934200DA1A4682420CDB4B7C0849D1
:1031F00051F8235013462246E9688E680146284656
:10320000B446F0BC6047F0BC70470000900000205E
:10321000A80000200A46174930B40968B1F90A30FD
:10322000934225DCB1F90E30934221DBB1F908302D
:1032300083421DDCB1F90C30834219DB0B7C0E4C50
:10324000DB0709D0497C54F82130D968CC690146A4
:10325000A44630BC18466047CB6B497C1B6854F8C9
:103260002140E1688D6901462046AC4630BC60478C
:1032700030BC704790000020A800002038B5134CE7
:103280002468B4F90850854200DD2846B4F90C5092
:10329000954200DA2A46824217DBB4F90A508D4281
:1032A00000DD2946B4F90E509D4200DA2B468B42D0
:1032B0000BDB0093647C064B53F82440E3681D69E4
:1032C00013460A4601462046A84738BD9000002014
:1032D000A8000020082102F0D8BC00000248092103
:1032E0000068407C02F0D1BC90000020092102F06F
:1032F000CCBC70B500252C462046FDF719FF00B167
:103300006D1C641C022CF7DB284670BD0248006867
:10331000407C00F003B800009000002010B5FDF7DD
:1033200007FF002805D0C168CA6ABDE81040022125
:10333000104710BDAFF300802DE9F041002809D0FF
:10334000876837B10D4E716819B10468B4F5807F94
:1033500002DD0020BDE8F0813068844200DD0446D3
:10336000002507E057F82500FFF716FE716841F8C1
:1033700025006D1CA542F5DB7068EBE7D800002046
:103380000449054A0968497C52F8211009694968CD
:103390000847000090000020A800002010B500F0B1
:1033A0001F01074A074BC0F34514C0F3C4201B5D3F
:1033B000105C515C00EB032000EB014010BD0000ED
:1033C0001C9300083C93000810B50A4C606860B973
:1033D00020688000FDF746FD606040B104F10801FF
:1033E000054808600846FEF739F9002010BD0120A5
:1033F00010BD0000D8000020656000082DE9F041F4
:10340000FFF777FF0746002528E02846FDF790FEE6
:1034100018B32846FDF7B0FF80462846FFF75AFF4D
:10342000082817DC0F48104950F825000069884229
:1034300010D02846FFF75AFF0646002408E0E0B205
:10344000FFF79EFF0246E1B2284600F081F8641CB7
:10345000B442F4DB4046FDF78FFF6D1CBD42D4DB68
:10346000BDE8F081A80000200C94000810B50E4CB7
:103470000E492068407C51F8200050B1C1680968AD
:10348000042903D000680028F8D102E008B1FDF754
:103490004DFE20680021016600F108014161BDE890
:1034A000104000F02FB8000090000020A80000207D
:1034B0000149096849680847D4000020044909689F
:1034C0000A7C520701D5C96B00E0896B0860704720
:1034D000900000207CB5094C05462068417C0848D6
:1034E00050F82100C1680A6B6946904720686A4617
:1034F00029460830FEF789F87CBD000090000020C6
:10350000A80000200448016804484A7C083150F8AB
:103510002200C268126B104790000020A800002013
:103520000149096809680847D4000020044909686E
:103530000A7C520701D5896B00E0C96B08607047AF
:10354000900000200149096889680847D4000020DC
:10355000F8B515460E460124FDF7EAFD009058B176
:10356000C0681021426A68469047030004D02A468A
:1035700031460098984700242046F8BDF8B5154616
:103580000E460124FDF7D4FD009058B1C0680B2110
:10359000426A68469047030004D02A4631460098A4
:1035A000984700242046F8BDF8B515460E4601247C
:1035B000FDF7BEFD009058B1C0680A21426A684616
:1035C0009047030004D02A463146009898470024CB
:1035D0002046F8BD10B5074C2068006BFFF7DCFCF7
:1035E000FFF7A4FF2068406BFFF7D6FCBDE8104052
:1035F000FFF764BF9000002030B59FB014211AA8D7
:10360000FCF74BFE68216846FCF747FE00231A468C
:1036100013491448FDF734FD04464FF4A0752A46BB
:10362000F0210020FFF7AAFF2A46F0210020FFF733
:10363000BBFF04201C901AA92046FDF78EF90A480A
:1036400008900A4809900A480B900A480F900A4BC4
:103650000A4A69462046FDF7A0F91FB030BD0000B8
:10366000708900089089000807390008ED380008C3
:10367000F1380008D7380008290A0008CD090008E9
:1036800010B5012902D04FF0FF3010BD03F0A2FDAC
:10369000002010BD2DE9FF4F8DB01746674ADDF8B9
:1036A00070901E9E209812681D4600248AB11D9BB2
:1036B0001F98CDE90293CDE90460DDE91A03CDE955
:1036C000000314682B463A460D98A04711B0BDE898
:1036D000F08F0D9A01EB050802EB070CDDE91A23C8
:1036E0001A43A8F10108ACF1010C012A06D0C9F176
:1036F00008004FF0000B029105909CE0504A1268C0
:10370000B2F90A40631A002B06DDED1A002DDDDD4B
:1037100021461D9C03FB0466B2F90E30A8EB03039F
:10372000002B02DDED1A002DD0DDB2F90C30ACEB30
:103730000303002B00DDFF1A0D9B1C1AB2F90830A1
:10374000A3420DDDA3EB040C0CEB0003181A20F0D0
:1037500007000444A7EB0C0706EBE30603F00700A1
:10376000002FB3DD1F9BDDF874C0CDE90403039681
:103770008DE82012527C33483B4650F82200C26844
:1037800055680A462146A847A0E71B9902980844B5
:1037900009902B49401E03900A68B2F90A3083420F
:1037A00043DCB2F90E10029881423EDB4FF0000A72
:1037B0000D980B96D046009035E000BFBAF1000F8F
:1037C00005D10B984FF0080A10F8014B0B900599A2
:1037D000AAEB090A34FA01F004FA09F4E4B204D1BC
:1037E00017490968097C890717D415490968C96B05
:1037F0000A680C921F9A0AB152F8200008600099DA
:103800001A980A180846DDE90213521EFFF736FD22
:103810000B490C980968C96B086000991A9808F15F
:10382000010808440090B845C8DB099802901D982B
:103830000BF1010B0644AB45A7DB47E7B0000020C6
:1038400090000020A8000020002818D0410817D0C0
:10385000810817D0C10817D0010917D0410917D026
:10386000010A17D0410A17D0010B15D0C10B13D094
:10387000010C11D0810C11D0000E11D02020704706
:1038800001207047022070470320704704207047D2
:10389000052070470820704710207047122070479D
:1038A0001820704700B50022FFF7CEFF012804D092
:1038B000811E062903D808220BE0012209E0A0F1AD
:1038C0000901072901D8102203E011380F2800D878
:1038D0002022104600BD70B50C46054603E0A1B29B
:1038E000284603F095FD641EF9D270BD03F0F6BDC5
:1038F00070B50D46044603E034F8020B03F0EEFD0C
:103900006D1EF9D270BD03F0BBBD00000349024833
:1039100008600846FDF7EDBE0030024008000020B8
:103920000D4808B5416941F001014161406900223B
:1039300000F00100009005210E20FEF713FB0E2081
:10394000FEF704FB002205210F20FEF70BFBBDE86C
:1039500008400F20FEF7FABA0010024010B51348D5
:103960008CB0002200680A9001210AA803F08EFEA4
:103970000F4C4FF4FA71606003F08AFE0B49142279
:10398000091D6846FCF762FC0021684603F05FFEF3
:10399000064920601422183105A8FCF757FC0021C5
:1039A00005A803F054FE0CB010BD000044890008C7
:1039B00010000020F0B5274885B0816941F0400132
:1039C0008161816901F040010491816941F0100138
:1039D0008161816901F010010491816941F0200148
:1039E0008161816901F020010491816941F0040144
:1039F00081618069184E00F004004FF6FF74049056
:103A0000002221463046FEF70BFA144F4EF29C0579
:103A1000002229463846FEF703FA009403200124C9
:103A20000390694601943046FEF718F90220CDE96B
:103A30000054039069463846FEF710F98020009044
:103A400000200190029069460548FEF707F905B08D
:103A5000F0BD0000001002400018014000140140B9
:103A6000001001400848074901604FF4E13141600E
:103A7000002181600C22C160C0E904128161C16132
:103A8000FFF7FDB9003801409C0100200907090E2D
:103A9000002806DA00F00F0000F1E02080F8141D85
:103AA000704700F1E02080F800147047012003F017
:103AB000B8FDFBE703F0C1BD30B593B00125280484
:103AC0000421CDE902010224CDE90050CDE90840EE
:103AD0004FF4E010CDE90A044FF4C0600C90402090
:103AE0000D906846FEF78CFC0F20CDE90E040020F7
:103AF0006102CDE91001129002210EA8FEF764FACE
:103B0000FEF7C6FB4FF47A71B0FBF1F0FFF751F806
:103B10000420FFF742F8E00690FAA0F00549B0FA59
:103B200080F041F8205000220F21501EFEF71AFAB3
:103B300013B030BD000042421048016841F001015D
:103B4000016041680E4A1140416001680D4A114010
:103B50000160016821F480210160416821F4FE01C7
:103B60004160016821F0A05101604FF47F01816044
:103B70000021C1620449C003086070470010024080
:103B80000000FFF0FFFFF6FE08ED00E00148FFF740
:103B90004FB8000060010020F0B50268174B184CC8
:103BA000184D194E4FF08047984207D0B84205D0C3
:103BB000A04203D0A84201D0B04204D122F0700C40
:103BC0004A6842EA0C02984207D0B84205D0A042A7
:103BD00003D0A84201D0B04203D122F44074CA6895
:103BE000224302608A68C2620A688262984201D1F6
:103BF0000969016301214161F0BD0000002C014011
:103C00000004004000080040000C00404FF47A74AB
:103C1000022003F0D3FC204603F003FDF8E7000088
:103C200010B590F83910222903D0322901D0022092
:103C300010BD8168B1F5805F11D00169002901686C
:103C40001FD0496801F07F03816A4A1C82620B70B1
:103C5000C18D491E0904090CC18518D030E00269E4
:103C6000816A002A0268526805D0D2B20A80816A4D
:103C7000491C8162ECE7C2F308020A80816A891C50
:103C8000F7E74A68816A4B1C83620A70E0E70168C3
:103C9000CA6822F02002CA6090F83910322911D087
:103CA0000168CA6822F48072CA6001684A6922F019
:103CB00001024A615FF0010180F83910FFF76AF9EB
:103CC000002010BD1221F7E72DE9F04104460068FD
:103CD0000169E26821F44051114301612169A06842
:103CE0000843616908432168CA6841F20C639A433A
:103CF0000243CA6020684169A26921F440711143FE
:103D000041612849206864254FF03208884218D163
:103D1000FEF7EEFA00EBC00101EB001061688900CC
:103D2000B0FBF1F0B0FBF5F6FEF7E2FA00EBC001F4
:103D300001EB001061688900B0FBF1F7FEF7D8FADB
:103D400017E0FEF7BFFA00EBC00101EB001061685D
:103D50008900B0FBF1F0B0FBF5F6FEF7B3FA00EB2B
:103D6000C00101EB001061688900B0FBF1F7FEF7BC
:103D7000A9FA00EBC00101EB001061688900B0FBFB
:103D8000F1F0B0FBF5F06FF01801484307EB80014C
:103D900008EB0110B0FBF5F0216866F31F10886096
:103DA000BDE8F0810038014090F83910122903D0A5
:103DB000322901D0022070478168B1F5805F016A25
:103DC0000BD04A1C0262026809785160C18C491EFE
:103DD0000904090CC1840ED017E009880268C1F3F8
:103DE0000801516001690029016A02D0491C016281
:103DF000ECE7891CFBE70168CA6822F08002CA6010
:103E00000068C16841F04001C160002070470000B7
:103E10000148FEF7C7BF00009C01002002490120B5
:103E2000096881F854007047900000202DE9F041A6
:103E30008AB0040036D0FDF769F80190D0E900128D
:103E4000CDE90412876A056A01A8FDF76DF82046DE
:103E500000F0B6FA060025D0204600F004F98046AE
:103E6000B80704D52A46414604A800F0F2FB2046D4
:103E7000FDF74CF801904046FDF748F806903046B3
:103E8000FDF744F8039005620698019AC169116232
:103E9000C46101A8FDF748F806A8FDF745F803A896
:103EA000FDF742F80AB0BDE8F08100002DE9FC5FA3
:103EB000DFF838A10746DDE90C54DAF81400DDF824
:103EC0003CB0984691460E4604434DB9BAF80200FC
:103ED00048B347480AF138010068407C51F8205047
:103EE000681C0ED0FDB12846FDF710F80190B0F91E
:103EF0000010B0F902200F441644B9F1000F02D0AF
:103F000006E000250FE0B0F90430591A01F101096B
:103F1000B8F1000F04D1B0F90600801A00F10108D1
:103F200001A8FDF701F80BF12C00FCF759FF5FEA3F
:103F3000000B57D0BAF80200401CAAF802005846FD
:103F4000FCF7E4FF0090078007EB09014680491E5B
:103F5000818006EB0801491EC1800E990161254A46
:103F6000816A2240114381626846FCF7DDFFDAF87E
:103F70000C005E4650B1FCF7EFFF07463046FCF7F9
:103F8000EBFF0146786948617E6101E0CAF80CB038
:103F90002946584600F0AAFAA00602D5584600F075
:103FA00041F9E00705D0DAF8201001F10101CAF863
:103FB0002010600602D55846FFF738FFA0070DD540
:103FC0005846FCF7A3FF0090816A41F0020181622C
:103FD0006846FCF7A9FF584600F0F1F80121584661
:103FE00000F072FB5846BDE8FC9F0000E80000208E
:103FF000900000209F3F070010B50446C168D4E937
:104000000020172A0DD004DC0E2A0CD0142A07D168
:1040100004E0222A0CD0282A02D10CE000F08BF90F
:104020000020E06010BD2146BDE8104000F018B946
:104030006FF07040F5E7BDE8104000F0C0B8000038
:10404000034804490068407C51F820007047000094
:10405000900000202001002010B5002802D0FCF7BD
:104060007BFFC06910BD10B5002802D0FCF774FFBB
:10407000806910BD2DE9FF5F2C4D6878002853D171
:1040800000272B48EF60AF620068DFF8A8903C463D
:104090004764AF806F804FF0020A4FF0FF3B40F65D
:1040A000FF7805F138062046FDF742F898B1CDE9D2
:1040B0000297CDE900BA0021424643460846FFF781
:1040C000F5FE1A4A46F8240040326FF0704142F87B
:1040D000241000F074F8641C022CE4DB164FDFF8A7
:1040E0005C80DFF85C90002407EBC40000F0ECF883
:1040F00008EBC40000F0E8F809EBC40000F0E4F8B5
:10410000641C022CF0DB306800F08CF8FFF786FEB0
:1041100001200649687030310A48086004B008463A
:10412000BDE8F05FFDF79ABABDE8FF9FE800002008
:1041300090000020E170000854D8002064D80020CE
:1041400074D800207960000870B586B00D4606006E
:104150002CD0FCF7DBFE0090846AA10723D5D0E9C0
:104160000010CDE90110E00302D5304600F013FA4B
:104170005DB1286803906868049003A9009800F076
:10418000ABF803A901A8FDF723FA314601A800F016
:10419000ABF840B140F601000440012C08D001A961
:1041A000304600F0F5F96846FCF7BEFE06B070BD7B
:1041B0000098026A816901A800F04BFAF3E7002138
:1041C000FFF7C2BFFEB515460E4604001CD0FCF733
:1041D0009DFE0246009090F82800800711D53146D8
:1041E00001A8FDF712FA60B16846FCF79DFE2A4669
:1041F00001A9204601F096FE2046FFF72DFF044658
:104200000CE06846FCF790FEFEBD2A4601A9204658
:10421000FFF7D8FF2046FCF79FFE046A002CF4D17C
:10422000FEBD000070B50C4D04002868866C01D1FD
:104230000A49CC688464204600F01EFAFFF762F950
:104240002046FCF789FE2968B0F90020CA64B0F95D
:1042500002000865304670BD90000020E800002094
:1042600070B50C00054609D0FFF7FDFE002805D00B
:104270002146A560BDE8704000F008BA70BD00009E
:104280000EB50E48006890F8541009B10C4811E0C2
:10429000806CFCF73BFE0090D0E90010CDE90110E6
:1042A0006846FCF741FE0748416A11B101A800F0D9
:1042B0001BF801A802F03EF80EBD0000900000209F
:1042C000D4D70020E800002002490A680260086094
:1042D00070470000F80000200B46B0F90220B0F94A
:1042E00000101846FDF713B838B50C4605462046B1
:1042F000FCF70CFE0146009090F82800800703D4DC
:104300006846FCF711FE12E02846FDF761F90098B7
:10431000806920B104466846FCF706FEE7E7684678
:10432000FCF702FE204600F0F5FA002801DA002032
:1043300038BD012038BD38B50C4600280AD0002C05
:1043400008D0FCF7E3FD2146009000F004F8684631
:10435000FCF7EAFD38BD00224A800A808288038883
:10436000D21A8A80C2884088101AC880704710B557
:10437000FFF779FE002802D0FCF7EEFDC06910BD02
:104380000D4810B5006890F85400002806D00B4C7A
:104390006069012803DD401E6061002010BD2069B6
:1043A000401C206101F01EFA18B1FFF769FF0120DF
:1043B00010BD6069EFE7000090000020CCD700201E
:1043C00070B50546FFF7D3FF08E0AC4201D10024E9
:1043D00006E0FCF7C1FD006AA84201D00400F4D158
:1043E000204670BD10B50446FCF7B6FD8069002874
:1043F000F9D12046BDE8104000F08CBAF0B5384E37
:10440000074687B0306890F8541041B1354C616967
:10441000491C6161012905DD012007B0F0BDFFF7EE
:104420002FFFF9E7806CFCF771FD2F4D4FF0FF3146
:1044300000902161297821B181680291C0680390C0
:1044400007E090F8281089073CD5D0E90010CDE9A5
:1044500002101FB1394602A8FDF7BAF83068406C67
:1044600078B3009804903068406C0168059140680A
:104470000690686A30B104A8FCF756FD686AFCF73C
:1044800045FD049005A90498FFF726FF05A902A899
:10449000FDF79EF80DF11000FCF746FD696A19B1B1
:1044A00002A8FFF721FFB0B13068816C02A8FFF7C6
:1044B0001BFF80B1DDE90201C4E90001FFF760FFE5
:1044C000ABE706E06069401E60616846FCF72CFDC2
:1044D00004E06846E0E76069401E606100209CE7F8
:1044E00090000020CCD70020E8000020FEB50D0091
:1044F000044647D0FCF70AFD009000218561016267
:104500002846FCF703FD00990290C56991F8281030
:1045100001F008062DB12846FCF7F8FC019036B1F1
:1045200015E0C4616846FCF7FFFC02A828E090F89B
:10453000280000070BD5009805620298C461684600
:10454000FCF7F2FC02A8FCF7EFFC01A818E002A8B7
:10455000FCF7EAFC01A8FCF7E7FC2846FCF7FCFCAA
:1045600011E004620BE02846FCF7F6FC5EB990F817
:104570002810090707D5019804620098056268466B
:10458000FCF7D2FCFEBD0190056A002DEBD1E8E7F7
:10459000202201F0C7BC38B504001ED0FCF7B6FCE1
:1045A000009090F82810890714D5406A20B1FCF7D4
:1045B00027FE0099002048622046FFF74DFD044683
:1045C00006E02046FFF7E7FF2046FCF7C5FC046A3B
:1045D000002CF6D16846FCF7A7FC38BD2DE9FF4159
:1045E0009846164607460D0031D00846FCF78EFC6B
:1045F0000090846A0246A00726D5394601A8FDF737
:1046000004F808B340F601000440012C07D04246EC
:1046100001A9284601F086FC0098C46912E00098C0
:104620004346026A816901A8FFF7D8FFF4E7B44264
:104630000AD0424601A92046FFF7C4FD2046FCF7F8
:104640008BFC046A002CF2D16846FCF76DFCBDE8D7
:10465000FF812023FFF7C2BFB0F90010B0F904209A
:10466000914205DCB0F90210B0F90600814201DD8B
:10467000002070470120704710B5FFF7B3FE0028F7
:1046800003DBBDE81040FCF777BE10BD70B50D4CE4
:1046900006460D46206814280DDA3046FCF75CFC0F
:1046A00001696E6041B12068401C2060284688473F
:1046B0002068401E206070BD2846BDE87040FFF7AE
:1046C0009BBC0000580100201FB5CDE900106946D1
:1046D000FFF7DCFF1FBD00002DE9F0411B4D0C462C
:1046E0000646A968686B0144491EA019884205D88E
:1046F000016819B941680E4401F0A2FD686BA0423F
:104700000AD254F8040C271A386828B97868064485
:10471000384601F095FD3C46304601F0F1FA05EBD4
:10472000C0073246002120463B6C02F0C3F857F820
:10473000400F083400B144602060002060603C609D
:104740002868304428603046BDE8F0818CD60020CF
:104750002DE9F041054601F093FB2B48C46BAC42B8
:1047600002D8ED1C25F00304804600680C34A042FA
:1047700002D20020BDE8F08101F098FC0600F9D0DB
:10478000204601F0BDFA424611E000BF02EBC00135
:10479000096C59B18D686B68A3420BD2A96829B125
:1047A0008D686B68A34205D2002DF7D1401C1028FC
:1047B000ECD31FE0F5B1D8F83C00191B0C301F46B4
:1047C000814200D23C46284601F03AFD0421D8F847
:1047D000300001EBC60100234550224631462846F1
:1047E00002F068F8A74203DD2919381BFFF774FFB0
:1047F0003046BFE7204601F03DFD0028C0D03046DE
:1048000001F074FCB5E700008CD600200120704751
:10481000F0B40E4C246814B1A446F0BC60470C4DB3
:10482000DFF830C010C8521EE6B2AF5DC4F30726F1
:10483000C4F307441CF806602C5D04EB461404EB3B
:10484000C7240C801944EDD1F0BC704774000020DF
:104850001C9100081C9200082DE9F0478146FEF7E4
:104860003DFD4FF0000807466FF07F444546FEF7D8
:104870004DFD060018D000BF56F82510494502D15D
:104880002846BDE8F0876D1CBD42F5DB5FF00005F2
:10489000484656F82510FCF76BFBA04201D20446AF
:1048A000A8466D1CBD42F3DB4046EAE710B5C1B235
:1048B000064A074BC0F30724C0F307401B5D105C9A
:1048C000515C00EB431000EBC12010BD1C910008AF
:1048D0001C9200082DE9F05F9A46DDE90A879146AF
:1048E0000C4605468B46164635F8020B414688476E
:1048F000B84701C4761EF7D15046BAF1200F06D250
:10490000024649465846BDE8F05FFCF7B3BDBDE836
:10491000F09F00000146064A002000BF52F82030F8
:104920008B4204D0401C0228F8DB4FF0FF30704768
:10493000200100202DE9FF4F85B08346DDE913906B
:10494000129ED0E900A0DBF80850039047488C196C
:104950001F4600684FF08008007C10F0030006D06E
:10496000012865D0022819D0032814D160E03878D6
:1049700028FA06F1084201D0039800E05046D5F825
:104980002C1180B28847761C082E01D100267F1C8E
:10499000B9F10109EBD109B0BDE8F08F4FF0000A81
:1049A000CDF808A0D5F86CB00194397828FA06F053
:1049B000014202980BD020B90120CDE90140D5F881
:1049C0006CB003982BF8020B0AF1010012E00128E9
:1049D00011D1631E00200290079800900246D5F87E
:1049E000A4C028460199E047D5F834215146E86E25
:1049F000904700208246641C761C082E01D10026B8
:104A00007F1CB9F10109D0D1BAF1000FC3D00798CA
:104A1000631E00900246D5F8A44028460199A0479D
:104A2000D5F83421E86E09B05146BDE8F04F104783
:104A3000397828FA06F001420DD0D5F8E830214641
:104A40005846079A9847AB6AD5F8ECC043402146D0
:104A50005846079AE047641C761C082E01D10026B0
:104A60007F1CB9F10109E3D195E700009000002017
:104A70002DE9FF5F9046DDE90E924B4B99F800500F
:104A8000C2F108048A465D5DDDE91071D540474AF0
:104A9000139E1268127C12F0030225D0012A03D063
:104AA000022A37D0032A7DD10069806880471FFA27
:104AB00080FBBC4200D93C463F1BBAF1000F65D0D9
:104AC000E8070AD0DAF808004146039A036850461E
:104AD0009847318881EA0B013180B61C6D0808F1D6
:104AE0000108641EECD15BE02F4ABC4200D93C4671
:104AF000B7EB040705F001006D0831F8200026F837
:104B0000020B641EF6D1002F4CD019F8010F0824B7
:104B1000155CEAE788881FFA80FBBC4200D93C4656
:104B20003F1BBAF1000F16D08DB1E80708D0DAF8B4
:104B300008004146039A036850469847A6F800B01B
:104B4000B61C08F10108641E11D06D08ECE706EBF5
:104B50004406A0440BE045B1E80701D0A6F800B038
:104B6000B61C641E03D06D08F5E706EB4406002F63
:104B700018D019F8011F0C480824455CCDE719F836
:104B8000011F09480824455C93E70BE0E80703D0C0
:104B9000308880EA0B003080B61C6D08641EF5D1A9
:104BA000002FECD1BDE8FF9F249400089000002066
:104BB0002DE9FF4F85B08668DDE9125714989B46B2
:104BC00000283AD03F489BF800904C1900684FF0FD
:104BD000C008007C10F0030016D002282DD14FF041
:104BE000000ACDF80CA0F06ECDE90140C5F103003C
:104BF0004100C1F1060228FA02F000EA0900C840AB
:104C00002ED00399E1B120E0C5F103004100C1F1CC
:104C1000060228FA02F000EA0900C840149931F8A7
:104C20002000D6F82C1180B288476D1C042D02D1CB
:104C30001BF8019F00257F1EE6D109B0BDE8F08F6B
:104C4000012101940391F16E0291149931F8200031
:104C5000029908800298801C02900AF1010013E07A
:104C60000398012811D1631E00200390079800903B
:104C70000246D6F8A4C030460199E047D6F8342160
:104C80005146F06E904700208246641C6D1C042D36
:104C900002D11BF8019F00257F1EA7D1BAF1000F9A
:104CA000CBD00798631E00900246D6F8A440304649
:104CB0000199A047D6F83421F06E09B05146BDE8FD
:104CC000F04F1047900000202DE9FF5F8B460FA9A1
:104CD000DDF83880B1E82104C0F10401CCB298F8C5
:104CE0000010400081402F48129F91460068CEB2CC
:104CF000007C10F0030004D001283AD002284FD1E4
:104D000014E0AC4200DDECB22D1BB1093AF82100F1
:104D100027F8020BB006060E641E14F0FF04F4D14F
:104D2000002D3DD0042418F8016FEAE7AC4200DD05
:104D3000ECB22D1BB0090DD0B109BBF1000F3AF850
:104D40002100388006D0DBF808004946039A036842
:104D500058469847B006BF1C060E641E09F10109AB
:104D600014F0FF04E6D1002D1AD0042418F8016FC6
:104D7000DCE7AC4200DDECB22D1BB00903D0388873
:104D800080F0FF003880B006BF1C060E641E14F0D1
:104D9000FF04F2D1002D03D0042418F8016FE8E7D6
:104DA000BDE8FF9F900000202DE9FF4F85B0866889
:104DB000DDE9125714989B4600283AD03F489BF8EB
:104DC00000904C1900684FF0F008007C10F00300D0
:104DD00016D002282DD14FF0000ACDF80CA0F06EAD
:104DE000CDE90140C5F101008100C1F1040228FABA
:104DF00002F000EA0900C8402ED00399E1B120E09A
:104E0000C5F101008100C1F1040228FA02F000EAB4
:104E10000900C840149931F82000D6F82C1180B24E
:104E200088476D1C022D02D11BF8019F00257F1EB3
:104E3000E6D109B0BDE8F08F012101940391F16E34
:104E40000291149931F82000029908800298801C80
:104E500002900AF1010013E00398012811D1631EAA
:104E600000200390079800900246D6F8A4C0304670
:104E70000199E047D6F834215146F06E9047002062
:104E80008246641C6D1C022D02D11BF8019F002577
:104E90007F1EA7D1BAF1000FCBD00798631E0090F8
:104EA0000246D6F8A44030460199A047D6F83421EE
:104EB000F06E09B05146BDE8F04F10479000002059
:104EC0002DE9F05F92460BAA8946B2E842010A9F9B
:104ED0009B468B003A78C1F102009A40D5B24D4A08
:104EE0000E9CC0B21268127C12F003021AD0012A82
:104EF00079D0022A38D100295FD028090DD029099C
:104F0000B9F1000F38F82100208006D0D9F8080048
:104F10005A465146036848469847A41C0AF1010ABC
:104F2000761E48E039B12909761E38F8210024F8A8
:104F3000020B17F8015F022E10DB701006F001065D
:104F40002A0938F8221005F00F02218038F82210C3
:104F50006180241D17F8015F401EF1D1002E03D09F
:104F6000290938F821002080BDE8F09F28090DD0DC
:104F70002909B9F1000F38F82100208006D0D9F8AE
:104F800008005A46514603684846984715F00F00F6
:104F90000DD038F820006080B9F1000F07D0D9F8A3
:104FA00008005A460AF10101036848469847241D43
:104FB0000AF1020AB61E17F8015F022ED6DA002E99
:104FC000D2D02809D0D038F820002080B9F1000FC5
:104FD000CAD0D9F808005A46514603684846BDE889
:104FE000F05F1847FFE7B04200DDF0B2361AA909BA
:104FF00003D0218881F0FF0121802907A41C0D0E18
:10500000401E10F0FF00F2D1002EADD0022017F8A4
:10501000015FE8E7900000202DE9FF4F83B085682D
:10502000DDE9107B1E460C46BBF1000F20D02E4858
:105030000068007C10F0030018D0022818D14FF04F
:105040000008D5F86C90C246CDF8044016F8010B64
:10505000E8B1BAF1000F0ED012E03078D5F82C117B
:105060003BF8200080B288477F1E761C002FF4DCBE
:1050700007B0BDE8F08F0194D5F86C904FF0010AAD
:105080003BF8200029F8020B08F1010013E0BAF107
:10509000010F11D1059800900246D5F8A4C0631EF7
:1050A0004FF0000A28460199E047D5F834214146DF
:1050B000E86E904700208046641C7F1EC6D1B8F180
:1050C000000FD5D00598631E00900246D5F8A44085
:1050D00028460199A047D5F83421E86E07B041462B
:1050E000BDE8F04F10470000900000202DE9F0438C
:1050F00087B089460EA9B1E8F01181688DE8F011FA
:10510000D1F8E0404946A04707B0BDE8F083000071
:105110002DE9FF4F83B099460398DDE91075DDE96D
:10512000138B86689246012D05D0022D03D0042DE5
:1051300001D0082D06D132480068007C00F0030041
:1051400002280ED00AEB0700401E00900498D6F803
:10515000A44000EB0B0101EB09035B1E52463046F5
:10516000A047002446E0042D24D004DC012D07D004
:10517000022D3CD111E0082D29D0102D37D131E07E
:105180001598CDF800B0CDE90190DDE9030104EBFD
:105190000A024346FFF7CEFB29E01598CDF800B090
:1051A000CDE90190DDE9030104EB0A024346FFF774
:1051B000FFFC1CE01598CDF800B0CDE90190DDE9C9
:1051C000030104EB0A024346FFF7EEFD0FE01598DA
:1051D00004EB0A02CDE90090DDE903014346FFF745
:1051E0001BFF04E0D6F83421494640469047129907
:1051F000641C8844BC42B6DB07B0BDE8F08F0000F9
:10520000900000202DE9FF4F8DB0A848DDE91D86F4
:105210000068DDE91A970C46006EFBF777FE0690F2
:10522000406908B1FBF772FE0A900698C0680890C2
:1052300006A8FBF779FEA0190E900A9850B19B4979
:105240000968097C890705D10EACCDF800900ECC19
:10525000FCF7D8F8DDE90E0101F048FE0446102FF6
:1052600003D0182F5CDB002056E000251FE000BFB4
:10527000DDE90EB02844DDF828A0109E02905FEA18
:1052800008010FD020000DD07200FAF7DFFFBAF14D
:10529000000F07D0DAF808003346594647685046F1
:1052A000029AB8471C986D1C8044089804444D45E8
:1052B000DEDBF1E00A980390DDE90EB10B985FEABE
:1052C000080508440190DDF840A026461ED0EEB146
:1052D000039830B18068534659464768019A03984D
:1052E000B8470D992868096909688847308003988C
:1052F00028B180685946019A036803989847B61CFC
:105300002D1D0BF1010BBAF1010AEAD108981C9985
:1053100004440B988844401C0B904845CADBBBE012
:10532000082F03D01F9800286CD06DE0002065E0A6
:105330001F9800280A9832D0DDE90EA102900BEBED
:10534000010000901F9804905848109F454600683F
:105350002646007C10F0030002D0022848D109E064
:1053600015F8011B04987F1E30F8210026F8020B67
:10537000F6D13DE0287858B1049931F8200030800A
:10538000029828B180685146009A036802989847AD
:10539000B61C6D1C0AF1010A7F1EEBD128E0DDE985
:1053A0000EA101900BEB010002904048109F464671
:1053B00000682546007C10F0030002D0022817D1B7
:1053C00005E03A4641462046FAF740FF10E03078C3
:1053D00040B12880019828B1806851460368DDE912
:1053E00001029847AD1C761C0AF1010A7F1EEED11E
:1053F00008981C99044488440BF1010083464845F1
:1054000096DB49E02A481F90002543E03846012FEB
:1054100004D002281CD0042F37D128E0234800688C
:10542000006EFBF773FD0690CDF80080109A1F996F
:105430000594CDE90310CDE901620F980A992B1864
:10544000DDE90D02FFF714FB06A8FBF76DFD1CE07C
:1054500010991F98CDE90086CDE902100F980494A9
:105460002B18DDE90D020A99FFF72EFC0DE01099CB
:105470001F98CDE90086CDE902100F9804942B18EF
:10548000DDE90D020A99FFF71BFD1C990898884475
:1054900004446D1C4D45B9DB0A98002802D00AA8C7
:1054A000FBF742FD11B0BDE8F08F00009000002036
:1054B0009893000838B584680092D4F8E440A04777
:1054C00038BD08B5009200F037F908BD38B58468DA
:1054D00000930B46D4F8E440A04738BD2DE9FC47C3
:1054E000DFF8AC8081461E46D8F8000015468A4693
:1054F000006EFBF70BFD0190406908B1FBF706FD5C
:1055000000902946504601F0F1FC04460198C76816
:10551000D8F80000017CC90715D0D9F810008068C0
:10552000804787B2009820B181682A460B685146AF
:10553000984720886D1C784020800198B542C0684B
:105540000444EFDD19E0C06B0168009870B11FFAE8
:1055500081F800982A4681680B6851469847A4F85C
:1055600000806D1C3C44B542F3DD06E0701B401C1E
:1055700089B221803C44401EFBD101A8FBF7D4FC3A
:105580000098002802D06846FBF7CEFCBDE8FC87F7
:105590009000002001700120704700002DE9F047C5
:1055A000224C0426A06AE0B1E06806EBD001451861
:1055B000E800FFF7CDF8070036D0216B06EBC700F7
:1055C000B1460E58E0680836C2003046D4F828804C
:1055D000FAF73CFEA7622663E0684B4601466A1E66
:1055E0000EE01248BC30D0E901100830B1FBF0F5F4
:1055F000AD1CDDE7471C03EBC00C401C46F80C70EB
:105600009042F7D309EBC00000223250216260685B
:10561000691A0844E56060605FEA080001D0FBF7A2
:10562000F9FB0020BDE8F0870120FBE78CD60020C5
:1056300038B58468049D0095D4F8E440A04738BD8F
:105640002DE9FF4F83B03B4F03988B461646856884
:105650003868DDF840809946007C1946C207A3EB04
:105660000B0A35D139E000BFD5F8C070EC6E3FB100
:10567000CDE900644B46324659460398B8470DE0E1
:105680005F4608E0D5F8E830324639460398984737
:1056900024F8020B7F1C4F45F4DDEC6E0AF101008B
:1056A00005E021882A8D514024F8021B401E002865
:1056B000F7D10096D5F8A4404B46324659462846C5
:1056C000A047D5F834210AF10101E86E9047761C15
:1056D0004645C9DD07B0BDE8F08FA8EB06000AF12A
:1056E0000104401CCDF8008044430B46D5F8A4C00B
:1056F000324659462846E04738680127D5F8689071
:10570000C06BD0F8008011E02646FA2C00D9FA26AA
:1057100037B100271FFA88F132464846FBF7CCFF25
:10572000D5F83421314648469047A41B002CEBD1D4
:10573000D0E70000900000202DE9FF4FDFF8A0A087
:105740000C4685B0DAF80000DDF848801F46C16BD2
:10575000154609680391006EFBF7D8FB01902946B6
:10576000204601F0C3FB06460198391B01F1010BED
:10577000D0F80C90406950B3FBF7C8FBA8EB0501CB
:10578000491C00915B462A4602902146FBF73AFEEF
:1057900002A8FBF7C9FB1AE0DAF80000007CC0079A
:1057A0000DD005985F46344600698068804780B216
:1057B0002188414024F8021B7F1EF9D105E003989F
:1057C0005A4681B23046FBF777FF4E446D1C454583
:1057D000E2DD01A8FBF7A8FB09B0BDE8F08F0000EF
:1057E00090000020FEB54F4CD4E90201CDE9000144
:1057F000206970B3A089401C00B2ADF80000618937
:10580000ADF80210B4F90410884207DD2088ADF825
:105810000000E08910F10100ADF80200BDF90200BE
:10582000B4F90610884274DC3F4D2868806CFBF7A1
:105830006DFB0290BDF90000B4F90010884220D140
:10584000E088ADF80600A088ADF804002868806CF8
:105850000FE0FFE72088ADF800006088DCE700BFBC
:10586000FBF77AFB0646006A0022694600F0D5F88D
:10587000B0690028F4D1029800226946C06900F09E
:10588000CCF8BDF80000ADF804002868806C0AE090
:10589000FBF762FB0646006A0022694600F046F804
:1058A0000028EED1B0690028F2D1029800226946A2
:1058B000C06900F03BF80028E3D1B4F90400BDF959
:1058C0000010ADF80400884207DADDE90001C4E900
:1058D000020102A8FBF728FB98E72868806C08E023
:1058E000FBF73AFB0546006A0022694600F05CF8C7
:1058F000A8690028F4D1029800226946C06900F026
:1059000053F802A8FBF710FB206944F62061884297
:1059100001DD0020FEBDDDE90001C4E90201012036
:10592000FEBD0000CCD7002090000020FEB5174639
:105930000E460546002433E02846FBF7E7FA0090C0
:10594000856A0146A80726D527B13A4601A8FBF784
:105950005CFE03E0D1E90001CDE9010101A9304677
:10596000FBF7E4FCB8B1E80702D00098C56910E085
:10597000BDF80800401C308001240CE001AA31462B
:105980002846FFF7D3FF00B101242846FBF7E4FACD
:10599000056A002DF2D10098056A6846FBF7C4FA43
:1059A000002DC9D12046FEBDFEB516460D46044663
:1059B00030E02046FBF7AAFA0090846A0146A0076F
:1059C00023D526B1324601A8FBF71FFE03E0D1E93B
:1059D0000001CDE9010101A92846FBF7A7FCA0B110
:1059E000E00702D00098C4690DE0BDF80400401E35
:1059F000A8800AE001AA29462046FFF7D5FF2046E5
:105A0000FBF7AAFA046A002CF4D10098046A6846ED
:105A1000FBF78AFA002CCCD1FEBDFEB516460D462A
:105A2000044648E02046FBF771FA0090846A01467C
:105A3000A0073BD526B1324601A8FBF7E6FD03E0FF
:105A4000D1E90001CDE9010101A92846FBF76EFC6F
:105A500000B3E00702D00098C46925E000983EB189
:105A6000B0F90210B6F90200814203DD084601E0F8
:105A7000B0F90200B5F90210814205DABDF906005D
:105A8000401E03E0E88011E0BDF90A00B5F90610F8
:105A90008842F7DB0AE001AA29462046FFF7BDFF4E
:105AA0002046FBF759FA046A002CF4D10098046AE6
:105AB0006846FBF739FA002CB4D1FEBD0078704778
:105AC000012070478068012901D000207047406C98
:105AD00070470000012901D000207047004870473E
