:020000040800F2
:1000000058C80020650100086D0100086F01000854
:10001000710100087301000875010008000000006C
:100020000000000000000000000000007701000850
:1000300079010008000000007B010008C1320008BF
:100040007F0100087F0100087F0100087F01000890
:100050007F0100087F0100087F0100087F01000880
:100060007F0100087F0100087F0100087F01000870
:100070007F0100087F0100087F0100087F01000860
:100080007F0100087F0100087F0100087F01000850
:100090007F0100087F0100087F0100087F01000840
:1000A0007F0100087F0100087F0100087F01000830
:1000B0007F0100087F0100087F0100087F01000820
:1000C0007F0100087F0100087F0100087F01000810
:1000D0007F0100087F0100087F0100087F01000800
:1000E0007F0100087F0100087F0100080000000078
:1000F0000000000000000000000000000000000000
:1001000000000000000000007F0100087F010008DF
:100110007F0100087F0100087F0100087F010008BF
:100120007F0100087F0100087F0100087F010008AF
:100130007F0100087F0100087F0100087F0100089F
:100140007F0100087F0100087F0100087F0100088F
:10015000DFF80CD000F0C6FA00480047BD6B00087D
:1001600058C800200648804706480047FEE7FEE7DB
:10017000FEE7FEE7FEE7FEE7FEE7FEE7FEE7FEE757
:100180005133000851010008202A04DB203A21FAEB
:1001900002F00021704721FA02F3D040C2F12002A0
:1001A000914008431946704710B5431A934209D24B
:1001B0008318881803E010F8011D03F8011D521E72
:1001C000F9D210BD40EA01039B0703D009E008C93A
:1001D000121F08C0042AFAD203E011F8013B00F80C
:1001E000013B521EF9D210BDD2B201E000F8012B42
:1001F000491EFBD270470022F6E710B513460A46A7
:1002000004461946FFF7F0FF204610BD2DE9FE4FCA
:10021000804681EA0300C00F0C46009021F00041A7
:1002200023F00045B8EB0200A94105D24046214623
:1002300090461C460B46024623F00040104347D030
:10024000270DC7F30A00C3F30A510290401A019028
:1002500040286BDAC3F3130040F4801B00989246E9
:1002600020B10023D2EB030A63EB0B0B0198594634
:10027000C0F14002504600F019F906460D465046BE
:100280005946019A00F021F910EB08006141002461
:1002900087EA115284EAE7731A4340D0009A62B3A6
:1002A000019A012A4FEA075215DC001B61EB02019B
:1002B0004FF0004202EA0752CDE90042001C41F52E
:1002C000801132462B4600F021F903B0BDE8F08FD3
:1002D00040462146F9E7001B61EB0201001C41F595
:1002E000801300185B412018A2F5001747EB0301AB
:1002F00040EAD570B6196D4111E06D084FEA360637
:1003000045EAC0754FEA0752001B61EB0201001C71
:1003100041F5801149084FEA300000195141324639
:100320002B4603B0BDE8F04F00F0E1B80098012281
:1003300040000023D0EB020263EBE07300982146FB
:100340004FEAE074B8EB000061EB0401E9E783F0E9
:1003500000435BE781F0004158E72DE9FE4F81EA59
:10036000030404F0004421F0004100944FF0000B1E
:1003700023F0004350EA01045ED052EA03045BD04C
:10038000C3F30A54C1F30A552C44A4F2F334019484
:10039000A0FB0254C1F3130141F48011C3F3130312
:1003A00043F4801301FB024400FB034E840A970AC6
:1003B00044EA815447EA8357A4FB076802958D0AF3
:1003C00005FB07854FEA932C04FB0C542705029D7F
:1003D0004FEA065847EA1637B5EB08056EEB070CEF
:1003E000870E920E47EA811742EA8312A7FB0201A9
:1003F000B6EB0B0164EB00042B0D43EA0C335E18E3
:1004000044EB1C50DA465146E7FB0201C5F31304E6
:100410004FEA0B3343EA14534FEA0432019C43EA98
:100420000603A4F10C040294009CCDE900B400F092
:100430006DF803B0BDE8F08F00200146F9E70EB576
:10044000C10F80EAE0700844CA07002140F233433C
:100450008DE80E000A460B4600F058F803B000BDC8
:100460000EB540F2334102910021CDE900110A4658
:100470000B4600F04BF803B000BDC1F30A5210B5B3
:10048000C1F3130140F2FF3341F480119A4201DAC3
:10049000002010BD40F233439A42A2F2334203DC03
:1004A0005242FFF771FE10BD904010BD202A04DBC0
:1004B000203A00FA02F1002070479140C2F1200377
:1004C00020FA03F3194390407047202A06DBCB172C
:1004D000203A41FA02F043EAE07306E041FA02F3FF
:1004E000D040C2F12002914008431946704710B530
:1004F000141E73F1000408DA401C41F10001921847
:100500005B411A4301D120F0010010BD2DE9F04DEF
:1005100092469B4611B1B1FA81F202E0B0FA80F244
:1005200020329046FFF7C2FF04460F4640EA0A0019
:1005300041EA0B0153465A46084313D0114653EA89
:10054000010019D0C8F140025046FFF71DFE0546D4
:100550000E46504659464246FFF7A8FF084305D0CD
:10056000012004E020463946BDE8F08D0020054317
:1005700046EAE0762C4337430A986305E40AA0EB89
:1005800008000022FD0A44EA47540A3002D5002040
:100590000146E9E7010510196941DDE9084500193F
:1005A0006941BDE8F04DA2E72DE9F04D81EA030471
:1005B00004F0004B21F0004514464FF0000A23F0F0
:1005C000004150EA050220D054EA01021DD0C5F3D3
:1005D0000A570246C5F31303C1F31300C1F30A56C9
:1005E00040F4801543F48013A7EB0608101BD64691
:1005F00008F2FD3873EB050002D308F1010801E0B1
:1006000092185B41B8F1000F03DA00200146BDE803
:10061000F08D00204FF48011064684460EE0171B33
:1006200073EB050705D3121B63EB050306434CEA86
:10063000010C49084FEA300092185B4150EA01076B
:10064000EDD152EA030012D082EA040083EA0501E8
:10065000084305D0101BAB4106D20122002306E05F
:1006600000224FF0004302E06FF0010253101AEB3A
:1006700006004CEB085110EB0A0041EB0B01BDE802
:10068000F04DFFF734BF70B521F0004303430CD0A9
:10069000C1F30A550024D5EB040564EB0403D61717
:1006A000AD1AB34102DB0020014670BD201841EBBA
:1006B000025170BD30B5041E71F1000404DB4FF02F
:1006C0000044404264EB0101141E73F1000405DB99
:1006D0001C464FF00043524263EB0403994208BFAB
:1006E000904230BD064C074D06E0E06840F0010343
:1006F00094E8070098471034AC42F6D3FFF72CFD7E
:1007000078820008988200082DE9F04D00231A46EF
:100710001B1A8A4103DB00200146BDE8F08DC1F3BE
:100720000A52C1F3130141F480154FF0000BD107B9
:1007300002D100186D41521E0027044640F2FF11FD
:10074000384601EB620A3E468046024600204FF4DE
:100750008011FFF719FDC2197141BB1846EB01006A
:10076000B4EB030C75EB000C04D3E41A65EB000545
:1007700017460E46241908F101006D4180463428C1
:10078000E3DDF91946EB0600091BA84103D24FF03F
:10079000FF32134601E0002213461BEB070046EB35
:1007A0000A51BDE8F04DFFF7A2BE2DE9F047002445
:1007B00026464FF080494FF001082046FFF750FED3
:1007C00002460B460020494606F010FA07460D4641
:1007D00008FA04F0FFF733FE3A462B46FFF7BDFD5B
:1007E00007460D463046FFF73BFE3A462B46FFF7DD
:1007F0000DFDFFF742FE641CE4B286B2102CDCD380
:100800003046BDE8F08700002DE9FF410022064692
:100810000092019202926D46CDF80C2001F0010089
:10082000A854521C4908D2B2102AF7D30024012739
:1008300007FA04F081B22A5D304601F0CBF9641C5E
:10084000E4B2102CF4D3BDE8FF8170B50C46054628
:1008500000F0EEF8A8682168C16261680163A168D0
:100860004163490707D5D0E90021C0E90012D0E96A
:100870000221C0E90212A18981842169002903D0E3
:1008800001DC4FF00001016270BD2DE9F0411E4610
:1008900017468846054600F0CBF8AC68682241460A
:1008A00004F58470FFF780FC2846B8472846B04717
:1008B000286980688047A062BDE8F08110B50446D1
:1008C00000F0B6F8A0680C49483001660B49C165D4
:1008D0000B4941660B49C1660B4981660B4981672B
:1008E0000B49C16730F8221C21F0030120F8221CBB
:1008F0000849816410BD0000B55A0008C15B0008BA
:10090000795A0008475700082F570008C3570008B6
:10091000FB5700083D5A000810B5044600F088F85F
:10092000A4680C489034102120650B4860650B4882
:10093000A0650B48E0650B48E0600B482061206B28
:10094000A06654F89029204690471020A0630748DD
:10095000606410BD0D4700083D4C00087109000897
:10096000A10A000811570008895E00089480000859
:10097000F8B5846815460F4694F8260080074CD5D4
:10098000D4F8FC30204698470646D4F800312A4671
:10099000394620469847D4F8943005461BB10022CA
:1009A0000121204698472069B04201DD012000E086
:1009B0000020A169B14201DA012100E000210843D1
:1009C0006169A94201DD012100E000210843E169DC
:1009D000A94201DA012100E0002108430AD0606841
:1009E000401E00902368D4F8A4705B1E00221146BC
:1009F0002046B847D4F8A8302A46314620469847C2
:100A0000D4F89C1020468847D4F8943005466BB142
:100A1000012200212046984708E0D4F8A83020465B
:100A20009847D4F89C102046884705462846F8BDCC
:100A300070B504468068002812D14FF4B875284676
:100A400000F088F92A460021A06000F071FFA0683C
:100A50000221C1840121046401620249C0F8041129
:100A600070BD0000690A000810B590B0044620224D
:100A70000A496846FFF798FB08492022203108A858
:100A8000FFF792FB606B5DF82010C4F8FC1008A91A
:100A900051F82000C4F8000110B010BD80760008A5
:100AA0002DE9F84384689846154694F826000F46C9
:100AB000800740D5D4F8FC30204698470646D4F845
:100AC00000312A4639462046984705462069B042FB
:100AD00001DD012000E00020A169B14201DA01211D
:100AE00000E0002108436169A94201DD012100E025
:100AF00000210843E169A94201DA012100E0002157
:100B000008430AD06068401E00902368D4F8A4709F
:100B10005B1E002211462046B847D4F8A8302A466A
:100B2000314620469847D4F8A02001B041462046DF
:100B3000BDE8F0431047D4F8A830F2E72DE9F04FB4
:100B4000DFF828B191B04FF0FF35DBF80030B3F992
:100B500022100691DE69B3F924A0F469A1898142CB
:100B600006D8E289824203D3471AD4F8008012E003
:100B7000D4E90181002970D00A8882426DD84D885D
:100B800085426AD3801A82B2486800EB8200B0F9CD
:100B90000070B0F90250781C5FD0307EA27C014614
:100BA00000FB02F9207CCDE90810B3F92A60304639
:100BB00002F030F9C0B20E90DBF8001007FB09809C
:100BC000A37C8A6B0127CDE90402CDE90273C869D1
:100BD000DDE90832C17E807ECDE9000151460698EC
:100BE00001F050FE681C18D046F0020002F012F925
:100BF000DBF80000A37C05FB0981826BCDE9027361
:100C0000CDE90412C069DDE90832C17E807ECDE9FC
:100C100000015146069801F035FEDBF800005D4604
:100C2000C069417E007E814214D9022E12D086F026
:100C3000040002F0EFF82868C069027EC37E857E5A
:100C400002FB03A1437E099A0698534402FB050266
:100C500001F07CFF0E9802F0DDF8DBF80000627C0A
:100C6000418C1144418411B0BDE8F08F2C0000206C
:100C700004480068C069C06909B1027C0A60407C10
:100C8000704700002C000020022008807047C069D7
:100C900082898A4202D8C2898A4210D2806880B191
:100CA00002888A420DD843888B420AD3406800EB01
:100CB0008100A0EB8200B0F90000002801DB0120D8
:100CC000704700207047002801D003F005B8704736
:100CD00038B50546FFF7F7FF040009D000F08EF89D
:100CE0002A460021009000F023FE684600F094F8A8
:100CF000204638BD024A106021F003005060704762
:100D000018C5002010B5002814D004460A48006B0E
:100D100010F8341000290DD002290BD2042101EB68
:100D2000C4014158486802F09BFF2046BDE81040CE
:100D300004F0DCBC10BD00005CC40020002805D01D
:100D4000034A916B016001B14860906370470000F5
:100D50005CC400202DE9F041044604F08FFB2648D6
:100D6000E41C24F00305C16B2D1DA94200D90D46DA
:100D7000846B13E054F8042CAA420ED184B121688C
:100D800009B162684A60616809B122680A60826BD1
:100D9000A2422ED1216881632BE02468002CE9D186
:100DA0008046416B80680F1857F8040C3E1A306873
:100DB00038B1002004F05EFD57F8040C3E1A30688C
:100DC000B8B97068A84214DB3044441B304604F0C4
:100DD00037FDD8F80810491BC8F80810D8F81010CB
:100DE0002944C8F8101070683146401B02F038FFE3
:100DF00020C42046BDE8F0815CC4002005498A6912
:100E0000521C8A61096B01EBC0010A78521C0A70FE
:100E100000F01AB85CC400200A4902680B6B52F853
:100E2000082C03EBC2021378022B03D38B690BB19E
:100E30005B1E8B611178491E11700021016008460C
:100E4000704700005CC40020002806D0034904223B
:100E500002EBC000096B0858083070475CC40020E2
:100E600010B5C2B2CBB2D21A02D5C2F1000212B290
:100E700093B2C0F30722C1F3072403FB03F3121B51
:100E800001D5524212B2000C92B2A0EB114002FB0B
:100E9000023200B2002801DA404200B280B200FB08
:100EA000002010BD10B50021084600F09DF940F665
:100EB000FF725042BDE8104013460146AFF3008078
:100EC0002DE9FC4107461C4615460E46042001F05C
:100ED000A1FF80461148C068C16C006D0F440644F4
:100EE0000D440444ADF80070ADF80450ADF8026054
:100EF000ADF80640684602F045FD07E023462A4665
:100F00003146384601F022FE02F0FEFC0028F5D101
:100F1000404601F07FFFBDE8FC810000200000207A
:100F20002DE9F0411C4616460D460746022B02DB12
:100F30000020BDE8F0811C20FFF70CFF0028F8D04E
:100F40000DB105610AE0094A52F8241009B905E01B
:100F500011460A68002AFBD1096901618461868211
:100F6000002101604160C0E90217E2E7440000206F
:100F700070B51D46FFF7D4FF040001D000F00EF855
:100F8000E068006820B90348006800EB85008465CC
:100F9000204670BD2C000020FFF7D0BE70B590B386
:100FA0008269022A30DA1C4C54F8221019B944F82C
:100FB00022002FE019464B68002BFBD106E0CB68DE
:100FC000C5681B682D68AB4203DD09680029F6D1AE
:100FD0001AE0C1B1CB68C6681B683668B3420CD151
:100FE000838A012B05D008E01946DB681B68AB42F9
:100FF00003DB0B68002BF7D129B14B6833B11860C4
:101000004A68426004E0FFE7012070BD44F8220016
:1010100048600160002070BD4400002004F01CBF47
:10102000022801DB00207047054951F8200004E048
:10103000C16809680029F6D000680028F8D1704717
:10104000440000202DE9FC4706005BD000F09CF82E
:101050003B4C81462068B0F9228000F09DF8216861
:1010600007468A8CD01B888441E000BF47F6FF7199
:10107000304600F089FB82460146304600F05AFBBC
:101080002168054691F82C0000F0030001283FD0AC
:10109000022839D000204A8C101A4884ADF800008C
:1010A0006A1E1044ADF80400888CADF80200A9F166
:1010B00001010844ADF806006A465146304600F08A
:1010C000E1FA2168BDF8020088845146304600F0FC
:1010D000DFF9064430780A281CD00D281AD0BDF854
:1010E0000000216828444884307818B1761C307894
:1010F0000028BBD12068818C39448184818D21F006
:1011000003018185BDE8FC8705EBD5704010C2E77F
:101110002846C0E7206890F82C1001F0030101294F
:101120000BD0022909D0018C418431780A29DBD106
:10113000828C02EB09018184D6E7A0F82280F4E7D3
:101140002C000020024B1B6859849A84FFF77ABF59
:101150002C000020034951F82000C1688A6A082148
:10116000104700004400002002490968C9694A6824
:10117000002110472C000020024A1268D2695268F0
:10118000104700002C00002002480068C069407E23
:10119000704700002C0000200A490020096891F8DF
:1011A0002C2002F00C02042A07D0082A01D00C2AB5
:1011B00002D1C869007E40087047C869007E401EA1
:1011C000704700002C000020024951F820000069FF
:1011D0000068704744000020024951F8200000696F
:1011E000406870474400002070B50D4604F0C2F816
:1011F0000446284604F0C6F8204370BD124810B5D6
:10120000016821F00101016010480121816010494D
:10121000016000680F49884200D0FEE700F018FA2C
:101220000D492E20087000F07EF90C4804F0EEF80D
:1012300005F08AFA04460021084600F0E7F802F0BB
:10124000DDF9204610BD0000002000E00030024023
:10125000C2A507F4CDB5E8B52000002024C50020C4
:1012600038B5040018D00D480068006EA04201D1C6
:1012700000F0A8F82046FFF7C1FD0090406908B1D2
:1012800000F02EF900980068FFF786FE6846FFF729
:10129000C3FD2046FFF736FD38BD00002C000020BE
:1012A00038B5002460B1FFF7A9FD0090006800691F
:1012B0008068804701F05EFF04466846FFF7ACFD9A
:1012C000204638BD38B5FFF799FD00F118040090AD
:1012D0006846FFF7A1FD204638BDF8B515460E4615
:1012E0000746FFF78BFD009044696846FFF794FDC1
:1012F0003846FFF7D5FF0346082800DD2CB12A4603
:101300003146384604F0DEFDF8BD2A4631463846FF
:1013100004F070FFF8BD10B5002821D009B30AB35E
:10132000B1F90040B2F900309C4200DA2346038054
:10133000B1F90240B2F902309C4200DA2346438000
:10134000B1F90440B2F904309C4200DD23468380A9
:10135000B1F90610B2F90620914200DC1146C180B5
:1013600010BD11460A6802604968416010BD00283E
:101370000BD003880B440380838819448180418803
:1013800011444180C1881144C1807047B0F90220E6
:10139000B1F906309A4213DCB1F90220B0F90630F7
:1013A0009A420DDCB0F90020B1F904309A4207DC12
:1013B000B1F90010B0F90400814201DC012070474E
:1013C0000020704710B501F0B9FC01F06BFDBDE8DD
:1013D000104001F0E7BF000070B504460548022C3C
:1013E0000068457C02D24474FFF7ECFF02480460B9
:1013F000284670BD2C0000209000002001F0C0BCE9
:10140000014988607047000020000020094A30B47C
:101410001080094A1180094A1268537C084A52F820
:101420002330DA68146A0A46A446014630BC1846DE
:101430006047000054000020560000202C000020CF
:101440004400002002480068002800D00047704790
:10145000F800002002498A6802B98860FFF7F2BFED
:10146000EC0000202DE9F041084E04460568306884
:1014700001682846884707463068416828468847FB
:10148000284420603846BDE8F0810000300000208C
:101490002DE9F0410C4606460025064F05E0386868
:1014A00041683046884706440544641EF7D2284602
:1014B000BDE8F081300000202DE9F0411E46069C79
:1014C0001746884605463A46A8687F1C3346D0F83A
:1014D00004C041462846E047641EF4D1BDE8F081CF
:1014E00038B50546FFF78AFC00908189491E0CB289
:1014F00084816846FFF790FC002C02D12846FFF754
:1015000001FC38BD10B54CF250310448FFF7F2FB36
:10151000BDE810400248FFF773BF00000C01002037
:10152000B47D00087047704710B5082A0EDC0346EA
:10153000012A1AD0022A58D0042A78D010F8042B95
:1015400003F8012B491EF9D1012010BD102A0ADC35
:101550000222022AF8D1024630F8043B22F8023B6C
:10156000491EF9D1F0E7002010BD10F8042BD20776
:10157000120E491E34D010F8044B491E04F0010429
:1015800042EA84122CD010F8044B491E04F00104E6
:1015900042EA441224D010F8044B491E04F001041E
:1015A00042EA04121CD010F8044B491E04F0010456
:1015B00042EAC40214D010F8044B491E04F001049E
:1015C00042EA84020CD010F8044B491E04F00104D6
:1015D00042EA440204D010F8044B04F00104224310
:1015E00003F8012B0029C0D1AEE710F8042B9207B5
:1015F000120E491E15D010F8044B491E04F00304C6
:1016000042EA04120DD010F8044B491E04F0030402
:1016100042EA840205D010F8044B04F0030422438C
:10162000491E03F8012B0029DFD18DE7FFE710F8F1
:10163000042B1207120E491E05D010F8044B04F0BB
:101640000F042243491E03F8012B0029EFD17BE749
:101650000A4810B5816900290ED101218161FFF787
:1016600051FF01F031FC054905481C310860BDE817
:101670001040084600F054B910BD000020000020C2
:10168000395600087CB5064628480D46006868B102
:10169000002002F077F906E06A462946304602F05B
:1016A0000DFC02F031F90028F6D17CBD10680090E5
:1016B0001F4C506801902268BDF8000032F84C1FA2
:1016C0000844ADF80000BDF8020091880844ADF868
:1016D0000200BDF8040011880844ADF80400BDF80C
:1016E000060091880844ADF80600684602F04AF901
:1016F0000EE000BF2068BDF800106A464184BDF8C6
:10170000021081842946304602F0D8FB02F0FCF832
:101710000028EFD1206830F8221F428D891A0180FD
:101720004188C28D891A41807CBD00005000002094
:101730002C00002073B5124A01A900981268904746
:1017400000240090C8B10F4900250968C96949699A
:1017500059B10A684AB1019990477CBD6846FFF7C4
:1017600081FE0546FFF700FD04440198401E0190EC
:10177000F4D5284600F024F8044420467CBD00003F
:10178000E80000202C00002073B50D4600980024CE
:1017900090B10A490968C969496959B14A684AB1A9
:1017A000294690477CBD6846FFF75CFE20B10A28B9
:1017B00002D0641CAC42F6DB20467CBD2C0000202D
:1017C00038B5002469460094FFF7D6FC00998142A1
:1017D00000DD0C1A204638BDB0F90030B1F9002008
:1017E000934200DA0280B0F90230B1F9022093424C
:1017F00000DA4280B0F90430B1F90420934200DDF0
:101800008280B0F90620B1F906108A4200DDC1805D
:10181000704770B5B1F90040B2F900309C4200DD6C
:1018200023460380B1F90250B2F90240A54200DD1F
:101830002C464480B1F90460B2F90450AE4200DA9B
:1018400035468580B1F90610B2F90620914200DBD9
:101850001146C1809D4201DBA14201DA002070BD2A
:10186000012070BD014602480068407C00F002B8CB
:101870002C000020F8B501260F46054602284BDA59
:10188000264C5FB3012F02D0022F45D116E054F849
:10189000250088B92846FFF7C3FB0090B8B3C0689D
:1018A0000D21426A68469047020035D039460098BB
:1018B000904754F825000026401C2BE0FFF7B0FBB2
:1018C000009020B3C0680D21426A6846904702002C
:1018D00022D039460098904700261DE054F8250094
:1018E00001280FD12846FFF79BFB009050B1C0683C
:1018F0000D21426A68469047020003D0394600989D
:101900009047002654F8250010B1012101E003E0C2
:101910000021401A44F825003046F8BDE0000020C0
:1019200002494A6942604861704700002000002077
:1019300010B502E000F8011B521E0AB18307F9D16D
:10194000930818D001EB014402F0030204EB0424D5
:1019500005E0046044608460C46010301B1F042BE9
:10196000F7DA01E010C05B1E002BFBD103E000BFE3
:1019700000F8011B521E002AFAD110BD10B58307D2
:1019800002D520F8021B521E530810D001EB01446F
:10199000042B08DB046044608460C46010301B1FAB
:1019A000042BF7DA01E010C05B1E002BFBD1D2073D
:1019B00000D0018010BD10B5040002D0607910B1D4
:1019C00006E0012010BD00202071204600F004F840
:1019D00001206071002010BD08B5006806498842EA
:1019E00008D10648416941F040014161406900F079
:1019F0004000009008BD000000300240001002408E
:101A000031B500F0EDF8044600F0EAF80099001B4B
:101A10008842F9D338BD00002DE9F84FDFF890A1D6
:101A200000220AF1040B144601274FF00F090BF1B5
:101A3000040E00BF0B6807FA04F52B40AB4274D1CB
:101A4000DFF870C14E68A6EB0C0866452BD00DDCA4
:101A5000032E34D005DC36B3012E19D0022E2FD13F
:101A60001BE0112E16D0122E2AD119E0B8F5881FCE
:101A700019D006DCB8F5803F15D0B8F5801F1FD10E
:101A800011E0B8F5001F0ED0B8F5041F18D10AE018
:101A9000CA6815E0CA68121D12E0CA6808320FE071
:101AA000CA680C320CE08A682AB1012A4FF0080299
:101AB00003D0456104E0042202E0056100E0002259
:101AC000FF2B01D8064601E000F104064FEA840529
:101AD00001D9A5F12005D6F800C009FA05F82CEACD
:101AE000080C02FA05F54CEA050CC6F800C04D6872
:101AF000ED0057D5304DAE6946F00106AE61AD69D7
:101B000024F0030605F0010500952C4D06EB050CAD
:101B1000DCF80850A6074FEA167809FA08F6B5432C
:101B2000274EB04202D1002610E03BE0254EB042E5
:101B300001D101260AE0244EB04201D1022605E07F
:101B4000224EB04201D1032600E0042606FA08F630
:101B50002E43CCF808604D68DAF80060ED03554676
:101B600001D51E4300E09E432E604D68DBF8006007
:101B7000AD035D4601D51E4300E09E432E604D68D7
:101B8000DEF80060ED02754601D51E4300E09E437D
:101B90002E604D68AD020E4D2E6801D51E4300E04B
:101BA0009E432E60641C102CFFF444AFBDE8F88FF8
:101BB000000401400000111000100240000001402C
:101BC00000080140000C01400010014000140140D9
:101BD0000C0401400AB1016170470904FBE70000F1
:101BE00001480068704700000000002002480168BA
:101BF000491C01607047000000000020074810B534
:101C0000016841F010010160032000F059F8002044
:101C100000F006F800F016F8002010BD0020024089
:101C200010B5044600F0A2F94FF47A71B0FBF1F060
:101C300000F002FE00222146501E00F021F8002094
:101C400010BD00000C4808B5816941F001018161B7
:101C5000806900F001000090062000F031F80022B9
:101C60001146501E00F00CF80448416821F0E06174
:101C700041F00071416008BD0010024000000140C9
:101C8000F0B40E4B1B680C46C3F30223C3F10705E7
:101C9000042D00D90425191D072901D2002300E0D5
:101CA000DB1E012606FA05F1491E214099409E409F
:101CB000761E16403143F0BC01F0F2BA0CED00E0A4
:101CC000064900F0070208684FF6FF03184040EA93
:101CD0000220034A10430860704700000CED00E04A
:101CE0000000FA052DE9F047DFF8789205460E4628
:101CF000D9F80000022300F0070701204104420642
:101D0000994C41F28838B74271D2D9F800C02CF012
:101D1000070C4CEA060CC9F800C0D9F8007007F0AF
:101D20000707B7426FD12E78B60705D56668AF684A
:101D300026F0F0063E4366602E78F60756D06E68B1
:101D4000012E0BD0022E1ED093FAA3F1B1FA81F12D
:101D500041F02001490924D0216823E091FAA1F241
:101D6000B2FA82F242F02002520901D0226800E069
:101D7000626A91FAA1F1B1FA81F101F01F01884084
:101D8000024240D017E092FAA2F1B1FA81F141F09B
:101D90002001490901D0216800E0616A92FAA2F2AB
:101DA00002E0616A93FAA3F2B2FA82F202F01F0231
:101DB0009040014227D0606820F00300304360600B
:101DC000FFF70EFF06466868012809D0022847463B
:101DD00013D01EE0FFF704FF801BB84201D992E048
:101DE00047466068C0F381000128F3D1A1E015E007
:101DF000FFF7F6FE801BB84273D86068C0F381001D
:101E00000228F5D195E092E0FFF7EAFE801BB84288
:101E100079D8606810F00C0FF6D18AE02F78BF07F0
:101E200007D56768D5F808C027F0F00747EA0C0720
:101E300067602F78FF076DD06F68012F0BD0022FDE
:101E40001ED093FAA3F1B1FA81F141F020014909C2
:101E500024D0216823E091FAA1F2B2FA82F242F092
:101E60002002520901D0226800E0626A91FAA1F1D1
:101E7000B1FA81F101F01F018840024257D017E00A
:101E800092FAA2F1B1FA81F141F02001490901D0A1
:101E9000216800E0616A92FAA2F202E0616A93FAB4
:101EA000A3F2B2FA82F202F01F02904001423ED049
:101EB000606820F0030038436060FFF791FE07463A
:101EC0006868012807D0022811D01FE0FFF788FEBC
:101ED000C11B414517D86068C0F381000128F5D1C6
:101EE00018E010E0FFF77CFEC11B41450BD860688D
:101EF000C0F381000228F5D10CE000BFFFF770FEAF
:101F0000C11B414502D90320BDE8F087606810F08D
:101F10000C0FF3D1D9F8001021F007013143C9F8B3
:101F20000010D9F8000000F00700B04201D00120F5
:101F3000EAE72878400705D56068E96820F4E060A2
:101F4000084360602878000706D56068296920F496
:101F5000605040EAC10060600020FFF761FE002091
:101F6000D2E70000002002400010024000B500F05F
:101F700017F808494968F02292FAA2F201F0F0013C
:101F8000B2FA82F2D140044A515CC8400349086069
:101F900000BD000000100240107600080400002080
:101FA000F0B52DA28AB007CA8DE807002DA103ACB9
:101FB0000FC984E80F002F494B682F4803F00C022B
:101FC000042A02D0082A02D02C480AB0F0BD4FF4EF
:101FD000701595FAA5F403F47012B4FA84F4E24093
:101FE0006E461DF80220DB0333D5CB6A0F2494FA2A
:101FF000A4F403F00F03B4FA84F4E34003ACE45C0C
:10200000CB6ADB0316D5CB6AF02797FAA7F703F064
:10201000F003B7FA87F7C96AFB40AF1297FAA7F740
:1020200001F47061B7FA87F7F9405B1CB0FBF3F07D
:10203000891C4843B0FBF4F095FAA5F350434FF4E4
:102040005011B3FA83F3D940715C9142BDD140087D
:10205000BBE70B485043B8E7000004050607080932
:102060000000000D0102030405060708090A0B0C15
:102070000D0E0F100010024040787D0100127A0012
:1020800000093D002DE9F84F04460078FC4DC007DB
:102090004FF0010625D068687704C0F3810001285D
:1020A00007D06868C0F3810002281BD16868C003AC
:1020B00018D597FAA7F0B0FA80F040F02000400958
:1020C00001D0286800E0686A97FAA7F1B1FA81F1B7
:1020D00001F01F0106FA01F1084202D0A0680028B1
:1020E00076D081E0286820F480302860286820F4C9
:1020F00080202860FFF774FD804605E0FFF770FD43
:10210000A0EB080064287DD897FAA7F0B0FA80F019
:1021100040F02000400901D0286800E0686A97FA82
:10212000A7F1B1FA81F101F01F0106FA01F10842AD
:10213000E4D1A068B0F5803F0BD010B1B0F5A02F6E
:1021400011D0286820F480302860286820F480208E
:1021500002E0286840F480302860A06820B3FFF7D0
:102160003FFD80460AE0286840F480202860F0E7C0
:10217000FFF736FDA0EB08006428C4D897FAA7F053
:10218000B0FA80F040F02000400901D0286800E05B
:10219000686A97FAA7F1B1FA81F101F01F0106FA16
:1021A00001F10842E4D01FE0FFF71AFD804605E088
:1021B000FFF716FDA0EB08006428A4D897FAA7F053
:1021C000B0FA80F040F02000400902D0286801E019
:1021D000B8E0686A97FAA7F1B1FA81F101F01F013E
:1021E00006FA01F10842E3D12078A64F80074FF0AC
:1021F00002084FF000095BD568684FF0F80B10F04B
:102200000C0F00E01DE207D06868C0F381000228CF
:102210001BD16868C00318D498FAA8F0B0FA80F00F
:1022200040F02000400901D0286800E0686A98FA70
:10223000A8F1B1FA81F101F01F0106FA01F108429B
:102240002BD0606901287DD127E0606988B396FAB8
:10225000A6F0B0FA80F047F82060FFF7C1FC824694
:1022600006E000BFFFF7BCFCA0EB0A00022884D800
:1022700098FAA8F0B0FA80F040F02000400901D0B0
:10228000286800E0686A98FAA8F1B1FA81F101F0D3
:102290001F0106FA01F10842E4D028689BFAABF26C
:1022A000A169B2FA82F220F0F80091400843286058
:1022B00025E0FFE796FAA6F1B1FA81F147F82190FF
:1022C000FFF78EFC824605E0FFF78AFCA0EB0A00D0
:1022D0000228CCD898FAA8F0B0FA80F040F020009C
:1022E000400901D0286800E0686A98FAA8F1B1FABC
:1022F00081F101F01F0106FA01F10842E4D12078D2
:1023000000076FD5E069C0B396FAA6F0B0FA80F086
:1023100007EB8000C0F88064FFF762FC824605E0AE
:10232000FFF75EFCA0EB0A000228A0D898FAA8F1FB
:10233000B1FA81F141F060014046B6EB511F02D184
:1023400029680CE0A0E190FAA0F1B1FA81F141F026
:102350006001B0EB511F01D1296A00E0696A98FA67
:10236000A8F0B0FA80F000F01F0206FA02F0014275
:10237000D6D00120FFF744FB34E0FFE796FAA6F140
:10238000B1FA81F107EB8101C1F88094FFF728FCD5
:10239000824605E0FFF724FCA0EB0A00022898D84B
:1023A00098FAA8F1B1FA81F141F060014046B6EB2C
:1023B000511F01D129680BE090FAA0F1B1FA81F127
:1023C00041F06001B0EB511F01D1296A00E0696A58
:1023D00098FAA8F0B0FA80F000F01F0206FA02F0B6
:1023E0000142D7D12078400773D5E86940F080508A
:1023F000E861E869DFF890B000F080500090DBF809
:10240000001041F48071CBF80010FFF7E9FB824621
:1024100006E000BFFFF7E4FBA0EB0A00642884D8C5
:10242000DBF80000C005F5D5286A20F0010028621D
:10243000286A20F004002862FFF7D2FB834641F2AD
:10244000883A05E0FFF7CCFBA0EB0B015145A6D87D
:1024500098FAA8F1B1FA81F141F040014046B6EB9B
:10246000511F01D1296812E090FAA0F1B1FA81F16F
:1024700041F04001B0EB511F08D1296A07E000008C
:10248000001002400000424200700040696A98FA61
:10249000A8F0B0FA80F000F01F0006FA00F0014248
:1024A000D0D1206901280AD008B1052812D0286AA5
:1024B00020F001002862286A20F0040002E0286A67
:1024C00040F001002862206998B3FFF789FB83463A
:1024D0000CE05BE0286A40F004002862EFE700BFF0
:1024E000FFF77EFBA0EB0B01514598D898FAA8F1B5
:1024F000B1FA81F141F040014046B6EB511F01D1E4
:1025000029680BE090FAA0F1B1FA81F141F04001A5
:10251000B0EB511F01D1296A00E0696A98FAA8F06E
:10252000B0FA80F000F01F0206FA02F00142D7D0A4
:102530002CE0FFE7FFF754FB834605E0FFF750FB75
:10254000A0EB0B0151457CD898FAA8F1B1FA81F1C2
:1025500041F040014046B6EB511F01D129680BE024
:1025600090FAA0F1B1FA81F141F04001B0EB511FB6
:1025700001D1296A00E0696A98FAA8F0B0FA80F0FF
:1025800000F01F0206FA02F00142D7D1E16AA1B3BE
:102590006868C00307D56868C0F38100022802D1CB
:1025A000E86AC00370D44FF080604FF0006B0229DE
:1025B0000DD0E96A21F48031E96290FAA0F0B0FA16
:1025C00080F047F82090FFF70BFB804670E0296809
:1025D000C90005D5E96A626B01F0F001914253D15F
:1025E0004FF0806090FAA0F0B0FA80F047F82090A9
:1025F000FFF7F6FA8246D84606E06EE0FFF7F0FAFB
:10260000A0EB0A0064281CD898FAA8F0B0FA80F071
:1026100040F02000400901D0286800E0686A98FA7C
:10262000A8F1B1FA81F101F01F0106FA01F10842A7
:10263000E4D1E86A616B20F0F0000843E862E86AE0
:1026400000E082E0216B20F470600843E8624FF004
:10265000806090FAA0F0B0FA80F047F82060FFF7B1
:10266000BFFA824606E000BFFFF7BAFAA0EB0A0005
:1026700064286AD898FAA8F0B0FA80F040F02000F8
:10268000400902D0286801E0A7E0686A98FAA8F13A
:10269000B1FA81F101F01F0106FA01F10842E3D01D
:1026A0001BE000BFFFF79CFAA0EB080064284CD8A1
:1026B0009BFAABF0B0FA80F040F02000400901D066
:1026C000286800E0686A9BFAABF1B1FA81F101F089
:1026D0001F0106FA01F10842E4D1206AA0B369683B
:1026E000C1F38101022978D002284FF080714FF0A8
:1026F000007A48460AD091FAA1F1B1FA81F147F87F
:102700002100FFF76DFA074654466FE08B4691FAB9
:10271000A1F1B1FA81F1B94647F82100FFF760FA5B
:102720008046574606E000BFFFF75AFAA0EB0800C4
:10273000022858D897FAA7F0B0FA80F040F02000AD
:10274000400903D0286802E065E04CE0686A97FA27
:10275000A7F1B1FA81F101F01F0106FA01F1084277
:10276000E2D1606AB0F5803F09D1E86A6168084348
:10277000E862E86AE16820F00F000843E862D4E903
:1027800009010843696821F47411084368609BFAE1
:10279000ABF0B0FA80F049F82060FFF721FA044668
:1027A00005E000BFFFF71CFA001B02281BD897FAB0
:1027B000A7F0B0FA80F040F02000400901D028686E
:1027C00000E0686A97FAA7F1B1FA81F101F01F0100
:1027D00006FA01F10842E5D01DE01EE0FFF700FA1D
:1027E000C01B022802D90320BDE8F88F94FAA4F098
:1027F000B0FA80F040F02000400901D0286800E0E5
:10280000686A94FAA4F1B1FA81F101F01F0106FAA5
:1028100001F10842E2D10020E6E70120E4E74FF0B1
:10282000E0210428086903D020F004000861704703
:1028300040F00400FAE7704710B5401EB0F1807F09
:1028400001D3012010BD4FF0E02460610F2160171B
:1028500000F026FD0020A06107202061002010BDAF
:1028600010B5FFF7E8FF10BD0449054A0968497C27
:1028700052F8211009690968084700002C0000205F
:10288000440000202DE9F04F05468DB07C48DDF86E
:1028900060901A9C00681E4617464FF0000A78B1F7
:1028A0001B9B199ACDF808900593CDE90324DDE927
:1028B0001623CDE90023046833463A46284682E0D1
:1028C000DDE9160201EB060805EB070C1043A8F141
:1028D0000108ACF1010C012806D0C9F108000590EF
:1028E000002002910890C8E066480268B2F90A30F8
:1028F000581A002806DD361A002E65DD1946199B88
:1029000000FB0344B2F90E00A8EB0000002802DD32
:10291000361A002E58DDB2F90C00ACEB000000288E
:1029200000DD3F1AB2F908300020AB4237DD581BFA
:102930003F1A4B46B9F1080F28D007DC012B0DD008
:10294000022B13D0B9F1040F29D117E0102B1FD09F
:10295000182B20D0B9F1200F21D11CE020F0070363
:1029600004EBE0041D4400F0070018E020F003032E
:1029700004EBA0041D4400F0030010E020F001036C
:1029800004EB60041D4400F0010008E0044404E08E
:1029900004EB400401E004EB800405440020002F18
:1029A00012DD1B9BDDF864C0CDE90403CDE902C450
:1029B000CDE90069527C34483B4650F82200C26899
:1029C00054680A462946A0470DB0BDE8F08F179914
:1029D0000298084409902B49401E00900A68B2F9F9
:1029E0000A30834241DCB2F90E10029881423CDB8E
:1029F0004FF0000BD84603950B9434E0BBF1000F69
:102A000005D10B984FF0080B10F801AB0B9005990E
:102A1000ABEB090B3AFA01F00AFA09F101F0FF0AEF
:102A200004D118490968097C890716D41549096831
:102A3000C96B0A680C921B9A0AB152F82000086010
:102A400016990398009B4218521E029900F07EF8D6
:102A50000C490C980968C96B08600399169808F12D
:102A6000010808440390B845C8DB0898401C08904A
:102A700009980290199804440898B042A7DBA3E78C
:102A8000500000202C00002044000020F0B40C4630
:102A900012490968B1F90A30A3421CDCB1F90E30C1
:102AA000A34218DBB1F90830834200DD1846B1F9C2
:102AB0000C30934200DA1A4682420CDB4B7C084908
:102AC00051F8235013462246E9688E68014628468D
:102AD000B446F0BC6047F0BC704700002C000020FA
:102AE000440000200A46174930B40968B1F90A3099
:102AF000934225DCB1F90E30934221DBB1F9083065
:102B000083421DDCB1F90C30834219DB0B7C0E4C87
:102B1000DB0709D0497C54F82130D968CC690146DB
:102B2000A44630BC18466047CB6B497C1B6854F800
:102B30002140E1688D6901462046AC4630BC6047C3
:102B400030BC70472C0000204400002038B5134CE6
:102B50002468B4F90850854200DD2846B4F90C50C9
:102B6000954200DA2A46824217DBB4F90A508D42B8
:102B700000DD2946B4F90E509D4200DA2B468B4207
:102B80000BDB0093647C064B53F82440E3681D691B
:102B900013460A4601462046A84738BD2C000020AF
:102BA00044000020082102F06EBB00000248092109
:102BB0000068407C02F067BB2C000020092102F075
:102BC00062BB70B500252C462046FEF729FA00B1FD
:102BD0006D1C641C022CF7DB284670BD024800689F
:102BE000407C00F003B800002C00002010B5FEF778
:102BF00017FA002805D0C168CA6ABDE81040022152
:102C0000104710BDAFF300802DE9F041002809D036
:102C1000876837B10D4E716819B10468B4F5807FCB
:102C200002DD0020BDE8F0813068844200DD04460A
:102C3000002507E057F82500FFF716FE716841F8F8
:102C400025006D1CA542F5DB7068EBE778000020DD
:102C50000449054A0968497C52F821100969496804
:102C6000084700002C0000204400002010B500F0B0
:102C70001F01074A074BC0F34514C0F3C4201B5D76
:102C8000105C515C00EB032000EB014010BD000024
:102C9000D87F0008F87F000810B50A4C606860B95A
:102CA00020688000FEF756F8606040B104F108012A
:102CB000054808600846FEF733FE002010BD0120DD
:102CC00010BD000078000020655600082DE9F04195
:102CD000FFF777FF0746002528E02846FEF7A0F912
:102CE00018B32846FEF778FB80462846FFF75AFFC0
:102CF000082817DC0F48104950F825000069884261
:102D000010D02846FFF75AFF0646002408E0E0B23C
:102D1000FFF79EFF0246E1B2284600F081F8641CEE
:102D2000B442F4DB4046FEF757FB6D1CBD42D4DBDA
:102D3000BDE8F08144000020C880000810B50E4CAA
:102D40000E492068407C51F8200050B1C1680968E4
:102D5000042903D000680028F8D102E008B1FEF78A
:102D60005DF920680021016600F108014161BDE8BC
:102D7000104000F02FB800002C000020440000207C
:102D80000149096849680847740000200449096836
:102D90000A7C520701D5C96B00E0896B0860704757
:102DA0002C0000207CB5094C05462068417C084871
:102DB00050F82100C1680A6B6946904720686A464E
:102DC00029460830FEF725FD7CBD00002C000020C0
:102DD000440000200448016804484A7C083150F847
:102DE0002200C268126B10472C0000204400002013
:102DF0000149096809680847740000200449096806
:102E00000A7C520701D5896B00E0C96B08607047E6
:102E10002C000020014909688968084774000020D7
:102E2000F8B515460E460124FEF7FAF8009058B1A1
:102E3000C0681021426A68469047030004D02A46C1
:102E400031460098984700242046F8BDF8B515464D
:102E50000E460124FEF7E4F8009058B1C0680B213B
:102E6000426A68469047030004D02A4631460098DB
:102E7000984700242046F8BDF8B515460E460124B3
:102E8000FEF7CEF8009058B1C0680A21426A684641
:102E90009047030004D02A46314600989847002402
:102EA0002046F8BD10B5074C2068006BFFF7DCFC2E
:102EB000FFF7A4FF2068406BFFF7D6FCBDE8104089
:102EC000FFF764BF2C00002030B59FB014211AA872
:102ED000FDF791F968216846FDF78DF900231A4640
:102EE00013491448FEF744F804464FF4A0752A46E7
:102EF000F0210020FFF7AAFF2A46F0210020FFF76B
:102F0000BBFF04201C901AA92046FDF79EFC0A482E
:102F100008900A4809900A480B900A480F900A4BFB
:102F20000A4A69462046FDF7B0FC1FB030BD0000DC
:102F30002C7600084C760008D7310008BD31000817
:102F4000C1310008A731000819090008BD080008B0
:102F500010B5012902D04FF0FF3010BD03F03AFC4C
:102F6000002010BD2DE9FF4F8DB01746674ADDF8F0
:102F700070901E9E209812681D4600248AB11D9BE9
:102F80001F98CDE90293CDE90460DDE91A03CDE98C
:102F9000000314682B463A460D98A04711B0BDE8CF
:102FA000F08F0D9A01EB050802EB070CDDE91A23FF
:102FB0001A43A8F10108ACF1010C012A06D0C9F1AD
:102FC00008004FF0000B029105909CE0504A1268F7
:102FD000B2F90A40631A002B06DDED1A002DDDDD83
:102FE00021461D9C03FB0466B2F90E30A8EB0303D7
:102FF000002B02DDED1A002DD0DDB2F90C30ACEB68
:103000000303002B00DDFF1A0D9B1C1AB2F90830D8
:10301000A3420DDDA3EB040C0CEB0003181A20F007
:1030200007000444A7EB0C0706EBE30603F00700D8
:10303000002FB3DD1F9BDDF874C0CDE904030396B8
:103040008DE82012527C33483B4650F82200C2687B
:1030500055680A462146A847A0E71B9902980844EC
:1030600009902B49401E03900A68B2F90A30834246
:1030700043DCB2F90E10029881423EDB4FF0000AA9
:103080000D980B96D046009035E000BFBAF1000FC6
:1030900005D10B984FF0080A10F8014B0B900599D9
:1030A000AAEB090A34FA01F004FA09F4E4B204D1F3
:1030B00017490968097C890717D415490968C96B3C
:1030C0000A680C921F9A0AB152F820000860009911
:1030D0001A980A180846DDE90213521EFFF736FD5A
:1030E0000B490C980968C96B086000991A9808F197
:1030F000010808440090B845C8DB099802901D9863
:103100000BF1010B0644AB45A7DB47E7500000205D
:103110002C00002044000020002818D0410817D0BF
:10312000810817D0C10817D0010917D0410917D05D
:10313000010A17D0410A17D0010B15D0C10B13D0CB
:10314000010C11D0810C11D0000E11D0202070473D
:103150000120704702207047032070470420704709
:1031600005207047082070471020704712207047D4
:103170001820704700B50022FFF7CEFF012804D0C9
:10318000811E062903D808220BE0012209E0A0F1E4
:103190000901072901D8102203E011380F2800D8AF
:1031A0002022104600BD70B50C46054603E0A1B2D2
:1031B000284603F02DFC641EF9D270BD03F08EBCCE
:1031C00070B50D46044603E034F8020B03F086FCAC
:1031D0006D1EF9D270BD03F053BC000003490248D4
:1031E00008600846FEF7E7BB0030024008000020F8
:1031F000F0B5274885B0816941F04001816181695E
:1032000001F040010491816941F0100181618169FF
:1032100001F010010491816941F02001816181690F
:1032200001F020010491816941F00401816180690C
:10323000184E00F004004FF6FF740490002221465F
:103240003046FEF7C7FC144F4FF460450022294674
:103250003846FEF7BFFC0094032001240390694622
:1032600001943046FEF7D8FB0220CDE900540390CC
:1032700069463846FEF7D0FB802000900020019080
:10328000029069460548FEF7C7FB05B0F0BD000097
:1032900000100240001801400014014000100140DD
:1032A0000907090E002806DA00F00F0000F1E020FF
:1032B00080F8141D704700F1E02080F8001470477A
:1032C00010B5FEF793FCBDE81040FFF7C9BA000047
:1032D00030B593B0012528040421CDE90201022470
:1032E000CDE90050CDE908404FF4E010CDE90A04E3
:1032F0004FF4C0600C9040200D906846FEF7C2FE6F
:103300000F20CDE90E0400206102CDE910011290DA
:1033100002210EA8FEF7E6FCFEF728FE4FF47A71B4
:10332000B0FBF1F0FFF788FA0420FFF778FAE00627
:1033300090FAA0F00549B0FA80F041F82050002240
:103340001146501EFEF79CFC13B030BD00004242F7
:103350001048016841F00101016041680E4A1140C6
:10336000416001680D4A11400160016821F480212B
:103370000160416821F4FE014160016821F0A05123
:1033800001604FF47F0181600021C1620449C003E4
:1033900008607047001002400000FFF0FFFFF6FEDB
:1033A00008ED00E002490120096881F854007047E7
:1033B0002C0000202DE9F0418AB0040036D0FDF742
:1033C0001DFD0190D0E90012CDE90412876A056A5B
:1033D00001A8FDF721FD204600F0B6FA060025D031
:1033E000204600F004F98046B80704D52A46414635
:1033F00004A800F0F2FB2046FDF700FD01904046D6
:10340000FDF7FCFC06903046FDF7F8FC03900562E2
:103410000698019AC1691162C46101A8FDF7FCFC1C
:1034200006A8FDF7F9FC03A8FDF7F6FC0AB0BDE815
:10343000F08100002DE9FC5FDFF838A10746DDE9E7
:103440000C54DAF81400DDF83CB0984691460E466C
:1034500004434DB9BAF8020048B347480AF13801AD
:103460000068407C51F82050681C0ED0FDB1284601
:10347000FDF7C4FC0190B0F90010B0F902200F4430
:103480001644B9F1000F02D006E000250FE0B0F9B4
:103490000430591A01F10109B8F1000F04D1B0F953
:1034A0000600801A00F1010801A8FDF7B5FC0BF138
:1034B0002C00FDF70DFC5FEA000B57D0BAF80200B4
:1034C000401CAAF802005846FDF798FC00900780BF
:1034D00007EB09014680491E818006EB0801491E61
:1034E000C1800E990161254A816A2240114381629F
:1034F0006846FDF791FCDAF80C005E4650B1FDF726
:10350000A3FC07463046FDF79FFC014678694861F9
:103510007E6101E0CAF80CB02946584600F0AAFACC
:10352000A00602D5584600F041F9E00705D0DAF8C8
:10353000201001F10101CAF82010600602D558469A
:10354000FFF738FFA0070DD55846FDF757FC009050
:10355000816A41F0020181626846FDF75DFC5846D0
:1035600000F0F1F80121584600F072FB5846BDE822
:10357000FC9F0000880000202C0000209F3F0700D7
:1035800010B50446C168D4E90020172A0DD004DC28
:103590000E2A0CD0142A07D104E0222A0CD0282AA3
:1035A00002D10CE000F08BF90020E06010BD214654
:1035B000BDE8104000F018B96FF07040F5E7BDE8C5
:1035C000104000F0C0B80000034804490068407C87
:1035D00051F82000704700002C000020C00000209F
:1035E00010B5002802D0FDF72FFCC06910BD10B542
:1035F000002802D0FDF728FC806910BD2DE9FF5F8F
:103600002C4D6878002853D100272B48EF60AF621B
:103610000068DFF8A8903C464764AF806F804FF0A9
:10362000020A4FF0FF3B40F6FF7805F138062046CE
:10363000FDF7F6FC98B1CDE90297CDE900BA00217B
:10364000424643460846FFF7F5FE1A4A46F824006C
:1036500040326FF0704142F8241000F074F8641C9E
:10366000022CE4DB164FDFF85C80DFF85C9000246E
:1036700007EBC40000F0ECF808EBC40000F0E8F839
:1036800009EBC40000F0E4F8641C022CF0DB3068A5
:1036900000F08CF8FFF786FE012006496870303193
:1036A0000A48086004B00846BDE8F05FFEF738B984
:1036B000BDE8FF9F880000202C000020E166000884
:1036C00024C6002034C6002044C6002079560008D5
:1036D00070B586B00D4606002CD0FDF78FFB00902C
:1036E000846AA10723D5D0E90010CDE90110E003D9
:1036F00002D5304600F013FA5DB12868039068687F
:10370000049003A9009800F0ABF803A901A8FEF704
:1037100063F8314601A800F0ABF840B140F6010073
:103720000440012C08D001A9304600F0F5F96846A4
:10373000FDF772FB06B070BD0098026A816901A8AE
:1037400000F04BFAF3E70021FFF7C2BFFEB51546C4
:103750000E4604001CD0FDF751FB0246009090F885
:103760002800800711D5314601A8FEF752F860B154
:103770006846FDF751FB2A4601A9204601F0D0FE1C
:103780002046FFF72DFF04460CE06846FDF744FB9A
:10379000FEBD2A4601A92046FFF7D8FF2046FDF7C7
:1037A00053FB046A002CF4D1FEBD000070B50C4D33
:1037B00004002868866C01D10A49CC6884642046DC
:1037C00000F01EFAFFF706FB2046FDF73DFB2968D7
:1037D000B0F90020CA64B0F902000865304670BD37
:1037E0002C0000208800002070B50C00054609D090
:1037F000FFF7FDFE002805D02146A560BDE870401A
:1038000000F008BA70BD00000EB50E48006890F8D0
:10381000541009B10C4811E0806CFDF7EFFA0090EC
:10382000D0E90010CDE901106846FDF7F5FA074828
:10383000416A11B101A800F01BF801A802F07AF862
:103840000EBD00002C000020A4C500208800002030
:1038500002490A6802600860704700009800002072
:103860000B46B0F90220B0F900101846FDF77FBDF5
:1038700038B50C4605462046FDF7C0FA01460090D3
:1038800090F82800800703D46846FDF7C5FA12E0D7
:103890002846FDF7A1FF0098806920B104466846DC
:1038A000FDF7BAFAE7E76846FDF7B6FA204600F0FA
:1038B000F5FA002801DA002038BD012038BD38B5FE
:1038C0000C4600280AD0002C08D0FDF797FA2146B4
:1038D000009000F004F86846FDF79EFA38BD00221B
:1038E0004A800A8082880388D21A8A80C2884088E7
:1038F000101AC880704710B5FFF779FE002802D073
:10390000FDF7A2FAC06910BD0D4810B5006890F827
:103910005400002806D00B4C6069012803DD401ECE
:103920006061002010BD2069401C206101F058FA40
:1039300018B1FFF769FF012010BD6069EFE70000D3
:103940002C0000209CC5002070B50546FFF7D3FF72
:1039500008E0AC4201D1002406E0FDF775FA006AE8
:10396000A84201D00400F4D1204670BD10B5044631
:10397000FDF76AFA80690028F9D12046BDE81040B9
:1039800000F08CBAF0B5384E074687B0306890F832
:10399000541041B1354C6169491C6161012905DD53
:1039A000012007B0F0BDFFF72FFFF9E7806CFDF7AE
:1039B00025FA2F4D4FF0FF3100902161297821B178
:1039C00081680291C068039007E090F82810890789
:1039D0003CD5D0E90010CDE902101FB1394602A84C
:1039E000FDF7FAFE3068406C78B3009804903068B8
:1039F000406C0168059140680690686A30B104A87F
:103A0000FDF70AFA686AFDF7F9F9049005A9049828
:103A1000FFF726FF05A902A8FDF7DEFE0DF1100055
:103A2000FDF7FAF9696A19B102A8FFF721FFB0B1F1
:103A30003068816C02A8FFF71BFF80B1DDE902014D
:103A4000C4E90001FFF760FFABE706E06069401ED4
:103A500060616846FDF7E0F904E06846E0E7606908
:103A6000401E606100209CE72C0000209CC50020C7
:103A700088000020FEB50D00044647D0FDF7BEF9D2
:103A800000900021856101622846FDF7B7F9009991
:103A90000290C56991F8281001F008062DB128465A
:103AA000FDF7ACF9019036B115E0C4616846FDF749
:103AB000B3F902A828E090F8280000070BD5009879
:103AC00005620298C4616846FDF7A6F902A8FDF7F1
:103AD000A3F901A818E002A8FDF79EF901A8FDF7D7
:103AE0009BF92846FDF7B0F911E004620BE0284687
:103AF000FDF7AAF95EB990F82810090707D50198D3
:103B00000462009805626846FDF786F9FEBD0190E3
:103B1000056A002DEBD1E8E7202201F001BD38B5A0
:103B200004001ED0FDF76AF9009090F8281089076C
:103B300014D5406A20B1FDF793FB0099002048623C
:103B40002046FFF74DFD044606E02046FFF7E7FF5D
:103B50002046FDF779F9046A002CF6D16846FDF796
:103B60005BF938BD2DE9FF419846164607460D0022
:103B700031D00846FDF742F90090846A0246A0075A
:103B800026D5394601A8FDF744FE08B340F60100EA
:103B90000440012C07D0424601A9284601F0C0FC90
:103BA0000098C46912E000984346026A816901A83E
:103BB000FFF7D8FFF4E7B4420AD0424601A92046F5
:103BC000FFF7C4FD2046FDF73FF9046A002CF2D14F
:103BD0006846FDF721F9BDE8FF812023FFF7C2BF4A
:103BE000B0F90010B0F90420914205DCB0F90210E0
:103BF000B0F90600814201DD0020704701207047C6
:103C000010B5FFF7B3FE002803DBBDE81040FDF759
:103C1000E3BB10BD70B50D4C06460D462068142858
:103C20000DDA3046FDF710F901696E6041B1206888
:103C3000401C2060284688472068401E206070BDD8
:103C40002846BDE87040FFF79BBC0000040100203F
:103C50001FB5CDE900106946FFF7DCFF1FBD00006E
:103C60002DE9F0411B4D0C460646A968686B0144DE
:103C7000491EA019884205D8016819B941680E4447
:103C800001F0DEFD686BA0420AD254F8040C271A3A
:103C9000386828B978680644384601F0D1FD3C46BA
:103CA000304601F02BFB05EBC007324600212046D1
:103CB0003B6C02F0FFF857F8400F083400B1446045
:103CC0002060002060603C602868304428603046F6
:103CD000BDE8F0815CC400202DE9F041054601F00B
:103CE000CDFB2B48C46BAC4202D8ED1C25F003047D
:103CF000804600680C34A04202D20020BDE8F0816A
:103D000001F0D4FC0600F9D0204601F0F7FA424653
:103D100011E000BF02EBC001096C59B18D686B68FE
:103D2000A3420BD2A96829B18D686B68A34205D262
:103D3000002DF7D1401C1028ECD31FE0F5B1D8F8C6
:103D40003C00191B0C301F46814200D23C462846DD
:103D500001F076FD0421D8F8300001EBC601002304
:103D6000455022463146284602F0A4F8A74203DD1A
:103D70002919381BFFF774FF3046BFE7204601F0D2
:103D800079FD0028C0D0304601F0B0FCB5E7000056
:103D90005CC4002001207047F0B40E4C246814B1BC
:103DA000A446F0BC60470C4DDFF830C010C8521E6E
:103DB000E6B2AF5DC4F30726C4F307441CF80660FF
:103DC0002C5D04EB461404EBC7240C801944EDD1A0
:103DD000F0BC704710000020D87D0008D87E000895
:103DE0002DE9F0478146FEF7E1FE4FF00008074657
:103DF0006FF07F444546FEF7F1FE060018D000BF85
:103E000056F82510494502D12846BDE8F0876D1CBB
:103E1000BD42F5DB5FF00005484656F82510FDF77A
:103E20001FF8A04201D20446A8466D1CBD42F3DB38
:103E30004046EAE710B5C1B2064A074BC0F3072473
:103E4000C0F307401B5D105C515C00EB431000EBBE
:103E5000C12010BDD87D0008D87E00082DE9F05F94
:103E60009A46DDE90A8791460C4605468B4616467A
:103E700035F8020B41468847B84701C4761EF7D192
:103E80005046BAF1200F06D2024649465846BDE8D0
:103E9000F05FFDF749BBBDE8F09F00000146064A10
:103EA000002000BF52F820308B4204D0401C022872
:103EB000F8DB4FF0FF307047C0000020F7B5154623
:103EC000184A01A9009812689047174C0090206882
:103ED000406920B12946FDF759FA002821D0012078
:103EE000FDF7C0FC2068C069406920B18268DDE947
:103EF0000001904712E00D4D0CE06846FDF7B2FA64
:103F000006462068C069016830468847296809B1BB
:103F1000304688470198401E0190EED50020FDF7FD
:103F2000A1FCFEBDE80000202C0000204C00002079
:103F30002DE9FF4F85B08346DDE91390129ED0E94D
:103F400000A0DBF80850039047488C191F46006812
:103F50004FF08008007C10F0030006D0012865D0E7
:103F6000022819D0032814D160E0387828FA06F125
:103F7000084201D0039800E05046D5F82C1180B2D9
:103F80008847761C082E01D100267F1CB9F1010953
:103F9000EBD109B0BDE8F08F4FF0000ACDF808A0D2
:103FA000D5F86CB00194397828FA06F001420298ED
:103FB0000BD020B90120CDE90140D5F86CB00398B1
:103FC0002BF8020B0AF1010012E0012811D1631E47
:103FD00000200290079800900246D5F8A4C0284619
:103FE0000199E047D5F834215146E86E904700200A
:103FF0008246641C761C082E01D100267F1CB9F174
:104000000109D0D1BAF1000FC3D00798631E009008
:104010000246D5F8A44028460199A047D5F8342196
:10402000E86E09B05146BDE8F04F1047397828FADC
:1040300006F001420DD0D5F8E83021465846079ADF
:104040009847AB6AD5F8ECC0434021465846079ADA
:10405000E047641C761C082E01D100267F1CB9F1B4
:104060000109E3D195E700002C0000202DE9FF5F56
:104070009046DDE90E924B4B99F80050C2F10804CE
:104080008A465D5DDDE91071D540474A139E12688E
:10409000127C12F0030225D0012A03D0022A37D065
:1040A000032A7DD10069806880471FFA80FBBC42EB
:1040B00000D93C463F1BBAF1000F65D0E8070AD093
:1040C000DAF808004146039A036850469847318859
:1040D00081EA0B013180B61C6D0808F10108641EED
:1040E000ECD15BE02F4ABC4200D93C46B7EB040759
:1040F00005F001006D0831F8200026F8020B641E5F
:10410000F6D1002F4CD019F8010F0824155CEAE70E
:1041100088881FFA80FBBC4200D93C463F1BBAF19D
:10412000000F16D08DB1E80708D0DAF80800414634
:10413000039A036850469847A6F800B0B61C08F1E9
:104140000108641E11D06D08ECE706EB4406A0449C
:104150000BE045B1E80701D0A6F800B0B61C641E1C
:1041600003D06D08F5E706EB4406002F18D019F8C8
:10417000011F0C480824455CCDE719F8011F0948C8
:104180000824455C93E70BE0E80703D0308880EA19
:104190000B003080B61C6D08641EF5D1002FECD1E9
:1041A000BDE8FF9FE08000082C0000202DE9FF4FB4
:1041B00085B08668DDE9125714989B4600283AD0EE
:1041C0003F489BF800904C1900684FF0C008007CF5
:1041D00010F0030016D002282DD14FF0000ACDF8C0
:1041E0000CA0F06ECDE90140C5F103004100C1F122
:1041F000060228FA02F000EA0900C8402ED003990E
:10420000E1B120E0C5F103004100C1F1060228FA46
:1042100002F000EA0900C840149931F82000D6F8ED
:104220002C1180B288476D1C042D02D11BF8019F10
:1042300000257F1EE6D109B0BDE8F08F0121019471
:104240000391F16E0291149931F8200002990880CF
:104250000298801C02900AF1010013E003980128E3
:1042600011D1631E00200390079800900246D6F8F3
:10427000A4C030460199E047D6F834215146F06E8B
:10428000904700208246641C6D1C042D02D11BF84F
:10429000019F00257F1EA7D1BAF1000FCBD0079850
:1042A000631E00900246D6F8A44030460199A0470C
:1042B000D6F83421F06E09B05146BDE8F04F1047F2
:1042C0002C0000202DE9FF5F8B460FA9DDF8388018
:1042D000B1E82104C0F10401CCB298F8001040000C
:1042E00081402F48129F91460068CEB2007C10F0AA
:1042F000030004D001283AD002284FD114E0AC4288
:1043000000DDECB22D1BB1093AF8210027F8020BB1
:10431000B006060E641E14F0FF04F4D1002D3DD04B
:10432000042418F8016FEAE7AC4200DDECB22D1B63
:10433000B0090DD0B109BBF1000F3AF82100388067
:1043400006D0DBF808004946039A036858469847A8
:10435000B006BF1C060E641E09F1010914F0FF042B
:10436000E6D1002D1AD0042418F8016FDCE7AC4226
:1043700000DDECB22D1BB00903D0388880F0FF00BF
:104380003880B006BF1C060E641E14F0FF04F2D184
:10439000002D03D0042418F8016FE8E7BDE8FF9F63
:1043A0002C0000202DE9FF4F85B08668DDE912570B
:1043B00014989B4600283AD03F489BF800904C192F
:1043C00000684FF0F008007C10F0030016D00228BF
:1043D0002DD14FF0000ACDF80CA0F06ECDE90140D0
:1043E000C5F101008100C1F1040228FA02F000EADF
:1043F0000900C8402ED00399E1B120E0C5F10100C9
:104400008100C1F1040228FA02F000EA0900C84064
:10441000149931F82000D6F82C1180B288476D1C11
:10442000022D02D11BF8019F00257F1EE6D109B0A5
:10443000BDE8F08F012101940391F16E029114996E
:1044400031F82000029908800298801C02900AF13D
:10445000010013E00398012811D1631E002003908E
:10446000079800900246D6F8A4C030460199E0476C
:10447000D6F834215146F06E904700208246641CE5
:104480006D1C022D02D11BF8019F00257F1EA7D1B4
:10449000BAF1000FCBD00798631E00900246D6F801
:1044A000A44030460199A047D6F83421F06E09B0F7
:1044B0005146BDE8F04F10472C0000202DE9F05F79
:1044C00092460BAA8946B2E842010A9F9B468B009E
:1044D0003A78C1F102009A40D5B24D4A0E9CC0B262
:1044E0001268127C12F003021AD0012A79D0022A33
:1044F00038D100295FD028090DD02909B9F1000F62
:1045000038F82100208006D0D9F808005A465146D4
:10451000036848469847A41C0AF1010A761E48E041
:1045200039B12909761E38F8210024F8020B17F852
:10453000015F022E10DB701006F001062A0938F820
:10454000221005F00F02218038F822106180241D0E
:1045500017F8015F401EF1D1002E03D0290938F869
:1045600021002080BDE8F09F28090DD02909B9F16C
:10457000000F38F82100208006D0D9F808005A46EC
:10458000514603684846984715F00F000DD038F89B
:1045900020006080B9F1000F07D0D9F808005A4612
:1045A0000AF10101036848469847241D0AF1020AEE
:1045B000B61E17F8015F022ED6DA002ED2D02809D7
:1045C000D0D038F820002080B9F1000FCAD0D9F837
:1045D00008005A46514603684846BDE8F05F184750
:1045E000FFE7B04200DDF0B2361AA90903D02188F6
:1045F00081F0FF0121802907A41C0D0E401E10F040
:10460000FF00F2D1002EADD0022017F8015FE8E7DD
:104610002C0000202DE9FF4F83B08568DDE9107B79
:104620001E460C46BBF1000F20D02E480068007CCF
:1046300010F0030018D0022818D14FF00008D5F868
:104640006C90C246CDF8044016F8010BE8B1BAF1FF
:10465000000F0ED012E03078D5F82C113BF8200076
:1046600080B288477F1E761C002FF4DC07B0BDE8BF
:10467000F08F0194D5F86C904FF0010A3BF82000C0
:1046800029F8020B08F1010013E0BAF1010F11D172
:10469000059800900246D5F8A4C0631E4FF0000AAA
:1046A00028460199E047D5F834214146E86E904705
:1046B00000208046641C7F1EC6D1B8F1000FD5D003
:1046C0000598631E00900246D5F8A440284601993B
:1046D000A047D5F83421E86E07B04146BDE8F04F59
:1046E000104700002C0000202DE9F04387B08946D8
:1046F0000EA9B1E8F01181688DE8F011D1F8E04021
:104700004946A04707B0BDE8F08300002DE9FF4F00
:1047100083B099460398DDE91075DDE9138B86684F
:104720009246012D05D0022D03D0042D01D0082D75
:1047300006D132480068007C00F0030002280ED049
:104740000AEB0700401E00900498D6F8A44000EB46
:104750000B0101EB09035B1E52463046A0470024C3
:1047600046E0042D24D004DC012D07D0022D3CD1DD
:1047700011E0082D29D0102D37D131E01598CDF852
:1047800000B0CDE90190DDE9030104EB0A024346E4
:10479000FFF7CEFB29E01598CDF800B0CDE90190E8
:1047A000DDE9030104EB0A024346FFF7FFFC1CE0CE
:1047B0001598CDF800B0CDE90190DDE9030104EBD7
:1047C0000A024346FFF7EEFD0FE0159804EB0A02DC
:1047D000CDE90090DDE903014346FFF71BFF04E04C
:1047E000D6F834214946404690471299641C8844C3
:1047F000BC42B6DB07B0BDE8F08F00002C00002003
:104800002DE9FF4F8DB0A848DDE91D860068DDE980
:104810001A970C46006EFCF7F1FA0690406908B151
:10482000FCF7ECFA0A900698C068089006A8FCF716
:10483000F3FAA0190E900A9850B19B490968097CB7
:10484000890705D10EACCDF800900ECCFCF734FEF4
:10485000DDE90E0101F04AFE0446102F03D0182FA7
:104860005CDB002056E000251FE000BFDDE90EB054
:104870002844DDF828A0109E02905FEA08010FD0BE
:1048800020000DD07200FBF78FFCBAF1000F07D0AB
:10489000DAF808003346594647685046029AB84746
:1048A0001C986D1C8044089804444D45DEDBF1E003
:1048B0000A980390DDE90EB10B985FEA08050844F9
:1048C0000190DDF840A026461ED0EEB1039830B12D
:1048D0008068534659464768019A0398B8470D992E
:1048E00028680969096888473080039828B180687A
:1048F0005946019A036803989847B61C2D1D0BF181
:10490000010BBAF1010AEAD108981C9904440B98EA
:104910008844401C0B904845CADBBBE0082F03D0FD
:104920001F9800286CD06DE0002065E01F980028DB
:104930000A9832D0DDE90EA102900BEB0100009045
:104940001F9804905848109F454600682646007CF2
:1049500010F0030002D0022848D109E015F8011B2D
:1049600004987F1E30F8210026F8020BF6D13DE0B6
:10497000287858B1049931F820003080029828B185
:1049800080685146009A036802989847B61C6D1CCF
:104990000AF1010A7F1EEBD128E0DDE90EA10190AA
:1049A0000BEB010002904048109F464600682546E8
:1049B000007C10F0030002D0022817D105E03A462F
:1049C00041462046FBF7F0FB10E0307840B12880EC
:1049D000019828B1806851460368DDE901029847D3
:1049E000AD1C761C0AF1010A7F1EEED108981C99B5
:1049F000044488440BF101008346484596DB49E0B6
:104A00002A481F90002543E03846012F04D0022891
:104A10001CD0042F37D128E023480068006EFCF733
:104A2000EDF90690CDF80080109A1F990594CDE914
:104A30000310CDE901620F980A992B18DDE90D02E8
:104A4000FFF714FB06A8FCF7E7F91CE010991F9884
:104A5000CDE90086CDE902100F9804942B18DDE90A
:104A60000D020A99FFF72EFC0DE010991F98CDE971
:104A70000086CDE902100F9804942B18DDE90D0291
:104A80000A99FFF71BFD1C990898884404446D1C83
:104A90004D45B9DB0A98002802D00AA8FCF7BCF9FA
:104AA00011B0BDE8F08F00002C00002054800008F9
:104AB00038B584680092D4F8E440A04738BD08B502
:104AC000009200F037F908BD38B5846800930B46B2
:104AD000D4F8E440A04738BD2DE9FC47DFF8AC80AE
:104AE00081461E46D8F8000015468A46006EFCF73F
:104AF00085F90190406908B1FCF780F900902946DA
:104B0000504601F0F3FC04460198C768D8F800004D
:104B1000017CC90715D0D9F810008068804787B29A
:104B2000009820B181682A460B6851469847208832
:104B30006D1C784020800198B542C0680444EFDDC8
:104B400019E0C06B0168009870B11FFA81F80098F5
:104B50002A4681680B6851469847A4F800806D1C6E
:104B60003C44B542F3DD06E0701B401C89B2218055
:104B70003C44401EFBD101A8FCF74EF900980028E8
:104B800002D06846FCF748F9BDE8FC872C000020FD
:104B900001700120704700002DE9F047224C0426E7
:104BA000A06AE0B1E06806EBD0014518E800FFF725
:104BB00093F8070036D0216B06EBC700B1460E58BC
:104BC000E0680836C2003046D4F82880FBF7ECFADB
:104BD000A7622663E0684B4601466A1E0EE0124853
:104BE000BC30D0E901100830B1FBF0F5AD1CDDE7B9
:104BF000471C03EBC00C401C46F80C709042F7D3E6
:104C000009EBC0000022325021626068691A084432
:104C1000E56060605FEA080001D0FCF773F80020EF
:104C2000BDE8F0870120FBE75CC4002038B584684C
:104C3000049D0095D4F8E440A04738BD2DE9FF4F0E
:104C400083B03B4F03988B46164685683868DDF87D
:104C500040809946007C1946C207A3EB0B0A35D168
:104C600039E000BFD5F8C070EC6E3FB1CDE900640B
:104C70004B46324659460398B8470DE05F4608E078
:104C8000D5F8E830324639460398984724F8020BA5
:104C90007F1C4F45F4DDEC6E0AF1010005E0218830
:104CA0002A8D514024F8021B401E0028F7D100969F
:104CB000D5F8A4404B46324659462846A047D5F879
:104CC00034210AF10101E86E9047761C4645C9DDA2
:104CD00007B0BDE8F08FA8EB06000AF10104401C04
:104CE000CDF8008044430B46D5F8A4C0324659465F
:104CF0002846E04738680127D5F86890C06BD0F89F
:104D0000008011E02646FA2C00D9FA2637B1002798
:104D10001FFA88F132464846FCF730FED5F83421B8
:104D2000314648469047A41B002CEBD1D0E7000049
:104D30002C0000202DE9FF4FDFF8A0A00C4685B025
:104D4000DAF80000DDF848801F46C16B1546096897
:104D50000391006EFCF752F801902946204601F0BD
:104D6000C5FB06460198391B01F1010BD0F80C90E8
:104D7000406950B3FCF742F8A8EB0501491C0091CB
:104D80005B462A4602902146FCF796FB02A8FCF7F8
:104D900043F81AE0DAF80000007CC0070DD005984F
:104DA0005F46344600698068804780B22188414070
:104DB00024F8021B7F1EF9D105E003985A4681B200
:104DC0003046FCF7DBFD4E446D1C4545E2DD01A895
:104DD000FCF722F809B0BDE8F08F00002C0000209D
:104DE000FEB54F4CD4E90201CDE90001206970B352
:104DF000A089401C00B2ADF800006189ADF8021036
:104E0000B4F90410884207DD2088ADF80000E0897D
:104E100010F10100ADF80200BDF90200B4F906106E
:104E2000884274DC3F4D2868806CFBF7E7FF0290F6
:104E3000BDF90000B4F90010884220D1E088ADF837
:104E40000600A088ADF804002868806C0FE0FFE73A
:104E50002088ADF800006088DCE700BFFBF7F4FFB6
:104E60000646006A0022694600F0D5F8B0690028BD
:104E7000F4D1029800226946C06900F0CCF8BDF870
:104E80000000ADF804002868806C0AE0FBF7DCFF46
:104E90000646006A0022694600F046F80028EED176
:104EA000B0690028F2D1029800226946C06900F07A
:104EB0003BF80028E3D1B4F90400BDF90010ADF8C7
:104EC0000400884207DADDE90001C4E9020102A812
:104ED000FBF7A2FF98E72868806C08E0FBF7B4FFB7
:104EE0000546006A0022694600F05CF8A8690028BF
:104EF000F4D1029800226946C06900F053F802A874
:104F0000FBF78AFF206944F62061884201DD00201A
:104F1000FEBDDDE90001C4E902010120FEBD000083
:104F20009CC500202C000020FEB517460E46054605
:104F3000002433E02846FBF761FF0090856A0146B4
:104F4000A80726D527B13A4601A8FCF762FC03E082
:104F5000D1E90001CDE9010101A93046FCF716FABB
:104F6000B8B1E80702D00098C56910E0BDF80800A4
:104F7000401C308001240CE001AA31462846FFF78E
:104F8000D3FF00B101242846FBF75EFF056A002D20
:104F9000F2D10098056A6846FBF73EFF002DC9D1A3
:104FA0002046FEBDFEB516460D46044630E02046BE
:104FB000FBF724FF0090846A0146A00723D526B1A1
:104FC000324601A8FCF725FC03E0D1E90001CDE958
:104FD000010101A92846FCF7D9F9A0B1E00702D0E8
:104FE0000098C4690DE0BDF80400401EA8800AE0E6
:104FF00001AA29462046FFF7D5FF2046FBF724FFEC
:10500000046A002CF4D10098046A6846FBF704FF98
:10501000002CCCD1FEBDFEB516460D46044648E038
:105020002046FBF7EBFE0090846A0146A0073BD5C3
:1050300026B1324601A8FCF7ECFB03E0D1E9000100
:10504000CDE9010101A92846FCF7A0F900B3E0076A
:1050500002D00098C46925E000983EB1B0F9021072
:10506000B6F90200814203DD084601E0B0F9020012
:10507000B5F90210814205DABDF90600401E03E0D1
:10508000E88011E0BDF90A00B5F906108842F7DBA7
:105090000AE001AA29462046FFF7BDFF2046FBF79C
:1050A000D3FE046A002CF4D10098046A6846FBF72A
:1050B000B3FE002CB4D1FEBD0078704701207047CC
:1050C0008068012901D000207047406C70470000C3
:1050D000012901D0002070470048704794800008E3
:1050E0000D291CD008DC012914D00A290CD00B2969
:1050F0000CD00C2906D10BE016291AD0172913D091
:10510000182918D0002070470C4870470C48704789
:105110000C48704700688068D0F8F8007047006855
:105120008068D0F8F000704700688068D0F8F4001C
:105130007047054870470548704700000552000851
:10514000F151000861510008A1590008B15100084F
:10515000162901D00020704700487047DB12000874
:1051600070B50546FBF764FC4FF4FA70AC68FBF7CA
:10517000F1FDA066A16B2068C91DC9104843FBF76B
:10518000E9FDE06600220121A869FDF7E1FE054680
:10519000D4F8041120468847D4F8AC10204688473C
:1051A000002D01DD012070BD002070BD70470000A2
:1051B000F8B50D4DDDE906678468286867B10028F9
:1051C00009D10096D4F8A4602046B04754F8A40F43
:1051D000286006482060F8BD0028FCD0C4F8A40070
:1051E00000202860F8BD000058000020AD510008E4
:1051F00070B515460C460646FBF71AFCB068C0E9C8
:10520000004570BD70B515460C460646FBF710FC10
:10521000B068C0E9024570BD80680F292CD2DFE874
:1052200001F02B080A0C0E2B2B2B10121414161D38
:105230002400006870474068704780687047C06805
:105240007047806B7047002070470120704700282E
:10525000FCD090F8340000F0010070470028FCD02A
:1052600090F83400C0F3400070470028FCD090F85C
:105270003400C0F3800070474FF0FF307047006883
:10528000C268926A104770B500240D46022807DAFA
:10529000FBF7C6FE20B1C1688A6A294690470446DA
:1052A000204670BD10B5FDF781FCB0F5807F03D0BE
:1052B000802803D307211AE0082118E0402801D3F1
:1052C000062114E0202801D3052110E0102801D385
:1052D00004210CE0082801D3032108E0042801D3AD
:1052E000022104E0022801D3012100E00021012075
:1052F0008840401E10BD4FF6FF7070470146054ABA
:105300000F2000BF02EBC003DB6B8B4201D9401EB4
:10531000F8D570475CC400208368D3F8E83018479C
:1053200010B50846114601F0E1F8008810BD80680C
:1053300000220A804A800288521E8A808088401E8D
:10534000C880704738B50C468068FBF757FD009061
:1053500081882180C1886180818802891144491E29
:10536000A180C18840890844401EE0806846FBF760
:1053700053FD38BD02490968488400207047000089
:105380002C00002002490968888400207047000032
:105390002C000020F0B4124C646814B1A446F0BC98
:1053A0006047541E04FB030401EB82000D4DDFF83F
:1053B00038C0001F2188E41A01F01F06521EAF5D9D
:1053C000C1F3451605EBD1211CF80660097801EB05
:1053D000062101EB074140F80419EBD1F0BC7047FE
:1053E00010000020D87F0008F87F000870B5044640
:1053F000FDF7DCFB0546FDF7F1FBAC4201D30020D5
:1054000070BD0028FCD050F8240070BD70B5184D58
:105410000446E868011DC0E90E01091D00646161D0
:10542000417C05F1240050F82100C1680A6B04F1A9
:10543000080190470F48E066A868E061E868083016
:10544000606101202076FEF7BFF8A064032084F895
:1054500070006FF07040206360630020FDF790FCE7
:105460006FF07F40FDF7C4FC0348286170BD000069
:105470002000002044760008388000082DE9F04123
:10548000244C94F82400002841D1012504F1BC06E5
:1054900084F8245071684FF42050814200D90146AD
:1054A000306800F063FCB06810B970688008B060C4
:1054B0001A49194808600846FCF732FA5A20E06198
:1054C0000020102101FA00F204EBC003401CDA6353
:1054D0001028F7D3D6E900100223C4E902030E18FE
:1054E000143EC4E90C6100224FF0040C5B1E05E081
:1054F000571C0CEBC20E521C46F80E709342F7D8A4
:1055000025626360FEF7ACFBFFF746FBE562BDE892
:10551000F08100005CC4002005560008180000203F
:10552000FEB514460D460646FBF78EFC0090836AD6
:10553000980731D52846FEF753FB00282CD040F6BB
:1055400001000340012B27D03046FBF757FC0246F1
:105550000090294601A8FCF75CF901A8FEF740FB82
:10556000B8B1009944F22002886A104205D008318F
:1055700001AA0846FBF7CFFE0BE0DDE9012320433B
:105580008862C1E9022305498888401C8880FBF7AE
:1055900059FF6846FBF740FCFEBD00008800002074
:1055A00008467047104670470846704710467047D7
:1055B0000068401A401E70474068801A401E7047BD
:1055C0000068401A401E70474068801A401E7047AD
:1055D00010467047084670474068801A401E704762
:1055E0000068401A401E70471046704708467047D2
:1055F0004068801A401E70470068401A401E70477D
:10560000704700000B4910B5002081F824000146C6
:10561000084880223C30FCF78BF9BC220021054869
:10562000FCF786F903480C220021BDE81040BC308D
:10563000FCF77EB95CC40020084910B500208861E1
:10564000014678220648FCF773F904480822002135
:10565000BDE810402430FCF76BB9000020000020AA
:1056600024C5002010B5034C6068FBF767FB0020E1
:10567000606010BD780000200B4A10B50021517009
:10568000D162084602F1500402F14803C2F810103A
:1056900044F8201043F82010401C0228F8D311626F
:1056A00051625161D16110BD8800002010B50E4CCF
:1056B0006168E06A814209D8401EE062FFF76CFA37
:1056C000E16A491CE16208B1002010BD6068042253
:1056D000401E6060206A216B02EBC0028A58226281
:1056E000012201F8302010BD5CC40020074910B52C
:1056F0004A680424521C4A600A6B04EBC0040B6A1B
:105700001351002302F83030086210BD5CC4002041
:10571000D0F8B0100847016CD0F8D020896908464D
:105720001047016CD0F8D4208969084610473EB56F
:10573000016A0446D0F84421491C68469047206A13
:105740003DF810003EBD1CB5016A0446D0F8242186
:10575000891C68469047206A69460844008840BA18
:105760001CBDF8B55D1ADDE906676D1CB41A641C32
:105770006543846800962046D4F8A460B047206C46
:10578000D4F8D8302A46806901B03946BDE8F040E7
:105790001847F8B55D1ADDE906676D1CB41A641C7C
:1057A0006543846800962046D4F8A460B047206C16
:1057B000D4F8DC302A46806901B03946BDE8F040B3
:1057C00018472DE9FF410446DDE90A075D1AA46880
:1057D0006D1C861A761C75430090D4F8A460204690
:1057E000B047D4F8442101A8216A9047D4F8442155
:1057F000294638469047BDE8FF81FEB50546DDE9FC
:105800000804AE685D1A6D1C871A7F1C7D430090EA
:10581000D6F8A4703046B847D6F8242101A8316ADA
:105820009047D6F8242169002046904720466D1EF7
:1058300030F8021B49BA24F8021BF8D1FEBD000063
:1058400010B504464068FFF759FD014608486368F3
:105850000268D21A026000EBC102D4E902014032B0
:1058600000B1416009B1086010BD106010BD0000BA
:105870005CC400202DE9F05FDFF894808346D8F8FF
:105880003440D8F80810601E0F182046D0E90015E3
:10589000B9BB6619BE4236D2D6E9001989B3D8F829
:1058A000303013F83130012B2DD1D8F82820914217
:1058B00001D1012100E000218A46FFF7C1FF3068D5
:1058C000D8F83010042202EBC0004A460C50314692
:1058D0002046FAF769FCBAF1000F05D0D8F830106D
:1058E000321B891AC8F8301004EB09012846FEF76C
:1058F000B7F9BBF1000F05D0834503D80020BDE800
:10590000F09F00E04D462C44BC42BED30120F6E798
:105910005CC40020064910B509684A6B824206D073
:105920004863FCF7A1FFBDE81040FDF72FBA10BD9A
:105930002C0000201FB504460F480168486C38B1A0
:1059400002680292406803900C48406A18B901E06E
:1059500020460EE0886CFBF751FA02A90090FDF793
:105960007FFF6846FBF758FA214602A8FBF734FF91
:1059700002A8FDF717FA1FBD2C00002088000020A8
:10598000064910B509680A6B824206D00863FCF725
:105990006BFFBDE81040FDF731BA10BD2C000020B0
:1059A00070B514460D460646FBF742F8B06800286D
:1059B00010D0262D0FD0272D0CD1826B0021102A5C
:1059C00016D0122A06D100F1C8000CB10C4944616E
:1059D0000160416070BD816B102905D01229F9D199
:1059E000B8300849C461F3E7B0300749046204E005
:1059F00000F1C0000CB1054984614160016070BDD7
:105A000093570008235700081757000863570008EA
:105A100030B509490B681A7C82EA0004640707D58F
:105A20009C6BDB6B25681B6823600B68DB6B1D6060
:105A300009680874104630BD2C000020082907D0E2
:105A4000102904D1054940F8881F05494160704775
:105A5000044940F8881F0449F8E70000495D000840
:105A6000935E0008515D00089B5E00087047006867
:105A7000C3681B6A184700001CB50CA10446D1E995
:105A80000001CDE90001D4F888201121204690477B
:105A9000606BD4F88C201DF80010A08C20F038002A
:105AA00040F4D0400143204690471CBD30201000F8
:105AB00038281808F8B50446406B16460F4660B102
:105AC000D4F8FC30204698470546D4F800313246D9
:105AD000394620469847064600E00D462069A84210
