:020000040800F2
:1000000008C90020650100086D0100086F010008A3
:10001000710100087301000875010008000000006C
:100020000000000000000000000000007701000850
:1000300079010008000000007B0100081D3800085D
:100040007F0100087F0100087F0100087F01000890
:100050007F0100087F0100087F0100087F01000880
:100060007F0100087F0100087F0100087F01000870
:100070007F0100087F010008AD070008B9070008EC
:100080007F0100087F0100087F0100087F01000850
:100090007F0100087F0100087F0100087F01000840
:1000A0007F0100087F0100087F0100087F01000830
:1000B0007F0100087F0100087F0100087F01000820
:1000C0007F0100087F0100087F0100087F01000810
:1000D0007F010008F93A00087F0100087F0100084D
:1000E0007F0100087F0100087F0100080000000078
:1000F0000000000000000000000000000000000000
:1001000000000000000000007F0100087F010008DF
:100110007F0100087F0100087F0100087F010008BF
:100120007F0100087F0100087F0100087F010008AF
:100130007F0100087F0100087F0100087F0100089F
:100140007F0100087F0100087F0100087F0100088F
:10015000DFF80CD000F0C6FA0048004789740008A8
:1001600008C900200648804706480047FEE7FEE72A
:10017000FEE7FEE7FEE7FEE7FEE7FEE7FEE7FEE757
:10018000B538000851010008202A04DB203A21FA82
:1001900002F00021704721FA02F3D040C2F12002A0
:1001A000914008431946704710B5431A934209D24B
:1001B0008318881803E010F8011D03F8011D521E72
:1001C000F9D210BD40EA01039B0703D009E008C93A
:1001D000121F08C0042AFAD203E011F8013B00F80C
:1001E000013B521EF9D210BDD2B201E000F8012B42
:1001F000491EFBD270470022F6E710B513460A46A7
:1002000004461946FFF7F0FF204610BD2DE9FE4FCA
:10021000804681EA0300C00F0C46009021F00041A7
:1002200023F00045B8EB0200A94105D24046214623
:1002300090461C460B46024623F00040104347D030
:10024000270DC7F30A00C3F30A510290401A019028
:1002500040286BDAC3F3130040F4801B00989246E9
:1002600020B10023D2EB030A63EB0B0B0198594634
:10027000C0F14002504600F019F906460D465046BE
:100280005946019A00F021F910EB08006141002461
:1002900087EA115284EAE7731A4340D0009A62B3A6
:1002A000019A012A4FEA075215DC001B61EB02019B
:1002B0004FF0004202EA0752CDE90042001C41F52E
:1002C000801132462B4600F021F903B0BDE8F08FD3
:1002D00040462146F9E7001B61EB0201001C41F595
:1002E000801300185B412018A2F5001747EB0301AB
:1002F00040EAD570B6196D4111E06D084FEA360637
:1003000045EAC0754FEA0752001B61EB0201001C71
:1003100041F5801149084FEA300000195141324639
:100320002B4603B0BDE8F04F00F0E1B80098012281
:1003300040000023D0EB020263EBE07300982146FB
:100340004FEAE074B8EB000061EB0401E9E783F0E9
:1003500000435BE781F0004158E72DE9FE4F81EA59
:10036000030404F0004421F0004100944FF0000B1E
:1003700023F0004350EA01045ED052EA03045BD04C
:10038000C3F30A54C1F30A552C44A4F2F334019484
:10039000A0FB0254C1F3130141F48011C3F3130312
:1003A00043F4801301FB024400FB034E840A970AC6
:1003B00044EA815447EA8357A4FB076802958D0AF3
:1003C00005FB07854FEA932C04FB0C542705029D7F
:1003D0004FEA065847EA1637B5EB08056EEB070CEF
:1003E000870E920E47EA811742EA8312A7FB0201A9
:1003F000B6EB0B0164EB00042B0D43EA0C335E18E3
:1004000044EB1C50DA465146E7FB0201C5F31304E6
:100410004FEA0B3343EA14534FEA0432019C43EA98
:100420000603A4F10C040294009CCDE900B400F092
:100430006DF803B0BDE8F08F00200146F9E70EB576
:10044000C10F80EAE0700844CA07002140F233433C
:100450008DE80E000A460B4600F058F803B000BDC8
:100460000EB540F2334102910021CDE900110A4658
:100470000B4600F04BF803B000BDC1F30A5210B5B3
:10048000C1F3130140F2FF3341F480119A4201DAC3
:10049000002010BD40F233439A42A2F2334203DC03
:1004A0005242FFF771FE10BD904010BD202A04DBC0
:1004B000203A00FA02F1002070479140C2F1200377
:1004C00020FA03F3194390407047202A06DBCB172C
:1004D000203A41FA02F043EAE07306E041FA02F3FF
:1004E000D040C2F12002914008431946704710B530
:1004F000141E73F1000408DA401C41F10001921847
:100500005B411A4301D120F0010010BD2DE9F04DEF
:1005100092469B4611B1B1FA81F202E0B0FA80F244
:1005200020329046FFF7C2FF04460F4640EA0A0019
:1005300041EA0B0153465A46084313D0114653EA89
:10054000010019D0C8F140025046FFF71DFE0546D4
:100550000E46504659464246FFF7A8FF084305D0CD
:10056000012004E020463946BDE8F08D0020054317
:1005700046EAE0762C4337430A986305E40AA0EB89
:1005800008000022FD0A44EA47540A3002D5002040
:100590000146E9E7010510196941DDE9084500193F
:1005A0006941BDE8F04DA2E72DE9F04D81EA030471
:1005B00004F0004B21F0004514464FF0000A23F0F0
:1005C000004150EA050220D054EA01021DD0C5F3D3
:1005D0000A570246C5F31303C1F31300C1F30A56C9
:1005E00040F4801543F48013A7EB0608101BD64691
:1005F00008F2FD3873EB050002D308F1010801E0B1
:1006000092185B41B8F1000F03DA00200146BDE803
:10061000F08D00204FF48011064684460EE0171B33
:1006200073EB050705D3121B63EB050306434CEA86
:10063000010C49084FEA300092185B4150EA01076B
:10064000EDD152EA030012D082EA040083EA0501E8
:10065000084305D0101BAB4106D20122002306E05F
:1006600000224FF0004302E06FF0010253101AEB3A
:1006700006004CEB085110EB0A0041EB0B01BDE802
:10068000F04DFFF734BF70B521F0004303430CD0A9
:10069000C1F30A550024D5EB040564EB0403D61717
:1006A000AD1AB34102DB0020014670BD201841EBBA
:1006B000025170BD30B5041E71F1000404DB4FF02F
:1006C0000044404264EB0101141E73F1000405DB99
:1006D0001C464FF00043524263EB0403994208BFAB
:1006E000904230BD064C074D06E0E06840F0010343
:1006F00094E8070098471034AC42F6D3FFF72CFD7E
:10070000B08B0008D08B00082DE9F04D00231A466D
:100710001B1A8A4103DB00200146BDE8F08DC1F3BE
:100720000A52C1F3130141F480154FF0000BD107B9
:1007300002D100186D41521E0027044640F2FF11FD
:10074000384601EB620A3E468046024600204FF4DE
:100750008011FFF719FDC2197141BB1846EB01006A
:10076000B4EB030C75EB000C04D3E41A65EB000545
:1007700017460E46241908F101006D4180463428C1
:10078000E3DDF91946EB0600091BA84103D24FF03F
:10079000FF32134601E0002213461BEB070046EB35
:1007A0000A51BDE8F04DFFF7A2BE0000014800F07D
:1007B00053BF000074010020014800F04DBF00004D
:1007C0003C0100202DE9F047002426464FF08049E7
:1007D0004FF001082046FFF743FE02460B4600207B
:1007E000494606F079FE07460D4608FA04F0FFF781
:1007F00026FE3A462B46FFF7B0FD07460D4630462B
:10080000FFF72EFE3A462B46FFF700FDFFF735FEB9
:10081000641CE4B286B2102CDCD33046BDE8F0870D
:100820002DE9FF41002206460092019202926D4698
:10083000CDF80C2001F00100A854521C4908D2B296
:10084000102AF7D30024012707FA04F081B22A5DA9
:10085000304601F073FA641CE4B2102CF4D3BDE806
:10086000FF8170B50C46054600F0EEF8A8682168D7
:10087000C16261680163A1684163490707D5D0E996
:100880000021C0E90012D0E90221C0E90212A189C9
:1008900081842169002903D001DC4FF0000101624D
:1008A00070BD2DE9F0411E4617468846054600F00A
:1008B000CBF8AC686822414604F58470FFF774FCFD
:1008C0002846B8472846B047286980688047A06214
:1008D000BDE8F08110B5044600F0B6F8A0680C49F8
:1008E000483001660B49C1650B4941660B49C16639
:1008F0000B4981660B4981670B49C16730F8221C9F
:1009000021F0030120F8221C0849816410BD000079
:1009100059620008656300081D620008EB5E00086C
:10092000D35E0008675F00089F5F0008E161000870
:1009300010B5044600F088F8A4680C4890341021E3
:1009400020650B4860650B48A0650B48E0650B48C7
:10095000E0600B482061206BA06654F89029204687
:1009600090471020A0630748606410BD0D4E00083A
:100970008953000889090008B90A0008B55E000813
:100980002D660008C8890008F8B5846815460F462A
:1009900094F8260080074CD5D4F8FC3020469847C0
:1009A0000646D4F800312A46394620469847D4F8FE
:1009B000943005461BB1002201212046984720694A
:1009C000B04201DD012000E00020A169B14201DA5E
:1009D000012100E0002108436169A94201DD0121F4
:1009E00000E000210843E169A94201DA012100E0A9
:1009F000002108430AD06068401E00902368D4F8A4
:100A0000A4705B1E002211462046B847D4F8A830D7
:100A10002A46314620469847D4F89C1020468847FD
:100A2000D4F8943005466BB1012200212046984746
:100A300008E0D4F8A83020469847D4F89C10204607
:100A4000884705462846F8BD70B5044680680028EA
:100A500012D14FF4B875284600F088F92A460021D3
:100A6000A06000F091FDA0680221C184012104640E
:100A700001620249C0F8041170BD0000810A00083B
:100A800010B590B0044620220A496846FFF78CFB57
:100A900008492022203108A8FFF786FB606B5DF82B
:100AA0002010C4F8FC1008A951F82000C4F8000177
:100AB00010B010BDB47F00082DE9F8438468984653
:100AC000154694F826000F46800740D5D4F8FC3030
:100AD000204698470646D4F800312A463946204633
:100AE000984705462069B04201DD012000E0002062
:100AF000A169B14201DA012100E0002108436169E6
:100B0000A94201DD012100E000210843E169A94279
:100B100001DA012100E0002108430AD06068401E8C
:100B200000902368D4F8A4705B1E00221146204672
:100B3000B847D4F8A8302A46314620469847D4F81A
:100B4000A02001B041462046BDE8F0431047D4F84C
:100B5000A830F2E72DE9F04FDFF828B191B04FF05F
:100B6000FF35DBF80030B3F922100691DE69B3F9E6
:100B700024A0F469A189814206D8E289824203D384
:100B8000471AD4F8008012E0D4E90181002970D01E
:100B90000A8882426DD84D8885426AD3801A82B213
:100BA000486800EB8200B0F90070B0F90250781C80
:100BB0005FD0307EA27C014600FB02F9207CCDE9AB
:100BC0000810B3F92A60304602F092FBC0B20E90D2
:100BD000DBF8001007FB0980A37C8A6B0127CDE9B5
:100BE0000402CDE90273C869DDE90832C17E807E66
:100BF000CDE900015146069802F0B2F8681C18D001
:100C000046F0020002F074FBDBF80000A37C05FB59
:100C10000981826BCDE90273CDE90412C069DDE977
:100C20000832C17E807ECDE900015146069802F06F
:100C300097F8DBF800005D46C069417E007E814286
:100C400014D9022E12D086F0040002F051FB28685D
:100C5000C069027EC37E857E02FB03A1437E099AA2
:100C60000698534402FB050202F0DEF90E9802F0EA
:100C70003FFBDBF80000627C418C1144418411B0E1
:100C8000BDE8F08F2C00002004480068C069C069EE
:100C900009B1027C0A60407C704700002C000020F3
:100CA000022008807047C06982898A4202D8C289BE
:100CB0008A4210D2806880B102888A420DD8438867
:100CC0008B420AD3406800EB8100A0EB8200B0F9B0
:100CD0000000002801DB0120704700207047002839
:100CE00001D003F0A9BB704738B50546FFF7F7FF01
:100CF000040009D000F08EF82A460021009000F090
:100D000043FC684600F094F8204638BD024A106063
:100D100021F0030050607047C8C5002010B50028BE
:100D200014D004460A48006B10F8341000290DD086
:100D300002290BD2042101EBC4014158486803F099
:100D40003FFB2046BDE8104005F0A2B810BD0000F2
:100D50000CC50020002805D0034A916B016001B149
:100D600048609063704700000CC500202DE9F041F9
:100D7000044604F057FF2648E41C24F00305C16B29
:100D80002D1DA94200D90D46846B13E054F8042CA4
:100D9000AA420ED184B1216809B162684A606168D3
:100DA00009B122680A60826BA2422ED12168816358
:100DB0002BE02468002CE9D18046416B80680F1835
:100DC00057F8040C3E1A306838B1002005F024F9B9
:100DD00057F8040C3E1A3068B8B97068A84214DBA2
:100DE0003044441B304605F0FDF8D8F80810491B84
:100DF000C8F80810D8F810102944C8F81010706806
:100E00003146401B03F0DCFA20C42046BDE8F081E7
:100E10000CC5002005498A69521C8A61096B01EBE7
:100E2000C0010A78521C0A7000F01AB80CC50020E4
:100E30000A4902680B6B52F8082C03EBC2021378C4
:100E4000022B03D38B690BB15B1E8B611178491E9A
:100E50001170002101600846704700000CC5002099
:100E6000002806D00349042202EBC000096B085891
:100E7000083070470CC5002010B5C2B2CBB2D21AF0
:100E800002D5C2F1000212B293B2C0F30722C1F33D
:100E9000072403FB03F3121B01D5524212B2000CCC
:100EA00092B2A0EB114002FB023200B2002801DA3C
:100EB000404200B280B200FB002010BD10B50021FE
:100EC000084600F0E5F840F6FF725042BDE81040D9
:100ED00013460146AFF300802DE9FC4107461C464E
:100EE00015460E46042002F003FA80461148C068F9
:100EF000C16C006D0F4406440D440444ADF800700D
:100F0000ADF80450ADF80260ADF80640684603F055
:100F1000E9F807E023462A463146384602F084F8CD
:100F200003F0A2F80028F5D1404602F0E1F9BDE84F
:100F3000FC810000200000202DE9F0411C461646EF
:100F40000D460746022B02DB0020BDE8F0811C2085
:100F5000FFF70CFF0028F8D00DB105610AE0094A3F
:100F600052F8241009B905E011460A68002AFBD19D
:100F70000969016184618682002101604160C0E9E4
:100F80000217E2E74400002070B51D46FFF7D4FFCA
:100F9000040001D000F00EF8E068006820B90348B2
:100FA000006800EB85008465204670BD2C000020A1
:100FB000FFF7D0BE70B590B38269022A30DA1C4CBC
:100FC00054F8221019B944F822002FE019464B6852
:100FD000002BFBD106E0CB68C5681B682D68AB42CF
:100FE00003DD09680029F6D11AE0C1B1CB68C668F3
:100FF0001B683668B3420CD1838A012B05D008E008
:101000001946DB681B68AB4203DB0B68002BF7D18A
:1010100029B14B6833B118604A68426004E0FFE7C9
:10102000012070BD44F8220048600160002070BDBE
:101030004400002005F0E2BA022801DB00207047DE
:10104000054951F8200004E0C16809680029F6D07C
:1010500000680028F8D1704744000020034951F887
:101060002000C1688A6A082110470000440000205F
:10107000024951F8200000690068704744000020D0
:10108000024951F820000069406870474400002080
:1010900070B50D4604F042FD0446284604F046FDB6
:1010A000204370BD124810B5016821F001010160B4
:1010B0001048012181601049016000680F49884291
:1010C00000D0FEE700F0F8F90D492E20087000F07E
:1010D0005EF90C4804F06EFD05F03CFF044600216B
:1010E000084600F0E9F802F039FE204610BD000085
:1010F000002000E000300240C2A507F4CDB5E8B5FD
:1011000020000020D4C5002038B5040018D00D48B8
:101110000068006EA04201D100F0A8F82046FFF759
:1011200079FE0090406908B100F00EF9009800685F
:10113000FFF73EFF6846FFF77BFE2046FFF7EEFD18
:1011400038BD00002C00002038B5002460B1FFF746
:1011500061FE0090006800698068804702F078FABC
:1011600004466846FFF764FE204638BD38B5FFF7F1
:1011700051FE00F1180400906846FFF759FE204622
:1011800038BDF8B515460E460746FFF743FE0090FA
:1011900044696846FFF74CFE3846FFF7D5FF034623
:1011A000082800DD2CB12A463146384605F05CFAA5
:1011B000F8BD2A463146384605F0EEFBF8BD10B5BD
:1011C000002821D009B30AB3B1F90040B2F90030C8
:1011D0009C4200DA23460380B1F90240B2F90230A2
:1011E0009C4200DA23464380B1F90440B2F904304E
:1011F0009C4200DD23468380B1F90610B2F9062037
:10120000914200DC1146C18010BD11460A6802609F
:101210004968416010BD00280BD003880B4403804F
:10122000838819448180418811444180C1881144D8
:10123000C1807047B0F90220B1F906309A4213DC40
:10124000B1F90220B0F906309A420DDCB0F9002065
:10125000B1F904309A4207DCB1F90010B0F904008A
:10126000814201DC012070470020704710B501F079
:10127000D3FF02F085F8BDE8104002F043BC000047
:1012800070B504460548022C0068457C02D24474BF
:10129000FFF7ECFF02480460284670BD2C000020D8
:1012A0008C00002001F0DABF02F010B8014988601C
:1012B0007047000020000020094A30B41080094A1D
:1012C0001180094A1268537C084A52F82330DA68C0
:1012D000146A0A46A446014630BC1846604700001E
:1012E00050000020520000202C000020440000206C
:1012F00002480068002800D000477047E80000203E
:1013000002498A6802B98860FFF7F2BFDC0000205A
:101310000249014808607047707F000830000020D3
:101320002DE9F0411E46069C1746884605463A467A
:10133000A8687F1C3346D0F804C041462846E047E1
:10134000641EF4D1BDE8F08138B50546FFF762FDB3
:1013500000908189491E0CB284816846FFF768FDC0
:10136000002C02D12846FFF7D9FC38BD10B54CF24D
:1013700050310448FFF7CAFCBDE810400248FFF7AF
:1013800095BF0000BC010020E88600087047704748
:1013900010B5082A0EDC0346012A1AD0022A58D0BA
:1013A000042A78D010F8042B03F8012B491EF9D138
:1013B000012010BD102A0ADC0222022AF8D10246BE
:1013C00030F8043B22F8023B491EF9D1F0E7002037
:1013D00010BD10F8042BD207120E491E34D010F89D
:1013E000044B491E04F0010442EA84122CD010F888
:1013F000044B491E04F0010442EA441224D010F8C0
:10140000044B491E04F0010442EA04121CD010F8F7
:10141000044B491E04F0010442EAC40214D010F83F
:10142000044B491E04F0010442EA84020CD010F877
:10143000044B491E04F0010442EA440204D010F8AF
:10144000044B04F00104224303F8012B0029C0D10E
:10145000AEE710F8042B9207120E491E15D010F8B3
:10146000044B491E04F0030442EA04120DD010F8A4
:10147000044B491E04F0030442EA840205D010F82C
:10148000044B04F003042243491E03F8012B0029F6
:10149000DFD18DE7FFE710F8042B1207120E491E6B
:1014A00005D010F8044B04F00F042243491E03F842
:1014B000012B0029EFD17BE70A4810B5816900298B
:1014C0000ED101218161FFF751FF01F06BFF05494A
:1014D00005481C310860BDE81040084600F04CB8D3
:1014E00010BD000020000020DD5D0008B0F90030D4
:1014F000B1F90020934200DA0280B0F90230B1F96C
:101500000220934200DA4280B0F90430B1F904209D
:10151000934200DD8280B0F90620B1F906108A42BC
:1015200000DDC180704770B5B1F90040B2F90030FC
:101530009C4200DD23460380B1F90250B2F902401B
:10154000A54200DD2C464480B1F90460B2F9045094
:10155000AE4200DA35468580B1F90610B2F90620B0
:10156000914200DB1146C1809D4201DBA14201DABC
:10157000002070BD012070BD02494A694260486187
:10158000704700002000002010B502E000F8011BA9
:10159000521E0AB18307F9D1930818D001EB014418
:1015A00002F0030204EB042405E00460446084605C
:1015B000C46010301B1F042BF7DA01E010C05B1E63
:1015C000002BFBD103E000BF00F8011B521E002AD4
:1015D000FAD110BD10B5830702D520F8021B521EA8
:1015E000530810D001EB0144042B08DB0460446075
:1015F0008460C46010301B1F042BF7DA01E010C0B8
:101600005B1E002BFBD1D20700D0018010BD10B5AE
:10161000040002D0607910B106E0012010BD002066
:101620002071204600F004F801206071002010BDF8
:1016300008B500680649884208D10648416941F06A
:1016400040014161406900F04000009008BD000089
:1016500000300240001002402DE9F05F0446F94AD4
:10166000F84DF84EF74F0068DFF8D893DFF8D4A3B1
:10167000DFF8D0B3D114783D643E503F4FF4000EF4
:101680004FF4004C4FF40028A9F13C09AAF1280AB4
:10169000ABF1140B904221D9EB4A1368A8420FD04A
:1016A000B0420FD0B84213D0484513D0504513D0A4
:1016B000584501D1724624E0E34A083290423CD1B9
:1016C00008221EE080221CE0DF4A3032904239D1ED
:1016D0000A4616E0624614E0424612E0D94A803AD1
:1016E0001368A842ECD0B042ECD0B842F0D04845E4
:1016F000F0D05045F0D05845DCD0D24A9042DBD1F2
:101700000205134279D00268D243120775D40268E9
:1017100022F008020260CB4A2068904232D9A842E7
:1017200019D0B0421DD0B84228D0484523D05045EA
:1017300023D058450BD1714620E0C34A1C32904259
:10174000C2D1BFE7C04A44329042C5D1C2E7BE4AC7
:101750000832904201D1082110E0BB4A1C3290426D
:1017600001D180210AE0B84A3032904206D0B64911
:101770004431884201D1614600E04146B248001D33
:1017800001602CE0A84214D0B04218D0B84223D057
:1017900048451ED050451ED0584501D171461BE02A
:1017A000904202D14FF0006116E0A74A0832904201
:1017B00001D1082110E0A44A1C32904201D18021BD
:1017C0000AE0A14A3032904206D09F494431884213
:1017D00001D1614600E041469A4880384160606B23
:1017E00040F001006063042084F82100002084F8A8
:1017F0002000216B09B120468847924A20681115C4
:101800004FF4800E4FF4804C4FF48028904221D941
:101810008D4A1368A8420FD0B0420FD0B84213D0FF
:10182000484513D0504513D0584501D1724624E0A5
:10183000854A083290423FD104221EE040221CE03B
:10184000814A303290423CD10A4616E0624614E0AA
:10185000424612E07B4A803A1368A842ECD0B0427C
:10186000ECD0B842F0D04845F0D05045F0D05845C3
:10187000DCD0744A9042DBD1C204134275D00268B6
:10188000D243520771D40268920603D4026822F050
:10189000040202606B4A2068904232D9A84219D0F3
:1018A000B0421DD0B84228D0484523D0504523D05F
:1018B00058450BD1714620E0634A1C329042BFD19B
:1018C000BCE7614A44329042C2D1BFE75E4A083267
:1018D000904201D1042110E05B4A1C32904201D1B8
:1018E00040210AE0584A3032904206D056494431ED
:1018F000884201D1614600E041465348001D016025
:101900002CE0A84214D0B04218D0B84223D04845A9
:101910001ED050451ED0584501D171461BE0904263
:1019200002D14FF0806116E0474A0832904201D15F
:10193000042110E0444A1C32904201D140210AE0C7
:10194000414A3032904206D03F494431884201D169
:10195000614600E041463B4880384160112084F8F0
:101960002100E16A09B120468847364A20685115AE
:101970004FF4005C4FF4003E904228D9324B1B6874
:10198000A84212D0B04213D0B8421AD048451AD05B
:1019900050451AD0584502D14FF400182AE0DFF81C
:1019A000A88008F10808404544D14FF0020821E022
:1019B0004FF020081EE0DFF8908008F13008404525
:1019C00044D1884616E0E04614E0F04612E01D4B94
:1019D000803B1B68A842E8D0B042E9D0B842F0D0C2
:1019E0004845F0D05045F0D05845D5D09042D6D19A
:1019F0004FF0007813EA080F70D00368DB439B07B1
:101A00007FD403689B0603D4036823F002030360BA
:101A10002068904239D9A84221D0B04225D0B8429E
:101A20002FD048452AD050452AD0584513D14FF4DD
:101A3000001126E0DFF8108008F11C084045BAD1FB
:101A4000B6E700008000024000040240DFF8B880E2
:101A50004045BAD1B7E72C4A3C3A904201D1022125
:101A60000FE0294A283A904201D1202109E0264A74
:101A7000143A904205D02449884201D1614600E0E1
:101A800071462148403801602CE0A84215D0B04290
:101A900019D0B84224D048451ED050451FD05845D3
:101AA00002D14FF400111BE0904202D14FF00071BF
:101AB00016E0154A3C3A904201D1022110E0124A48
:101AC000283A904201D120210AE00F4A143A90426C
:101AD00006D00D49884202D1614601E011E071460D
:101AE0000A484160606B6063012084F82100002097
:101AF00084F82000A16A002903D02046BDE8F05FE9
:101B00000847BDE8F09F0000440402400000024086
:101B100070B520B190F82110002411B103E001202C
:101B200070BD80F82040022180F8211003681A68F7
:101B300043F6F0718A43D0E901152943D0E90356F1
:101B4000354329434569294385692943C5692943A3
:101B5000114319604463012180F82110002070BDF9
:101B600031B500F0F1F8044600F0EEF80099001BE2
:101B70008842F9D338BD00002DE9F84FDFF890A175
:101B800000220AF1040B144601274FF00F090BF154
:101B9000040E00BF0B6807FA04F52B40AB4274D16A
:101BA000DFF870C14E68A6EB0C0866452BD00DDC43
:101BB000032E34D005DC36B3012E19D0022E2FD1DE
:101BC0001BE0112E16D0122E2AD119E0B8F5881F6D
:101BD00019D006DCB8F5803F15D0B8F5801F1FD1AD
:101BE00011E0B8F5001F0ED0B8F5041F18D10AE0B7
:101BF000CA6815E0CA68121D12E0CA6808320FE010
:101C0000CA680C320CE08A682AB1012A4FF0080237
:101C100003D0456104E0042202E0056100E00022F7
:101C2000FF2B01D8064601E000F104064FEA8405C7
:101C300001D9A5F12005D6F800C009FA05F82CEA6B
:101C4000080C02FA05F54CEA050CC6F800C04D6810
:101C5000ED0057D5304DAE6946F00106AE61AD6975
:101C600024F0030605F0010500952C4D06EB050C4C
:101C7000DCF80850A6074FEA167809FA08F6B543CB
:101C8000274EB04202D1002610E03BE0254EB04284
:101C900001D101260AE0244EB04201D1022605E01E
:101CA000224EB04201D1032600E0042606FA08F6CF
:101CB0002E43CCF808604D68DAF80060ED03554615
:101CC00001D51E4300E09E432E604D68DBF80060A6
:101CD000AD035D4601D51E4300E09E432E604D6876
:101CE000DEF80060ED02754601D51E4300E09E431C
:101CF0002E604D68AD020E4D2E6801D51E4300E0EA
:101D00009E432E60641C102CFFF444AFBDE8F88F96
:101D100000040140000011100010024000000140CA
:101D200000080140000C0140001001400014014077
:101D30000C040140C2684A40C26070470AB10161A8
:101D400070470904FBE70000014800687047000085
:101D50000400002010B5040008D02068C168C94301
:101D6000C90705D1C068C043800701D4012010BD58
:101D7000607B20B900202073204600F018F8022074
:101D80006073216845F255500860206841686268B8
:101D900021F007011143416020688168A2686FF358
:101DA0000B011143816001206073002010BD70475A
:101DB0002DE9F0410446007B01280AD00126267354
:101DC00002206073FFF7C0FF054600274FF47A78C2
:101DD0000BE00220BDE8F081FFF7B6FF401B404555
:101DE00003D9032060732773F4E72068C068C043F9
:101DF0008007F1D521684AF6AA2008606673277328
:101E00000020E7E7017B01290FD001210222427364
:101E100003684CF6CC421A6003684AF6AA221A609C
:101E2000417300210173084670470220704700008B
:101E300002480168491C016070470000040000204E
:101E4000074810B5016841F010010160032000F05F
:101E50007DF8002000F006F800F016F8002010BD14
:101E60000020024010B5044600F0C6F94FF47A7124
:101E7000B0FBF1F000F052FE00222146501E00F0AF
:101E800045F8002010BD0000184808B5816941F0F0
:101E900001018161806900F001000090062000F0DE
:101EA00055F8002211466FF00B0000F02FF80022C9
:101EB00011466FF00A0000F029F8002211466FF079
:101EC000090000F023F800221146101F00F01EF850
:101ED00000221146501E00F019F80548416821F013
:101EE000E06141F00071416008BD00000010024057
:101EF0000000014000F01F020121914040098000D4
:101F000000F1E020C0F8001170470000F0B40E4B63
:101F10001B680C46C3F30223C3F10705042D00D947
:101F20000425191D072901D2002300E0DB1E01262C
:101F300006FA05F1491E214099409E40761E164042
:101F40003143F0BC01F05ABC0CED00E0064900F052
:101F5000070208684FF6FF03184040EA0220034AD0
:101F600010430860704700000CED00E00000FA0527
:101F70002DE9F047DFF8789205460E46D9F80000C3
:101F8000022300F00707012041044206994C41F268
:101F90008838B74271D2D9F800C02CF0070C4CEA4F
:101FA000060CC9F800C0D9F8007007F00707B7425F
:101FB0006FD12E78B60705D56668AF6826F0F006B3
:101FC0003E4366602E78F60756D06E68012E0BD021
:101FD000022E1ED093FAA3F1B1FA81F141F0200153
:101FE000490924D0216823E091FAA1F2B2FA82F2E1
:101FF00042F02002520901D0226800E0626A91FAA0
:10200000A1F1B1FA81F101F01F018840024240D0F4
:1020100017E092FAA2F1B1FA81F141F020014909E9
:1020200001D0216800E0616A92FAA2F202E0616ADE
:1020300093FAA3F2B2FA82F202F01F029040014238
:1020400027D0606820F0030030436060FFF77CFE1B
:1020500006466868012809D00228474613D01EE0CA
:10206000FFF772FE801BB84201D992E047466068D4
:10207000C0F381000128F3D1A1E015E0FFF764FE71
:10208000801BB84273D86068C0F381000228F5D184
:1020900095E092E0FFF758FE801BB84279D860685F
:1020A00010F00C0FF6D18AE02F78BF0707D56768CC
:1020B000D5F808C027F0F00747EA0C0767602F78CB
:1020C000FF076DD06F68012F0BD0022F1ED093FA3F
:1020D000A3F1B1FA81F141F02001490924D021682E
:1020E00023E091FAA1F2B2FA82F242F02002520900
:1020F00001D0226800E0626A91FAA1F1B1FA81F19F
:1021000001F01F018840024257D017E092FAA2F175
:10211000B1FA81F141F02001490901D0216800E0C4
:10212000616A92FAA2F202E0616A93FAA3F2B2FA49
:1021300082F202F01F02904001423ED0606820F01F
:10214000030038436060FFF7FFFD07466868012819
:1021500007D0022811D01FE0FFF7F6FDC11B414553
:1021600017D86068C0F381000128F5D118E010E0AD
:10217000FFF7EAFDC11B41450BD86068C0F3810041
:102180000228F5D10CE000BFFFF7DEFDC11B414581
:1021900002D90320BDE8F087606810F00C0FF3D17E
:1021A000D9F8001021F007013143C9F80010D9F81F
:1021B000000000F00700B04201D00120EAE72878D3
:1021C000400705D56068E96820F4E0600843606076
:1021D0002878000706D56068296920F4605040EA35
:1021E000C10060600020FFF73DFE0020D2E7000044
:1021F000002002400010024000B500F043F80849FA
:102200004968F02292FAA2F201F0F001B2FA82F2E9
:10221000D140044A515CC8400349086000BD000039
:1022200000100240207F00080000002000B5FFF7EA
:10223000E3FF074949684FF4E06292FAA2F201F421
:10224000E061B2FA82F2D140024A515CC84000BD5E
:1022500000100240207F000800B5FFF7CDFF0749BE
:1022600049684FF4605292FAA2F201F46051B2FA56
:1022700082F2D140024A515CC84000BD00100240C9
:10228000207F0008F0B52DA28AB007CA8DE80700AC
:102290002DA103AC0FC984E80F002F494B682F48CC
:1022A00003F00C02042A02D0082A02D02C480AB0FB
:1022B000F0BD4FF4701595FAA5F403F47012B4FA5A
:1022C00084F4E2406E461DF80220DB0333D5CB6A6E
:1022D0000F2494FAA4F403F00F03B4FA84F4E34057
:1022E00003ACE45CCB6ADB0316D5CB6AF02797FA24
:1022F000A7F703F0F003B7FA87F7C96AFB40AF12FC
:1023000097FAA7F701F47061B7FA87F7F9405B1CF9
:10231000B0FBF3F0891C4843B0FBF4F095FAA5F349
:1023200050434FF45011B3FA83F3D940715C91429A
:10233000BDD14008BBE70B485043B8E70000040597
:10234000060708090000000D01020304050607083E
:10235000090A0B0C0D0E0F100010024040787D0191
:1023600000127A0000093D002DE9F84F044600787C
:10237000FC4DC0074FF0010625D068687704C0F314
:102380008100012807D06868C0F3810002281BD1B2
:102390006868C00318D597FAA7F0B0FA80F040F04B
:1023A0002000400901D0286800E0686A97FAA7F188
:1023B000B1FA81F101F01F0106FA01F1084202D0E1
:1023C000A068002876D081E0286820F4803028605A
:1023D000286820F480202860FFF7B6FC804605E0DE
:1023E000FFF7B2FCA0EB080064287DD897FAA7F0AD
:1023F000B0FA80F040F02000400901D0286800E0E9
:10240000686A97FAA7F1B1FA81F101F01F0106FAA3
:1024100001F10842E4D1A068B0F5803F0BD010B1C3
:10242000B0F5A02F11D0286820F4803028602868EB
:1024300020F4802002E0286840F480302860A06802
:1024400020B3FFF781FC80460AE0286840F4802032
:102450002860F0E7FFF778FCA0EB08006428C4D8F8
:1024600097FAA7F0B0FA80F040F02000400901D0C0
:10247000286800E0686A97FAA7F1B1FA81F101F0E3
:102480001F0106FA01F10842E4D01FE0FFF75CFCEF
:10249000804605E0FFF758FCA0EB08006428A4D8AC
:1024A00097FAA7F0B0FA80F040F02000400902D07F
:1024B000286801E0B8E0686A97FAA7F1B1FA81F1FB
:1024C00001F01F0106FA01F10842E3D12078A64F7E
:1024D00080074FF002084FF000095BD568684FF0A5
:1024E000F80B10F00C0F00E01DE207D06868C0F395
:1024F000810002281BD16868C00318D498FAA8F09C
:10250000B0FA80F040F02000400901D0286800E0D7
:10251000686A98FAA8F1B1FA81F101F01F0106FA90
:1025200001F108422BD0606901287DD127E0606964
:1025300088B396FAA6F0B0FA80F047F82060FFF76B
:1025400003FC824606E000BFFFF7FEFBA0EB0A009B
:10255000022884D898FAA8F0B0FA80F040F0200061
:10256000400901D0286800E0686A98FAA8F1B1FA39
:1025700081F101F01F0106FA01F10842E4D0286858
:102580009BFAABF2A169B2FA82F220F0F800914016
:102590000843286025E0FFE796FAA6F1B1FA81F139
:1025A00047F82190FFF7D0FB824605E0FFF7CCFB10
:1025B000A0EB0A000228CCD898FAA8F0B0FA80F074
:1025C00040F02000400901D0286800E0686A98FACD
:1025D000A8F1B1FA81F101F01F0106FA01F10842F8
:1025E000E4D1207800076FD5E069C0B396FAA6F071
:1025F000B0FA80F007EB8000C0F88064FFF7A4FB1E
:10260000824605E0FFF7A0FBA0EB0A000228A0D855
:1026100098FAA8F1B1FA81F141F060014046B6EBB9
:10262000511F02D129680CE0A0E190FAA0F1B1FAA3
:1026300081F141F06001B0EB511F01D1296A00E046
:10264000696A98FAA8F0B0FA80F000F01F0206FA62
:1026500002F00142D6D00120FFF782FA34E0FFE712
:1026600096FAA6F1B1FA81F107EB8101C1F88094E5
:10267000FFF76AFB824605E0FFF766FBA0EB0A0066
:10268000022898D898FAA8F1B1FA81F141F06001D6
:102690004046B6EB511F01D129680BE090FAA0F13A
:1026A000B1FA81F141F06001B0EB511F01D1296A0B
:1026B00000E0696A98FAA8F0B0FA80F000F01F0212
:1026C00006FA02F00142D7D12078400773D5E869B5
:1026D00040F08050E861E869DFF890B000F0805089
:1026E0000090DBF8001041F48071CBF80010FFF788
:1026F0002BFB824606E000BFFFF726FBA0EB0A009B
:10270000642884D8DBF80000C005F5D5286A20F0DD
:1027100001002862286A20F004002862FFF714FBF9
:10272000834641F2883A05E0FFF70EFBA0EB0B0170
:102730005145A6D898FAA8F1B1FA81F141F04001CB
:102740004046B6EB511F01D1296812E090FAA0F182
:10275000B1FA81F141F04001B0EB511F08D1296A73
:1027600007E00000001002400000424200700040FC
:10277000696A98FAA8F0B0FA80F000F01F0006FA33
:1027800000F00142D0D1206901280AD008B1052803
:1027900012D0286A20F001002862286A20F0040084
:1027A00002E0286A40F001002862206998B3FFF730
:1027B000CBFA83460CE05BE0286A40F00400286214
:1027C000EFE700BFFFF7C0FAA0EB0B01514598D827
:1027D00098FAA8F1B1FA81F141F040014046B6EB18
:1027E000511F01D129680BE090FAA0F1B1FA81F1F3
:1027F00041F04001B0EB511F01D1296A00E0696A44
:1028000098FAA8F0B0FA80F000F01F0206FA02F081
:102810000142D7D02CE0FFE7FFF796FA834605E0A8
:10282000FFF792FAA0EB0B0151457CD898FAA8F17A
:10283000B1FA81F141F040014046B6EB511F01D1A0
:1028400029680BE090FAA0F1B1FA81F141F0400162
:10285000B0EB511F01D1296A00E0696A98FAA8F02B
:10286000B0FA80F000F01F0206FA02F00142D7D160
:10287000E16AA1B36868C00307D56868C0F3810046
:10288000022802D1E86AC00370D44FF080604FF094
:10289000006B02290DD0E96A21F48031E96290FAD7
:1028A000A0F0B0FA80F047F82090FFF74DFA80468C
:1028B00070E02968C90005D5E96A626B01F0F00192
:1028C000914253D14FF0806090FAA0F0B0FA80F0BE
:1028D00047F82090FFF738FA8246D84606E06EE0C7
:1028E000FFF732FAA0EB0A0064281CD898FAA8F087
:1028F000B0FA80F040F02000400901D0286800E0E4
:10290000686A98FAA8F1B1FA81F101F01F0106FA9C
:1029100001F10842E4D1E86A616B20F0F00008435D
:10292000E862E86A00E082E0216B20F4706008430E
:10293000E8624FF0806090FAA0F0B0FA80F047F8BB
:102940002060FFF701FA824606E000BFFFF7FCF9BE
:10295000A0EB0A0064286AD898FAA8F0B0FA80F0D0
:1029600040F02000400902D0286801E0A7E0686A32
:1029700098FAA8F1B1FA81F101F01F0106FA01F10C
:102980000842E3D01BE000BFFFF7DEF9A0EB080030
:1029900064284CD89BFAABF0B0FA80F040F02000ED
:1029A000400901D0286800E0686A9BFAABF1B1FAEF
:1029B00081F101F01F0106FA01F10842E4D1206A19
:1029C000A0B36968C1F38101022978D002284FF0D1
:1029D00080714FF0007A48460AD091FAA1F1B1FA1D
:1029E00081F147F82100FFF7AFF9074654466FE041
:1029F0008B4691FAA1F1B1FA81F1B94647F821006D
:102A0000FFF7A2F98046574606E000BFFFF79CF9A2
:102A1000A0EB0800022858D897FAA7F0B0FA80F087
:102A200040F02000400903D0286802E065E04CE057
:102A3000686A97FAA7F1B1FA81F101F01F0106FA6D
:102A400001F10842E2D1606AB0F5803F09D1E86A3D
:102A500061680843E862E86AE16820F00F00084313
:102A6000E862D4E909010843696821F47411084354
:102A700068609BFAABF0B0FA80F049F82060FFF78D
:102A800063F9044605E000BFFFF75EF9001B02286A
:102A90001BD897FAA7F0B0FA80F040F02000400968
:102AA00001D0286800E0686A97FAA7F1B1FA81F1CD
:102AB00001F01F0106FA01F10842E5D01DE01EE019
:102AC000FFF742F9C01B022802D90320BDE8F88FA6
:102AD00094FAA4F0B0FA80F040F02000400901D050
:102AE000286800E0686A94FAA4F1B1FA81F101F073
:102AF0001F0106FA01F10842E2D10020E6E70120B9
:102B0000E4E74FF0E0210428086903D020F0040036
:102B10000861704740F00400FAE7704710B5401EA6
:102B2000B0F1807F01D3012010BD4FF0E02460613F
:102B30000F21601700F062FE0020A06107202061D5
:102B4000002010BD10B5FFF7E8FF10BD7047000072
:102B500038B5044600680168C26811F0010F02F43C
:102B6000807204D01AB1E16B41F00101E1630168A8
:102B7000C1F34002416901F0010122B119B1E26BD8
:102B800042F00402E2630268C2F3800222B119B18A
:102B9000E26B42F00202E2630268C2F3C00222B1B9
:102BA00019B1E16B41F00801E1630168C068C1F34C
:102BB000401100F0200019B110B1204600F0A4FE31
:102BC00020680168C068C1F3C01100F0800019B12D
:102BD00010B1204600F05CFF21680868CA68C0F3A5
:102BE000801002F04002012570B16AB1CA68204627
:102BF00022F04002CA6094F83910322911D080F8CE
:102C0000395000BF00F09DF8E06B002808D0206824
:102C100001684068009084F839502046FFF796FF1D
:102C200038BD222180F83910ECE770B5040004D0DB
:102C300094F83900002510B106E0012070BD84F839
:102C40003850204600F020F8022084F8390020682F
:102C5000C16821F40051C160204600F0A9FE20683F
:102C6000016921F4904101612068416921F02A0144
:102C700041612068C16841F40051C160E5630120F1
:102C800084F83900002070BDF0B506460068274979
:102C900085B0884248D12648816941F480418161EC
:102CA0008069244D00F4804004904FF4007000903F
:102CB000022001900320039069462846FEF75CFF3E
:102CC00000242815CDE90004694628460294FEF741
:102CD00053FF1A4D1848C5E90004AC602020EC6091
:102CE000C701EF612C61C5E905402846FEF710FFDA
:102CF000756311486E623835143828601020C5E9B4
:102D000001048020C5E903046C61C5E90647284633
:102D1000FEF7FEFE35630022114625206E62FFF7A6
:102D2000F5F82520FFF7E6F805B0F0BD00380140C2
:102D30000010024000080140580002403C01002001
:102D4000704770470449054A0968497C52F82110C8
:102D500009690968084700002C0000204400002091
:102D60002DE9F04F05468DB07C48DDF860901A9C47
:102D700000681E4617464FF0000A78B11B9B199A4F
:102D8000CDF808900593CDE90324DDE91623CDE9BC
:102D90000023046833463A46284682E0DDE91602FD
:102DA00001EB060805EB070C1043A8F10108ACF194
:102DB000010C012806D0C9F10800059000200291FD
:102DC0000890C8E066480268B2F90A30581A00282C
:102DD00006DD361A002E65DD1946199B00FB0344FB
:102DE000B2F90E00A8EB0000002802DD361A002E12
:102DF00058DDB2F90C00ACEB0000002800DD3F1AF2
:102E0000B2F908300020AB4237DD581B3F1A4B4661
:102E1000B9F1080F28D007DC012B0DD0022B13D0FD
:102E2000B9F1040F29D117E0102B1FD0182B20D097
:102E3000B9F1200F21D11CE020F0070304EBE004DE
:102E40001D4400F0070018E020F0030304EBA00489
:102E50001D4400F0030010E020F0010304EB6004C7
:102E60001D4400F0010008E0044404E004EB4004C9
:102E700001E004EB800405440020002F12DD1B9BC1
:102E8000DDF864C0CDE90403CDE902C4CDE90069F1
:102E9000527C34483B4650F82200C26854680A46C7
:102EA0002946A0470DB0BDE8F08F17990298084455
:102EB00009902B49401E00900A68B2F90A308342FB
:102EC00041DCB2F90E10029881423CDB4FF0000B5E
:102ED000D84603950B9434E0BBF1000F05D10B9855
:102EE0004FF0080B10F801AB0B900599ABEB090BF9
:102EF0003AFA01F00AFA09F101F0FF0A04D118497F
:102F00000968097C890716D415490968C96B0A68DC
:102F10000C921B9A0AB152F8200008601699039887
:102F2000009B4218521E029900F07EF80C490C9842
:102F30000968C96B08600399169808F101080844EC
:102F40000390B845C8DB0898401C08900998029087
:102F5000199804440898B042A7DBA3E74C0000206E
:102F60002C00002044000020F0B40C4612490968EF
:102F7000B1F90A30A3421CDCB1F90E30A34218DBD0
:102F8000B1F90830834200DD1846B1F90C309342A4
:102F900000DA1A4682420CDB4B7C084951F8235078
:102FA00013462246E9688E6801462846B446F0BCBE
:102FB0006047F0BC704700002C0000204400002057
:102FC0000A46174930B40968B1F90A30934225DC42
:102FD000B1F90E30934221DBB1F9083083421DDC98
:102FE000B1F90C30834219DB0B7C0E4CDB0709D0A6
:102FF000497C54F82130D968CC690146A44630BCDC
:1030000018466047CB6B497C1B6854F82140E16847
:103010008D6901462046AC4630BC604730BC7047E5
:103020002C0000204400002038B5134C2468B4F96B
:103030000850854200DD2846B4F90C50954200DA6C
:103040002A46824217DBB4F90A508D4200DD294638
:10305000B4F90E509D4200DA2B468B420BDB0093F5
:10306000647C064B53F82440E3681D6913460A4606
:1030700001462046A84738BD2C000020440000200F
:10308000082102F0D4BC0000024809210068407CFD
:1030900002F0CDBC2C000020092102F0C8BC70B5A4
:1030A00000252C462046FDF7C7FF00B16D1C641CAF
:1030B000022CF7DB284670BD02480068407C00F017
:1030C00003B800002C00002010B5FDF7B5FF002864
:1030D00005D0C168CA6ABDE810400221104710BD82
:1030E000AFF300802DE9F041002809D0876837B19F
:1030F0000D4E716819B10468B4F5807F02DD0020BF
:10310000BDE8F0813068844200DD0446002507E018
:1031100057F82500FFF716FE716841F825006D1C71
:10312000A542F5DB7068EBE7740000200449054A0E
:103130000968497C52F8211009694968084700006C
:103140002C0000204400002010B500F01F01074AA9
:10315000074BC0F34514C0F3C4201B5D105C515CE9
:1031600000EB032000EB014010BD00000C890008BB
:103170002C89000810B50A4C606860B9206880008E
:10318000FDF7F4FD606040B104F1080105480860F6
:103190000846FEF7F1F9002010BD012010BD000027
:1031A00074000020095E00082DE9F041FFF777FF69
:1031B0000746002528E02846FDF73EFF18B32846BD
:1031C000FEF75EF880462846FFF75AFF082817DC0E
:1031D0000F48104950F825000069884210D0284651
:1031E000FFF75AFF0646002408E0E0B2FFF79EFF13
:1031F0000246E1B2284600F081F8641CB442F4DBD8
:103200004046FEF73DF86D1CBD42D4DBBDE8F081C1
:1032100044000020FC89000810B50E4C0E492068BF
:10322000407C51F8200050B1C1680968042903D0DE
:1032300000680028F8D102E008B1FDF7FBFE206825
:103240000021016600F108014161BDE8104000F075
:103250002FB800002C00002044000020014909681C
:103260004968084770000020044909680A7C520731
:1032700001D5C96B00E0896B086070472C00002005
:103280007CB5094C05462068417C084850F821006F
:10329000C1680A6B6946904720686A46294608302B
:1032A000FEF741F97CBD00002C0000204400002006
:1032B0000448016804484A7C083150F82200C2687A
:1032C000126B10472C0000204400002001490968BF
:1032D0000968084770000020044909680A7C520701
:1032E00001D5896B00E0C96B086070472C00002095
:1032F000014909688968084770000020F8B515463B
:103300000E460124FDF798FE009058B1C0681021C8
:10331000426A68469047030004D02A463146009826
:10332000984700242046F8BDF8B515460E460124FE
:10333000FDF782FE009058B1C0680B21426A6846D2
:103340009047030004D02A4631460098984700244D
:103350002046F8BDF8B515460E460124FDF76CFE73
:10336000009058B1C0680A21426A6846904703003D
:1033700004D02A4631460098984700242046F8BDDC
:1033800010B5074C2068006BFFF7DCFCFFF7A4FFCB
:103390002068406BFFF7D6FCBDE81040FFF764BF24
:1033A0002C00002030B59FB014211AA8FCF723FF91
:1033B00068216846FCF71FFF00231A46134914488A
:1033C000FDF7E2FD04464FF4A0752A46F0210020E7
:1033D000FFF7AAFF2A46F0210020FFF7BBFF0420D9
:1033E0001C901AA92046FDF73CFA0A4808900A48A2
:1033F00009900A480B900A480F900A4B0A4A6946FE
:103400002046FDF74EFA1FB030BD0000507F000887
:10341000807F0008B3360008993600089D36000802
:103420008336000831090008D508000810B50129C5
:1034300002D04FF0FF3010BD03F0E4FD002010BDBE
:103440002DE9FF4F8DB01746674ADDF870901E9E3C
:10345000209812681D4600248AB11D9B1F98CDE953
:103460000293CDE90460DDE91A03CDE90003146895
:103470002B463A460D98A04711B0BDE8F08F0D9A43
:1034800001EB050802EB070CDDE91A231A43A8F14A
:103490000108ACF1010C012A06D0C9F108004FF077
:1034A000000B029105909CE0504A1268B2F90A4064
:1034B000631A002B06DDED1A002DDDDD21461D9C73
:1034C00003FB0466B2F90E30A8EB0303002B02DD08
:1034D000ED1A002DD0DDB2F90C30ACEB0303002B5C
:1034E00000DDFF1A0D9B1C1AB2F90830A3420DDD56
:1034F000A3EB040C0CEB0003181A20F007000444A3
:10350000A7EB0C0706EBE30603F00700002FB3DD83
:103510001F9BDDF874C0CDE9040303968DE82012EB
:10352000527C33483B4650F82200C26855680A4630
:103530002146A847A0E71B990298084409902B4907
:10354000401E03900A68B2F90A30834243DCB2F9A4
:103550000E10029881423EDB4FF0000A0D980B9648
:10356000D046009035E000BFBAF1000F05D10B98AE
:103570004FF0080A10F8014B0B900599AAEB090AC5
:1035800034FA01F004FA09F4E4B204D117490968E5
:10359000097C890717D415490968C96B0A680C9218
:1035A0001F9A0AB152F82000086000991A980A1868
:1035B0000846DDE90213521EFFF736FD0B490C9851
:1035C0000968C96B086000991A9808F10108084455
:1035D0000090B845C8DB099802901D980BF1010BCB
:1035E0000644AB45A7DB47E74C0000202C00002039
:1035F00044000020002818D0410817D0810817D0B7
:10360000C10817D0010917D0410917D0010A17D0F6
:10361000410A17D0010B15D0C10B13D0010C11D0EA
:10362000810C11D0000E11D020207047012070476E
:103630000220704703207047042070470520704720
:1036400008207047102070471220704718207047DC
:1036500000B50022FFF7CEFF012804D0811E062905
:1036600003D808220BE0012209E0A0F10901072993
:1036700001D8102203E011380F2800D8202210466C
:1036800000BD70B50C46054603E0A1B2284603F024
:10369000D7FD641EF9D270BD03F038BE70B50D467B
:1036A000044603E034F8020B03F030FE6D1EF9D23D
:1036B00070BD03F0FDBD00000349024808600846E4
:1036C000FDF7A5BF00300240080000200D4808B5F6
:1036D000416941F0010141614069002200F00100AF
:1036E000009011460E20FEF711FC0E20FEF702FCA2
:1036F000002211460F20FEF709FCBDE808400F200C
:10370000FEF7F8BB00100240F0B5274885B081698C
:1037100041F040018161816901F0400104918169BA
:1037200041F010018161816901F01001049181690A
:1037300041F020018161816901F0200104918169DA
:1037400041F0040181618069184E00F004004FF6D9
:10375000FF740490002221463046FEF7EFFA144F22
:103760004EF29C05002229463846FEF7E7FA0094FF
:10377000032001240390694601943046FEF7FCF9CA
:103780000220CDE90054039069463846FEF7F4F96B
:103790008020009000200190029069460548FEF7C5
:1037A000EBF905B0F0BD0000001002400018014028
:1037B0000014014000100140054804490160002147
:1037C000416040F6FF718160FEF7C4BA00300040EE
:1037D000AC0100200848074901604FF4E131416025
:1037E000002181600C22C160C0E904128161C161C5
:1037F000FFF71BBA00380140FC0000200907090E42
:10380000002806DA00F00F0000F1E02080F8141D17
:10381000704700F1E02080F80014704710B5FEF703
:1038200007FBBDE81040FFF78DB9000030B593B03D
:10383000092000904FF48030012504210795CDE93F
:1038400002010224CDE9084001904FF4E010CDE9D7
:103850000A044FF4C0600C9040200D906846FEF7BB
:1038600083FD0F20CDE90E0400206102CDE9100197
:10387000129002210EA8FEF77BFBFEF7BDFC4FF471
:103880007A71B0FBF1F0FFF749F90420FFF739F93D
:10389000E00690FAA0F00649B0FA80F041F8205016
:1038A00000221146501EFEF731FB13B030BD000060
:1038B000000042421048016841F001010160416886
:1038C0000E4A1140416001680D4A114001600168D3
:1038D00021F480210160416821F4FE01416001680A
:1038E00021F0A05101604FF47F0181600021C1628D
:1038F0000449C00308607047001002400000FFF058
:10390000FFFFF6FE08ED00E010B590F8391022290F
:1039100003D0322901D0022010BD8168B1F5805F4B
:1039200011D00169002901681FD0496801F07F03A7
:10393000816A4A1C82620B70C18D491E0904090C00
:10394000C18518D030E00269816A002A0268526895
:1039500005D0D2B20A80816A491C8162ECE7C2F3C9
:1039600008020A80816A891CF7E74A68816A4B1C51
:1039700083620A70E0E70168CA6822F02002CA6028
:1039800090F83910322911D00168CA6822F4807287
:10399000CA6001684A6922F001024A615FF00101D0
:1039A00080F83910FFF7CCF9002010BD1221F7E79D
:1039B0002DE9F041044600680169E26821F44051B4
:1039C000114301612169A0680843616908432168C6
:1039D000CA6841F20C639A430243CA602068416995
:1039E000A26921F44071114341612849206864258E
:1039F0004FF03208884218D1FEF72EFC00EBC001D0
:103A000001EB001061688900B0FBF1F0B0FBF5F646
:103A1000FEF722FC00EBC00101EB00106168890099
:103A2000B0FBF1F7FEF718FC17E0FEF7FFFB00EB29
:103A3000C00101EB001061688900B0FBF1F0B0FB40
:103A4000F5F6FEF7F3FB00EBC00101EB0010616837
:103A50008900B0FBF1F7FEF7E9FB00EBC00101EBD9
:103A6000001061688900B0FBF1F0B0FBF5F06FF079
:103A70001801484307EB800108EB0110B0FBF5F09B
:103A8000216866F31F108860BDE8F08100380140AE
:103A900090F83910122903D0322901D00220704742
:103AA0008168B1F5805F016A0BD04A1C026202682E
:103AB00009785160C18C491E0904090CC1840ED0DB
:103AC00017E009880268C1F3080151600169002903
:103AD000016A02D0491C0162ECE7891CFBE701681E
:103AE000CA6822F08002CA600068C16841F04001E3
:103AF000C1600020704700000148FFF729B80000AE
:103B0000FC00002002490120096881F85400704738
:103B10002C0000202DE9F0418AB0040036D0FDF7DA
:103B200079F90190D0E90012CDE90412876A056A9B
:103B300001A8FDF77DF9204600F0B6FA060025D071
:103B4000204600F004F98046B80704D52A464146CD
:103B500004A800F0F2FB2046FDF75CF90190404616
:103B6000FDF758F906903046FDF754F903900562C9
:103B70000698019AC1691162C46101A8FDF758F95C
:103B800006A8FDF755F903A8FDF752F90AB0BDE8FC
:103B9000F08100002DE9FC5FDFF838A10746DDE980
:103BA0000C54DAF81400DDF83CB0984691460E4605
:103BB00004434DB9BAF8020048B347480AF1380146
:103BC0000068407C51F82050681C0ED0FDB128469A
:103BD000FDF720F90190B0F90010B0F902200F4470
:103BE0001644B9F1000F02D006E000250FE0B0F94D
:103BF0000430591A01F10109B8F1000F04D1B0F9EC
:103C00000600801A00F1010801A8FDF711F90BF177
:103C10002C00FDF769F85FEA000B57D0BAF80200F4
:103C2000401CAAF802005846FDF7F4F800900780FF
:103C300007EB09014680491E818006EB0801491EF9
:103C4000C1800E990161254A816A22401143816237
:103C50006846FDF7EDF8DAF80C005E4650B1FDF766
:103C6000FFF807463046FDF7FBF8014678694861E2
:103C70007E6101E0CAF80CB02946584600F0AAFA65
:103C8000A00602D5584600F041F9E00705D0DAF861
:103C9000201001F10101CAF82010600602D5584633
:103CA000FFF738FFA0070DD55846FDF7B3F8009091
:103CB000816A41F0020181626846FDF7B9F8584611
:103CC00000F0F1F80121584600F072FB5846BDE8BB
:103CD000FC9F0000840000202C0000209F3F070074
:103CE00010B50446C168D4E90020172A0DD004DCC1
:103CF0000E2A0CD0142A07D104E0222A0CD0282A3C
:103D000002D10CE000F08BF90020E06010BD2146EC
:103D1000BDE8104000F018B96FF07040F5E7BDE85D
:103D2000104000F0C0B80000034804490068407C1F
:103D300051F82000704700002C000020BC0000203B
:103D400010B5002802D0FDF78BF8C06910BD10B582
:103D5000002802D0FDF784F8806910BD2DE9FF5FCF
:103D60002C4D6878002853D100272B48EF60AF62B4
:103D70000068DFF8A8903C464764AF806F804FF042
:103D8000020A4FF0FF3B40F6FF7805F13806204667
:103D9000FDF752F998B1CDE90297CDE900BA0021BB
:103DA000424643460846FFF7F5FE1A4A46F8240005
:103DB00040326FF0704142F8241000F074F8641C37
:103DC000022CE4DB164FDFF85C80DFF85C90002407
:103DD00007EBC40000F0ECF808EBC40000F0E8F8D2
:103DE00009EBC40000F0E4F8641C022CF0DB30683E
:103DF00000F08CF8FFF786FE01200649687030312C
:103E00000A48086004B00846BDE8F05FFDF7B4BB9F
:103E1000BDE8FF9F840000202C000020856E000874
:103E2000D4C60020E4C60020F4C600201D5E0008B1
:103E300070B586B00D4606002CD0FCF7EBFF009065
:103E4000846AA10723D5D0E90010CDE90110E00371
:103E500002D5304600F013FA5DB128680390686817
:103E6000049003A9009800F0ABF803A901A8FDF79E
:103E70003DFB314601A800F0ABF840B140F601002F
:103E80000440012C08D001A9304600F0F5F968463D
:103E9000FCF7CEFF06B070BD0098026A816901A8E8
:103EA00000F04BFAF3E70021FFF7C2BFFEB515465D
:103EB0000E4604001CD0FCF7ADFF0246009090F8BF
:103EC0002800800711D5314601A8FDF72CFB60B111
:103ED0006846FCF7ADFF2A4601A9204601F0F4FE32
:103EE0002046FFF72DFF04460CE06846FCF7A0FFD4
:103EF000FEBD2A4601A92046FFF7D8FF2046FCF761
:103F0000AFFF046A002CF4D1FEBD000070B50C4D6B
:103F100004002868866C01D10A49CC688464204674
:103F200000F01EFAFFF7C4F92046FCF799FF296854
:103F3000B0F90020CA64B0F902000865304670BDCF
:103F40002C0000208400002070B50C00054609D02C
:103F5000FFF7FDFE002805D02146A560BDE87040B2
:103F600000F008BA70BD00000EB50E48006890F869
:103F7000541009B10C4811E0806CFCF74BFF009025
:103F8000D0E90010CDE901106846FCF751FF074861
:103F9000416A11B101A800F01BF801A802F09CF8D9
:103FA0000EBD00002C00002054C60020840000201C
:103FB00002490A680260086070470000940000200F
:103FC0000B46B0F90220B0F900101846FDF723B9EE
:103FD00038B50C4605462046FCF71CFF014600900C
:103FE00090F82800800703D46846FCF721FF12E010
:103FF0002846FDF77BFA0098806920B104466846A0
:10400000FCF716FFE7E76846FCF712FF204600F0D2
:10401000FFFA002801DA002038BD012038BD38B58C
:104020000C4600280AD0002C08D0FCF7F3FE2146ED
:10403000009000F004F86846FCF7FAFE38BD002254
:104040004A800A8082880388D21A8A80C28840887F
:10405000101AC880704710B5FFF779FE002802D00B
:10406000FCF7FEFEC06910BD0D4810B5006890F861
:104070005400002806D00B4C6069012803DD401E67
:104080006061002010BD2069401C206101F04EFAE3
:1040900018B1FFF769FF012010BD6069EFE700006C
:1040A0002C0000204CC6002070B50546FFF7D3FF5A
:1040B00008E0AC4201D1002406E0FCF7D1FE006A22
:1040C000A84201D00400F4D1204670BD10B50446CA
:1040D000FCF7C6FE80690028F9D12046BDE81040F3
:1040E00000F096BAF0B5384E074687B0306890F8C1
:1040F000541041B1354C6169491C6161012905DDEC
:10410000012007B0F0BDFFF72FFFF9E7806CFCF747
:1041100081FE2F4D4FF0FF3100902161297821B1B0
:1041200081680291C068039007E090F82810890721
:104130003CD5D0E90010CDE902101FB1394602A8E4
:10414000FDF7D4F93068406C78B30098049030687B
:10415000406C0168059140680690686A30B104A817
:10416000FCF766FE686AFCF755FE049005A9049802
:10417000FFF726FF05A902A8FDF7B8F90DF1100019
:10418000FCF756FE696A19B102A8FFF721FFB0B12A
:104190003068816C02A8FFF71BFF80B1DDE90201E6
:1041A000C4E90001FFF760FFABE706E06069401E6D
:1041B00060616846FCF73CFE04E06846E0E7606941
:1041C000401E606100209CE72C0000204CC60020AF
:1041D00084000020FEB50D00044647D0FCF71AFE0F
:1041E00000900021856101622846FCF713FE0099CA
:1041F0000290C56991F8281001F008062DB12846F3
:10420000FCF708FE019036B115E0C4616846FCF782
:104210000FFE02A828E090F8280000070BD50098B0
:1042200005620298C4616846FCF702FE02A8FCF72A
:10423000FFFD01A818E002A8FCF7FAFD01A8FCF7B1
:10424000F7FD2846FCF70CFE11E004620BE028465F
:10425000FCF706FE5EB990F82810090707D501980B
:104260000462009805626846FCF7E2FDFEBD01901D
:10427000056A002DEBD1E8E7202201F025BD38B515
:1042800004001ED0FCF7C6FD009090F828108907A6
:1042900014D5406A20B1FCF737FF0099002048622E
:1042A0002046FFF74DFD044606E02046FFF7E7FFF6
:1042B0002046FCF7D5FD046A002CF6D16846FCF7D1
:1042C000B7FD38BD2DE9FF419846164607460D005B
:1042D00031D00846FCF79EFD0090846A0246A00794
:1042E00026D5394601A8FDF71EF908B340F60100AE
:1042F0000440012C07D0424601A9284601F0E4FC05
:104300000098C46912E000984346026A816901A8D6
:10431000FFF7D8FFF4E7B4420AD0424601A920468D
:10432000FFF7C4FD2046FCF79BFD046A002CF2D188
:104330006846FCF77DFDBDE8FF812023FFF7C2BF83
:10434000B0F90010B0F90420914205DCB0F9021078
:10435000B0F90600814201DD00207047012070475E
:1043600010B5FFF7B3FE002803DBBDE81040FCF7F3
:1043700087BF10BD70B50D4C06460D462068142849
:104380000DDA3046FCF76CFD01696E6041B12068C2
:10439000401C2060284688472068401E206070BD71
:1043A0002846BDE87040FFF79BBC0000F4000020E9
:1043B0001FB5CDE900106946FFF7DCFF1FBD000007
:1043C0002DE9F0411B4D0C460646A968686B014477
:1043D000491EA019884205D8016819B941680E44E0
:1043E00001F000FE686BA0420AD254F8040C271AB0
:1043F000386828B978680644384601F0F3FD3C4631
:10440000304601F04FFB05EBC00732460021204645
:104410003B6C02F021F957F8400F083400B14460BA
:104420002060002060603C6028683044286030468E
:10443000BDE8F0810CC500202DE9F041054601F0F2
:10444000F1FB2B48C46BAC4202D8ED1C25F00304F1
:10445000804600680C34A04202D20020BDE8F08102
:1044600001F0F6FC0600F9D0204601F01BFB4246A5
:1044700011E000BF02EBC001096C59B18D686B6897
:10448000A3420BD2A96829B18D686B68A34205D2FB
:10449000002DF7D1401C1028ECD31FE0F5B1D8F85F
:1044A0003C00191B0C301F46814200D23C46284676
:1044B00001F098FD0421D8F8300001EBC60100237B
:1044C000455022463146284602F0C6F8A74203DD91
:1044D0002919381BFFF774FF3046BFE7204601F06B
:1044E0009BFD0028C0D0304601F0D2FCB5E70000AB
:1044F0000CC50020C10A01D003207047C00901D0BB
:10450000022070470120704701207047F0B40E4C24
:10451000246814B1A446F0BC60470C4DDFF830C0ED
:1045200010C8521EE6B2AF5DC4F30726C4F30744B9
:104530001CF806602C5D04EB461404EBC7240C80C9
:104540001944EDD1F0BC7047100000200C87000822
:104550000C8800082DE9F0478146FEF795FD4FF0E5
:10456000000807466FF07F444546FEF7A5FD0600AC
:1045700018D000BF56F82510494502D12846BDE89D
:10458000F0876D1CBD42F5DB5FF00005484656F82C
:104590002510FCF771FCA04201D20446A8466D1C10
:1045A000BD42F3DB4046EAE710B5C1B2064A074B0D
:1045B000C0F30724C0F307401B5D105C515C00EBA7
:1045C000431000EBC12010BD0C8700080C880008C8
:1045D0002DE9F05F9A46DDE90A8791460C460546CB
:1045E0008B46164635F8020B41468847B84701C44A
:1045F000761EF7D15046BAF1200F06D20246494640
:104600005846BDE8F05FFCF7C3BEBDE8F09F000070
:104610000146064A002000BF52F820308B4204D0E9
:10462000401C0228F8DB4FF0FF307047BC00002030
:104630002DE9FF4F85B08346DDE91390129ED0E946
:1046400000A0DBF80850039047488C191F4600680B
:104650004FF08008007C10F0030006D0012865D0E0
:10466000022819D0032814D160E0387828FA06F11E
:10467000084201D0039800E05046D5F82C1180B2D2
:104680008847761C082E01D100267F1CB9F101094C
:10469000EBD109B0BDE8F08F4FF0000ACDF808A0CB
:1046A000D5F86CB00194397828FA06F001420298E6
:1046B0000BD020B90120CDE90140D5F86CB00398AA
:1046C0002BF8020B0AF1010012E0012811D1631E40
:1046D00000200290079800900246D5F8A4C0284612
:1046E0000199E047D5F834215146E86E9047002003
:1046F0008246641C761C082E01D100267F1CB9F16D
:104700000109D0D1BAF1000FC3D00798631E009001
:104710000246D5F8A44028460199A047D5F834218F
:10472000E86E09B05146BDE8F04F1047397828FAD5
:1047300006F001420DD0D5F8E83021465846079AD8
:104740009847AB6AD5F8ECC0434021465846079AD3
:10475000E047641C761C082E01D100267F1CB9F1AD
:104760000109E3D195E700002C0000202DE9FF5F4F
:104770009046DDE90E924B4B99F80050C2F10804C7
:104780008A465D5DDDE91071D540474A139E126887
:10479000127C12F0030225D0012A03D0022A37D05E
:1047A000032A7DD10069806880471FFA80FBBC42E4
:1047B00000D93C463F1BBAF1000F65D0E8070AD08C
:1047C000DAF808004146039A036850469847318852
:1047D00081EA0B013180B61C6D0808F10108641EE6
:1047E000ECD15BE02F4ABC4200D93C46B7EB040752
:1047F00005F001006D0831F8200026F8020B641E58
:10480000F6D1002F4CD019F8010F0824155CEAE707
:1048100088881FFA80FBBC4200D93C463F1BBAF196
:10482000000F16D08DB1E80708D0DAF8080041462D
:10483000039A036850469847A6F800B0B61C08F1E2
:104840000108641E11D06D08ECE706EB4406A04495
:104850000BE045B1E80701D0A6F800B0B61C641E15
:1048600003D06D08F5E706EB4406002F18D019F8C1
:10487000011F0C480824455CCDE719F8011F0948C1
:104880000824455C93E70BE0E80703D0308880EA12
:104890000B003080B61C6D08641EF5D1002FECD1E2
:1048A000BDE8FF9F148A00082C0000202DE9FF4F6F
:1048B00085B08668DDE9125714989B4600283AD0E7
:1048C0003F489BF800904C1900684FF0C008007CEE
:1048D00010F0030016D002282DD14FF0000ACDF8B9
:1048E0000CA0F06ECDE90140C5F103004100C1F11B
:1048F000060228FA02F000EA0900C8402ED0039907
:10490000E1B120E0C5F103004100C1F1060228FA3F
:1049100002F000EA0900C840149931F82000D6F8E6
:104920002C1180B288476D1C042D02D11BF8019F09
:1049300000257F1EE6D109B0BDE8F08F012101946A
:104940000391F16E0291149931F8200002990880C8
:104950000298801C02900AF1010013E003980128DC
:1049600011D1631E00200390079800900246D6F8EC
:10497000A4C030460199E047D6F834215146F06E84
:10498000904700208246641C6D1C042D02D11BF848
:10499000019F00257F1EA7D1BAF1000FCBD0079849
:1049A000631E00900246D6F8A44030460199A04705
:1049B000D6F83421F06E09B05146BDE8F04F1047EB
:1049C0002C0000202DE9FF5F8B460FA9DDF8388011
:1049D000B1E82104C0F10401CCB298F80010400005
:1049E00081402F48129F91460068CEB2007C10F0A3
:1049F000030004D001283AD002284FD114E0AC4281
:104A000000DDECB22D1BB1093AF8210027F8020BAA
:104A1000B006060E641E14F0FF04F4D1002D3DD044
:104A2000042418F8016FEAE7AC4200DDECB22D1B5C
:104A3000B0090DD0B109BBF1000F3AF82100388060
:104A400006D0DBF808004946039A036858469847A1
:104A5000B006BF1C060E641E09F1010914F0FF0424
:104A6000E6D1002D1AD0042418F8016FDCE7AC421F
:104A700000DDECB22D1BB00903D0388880F0FF00B8
:104A80003880B006BF1C060E641E14F0FF04F2D17D
:104A9000002D03D0042418F8016FE8E7BDE8FF9F5C
:104AA0002C0000202DE9FF4F85B08668DDE9125704
:104AB00014989B4600283AD03F489BF800904C1928
:104AC00000684FF0F008007C10F0030016D00228B8
:104AD0002DD14FF0000ACDF80CA0F06ECDE90140C9
:104AE000C5F101008100C1F1040228FA02F000EAD8
:104AF0000900C8402ED00399E1B120E0C5F10100C2
:104B00008100C1F1040228FA02F000EA0900C8405D
:104B1000149931F82000D6F82C1180B288476D1C0A
:104B2000022D02D11BF8019F00257F1EE6D109B09E
:104B3000BDE8F08F012101940391F16E0291149967
:104B400031F82000029908800298801C02900AF136
:104B5000010013E00398012811D1631E0020039087
:104B6000079800900246D6F8A4C030460199E04765
:104B7000D6F834215146F06E904700208246641CDE
:104B80006D1C022D02D11BF8019F00257F1EA7D1AD
:104B9000BAF1000FCBD00798631E00900246D6F8FA
:104BA000A44030460199A047D6F83421F06E09B0F0
:104BB0005146BDE8F04F10472C0000202DE9F05F72
:104BC00092460BAA8946B2E842010A9F9B468B0097
:104BD0003A78C1F102009A40D5B24D4A0E9CC0B25B
:104BE0001268127C12F003021AD0012A79D0022A2C
:104BF00038D100295FD028090DD02909B9F1000F5B
:104C000038F82100208006D0D9F808005A465146CD
:104C1000036848469847A41C0AF1010A761E48E03A
:104C200039B12909761E38F8210024F8020B17F84B
:104C3000015F022E10DB701006F001062A0938F819
:104C4000221005F00F02218038F822106180241D07
:104C500017F8015F401EF1D1002E03D0290938F862
:104C600021002080BDE8F09F28090DD02909B9F165
:104C7000000F38F82100208006D0D9F808005A46E5
:104C8000514603684846984715F00F000DD038F894
:104C900020006080B9F1000F07D0D9F808005A460B
:104CA0000AF10101036848469847241D0AF1020AE7
:104CB000B61E17F8015F022ED6DA002ED2D02809D0
:104CC000D0D038F820002080B9F1000FCAD0D9F830
:104CD00008005A46514603684846BDE8F05F184749
:104CE000FFE7B04200DDF0B2361AA90903D02188EF
:104CF00081F0FF0121802907A41C0D0E401E10F039
:104D0000FF00F2D1002EADD0022017F8015FE8E7D6
:104D10002C0000202DE9FF4F83B08568DDE9107B72
:104D20001E460C46BBF1000F20D02E480068007CC8
:104D300010F0030018D0022818D14FF00008D5F861
:104D40006C90C246CDF8044016F8010BE8B1BAF1F8
:104D5000000F0ED012E03078D5F82C113BF820006F
:104D600080B288477F1E761C002FF4DC07B0BDE8B8
:104D7000F08F0194D5F86C904FF0010A3BF82000B9
:104D800029F8020B08F1010013E0BAF1010F11D16B
:104D9000059800900246D5F8A4C0631E4FF0000AA3
:104DA00028460199E047D5F834214146E86E9047FE
:104DB00000208046641C7F1EC6D1B8F1000FD5D0FC
:104DC0000598631E00900246D5F8A4402846019934
:104DD000A047D5F83421E86E07B04146BDE8F04F52
:104DE000104700002C0000202DE9F04387B08946D1
:104DF0000EA9B1E8F01181688DE8F011D1F8E0401A
:104E00004946A04707B0BDE8F08300002DE9FF4FF9
:104E100083B099460398DDE91075DDE9138B866848
:104E20009246012D05D0022D03D0042D01D0082D6E
:104E300006D132480068007C00F0030002280ED042
:104E40000AEB0700401E00900498D6F8A44000EB3F
:104E50000B0101EB09035B1E52463046A0470024BC
:104E600046E0042D24D004DC012D07D0022D3CD1D6
:104E700011E0082D29D0102D37D131E01598CDF84B
:104E800000B0CDE90190DDE9030104EB0A024346DD
:104E9000FFF7CEFB29E01598CDF800B0CDE90190E1
:104EA000DDE9030104EB0A024346FFF7FFFC1CE0C7
:104EB0001598CDF800B0CDE90190DDE9030104EBD0
:104EC0000A024346FFF7EEFD0FE0159804EB0A02D5
:104ED000CDE90090DDE903014346FFF71BFF04E045
:104EE000D6F834214946404690471299641C8844BC
:104EF000BC42B6DB07B0BDE8F08F00002C000020FC
:104F00002DE9FF4F8DB0A848DDE91D860068DDE979
:104F10001A970C46006EFBF77DFF0690406908B1BA
:104F2000FBF778FF0A900698C068089006A8FBF780
:104F30007FFFA0190E900A9850B19B490968097C1F
:104F4000890705D10EACCDF800900ECCFCF7E8F93E
:104F5000DDE90E0101F09CFE0446102F03D0182F4E
:104F60005CDB002056E000251FE000BFDDE90EB04D
:104F70002844DDF828A0109E02905FEA08010FD0B7
:104F800020000DD07200FBF70FF9BAF1000F07D027
:104F9000DAF808003346594647685046029AB8473F
:104FA0001C986D1C8044089804444D45DEDBF1E0FC
:104FB0000A980390DDE90EB10B985FEA08050844F2
:104FC0000190DDF840A026461ED0EEB1039830B126
:104FD0008068534659464768019A0398B8470D9927
:104FE00028680969096888473080039828B1806873
:104FF0005946019A036803989847B61C2D1D0BF17A
:10500000010BBAF1010AEAD108981C9904440B98E3
:105010008844401C0B904845CADBBBE0082F03D0F6
:105020001F9800286CD06DE0002065E01F980028D4
:105030000A9832D0DDE90EA102900BEB010000903E
:105040001F9804905848109F454600682646007CEB
:1050500010F0030002D0022848D109E015F8011B26
:1050600004987F1E30F8210026F8020BF6D13DE0AF
:10507000287858B1049931F820003080029828B17E
:1050800080685146009A036802989847B61C6D1CC8
:105090000AF1010A7F1EEBD128E0DDE90EA10190A3
:1050A0000BEB010002904048109F464600682546E1
:1050B000007C10F0030002D0022817D105E03A4628
:1050C00041462046FBF770F810E0307840B1288068
:1050D000019828B1806851460368DDE901029847CC
:1050E000AD1C761C0AF1010A7F1EEED108981C99AE
:1050F000044488440BF101008346484596DB49E0AF
:105100002A481F90002543E03846012F04D002288A
:105110001CD0042F37D128E023480068006EFBF72D
:1051200079FE0690CDF80080109A1F990594CDE97C
:105130000310CDE901620F980A992B18DDE90D02E1
:10514000FFF714FB06A8FBF773FE1CE010991F98ED
:10515000CDE90086CDE902100F9804942B18DDE903
:105160000D020A99FFF72EFC0DE010991F98CDE96A
:105170000086CDE902100F9804942B18DDE90D028A
:105180000A99FFF71BFD1C990898884404446D1C7C
:105190004D45B9DB0A98002802D00AA8FBF748FE63
:1051A00011B0BDE8F08F00002C00002088890008B5
:1051B00038B584680092D4F8E440A04738BD08B5FB
:1051C000009200F05DF908BD38B5846800930B4685
:1051D000D4F8E440A04738BD2DE9FC47DFF8AC80A7
:1051E00081461E46D8F8000015468A46006EFBF739
:1051F00011FE0190406908B1FBF70CFE00902946B2
:10520000504601F045FD04460198C768D8F80000F3
:10521000017CC90715D0D9F810008068804787B293
:10522000009820B181682A460B685146984720882B
:105230006D1C784020800198B542C0680444EFDDC1
:1052400019E0C06B0168009870B11FFA81F80098EE
:105250002A4681680B6851469847A4F800806D1C67
:105260003C44B542F3DD06E0701B401C89B221804E
:105270003C44401EFBD101A8FBF7DAFD0098002852
:1052800002D06846FBF7D4FDBDE8FC872C00002067
:1052900070B504460D460846FFF72CF9012812D0D8
:1052A000022812D003280DD1E02141EA15312170E6
:1052B000C5F3851141F08001617005F03F0141F0B7
:1052C0008001A17070BD257070BDC02141EA9511AB
:1052D000217005F03F0141F08001617070BD0170E7
:1052E000012070472DE9F047224C0426A06AE0B166
:1052F000E06806EBD0014518E800FFF79DF80700CD
:1053000036D0216B06EBC700B1460E58E068083670
:10531000C2003046D4F82880FAF746FFA762266319
:10532000E0684B4601466A1E0EE01248BC30D0E9E8
:1053300001100830B1FBF0F5AD1CDDE7471C03EBB5
:10534000C00C401C46F80C709042F7D309EBC0002B
:105350000022325021626068691A0844E56060608A
:105360005FEA080001D0FBF7D9FC0020BDE8F08718
:105370000120FBE70CC5002038B58468049D00952A
:10538000D4F8E440A04738BD2DE9FF4F83B03B4F30
:1053900003988B46164685683868DDF84080994644
:1053A000007C1946C207A3EB0B0A35D139E000BFD8
:1053B000D5F8C070EC6E3FB1CDE900644B46324683
:1053C00059460398B8470DE05F4608E0D5F8E83045
:1053D000324639460398984724F8020B7F1C4F4504
:1053E000F4DDEC6E0AF1010005E021882A8D5140C0
:1053F00024F8021B401E0028F7D10096D5F8A440DF
:105400004B46324659462846A047D5F834210AF182
:105410000101E86E9047761C4645C9DD07B0BDE83E
:10542000F08FA8EB06000AF10104401CCDF80080C3
:1054300044430B46D5F8A4C0324659462846E047B7
:1054400038680127D5F86890C06BD0F8008011E06B
:105450002646FA2C00D9FA2637B100271FFA88F120
:1054600032464846FCF7B6F8D5F83421314648466E
:105470009047A41B002CEBD1D0E700002C000020AB
:105480002DE9FF4FDFF8A0A00C4685B0DAF8000048
:10549000DDF848801F46C16B154609680391006E10
:1054A000FBF7B8FC01902946204601F0F1FB0646C7
:1054B0000198391B01F1010BD0F80C90406950B3F1
:1054C000FBF7A8FCA8EB0501491C00915B462A46A6
:1054D00002902146FBF724FF02A8FBF7A9FC1AE083
:1054E000DAF80000007CC0070DD005985F4634460E
:1054F00000698068804780B22188414024F8021BFF
:105500007F1EF9D105E003985A4681B23046FCF778
:1055100061F84E446D1C4545E2DD01A8FBF788FCAF
:1055200009B0BDE8F08F00002C000020FEB54F4C04
:10553000D4E90201CDE90001206970B3A089401CC3
:1055400000B2ADF800006189ADF80210B4F90410A2
:10555000884207DD2088ADF80000E08910F10100E5
:10556000ADF80200BDF90200B4F90610884274DCFF
:105570003F4D2868806CFBF74DFC0290BDF90000A0
:10558000B4F90010884220D1E088ADF80600A08868
:10559000ADF804002868806C0FE0FFE72088ADF8C4
:1055A00000006088DCE700BFFBF75AFC0646006A93
:1055B0000022694600F0D5F8B0690028F4D10298BD
:1055C00000226946C06900F0CCF8BDF80000ADF8D3
:1055D00004002868806C0AE0FBF742FC0646006A7B
:1055E0000022694600F046F80028EED1B069002894
:1055F000F2D1029800226946C06900F03BF8002809
:10560000E3D1B4F90400BDF90010ADF804008842FC
:1056100007DADDE90001C4E9020102A8FBF708FC92
:1056200098E72868806C08E0FBF71AFC0546006ADA
:105630000022694600F05CF8A8690028F4D10298BD
:1056400000226946C06900F053F802A8FBF7F0FB9E
:10565000206944F62061884201DD0020FEBDDDE9BD
:105660000001C4E902010120FEBD00004CC600207B
:105670002C000020FEB517460E460546002433E0F8
:105680002846FBF7C7FB0090856A0146A80726D588
:1056900027B13A4601A8FBF746FF03E0D1E9000134
:1056A000CDE9010101A93046FBF7C4FDB8B1E80717
:1056B00002D00098C56910E0BDF80800401C308099
:1056C00001240CE001AA31462846FFF7D3FF00B1C0
:1056D00001242846FBF7C4FB056A002DF2D100988F
:1056E000056A6846FBF7A4FB002DC9D12046FEBD24
:1056F000FEB516460D46044630E02046FBF78AFB11
:105700000090846A0146A00723D526B1324601A83D
:10571000FBF709FF03E0D1E90001CDE9010101A98F
:105720002846FBF787FDA0B1E00702D00098C469C6
:105730000DE0BDF80400401EA8800AE001AA294639
:105740002046FFF7D5FF2046FBF78AFB046A002CB2
:10575000F4D10098046A6846FBF76AFB002CCCD1B0
:10576000FEBDFEB516460D46044648E02046FBF752
:1057700051FB0090846A0146A0073BD526B1324612
:1057800001A8FBF7D0FE03E0D1E90001CDE901015A
:1057900001A92846FBF74EFD00B3E00702D00098B0
:1057A000C46925E000983EB1B0F90210B6F90200D4
:1057B000814203DD084601E0B0F90200B5F90210AC
:1057C000814205DABDF90600401E03E0E88011E0E1
:1057D000BDF90A00B5F906108842F7DB0AE001AA14
:1057E00029462046FFF7BDFF2046FBF739FB046A38
:1057F000002CF4D10098046A6846FBF719FB002CD2
:10580000B4D1FEBD01460078020616D50622B2EBE1
:10581000501F03D1C006400D49780BE00E22B2EBB9
:10582000101F0BD14A780007000C02F03F02897864
:1058300040EA821001F03F010843704701207047A1
:1058400000787047007801060BD50621B1EB501F98
:1058500001D1022070470E21B1EB101F01D10320AE
:10586000704701207047012070478068012901D0EE
:1058700000207047406C7047012901D0002070471C
:1058800000487047C88900080D291CD008DC012990
:1058900014D00A290CD00B290CD00C2906D10BE00E
:1058A00016291AD0172913D0182918D000207047AC
:1058B0000C4870470C4870470C4870470068806877
:1058C000D0F8F800704700688068D0F8F0007047A2
:1058D00000688068D0F8F4007047054870470548B4
:1058E00070470000AD59000899590008095900088F
:1058F0004561000859590008162901D00020704759
:10590000004870478311000870B50546FBF79CF806
:105910004FF4FA70AC68FBF729FAA066A16B206817
:10592000C91DC9104843FBF721FAE0660022012196
:10593000A869FDF77BFD0546D4F804112046884789
:10594000D4F8AC1020468847002D01DD012070BD41
:10595000002070BD70470000F8B50D4DDDE9066709
:105960008468286867B1002809D10096D4F8A4603B
:105970002046B04754F8A40F286006482060F8BDC0
:105980000028FCD0C4F8A40000202860F8BD000066
:10599000540000205559000870B515460C460646BF
:1059A000FBF752F8B068C0E9004570BD70B5154608
:1059B0000C460646FBF748F8B068C0E9024570BDE2
:1059C00080680F292CD2DFE801F02B080A0C0E2B7F
:1059D0002B2B10121414161D240000687047406809
:1059E000704780687047C0687047806B70470020C0
:1059F0007047012070470028FCD090F8340000F078
:105A0000010070470028FCD090F83400C0F340003B
:105A100070470028FCD090F83400C0F38000704735
:105A20004FF0FF3070470068C268926A104770B547
:105A300000240D46022807DAFBF7FEFA20B1C16800
:105A40008A6A294690470446204670BD10B5FDF786
:105A50001BFBB0F5807F03D0802803D307211AE019
:105A6000082118E0402801D3062114E0202801D3A2
:105A7000052110E0102801D304210CE0082801D3EF
:105A8000032108E0042801D3022104E0022801D305
:105A9000012100E0002101208840401E10BD4FF68A
:105AA000FF7070470146054A0F2000BF02EBC0039C
:105AB000DB6B8B4201D9401EF8D570470CC5002026
:105AC0008368D3F8E830184710B50846114601F04E
:105AD000DFF8008810BD806800220A804A800288B2
