:020000040800F2
:10000000C0C80020650100086D0100086F010008EC
:10001000710100087301000875010008000000006C
:100020000000000000000000000000007701000850
:1000300079010008000000007B010008B93F0008BA
:100040007F0100087F0100087F0100087F01000890
:100050007F0100087F0100087F0100087F01000880
:100060007F0100087F0100087F0100087F01000870
:100070007F0100087F0100087F0100087F01000860
:100080007F0100087F0100087F0100087F01000850
:100090007F0100087F0100087F0100087F01000840
:1000A0007F0100087F0100087F0100087F01000830
:1000B0007F0100087F0100087F0100087F01000820
:1000C0007F0100087F0100087F0100087F01000810
:1000D0007F0100087F0100087F0100087F01000800
:1000E0007F0100087F0100087F0100080000000078
:1000F0000000000000000000000000000000000000
:1001000000000000000000007F0100087F010008DF
:100110007F0100087F0100087F0100089D40000862
:100120007F0100087F0100087F0100087F010008AF
:100130007F0100087F0100087F0100087F0100089F
:100140007F0100087F0100087F0100087F0100088F
:10015000DFF80CD000F0C6FA00480047CD87000851
:10016000C0C800200648804706480047FEE7FEE773
:10017000FEE7FEE7FEE7FEE7FEE7FEE7FEE7FEE757
:100180004940000851010008202A04DB203A21FAE6
:1001900002F00021704721FA02F3D040C2F12002A0
:1001A000914008431946704710B5431A934209D24B
:1001B0008318881803E010F8011D03F8011D521E72
:1001C000F9D210BD40EA01039B0703D009E008C93A
:1001D000121F08C0042AFAD203E011F8013B00F80C
:1001E000013B521EF9D210BDD2B201E000F8012B42
:1001F000491EFBD270470022F6E710B513460A46A7
:1002000004461946FFF7F0FF204610BD2DE9FE4FCA
:10021000804681EA0300C00F0C46009021F00041A7
:1002200023F00045B8EB0200A94105D24046214623
:1002300090461C460B46024623F00040104347D030
:10024000270DC7F30A00C3F30A510290401A019028
:1002500040286BDAC3F3130040F4801B00989246E9
:1002600020B10023D2EB030A63EB0B0B0198594634
:10027000C0F14002504600F09FF906460D46504638
:100280005946019A00F0A7F910EB080061410024DB
:1002900087EA115284EAE7731A4340D0009A62B3A6
:1002A000019A012A4FEA075215DC001B61EB02019B
:1002B0004FF0004202EA0752CDE90042001C41F52E
:1002C000801132462B4600F0A7F903B0BDE8F08F4D
:1002D00040462146F9E7001B61EB0201001C41F595
:1002E000801300185B412018A2F5001747EB0301AB
:1002F00040EAD570B6196D4111E06D084FEA360637
:1003000045EAC0754FEA0752001B61EB0201001C71
:1003100041F5801149084FEA300000195141324639
:100320002B4603B0BDE8F04F00F067B900980122FA
:1003300040000023D0EB020263EBE07300982146FB
:100340004FEAE074B8EB000061EB0401E9E783F0E9
:1003500000435BE781F0004158E72DE9FE4F81EA59
:10036000030404F0004421F0004100944FF0000B1E
:1003700023F0004350EA01045ED052EA03045BD04C
:10038000C3F30A54C1F30A552C44A4F2F334019484
:10039000A0FB0254C1F3130141F48011C3F3130312
:1003A00043F4801301FB024400FB034E840A970AC6
:1003B00044EA815447EA8357A4FB076802958D0AF3
:1003C00005FB07854FEA932C04FB0C542705029D7F
:1003D0004FEA065847EA1637B5EB08056EEB070CEF
:1003E000870E920E47EA811742EA8312A7FB0201A9
:1003F000B6EB0B0164EB00042B0D43EA0C335E18E3
:1004000044EB1C50DA465146E7FB0201C5F31304E6
:100410004FEA0B3343EA14534FEA0432019C43EA98
:100420000603A4F10C040294009CCDE900B400F092
:10043000F3F803B0BDE8F08F00200146F9E72DE99D
:10044000F04D81EA030404F0004B21F0004514460E
:100450004FF0000A23F0004150EA050220D054EA90
:1004600001021DD0C5F30A570246C5F31303C1F3B9
:100470001300C1F30A5640F4801543F48013A7EB30
:100480000608101BD64608F2FD3873EB050002D3B0
:1004900008F1010801E092185B41B8F1000F03DA9E
:1004A00000200146BDE8F08D00204FF48011064683
:1004B00084460EE0171B73EB050705D3121B63EB95
:1004C000050306434CEA010C49084FEA3000921834
:1004D0005B4150EA0107EDD152EA030012D082EAF3
:1004E000040083EA0501084305D0101BAB4106D286
:1004F0000122002306E000224FF0004302E06FF0EB
:10050000010253101AEB06004CEB085110EB0A00E5
:1005100041EB0B01BDE8F04D00F06FB870B521F074
:10052000004303430CD0C1F30A550024D5EB040566
:1005300064EB0403D617AD1AB34102DB0020014679
:1005400070BD201841EB025170BD0EB5C10F80EA9D
:10055000E0700844CA07002140F233438DE80E00E2
:100560000A460B4600F058F803B000BD0EB540F245
:10057000334102910021CDE900110A460B4600F0FB
:100580004BF803B000BDC1F30A5210B5C1F313011B
:1005900040F2FF3341F480119A4201DA002010BD8D
:1005A00040F233439A42A2F2334203DC5242FFF755
:1005B000EBFD10BD904010BD202A04DB203A00FA6C
:1005C00002F1002070479140C2F1200320FA03F3AA
:1005D000194390407047202A06DBCB17203A41FA96
:1005E00002F043EAE07306E041FA02F3D040C2F1C0
:1005F0002002914008431946704710B5141E73F14C
:10060000000408DA401C41F1000192185B411A43D2
:1006100001D120F0010010BD2DE9F04D92469B461E
:1006200011B1B1FA81F202E0B0FA80F220329046C4
:10063000FFF7C2FF04460F4640EA0A0041EA0B01F9
:1006400053465A46084313D0114653EA010019D0C5
:10065000C8F140025046FFF797FD05460E4650464A
:1006600059464246FFF7A8FF084305D0012004E0A1
:1006700020463946BDE8F08D0020054346EAE07685
:100680002C4337430A986305E40AA0EB08000022D4
:10069000FD0A44EA47540A3002D500200146E9E742
:1006A000010510196941DDE9084500196941BDE8F6
:1006B000F04DA2E730B5041E71F1000404DB4FF0E9
:1006C0000044404264EB0101141E73F1000405DB99
:1006D0001C464FF00043524263EB0403994208BFAB
:1006E000904230BD064C074D06E0E06840F0010343
:1006F00094E8070098471034AC42F6D3FFF72CFD7E
:1007000028AD000848AD00082DE9F04D00231A4639
:100710001B1A8A4103DB00200146BDE8F08DC1F3BE
:100720000A52C1F3130141F480154FF0000BD107B9
:1007300002D100186D41521E0027044640F2FF11FD
:10074000384601EB620A3E468046024600204FF4DE
:100750008011FFF719FDC2197141BB1846EB01006A
:10076000B4EB030C75EB000C04D3E41A65EB000545
:1007700017460E46241908F101006D4180463428C1
:10078000E3DDF91946EB0600091BA84103D24FF03F
:10079000FF32134601E0002213461BEB070046EB35
:1007A0000A51BDE8F04DFFF728BF70B5C1F30A52FA
:1007B00001F000450024C1F3130140F2FF3341F47E
:1007C00080119A4201DA002070BD40F233439A4210
:1007D000A2F2334203DC5242FFF7D6FC00E0904025
:1007E0002C43F1D0404270BD002800DC40427047ED
:1007F0002DE9FC5F15460746DFF89C8028440190F0
:10080000D8F800001C460E46C06E01EB04094946AC
:10081000426801989047781B0090D8F8000049463C
:10082000C06E426800989047D8F8000006EB050BB0
:1008300007EB0409C06E5946426848469047D8F80D
:100840000000A6EB050A5146C06E42684846904734
:10085000002C1ED0D8F80000361B4546C06E31462D
:1008600042680198904728683146C06E42680098F7
:10087000904728683C1B5946C06E42682046904706
:1008800028685146C06E426802B02046BDE8F05F5D
:100890001047BDE8FC9F0000400000202DE9F04714
:1008A0008146884640F2C32050434FF47A7190FB52
:1008B000F1F502FB02F002EBD27100EB61066D1C58
:1008C0001746002341464846FFF792FF012413E0F4
:1008D00004FB04F007FB0700B04206DD3B4622465E
:1008E00041464846FFF784FF7F1E3B46224641466D
:1008F0004846FFF77DFF641CAC42E9DDBDE8F087A8
:100900001CB50024019401AC009400F0E7F81CBD74
:100910002DE9FF4F83B0814606988A46A0EB0A086E
:10092000109E00200090A2EB09043568934654EA1B
:10093000080018D02046FFF757FF07464046FFF74C
:1009400053FF87420BDA2046444680464846D1464C
:1009500082465846DDF818B0069001200090002C21
:1009600007DD204606E007B04846BDE8F04F00F03E
:100970003BB96042A0420AD04846D9466442C8F119
:10098000000883464FF0FF37DDF818A000E001278C
:100990005148B8F1000F11D004EBD4714FEA610B4C
:1009A00001DACBF1000B4C480068807E88B3002F41
:1009B00002DA30682044306000257BE0009900298D
:1009C000016821D0897E11B10027804615E007B06B
:1009D0005A4649465046BDE8F04F02F0EFBE284661
:1009E0006D1C05F089FF38B9D8F8000009EB070144
:1009F000C06E4268504690477F1CA742EFDD6D1ED7
:100A0000356007B0BDE8F08F8A7E1AB100278046B6
:100A100017E019E0C86E5A465146036807B04846C9
:100A2000BDE8F04F184728466D1C05F065FF38B942
:100A3000D8F8001009EB0700C96E4A685146904784
:100A40007F1CA742EFDDDAE700250FE008FB05B0C9
:100A500090FBF4F101EB0A00009951B11E4A09EB39
:100A600005011268D26E526890476D1CA542EDDDFB
:100A7000C7E7194909EB05030968C96E4A680146C9
:100A80001846F1E708FB05B090FBF4F101EB0A0012
:100A9000019030683844306005F02EFF48B9009866
:100AA00090B10D4809EB05010068C06E42680198DD
:100AB00090476D1CA542E5DD3068002F01DA204427
:100AC0003060C01B30609CE7034909EB05000968F2
:100AD000C96E4A680199EBE7400000202DE9FF4705
:100AE0000F4640491646804609680C981D460A7E06
:100AF000012A1CD0A8EB0600791B50EA01031CD088
:100B0000A2F1010907F028F800F58060824601F0A3
:100B10000AFC00FB09F4504601F00AFC00FB09F155
:100B2000002C0CDAC4F50070801240420AE00090FC
:100B3000324639464046FFF7EBFEBDE8FF8704F535
:100B40000074A012002904DAC1F5007189124C4228
:100B500002E001F500718C12002804DD411C01EB5C
:100B6000D171491003E000EBD0714910401E00EB39
:100B7000D0704210002C04DD601C00EBD0704010DF
:100B800003E004EBD4704010641E04EBD47308EB54
:100B90000104ADF800403C18ADF80240A8EB020497
:100BA0005B10B21AADF80440ADF808203144FC1ACD
:100BB000EA1AADF80C102844ADF80A20ADF80E0082
:100BC0000023ADF806401A460421684600F07AF882
:100BD0003946404604F060FE2946304604F05CFE8B
:100BE000ABE7000040000020064A13681A7E012A85
:100BF00005D0521E02EBD272521000F005B8DA6E28
:100C000052681047400000202DE9F05F06468846F4
:100C100040F2C32050434FF47A7190FBF1F702FB8E
:100C200002F002EBD27100EB610B254914467F1CE8
:100C300009683244301BC96E0B684146984701254C
:100C40003AE000BF05FB05F004FB040159451CDD3B
:100C5000BC4219DD1A4B06EB050AA6EB05091B6819
:100C6000AAF1010208EB0401DB6E09F101001B6827
:100C70009847134BAAF10102A8EB04011B6809F184
:100C80000100DB6E1B689847641E0D4806EB040AE2
:100C9000A6EB0409006808EB05015246C06E036824
:100CA000484698470648A8EB050152460068C06EC2
:100CB0000368484698476D1CBD42C3DDBDE8F09F00
:100CC000400000202DE9FF4F40F6FF740F466642BA
:100CD00083B09B46814600210BE000BF09EB8100F9
:100CE000B0F90200A04200DA0446B04200DD064638
:100CF000491CB942F2DB68480068406900280DD001
:100D0000B0F906101A46A1EB0B01B14200DA0E460B
:100D1000B0F90200801AA04200DD0446B5E0DFF819
:100D20007CA100200546CAF8000089E0781E8542B3
:100D300001DA6B1C00E0002309EB850C09EB830250
:100D4000BCF90200B2F90210A04245D1A14215D16E
:100D500039F92330059A39F9251003EB020C4E4A74
:100D600005981268084404EB0B01D26E60451368C5
:100D700001DA62462BE00246604628E02846A44697
:100D80004FF000087A1E0BE008B1401E00E0781E0C
:100D900009EB8003B3F90230634504D108F101087F
:100DA0009045F1DB2346A34249D0A3EB040239F975
:100DB0002500A1EB040C059B92EA0C0209D4364AEB
:100DC000184404EB0B011268D26E13680246984770
:100DD00035E003F007FE32E0A14230D001DBA04253
:100DE00003DDA0422BDBA14229DCE04688420ADC7D
:100DF0000346A04223DC0846A14220DBB8F900C02C
:100E0000B2F9001008E00B46A14218DCA04216DB44
:100E1000B2F900C0B8F90010E21AA1EB0C0151437D
:100E20000029A0EB030202DD01EB620102E0A1EB6D
:100E30006201491CC01A91FBF0F06044C9E76D1CC7
:100E4000BD42FFF673AF0598009004EB0B000190D4
:100E500000208046054613E01149B8F1000F31F932
:100E600015A009D0009901EB0A0208440A49096853
:100E7000C96E0B680199984788F0010850466D1CAF
:100E8000064909688D42E7DB641CB4427FF747AF2F
:100E900007B0BDE8F08F000040000020880000206F
:100EA000F0C500202DE9F047002426464FF0804988
:100EB0004FF001082046FFF759FB02460B46002081
:100EC000494607F0A5FC07460D4608FA04F0FFF76F
:100ED0003CFB3A462B46FFF740FA07460D463046A4
:100EE000FFF744FB3A462B46FFF790F9FFF74BFB21
:100EF000641CE4B286B2102CDCD33046BDE8F08727
:100F00002DE9FF41002206460092019202926D46B1
:100F1000CDF80C2001F00100A854521C4908D2B2AF
:100F2000102AF7D30024012707FA04F081B22A5DC2
:100F3000304601F03CFB641CE4B2102CF4D3BDE855
:100F4000FF8170B50C46054600F0EEF8A8682168F0
:100F5000C16261680163A1684163490707D5D0E9AF
:100F60000021C0E90012D0E90221C0E90212A189E2
:100F700081842169002903D001DC4FF00001016266
:100F800070BD2DE9F0411E4617468846054600F023
:100F9000CBF8AC686822414604F58470FFF704F989
:100FA0002846B8472846B047286980688047A0622D
:100FB000BDE8F08110B5044600F0B6F8A0680C4911
:100FC000483001660B49C1650B4941660B49C16652
:100FD0000B4981660B4981670B49C16730F8221CB8
:100FE00021F0030120F8221C0849816410BD000093
:100FF000B9690008C56A00087D690008D365000862
:10100000BB6500084F66000887660008C9680008CD
:1010100010B5044600F088F8A4680C4890341021FC
:1010200020650B4860650B48A0650B48E0650B48E0
:10103000E0600B482061206BA06654F890292046A0
:1010400090471020A0630748606410BDDD5400087D
:101050006D5A000869100008991100089D65000884
:101060008D6D000824AA0008F8B5846815460F465F
:1010700094F8260080074CD5D4F8FC3020469847D9
:101080000646D4F800312A46394620469847D4F817
:10109000943005461BB10022012120469847206963
:1010A000B04201DD012000E00020A169B14201DA77
:1010B000012100E0002108436169A94201DD01210D
:1010C00000E000210843E169A94201DA012100E0C2
:1010D000002108430AD06068401E00902368D4F8BD
:1010E000A4705B1E002211462046B847D4F8A830F1
:1010F0002A46314620469847D4F89C102046884717
:10110000D4F8943005466BB101220021204698475F
:1011100008E0D4F8A83020469847D4F89C10204620
:10112000884705462846F8BD70B504468068002803
:1011300012D14FF4B875284600F088F92A460021EC
:10114000A06001F0ADF8A0680221C184012104640F
:1011500001620249C0F8041170BD0000611100086D
:1011600010B590B0044620220A496846FFF71CF8E3
:1011700008492022203108A8FFF716F8606B5DF8B7
:101180002010C4F8FC1008A951F82000C4F8000190
:1011900010B010BDB89300082DE9F8438468984654
:1011A000154694F826000F46800740D5D4F8FC3049
:1011B000204698470646D4F800312A46394620464C
:1011C000984705462069B04201DD012000E000207B
:1011D000A169B14201DA012100E0002108436169FF
:1011E000A94201DD012100E000210843E169A94293
:1011F00001DA012100E0002108430AD06068401EA6
:1012000000902368D4F8A4705B1E0022114620468B
:10121000B847D4F8A8302A46314620469847D4F833
:10122000A02001B041462046BDE8F0431047D4F865
:10123000A830F2E72DE9F04FDFF828B191B04FF078
:10124000FF35DBF80030B3F922100691DE69B3F9FF
:1012500024A0F469A189814206D8E289824203D39D
:10126000471AD4F8008012E0D4E90181002970D037
:101270000A8882426DD84D8885426AD3801A82B22C
:10128000486800EB8200B0F90070B0F90250781C99
:101290005FD0307EA27C014600FB02F9207CCDE9C4
:1012A0000810B3F92A60304602F016FCC0B20E9066
:1012B000DBF8001007FB0980A37C8A6B0127CDE9CE
:1012C0000402CDE90273C869DDE90832C17E807E7F
:1012D000CDE900015146069802F00CF9681C18D0BF
:1012E00046F0020002F0F8FBDBF80000A37C05FBEF
:1012F0000981826BCDE90273CDE90412C069DDE991
:101300000832C17E807ECDE900015146069802F088
:10131000F1F8DBF800005D46C069417E007E814245
:1013200014D9022E12D086F0040002F0D5FB2868F2
:10133000C069027EC37E857E02FB03A1437E099ABB
:101340000698534402FB050202F062FA0E9802F07E
:10135000C3FBDBF80000627C418C1144418411B076
:10136000BDE8F08F4000002004480068C069C069F3
:1013700009B1027C0A60407C7047000040000020F8
:10138000022008807047C06982898A4202D8C289D7
:101390008A4210D2806880B102888A420DD8438880
:1013A0008B420AD3406800EB8100A0EB8200B0F9C9
:1013B0000000002801DB0120704700207047002852
:1013C00001D003F067BB704738B50546FFF7F7FF5C
:1013D000040009D000F08EF82A460021009000F0A9
:1013E0005FFF684600F094F8204638BD024A10605E
:1013F00021F00300506070476CC5002010B5002834
:1014000014D004460A48006B10F8341000290DD09F
:1014100002290BD2042101EBC4014158486803F0B2
:10142000FDFA2046BDE8104005F0A6B810BD00004A
:10143000B0C40020002805D0034A916B016001B1BF
:101440004860906370470000B0C400202DE9F0416F
:10145000044604F059FF2648E41C24F00305C16B40
:101460002D1DA94200D90D46846B13E054F8042CBD
:10147000AA420ED184B1216809B162684A606168EC
:1014800009B122680A60826BA2422ED12168816371
:101490002BE02468002CE9D18046416B80680F184E
:1014A00057F8040C3E1A306838B1002005F028F9CE
:1014B00057F8040C3E1A3068B8B97068A84214DBBB
:1014C0003044441B304605F001F9D8F80810491B98
:1014D000C8F80810D8F810102944C8F8101070681F
:1014E0003146401B03F09AFA20C42046BDE8F08143
:1014F000B0C4002005498A69521C8A61096B01EB5E
:10150000C0010A78521C0A7000F01AB8B0C400205A
:101510000A4902680B6B52F8082C03EBC2021378DD
:10152000022B03D38B690BB15B1E8B611178491EB3
:10153000117000210160084670470000B0C400200F
:10154000002806D00349042202EBC000096B0858AA
:1015500008307047B0C40020F0B52D271C68B0F1EA
:10156000004F08D0002500280DDA661C1E60277089
:101570004042012408E0661C01251E606FF0004017
:101580002770491E01E00024091BC9B22AB3491E75
:10159000C9B222E00C46491EC9B2944205D1124C90
:1015A00027781C68661C1E602770104C54F8216058
:1015B00090FBF6F4E4B20A2C11D804FB160011B922
:1015C0000DB1641CE4B20A2C02D10124491CC9B239
:1015D0001E683034771C1F6034700029DAD1196816
:1015E00000200870F0BD000034000020A0A9000811
:1015F00010B5C2B2CBB2D21A02D5C2F1000212B2F9
:1016000093B2C0F30722C1F3072403FB03F3121BB9
:1016100001D5524212B2000C92B2A0EB114002FB73
:10162000023200B2002801DA404200B280B200FB70
:10163000002010BD10B50021084600F067FA40F602
:10164000FF725042BDE8104013460146AFF30080E0
:101650002DE9FC4107461C4615460E46042002F0C3
:101660003BFA80461148C068C16C006D0F440644C7
:101670000D440444ADF80070ADF80450ADF80260BC
:10168000ADF80640684603F03FF807E023462A46D7
:101690003146384602F0BCF802F0F8FF0028F5D1D8
:1016A000404602F019FABDE8FC8100003400002039
:1016B0002DE9F0411C4616460D460746022B02DB7B
:1016C0000020BDE8F0811C20FFF7C0FE0028F8D004
:1016D0000DB105610AE0094A52F8241009B905E084
:1016E00011460A68002AFBD109690161846186827A
:1016F000002101604160C0E90217E2E758000020C4
:1017000070B51D46FFF7D4FF040001D000F00EF8BD
:10171000E068006820B90348006800EB8500846534
:10172000204670BD40000020FFF784BE70B590B326
:101730008269022A30DA1C4C54F8221019B944F894
:1017400022002FE019464B68002BFBD106E0CB6846
:10175000C5681B682D68AB4203DD09680029F6D116
:101760001AE0C1B1CB68C6681B683668B3420CD1B9
:10177000838A012B05D008E01946DB681B68AB4261
:1017800003DB0B68002BF7D129B14B6833B118602C
:101790004A68426004E0FFE7012070BD44F822007F
:1017A00048600160002070BD5800002005F0D6BAE6
:1017B000022801DB00207047054951F8200004E0B1
:1017C000C16809680029F6D000680028F8D1704780
:1017D000580000207FB51E4614460D46CDF80CD0AB
:1017E00003AB00223146FFF7B7FE22462946684682
:1017F00000F082F87FBD00002DE9FC4706005BD0B9
:1018000000F054F93B4C81462068B0F9228000F08A
:1018100055F9216807468A8CD01B888441E000BFB7
:1018200047F6FF71304600F067FC824601463046BD
:1018300000F038FC2168054691F82C0000F0030008
:1018400001283FD0022839D000204A8C101A488441
:10185000ADF800006A1E1044ADF80400888CADF8A5
:101860000200A9F101010844ADF806006A4651469C
:10187000304600F0BFFB2168BDF802008884514665
:10188000304600F0BDFA064430780A281CD00D28F6
:101890001AD0BDF80000216828444884307818B177
:1018A000761C30780028BBD12068818C3944818433
:1018B000818D21F003018185BDE8FC8705EBD570A2
:1018C0004010C2E72846C0E7206890F82C1001F0CD
:1018D000030101290BD0022909D0018C4184317800
:1018E0000A29DBD1828C02EB09018184D6E7A0F8BA
:1018F0002280F4E740000020024B1B6859849A8440
:10190000FFF77ABF400000202DE9F04107460A4862
:1019100015460E460068B0F92C0040F0020000F0B9
:1019200037FA04462A4631463846FFF7E5FF204697
:10193000BDE8F04100F02CBA4000002070B5DC2476
:10194000002000F0EDF94FF47F4000F0EBF926485D
:1019500000F0F0F92246002124A0FFF7CDFF254D2D
:101960000A260123A8782246B0FBF6F02821FFF7CB
:1019700031FFA8780123B0FBF6F106FB11002246E7
:101980003221FFF727FF22463C2119A0FFF7B4FFC1
:1019900068780123B0FBF6F022464621FFF71AFFD4
:1019A00068780123B0FBF6F106FB110022465021B6
:1019B000FFF710FF22465A210DA0FFF79DFF287860
:1019C0000123B0FBF6F022466421FFF703FF2878DD
:1019D0002246B0FBF6F106FB1100BDE87040012382
:1019E0006E21FFF7F7BE00001CA7000854696D6563
:1019F0003A000000140000207CB514460F4A12681B
:101A0000D36C1E18106D4518301BADF8000030194E
:101A1000ADF80400281BADF802002819ADF8060047
:101A2000684602F071FE06E0224629463046FEF77F
:101A300035FF02F02BFE0028F6D17CBD40000020CF
:101A40002DE9F0410B4C2568EC6C2718286DA51882
:101A50004618C418002002F057FE07E023462A4625
:101A600031463846FEF74CFF02F010FE0028F5D153
:101A7000BDE8F08140000020034951F82000C16812
:101A80008A6A0821104700005800002002490968AE
:101A9000C9694A680021104740000020024A1268C4
:101AA000D2695268104700004000002002480068D8
:101AB000C069407E70470000400000200A490020B5
:101AC000096891F82C2002F00C02042A07D0082A99
:101AD00001D00C2A02D1C869007E40087047C8694D
:101AE000007E401E7047000040000020024951F86F
:101AF000200000690068704758000020024951F832
:101B000020000069406870475800002070B50D46FD
:101B100004F076FB0446284604F07AFB204370BDAF
:101B2000124810B5016821F001010160104801213F
:101B300081601049016000680F49884200D0FEE7CB
:101B400000F03EFA0D492E20087000F0A4F90C4870
:101B500004F0A2FB06F0CAFB04460021084600F090
:101B6000F3F802F00DFC204610BD0000002000E05C
:101B700000300240C2A507F4CDB5E8B5340000201E
:101B800078C5002038B5040018D00D480068006EF4
:101B9000A04201D100F0A8F82046FFF7ABFC00906E
:101BA000406908B100F054F900980068FFF7BCFDE7
:101BB0006846FFF7ADFC2046FFF720FC38BD00006B
:101BC0004000002038B5002460B1FFF793FC00907E
:101BD000006800698068804702F02EF90446684674
:101BE000FFF796FC204638BD38B5FFF783FC00F1BF
:101BF000180400906846FFF78BFC204638BDF8B506
:101C000015460E460746FFF775FC00904469684686
:101C1000FFF77EFC3846FFF7D5FF0346082800DDB6
:101C20002CB12A463146384605F0CEF8F8BD2A4692
:101C30003146384605F060FAF8BD10B5002821D0CD
:101C400009B30AB3B1F90040B2F900309C4200DA9E
:101C500023460380B1F90240B2F902309C4200DA17
:101C600023464380B1F90440B2F904309C4200DDC0
:101C700023468380B1F90610B2F90620914200DCB8
:101C80001146C18010BD11460A6802604968416072
:101C900010BD00280BD003880B44038083881944AF
:101CA0008180418811444180C1881144C1807047BE
:101CB000B0F90220B1F906309A4213DCB1F90220E2
:101CC000B0F906309A420DDCB0F90020B1F90430C9
:101CD0009A4207DCB1F90010B0F90400814201DC3E
:101CE000012070470020704710B501F089FE01F017
:101CF0003BFFBDE8104002F017BA000070B5044683
:101D00000548022C0068457C02D24474FFF7ECFFC2
:101D100002480460284670BD40000020A800002052
:101D200001F090BE01F0C6BE014988607047000016
:101D30003400002003490968CA6900B1C86110462F
:101D40007047000040000020094A30B41080094A62
:101D50001180094A1268537C084A52F82330DA6825
:101D6000146A0A46A446014630BC18466047000083
:101D7000680000206A000020400000205800002079
:101D8000024909680A7E0876104670474000002024
:101D900003490968B1F92C20888510467047000076
:101DA0004000002002480068002800D0004770472B
:101DB0001001002002498A6802B98860FFF7F2BF6B
:101DC000040100200249014808607047749300082C
:101DD000440000202DE9F041084E044605683068B3
:101DE0000168284688470746306841682846884782
:101DF000284420603846BDE8F081000044000020FF
:101E00002DE9F0410C4606460025064F05E03868EE
:101E100041683046884706440544641EF7D2284688
:101E2000BDE8F081440000202DE9F0411E46069CEB
:101E30001746884605463A46A8687F1C3346D0F8C0
:101E400004C041462846E047641EF4D1BDE8F08155
:101E500038B50546FFF74EFB00908189491E0CB24C
:101E600084816846FFF754FB002C02D12846FFF717
:101E7000C5FA38BD10B54CF250310448FFF7B6FA38
:101E8000BDE810400248FFF74FBF0000600100208E
:101E9000EC9A00087047704710B5082A0EDC03461C
:101EA000012A1AD0022A58D0042A78D010F8042B1C
:101EB00003F8012B491EF9D1012010BD102A0ADCBC
:101EC0000222022AF8D1024630F8043B22F8023BF3
:101ED000491EF9D1F0E7002010BD10F8042BD207FD
:101EE000120E491E34D010F8044B491E04F00104B0
:101EF00042EA84122CD010F8044B491E04F001046D
:101F000042EA441224D010F8044B491E04F00104A4
:101F100042EA04121CD010F8044B491E04F00104DC
:101F200042EAC40214D010F8044B491E04F0010424
:101F300042EA84020CD010F8044B491E04F001045C
:101F400042EA440204D010F8044B04F00104224396
:101F500003F8012B0029C0D1AEE710F8042B92073B
:101F6000120E491E15D010F8044B491E04F003044C
:101F700042EA04120DD010F8044B491E04F0030489
:101F800042EA840205D010F8044B04F00304224313
:101F9000491E03F8012B0029DFD18DE7FFE710F878
:101FA000042B1207120E491E05D010F8044B04F042
:101FB0000F042243491E03F8012B0029EFD17BE7D0
:101FC0000A4810B5816900290ED101218161FFF70E
:101FD00051FF01F0DBFD054905481C310860BDE8F3
:101FE0001040084600F054B910BD00003400002035
:101FF000C56400087CB5064628480D46006868B1EF
:10200000002002F081FB06E06A462946304602F0D5
:102010003DFE02F03BFB0028F6D17CBD106800902D
:102020001F4C506801902268BDF8000032F84C1F28
:102030000844ADF80000BDF8020091880844ADF8EE
:102040000200BDF8040011880844ADF80400BDF892
:10205000060091880844ADF80600684602F054FB7B
:102060000EE000BF2068BDF800106A464184BDF84C
:10207000021081842946304602F008FE02F006FB79
:102080000028EFD1206830F8221F428D891A018084
:102090004188C28D891A41807CBD00006400002007
:1020A0004000002073B5124A01A9009812689047B9
:1020B00000240090C8B10F4900250968C969496921
:1020C00059B10A684AB1019990477CBD6846FFF74B
:1020D00081FE0546FFF7DAFC04440198401E01909A
:1020E000F4D5284600F024F8044420467CBD0000C6
:1020F000000100204000002073B50D460098002428
:1021000090B10A490968C969496959B14A684AB12F
:10211000294690477CBD6846FFF75CFE20B10A283F
:1021200002D0641CAC42F6DB20467CBD400000209F
:1021300038B5002469460094FFF7B0FC009981424D
:1021400000DD0C1A204638BDB0F90030B1F900208E
:10215000934200DA0280B0F90230B1F902209342D2
:1021600000DA4280B0F90430B1F90420934200DD76
:102170008280B0F90620B1F906108A4200DDC180E4
:10218000704770B5B1F90040B2F900309C4200DDF3
:1021900023460380B1F90250B2F90240A54200DDA6
:1021A0002C464480B1F90460B2F90450AE4200DA22
:1021B00035468580B1F90610B2F90620914200DB60
:1021C0001146C1809D4201DBA14201DA002070BDB1
:1021D000012070BD014602480068407C00F002B852
:1021E00040000020F8B501260F46054602284BDACC
:1021F000264C5FB3012F02D0022F45D116E054F8D0
:10220000250088B92846FFF7D3FA0090B8B3C06814
:102210000D21426A68469047020035D03946009841
:10222000904754F825000026401C2BE0FFF7C0FA29
:10223000009020B3C0680D21426A684690470200B2
:1022400022D039460098904700261DE054F825001A
:1022500001280FD12846FFF7ABFA009050B1C068B3
:102260000D21426A68469047020003D03946009823
:102270009047002654F8250010B1012101E003E049
:102280000021401A44F825003046F8BDF80000202F
:1022900002494A69426048617047000034000020EA
:1022A00010B502E000F8011B521E0AB18307F9D1F4
:1022B000930818D001EB014402F0030204EB04245C
:1022C00005E0046044608460C46010301B1F042B70
:1022D000F7DA01E010C05B1E002BFBD103E000BF6A
:1022E00000F8011B521E002AFAD110BD10B5830759
:1022F00002D520F8021B521E530810D001EB0144F6
:10230000042B08DB046044608460C46010301B1F31
:10231000042BF7DA01E010C05B1E002BFBD1D207C3
:1023200000D0018010BD00F5806000F001B8000011
:1023300010B50022C0F30B00B0F5006F02DDA0F570
:1023400000600122B0F5806F01DDC0F500608311EF
:102350000B4C00F03F00C0F1400134F8130048433B
:10236000402906D004EB4303C1F140015B8803FB25
:10237000010020308009002A00D0404210BD00003A
:102380003093000810B5040002D0607910B106E067
:10239000012010BD00202071204600F005F801202A
:1023A0006071002010BD000008B500680649884231
:1023B00008D10648416941F040014161406900F09F
:1023C0004000009008BD00000030024000100240B4
:1023D00031B500F0F1F8044600F0EEF80099001B6A
:1023E0008842F9D338BD00002DE9F84FDFF890A1FD
:1023F00000220AF1040B144601274FF00F090BF1DC
:10240000040E00BF0B6807FA04F52B40AB4274D1F1
:10241000DFF870C14E68A6EB0C0866452BD00DDCCA
:10242000032E34D005DC36B3012E19D0022E2FD165
:102430001BE0112E16D0122E2AD119E0B8F5881FF4
:1024400019D006DCB8F5803F15D0B8F5801F1FD134
:1024500011E0B8F5001F0ED0B8F5041F18D10AE03E
:10246000CA6815E0CA68121D12E0CA6808320FE097
:10247000CA680C320CE08A682AB1012A4FF00802BF
:1024800003D0456104E0042202E0056100E000227F
:10249000FF2B01D8064601E000F104064FEA84054F
:1024A00001D9A5F12005D6F800C009FA05F82CEAF3
:1024B000080C02FA05F54CEA050CC6F800C04D6898
:1024C000ED0057D5304DAE6946F00106AE61AD69FD
:1024D00024F0030605F0010500952C4D06EB050CD4
:1024E000DCF80850A6074FEA167809FA08F6B54353
:1024F000274EB04202D1002610E03BE0254EB0420C
:1025000001D101260AE0244EB04201D1022605E0A5
:10251000224EB04201D1032600E0042606FA08F656
:102520002E43CCF808604D68DAF80060ED0355469C
:1025300001D51E4300E09E432E604D68DBF800602D
:10254000AD035D4601D51E4300E09E432E604D68FD
:10255000DEF80060ED02754601D51E4300E09E43A3
:102560002E604D68AD020E4D2E6801D51E4300E071
:102570009E432E60641C102CFFF444AFBDE8F88F1E
:102580000004014000001110001002400000014052
:1025900000080140000C01400010014000140140FF
:1025A0000C0401408068084000D0012070470AB147
:1025B000016170470904FBE70148006870470000AB
:1025C0000000002002480168491C016070470000BB
:1025D00000000020074810B5016841F010010160BB
:1025E000032000F07DF8002000F006F800F016F857
:1025F000002010BD0020024010B5044600F0C6F9CE
:102600004FF47A71B0FBF1F000F026FE0022214673
:10261000501E00F045F8002010BD0000184808B515
:10262000816941F001018161806900F00100009041
:10263000062000F055F8002211466FF00B0000F064
:102640002FF8002211466FF00A0000F029F800224E
:1026500011466FF0090000F023F800221146101F08
:1026600000F01EF800221146501E00F019F805482F
:10267000416821F0E06141F00071416008BD000057
:10268000001002400000014000F01F0201219140B3
:102690004009800000F1E020C0F800117047000000
:1026A000F0B40E4B1B680C46C3F30223C3F10705BD
:1026B000042D00D90425191D072901D2002300E0AB
:1026C000DB1E012606FA05F1491E214099409E4075
:1026D000761E16403143F0BC01F05EBC0CED00E00C
:1026E000064900F0070208684FF6FF03184040EA69
:1026F0000220034A10430860704700000CED00E020
:102700000000FA052DE9F047DFF8789205460E46FD
:10271000D9F80000022300F0070701204104420617
:10272000994C41F28838B74271D2D9F800C02CF0E8
:10273000070C4CEA060CC9F800C0D9F8007007F085
:102740000707B7426FD12E78B60705D56668AF6820
:1027500026F0F0063E4366602E78F60756D06E6887
:10276000012E0BD0022E1ED093FAA3F1B1FA81F103
:1027700041F02001490924D0216823E091FAA1F217
:10278000B2FA82F242F02002520901D0226800E03F
:10279000626A91FAA1F1B1FA81F101F01F0188405A
:1027A000024240D017E092FAA2F1B1FA81F141F071
:1027B0002001490901D0216800E0616A92FAA2F281
:1027C00002E0616A93FAA3F2B2FA82F202F01F0207
:1027D0009040014227D0606820F0030030436060E1
:1027E000FFF7EAFE06466868012809D00228474636
:1027F00013D01EE0FFF7E0FE801BB84201D992E043
:1028000047466068C0F381000128F3D1A1E015E0DC
:10281000FFF7D2FE801BB84273D86068C0F3810016
:102820000228F5D195E092E0FFF7C6FE801BB84282
:1028300079D8606810F00C0FF6D18AE02F78BF07C6
:1028400007D56768D5F808C027F0F00747EA0C07F6
:1028500067602F78FF076DD06F68012F0BD0022FB4
:102860001ED093FAA3F1B1FA81F141F02001490998
:1028700024D0216823E091FAA1F2B2FA82F242F068
:102880002002520901D0226800E0626A91FAA1F1A7
:10289000B1FA81F101F01F018840024257D017E0E0
:1028A00092FAA2F1B1FA81F141F02001490901D077
:1028B000216800E0616A92FAA2F202E0616A93FA8A
:1028C000A3F2B2FA82F202F01F02904001423ED01F
:1028D000606820F0030038436060FFF76DFE074634
:1028E0006868012807D0022811D01FE0FFF764FEB6
:1028F000C11B414517D86068C0F381000128F5D19C
:1029000018E010E0FFF758FEC11B41450BD8606886
:10291000C0F381000228F5D10CE000BFFFF74CFEA8
:10292000C11B414502D90320BDE8F087606810F063
:102930000C0FF3D1D9F8001021F007013143C9F889
:102940000010D9F8000000F00700B04201D00120CB
:10295000EAE72878400705D56068E96820F4E06078
:10296000084360602878000706D56068296920F46C
:10297000605040EAC10060600020FFF73DFE00208B
:10298000D2E70000002002400010024000B500F035
:1029900017F808494968F02292FAA2F201F0F00112
:1029A000B2FA82F2D140044A515CC840034908603F
:1029B00000BD000000100240F09200080800002056
:1029C000F0B52DA28AB007CA8DE807002DA103AC8F
:1029D0000FC984E80F002F494B682F4803F00C0201
:1029E000042A02D0082A02D02C480AB0F0BD4FF4C5
:1029F000701595FAA5F403F47012B4FA84F4E24069
:102A00006E461DF80220DB0333D5CB6A0F2494FAFF
:102A1000A4F403F00F03B4FA84F4E34003ACE45CE1
:102A2000CB6ADB0316D5CB6AF02797FAA7F703F03A
:102A3000F003B7FA87F7C96AFB40AF1297FAA7F716
:102A400001F47061B7FA87F7F9405B1CB0FBF3F053
:102A5000891C4843B0FBF4F095FAA5F350434FF4BA
:102A60005011B3FA83F3D940715C9142BDD1400853
:102A7000BBE70B485043B8E7000004050607080908
:102A80000000000D0102030405060708090A0B0CEB
:102A90000D0E0F100010024040787D0100127A00E8
:102AA00000093D002DE9F84F04460078FC4DC007B1
:102AB0004FF0010625D068687704C0F38100012833
:102AC00007D06868C0F3810002281BD16868C00382
:102AD00018D597FAA7F0B0FA80F040F0200040092E
:102AE00001D0286800E0686A97FAA7F1B1FA81F18D
:102AF00001F01F0106FA01F1084202D0A068002887
:102B000076D081E0286820F480302860286820F49E
:102B100080202860FFF750FD804605E0FFF74CFD60
:102B2000A0EB080064287DD897FAA7F0B0FA80F0EF
:102B300040F02000400901D0286800E0686A97FA58
:102B4000A7F1B1FA81F101F01F0106FA01F1084283
:102B5000E4D1A068B0F5803F0BD010B1B0F5A02F44
:102B600011D0286820F480302860286820F4802064
:102B700002E0286840F480302860A06820B3FFF7A6
:102B80001BFD80460AE0286840F480202860F0E7BA
:102B9000FFF712FDA0EB08006428C4D897FAA7F04D
:102BA000B0FA80F040F02000400901D0286800E031
:102BB000686A97FAA7F1B1FA81F101F01F0106FAEC
:102BC00001F10842E4D01FE0FFF7F6FC804605E083
:102BD000FFF7F2FCA0EB08006428A4D897FAA7F04E
:102BE000B0FA80F040F02000400902D0286801E0EF
:102BF000B8E0686A97FAA7F1B1FA81F101F01F0114
:102C000006FA01F10842E3D12078A64F80074FF081
:102C100002084FF000095BD568684FF0F80B10F020
:102C20000C0F00E01DE207D06868C0F381000228A5
:102C30001BD16868C00318D498FAA8F0B0FA80F0E5
:102C400040F02000400901D0286800E0686A98FA46
:102C5000A8F1B1FA81F101F01F0106FA01F1084271
:102C60002BD0606901287DD127E0606988B396FA8E
:102C7000A6F0B0FA80F047F82060FFF79DFC82468E
:102C800006E000BFFFF798FCA0EB0A00022884D8FA
:102C900098FAA8F0B0FA80F040F02000400901D086
:102CA000286800E0686A98FAA8F1B1FA81F101F0A9
:102CB0001F0106FA01F10842E4D028689BFAABF242
:102CC000A169B2FA82F220F0F8009140084328602E
:102CD00025E0FFE796FAA6F1B1FA81F147F82190D5
:102CE000FFF76AFC824605E0FFF766FCA0EB0A00EE
:102CF0000228CCD898FAA8F0B0FA80F040F0200072
:102D0000400901D0286800E0686A98FAA8F1B1FA91
:102D100081F101F01F0106FA01F10842E4D12078A7
:102D200000076FD5E069C0B396FAA6F0B0FA80F05C
:102D300007EB8000C0F88064FFF73EFC824605E0A8
:102D4000FFF73AFCA0EB0A000228A0D898FAA8F1F5
:102D5000B1FA81F141F060014046B6EB511F02D15A
:102D600029680CE0A0E190FAA0F1B1FA81F141F0FC
:102D70006001B0EB511F01D1296A00E0696A98FA3D
:102D8000A8F0B0FA80F000F01F0206FA02F001424B
:102D9000D6D00120FFF71CFB34E0FFE796FAA6F13E
:102DA000B1FA81F107EB8101C1F88094FFF704FCCF
:102DB000824605E0FFF700FCA0EB0A00022898D845
:102DC00098FAA8F1B1FA81F141F060014046B6EB02
:102DD000511F01D129680BE090FAA0F1B1FA81F1FD
:102DE00041F06001B0EB511F01D1296A00E0696A2E
:102DF00098FAA8F0B0FA80F000F01F0206FA02F08C
:102E00000142D7D12078400773D5E86940F080505F
:102E1000E861E869DFF890B000F080500090DBF8DE
:102E2000001041F48071CBF80010FFF7C5FB82461B
:102E300006E000BFFFF7C0FBA0EB0A00642884D8BF
:102E4000DBF80000C005F5D5286A20F001002862F3
:102E5000286A20F004002862FFF7AEFB834641F2A7
:102E6000883A05E0FFF7A8FBA0EB0B015145A6D877
:102E700098FAA8F1B1FA81F141F040014046B6EB71
:102E8000511F01D1296812E090FAA0F1B1FA81F145
:102E900041F04001B0EB511F08D1296A07E0000062
:102EA000001002400000424200700040696A98FA37
:102EB000A8F0B0FA80F000F01F0006FA00F001421E
:102EC000D0D1206901280AD008B1052812D0286A7B
:102ED00020F001002862286A20F0040002E0286A3D
:102EE00040F001002862206998B3FFF765FB834634
:102EF0000CE05BE0286A40F004002862EFE700BFC6
:102F0000FFF75AFBA0EB0B01514598D898FAA8F1AE
:102F1000B1FA81F141F040014046B6EB511F01D1B9
:102F200029680BE090FAA0F1B1FA81F141F040017B
:102F3000B0EB511F01D1296A00E0696A98FAA8F044
:102F4000B0FA80F000F01F0206FA02F00142D7D07A
:102F50002CE0FFE7FFF730FB834605E0FFF72CFB93
:102F6000A0EB0B0151457CD898FAA8F1B1FA81F198
:102F700041F040014046B6EB511F01D129680BE0FA
:102F800090FAA0F1B1FA81F141F04001B0EB511F8C
:102F900001D1296A00E0696A98FAA8F0B0FA80F0D5
:102FA00000F01F0206FA02F00142D7D1E16AA1B394
:102FB0006868C00307D56868C0F38100022802D1A1
:102FC000E86AC00370D44FF080604FF0006B0229B4
:102FD0000DD0E96A21F48031E96290FAA0F0B0FAEC
:102FE00080F047F82090FFF7E7FA804670E0296804
:102FF000C90005D5E96A626B01F0F001914253D135
:103000004FF0806090FAA0F0B0FA80F047F820907E
:10301000FFF7D2FA8246D84606E06EE0FFF7CCFA18
:10302000A0EB0A0064281CD898FAA8F0B0FA80F047
:1030300040F02000400901D0286800E0686A98FA52
:10304000A8F1B1FA81F101F01F0106FA01F108427D
:10305000E4D1E86A616B20F0F0000843E862E86AB6
:1030600000E082E0216B20F470600843E8624FF0DA
:10307000806090FAA0F0B0FA80F047F82060FFF787
:103080009BFA824606E000BFFFF796FAA0EB0A0023
:1030900064286AD898FAA8F0B0FA80F040F02000CE
:1030A000400902D0286801E0A7E0686A98FAA8F110
:1030B000B1FA81F101F01F0106FA01F10842E3D0F3
:1030C0001BE000BFFFF778FAA0EB080064284CD89B
:1030D0009BFAABF0B0FA80F040F02000400901D03C
:1030E000286800E0686A9BFAABF1B1FA81F101F05F
:1030F0001F0106FA01F10842E4D1206AA0B3696811
:10310000C1F38101022978D002284FF080714FF07D
:10311000007A48460AD091FAA1F1B1FA81F147F854
:103120002100FFF749FA074654466FE08B4691FAB3
:10313000A1F1B1FA81F1B94647F82100FFF73CFA55
:103140008046574606E000BFFFF736FAA0EB0800BE
:10315000022858D897FAA7F0B0FA80F040F0200083
:10316000400903D0286802E065E04CE0686A97FAFD
:10317000A7F1B1FA81F101F01F0106FA01F108424D
:10318000E2D1606AB0F5803F09D1E86A616808431E
:10319000E862E86AE16820F00F000843E862D4E9D9
:1031A00009010843696821F47411084368609BFAB7
:1031B000ABF0B0FA80F049F82060FFF7FDF9044663
:1031C00005E000BFFFF7F8F9001B02281BD897FAAB
:1031D000A7F0B0FA80F040F02000400901D0286844
:1031E00000E0686A97FAA7F1B1FA81F101F01F01D6
:1031F00006FA01F10842E5D01DE01EE0FFF7DCF918
:10320000C01B022802D90320BDE8F88F94FAA4F06D
:10321000B0FA80F040F02000400901D0286800E0BA
:10322000686A94FAA4F1B1FA81F101F01F0106FA7B
:1032300001F10842E2D10020E6E70120E4E74FF087
:10324000E0210428086903D020F0040008617047D9
:1032500040F00400FAE7704710B5401EB0F1807FDF
:1032600001D3012010BD4FF0E02460610F216017F1
:1032700000F092FE0020A06107202061002010BD18
:1032800010B5FFF7E8FF10BD7047704730B590F8F4
:103290003820012A20D0012280F83820022380F82B
:1032A000393003685C6824F070045C6003685C6813
:1032B0000D682C435C6003689C6824F080049C606B
:1032C00003689C6849680C439C6080F839200021A1
:1032D00080F83810084630BD022030BD10B504001B
:1032E00003D094F8390010B107E0012010BD002090
:1032F00084F83800204600F00DF8022084F83900E8
:10330000211D206800F0D6FE012084F8390000203D
:1033100010BD000008B500680B49884212D10B4867
:10332000C16941F02001C161C069002200F02000A4
:10333000009011463720FFF7B3F9BDE80840372069
:10334000FFF7A2B908BD00000014004000100240C1
:103350000168CA6842F00102CA600068016841F071
:103360000101016000207047704770B50446006895
:1033700001694FF00005C943890715D4C168C943E5
:10338000890711D4E91E0161012020762068806937
:103390008007204602D0FFF7E7FF04E000F098F82E
:1033A000204600F096F8257620680169C943490750
:1033B00017D4C168C943490713D46FF004010161F0
:1033C000022020762068806910F4407F204602D0D9
:1033D000FFF7CAFF04E000F07BF8204600F079F820
:1033E000257620680169C943090716D4C168C94315
:1033F000090712D46FF008010161042020762068CB
:10340000C0698007204602D0FFF7AEFF04E000F05D
:103410005FF8204600F05DF8257620680169C94311
:10342000C90617D4C168C943C90613D46FF0100187
:103430000161082020762068C06910F4407F204692
:1034400002D0FFF791FF04E000F042F8204600F0C0
:1034500040F8257620680169C943C90708D1C168C9
:10346000C943C90704D1891E0161204600F032F822
:1034700020680169C943090609D4C168C94309061E
:1034800005D46FF0800101612046FFF7FDFE206842
:103490000169C943490609D4C168C943490605D42D
:1034A0006FF040010161204600F015F820680169C5
:1034B000C94389060BD4C168C943890607D46FF094
:1034C000200101612046BDE87040FFF7DEBE70BDFF
:1034D00070477047704770470449054A0968497C3E
:1034E00052F82110096909680847000040000020CF
:1034F000580000202DE9F04F05468DB07C48DDF8DE
:1035000060901A9C00681E4617464FF0000A78B17A
:103510001B9B199ACDF808900593CDE90324DDE9AA
:103520001623CDE90023046833463A46284682E054
:10353000DDE9160201EB060805EB070C1043A8F1C4
:103540000108ACF1010C012806D0C9F10800059072
:10355000002002910890C8E066480268B2F90A307B
:10356000581A002806DD361A002E65DD1946199B0B
:1035700000FB0344B2F90E00A8EB0000002802DDB6
:10358000361A002E58DDB2F90C00ACEB0000002812
:1035900000DD3F1AB2F908300020AB4237DD581B7E
:1035A0003F1A4B46B9F1080F28D007DC012B0DD08C
:1035B000022B13D0B9F1040F29D117E0102B1FD023
:1035C000182B20D0B9F1200F21D11CE020F00703E7
:1035D00004EBE0041D4400F0070018E020F00303B2
:1035E00004EBA0041D4400F0030010E020F00103F0
:1035F00004EB60041D4400F0010008E0044404E012
:1036000004EB400401E004EB800405440020002F9B
:1036100012DD1B9BDDF864C0CDE90403CDE902C4D3
:10362000CDE90069527C34483B4650F82200C2681C
:1036300054680A462946A0470DB0BDE8F08F179997
:103640000298084409902B49401E00900A68B2F97C
:103650000A30834241DCB2F90E10029881423CDB11
:103660004FF0000BD84603950B9434E0BBF1000FEC
:1036700005D10B984FF0080B10F801AB0B90059992
:10368000ABEB090B3AFA01F00AFA09F101F0FF0A73
:1036900004D118490968097C890716D415490968B5
:1036A000C96B0A680C921B9A0AB152F82000086094
:1036B00016990398009B4218521E029900F0A8F830
:1036C0000C490C980968C96B08600399169808F1B1
:1036D000010808440390B845C8DB0898401C0890CE
:1036E00009980290199804440898B042A7DBA3E710
:1036F000640000204000002058000020F0B40C4678
:1037000012490968B1F90A30A3421CDCB1F90E3044
:10371000A34218DBB1F90830834200DD1846B1F945
:103720000C30934200DA1A4682420CDB4B7C08498B
:1037300051F8235013462246E9688E680146284610
:10374000B446F0BC6047F0BC704700004000002069
:10375000580000200A46174930B40968B1F90A3008
:10376000934225DCB1F90E30934221DBB1F90830E8
:1037700083421DDCB1F90C30834219DB0B7C0E4C0B
:10378000DB0709D0497C54F82130D968CC6901465F
:10379000A44630BC18466047CB6B497C1B6854F884
:1037A0002140E1688D6901462046AC4630BC604747
:1037B00030BC70474000002058000020124B30B44D
:1037C0001B68B3F9084084421CDCB3F90C40844206
:1037D00018DBB3F90A408C4200DD2146B3F90E40F4
:1037E000944200DA22468A420CDB5C7C074B53F899
:1037F0002440E368DD6813460A4601462046AC468D
:1038000030BC604730BC70474000002058000020AA
:1038100038B5134C2468B4F90850854200DD2846B9
:10382000B4F90C50954200DA2A46824217DBB4F90B
:103830000A508D4200DD2946B4F90E509D4200DA4F
:103840002B468B420BDB0093647C064B53F82440E1
:10385000E3681D6913460A4601462046A84738BD5D
:103860004000002058000020082102F052BC000057
:10387000024809210068407C02F04BBC4000002057
:10388000092102F046BC70B500252C462046FDF704
:103890008FFF00B16D1C641C022CF7DB284670BD45
:1038A00002480068407C00F003B80000400000209F
:1038B00010B5FDF77DFF002805D0C168CA6ABDE8D4
:1038C00010400221104710BDAFF300802DE9F041F8
:1038D000002809D0876837B10D4E716819B10468A6
:1038E000B4F5807F02DD0020BDE8F08130688442BD
:1038F00000DD0446002507E057F82500FFF7ECFD42
:10390000716841F825006D1CA542F5DB7068EBE796
:10391000900000200449054A0968497C52F82110AA
:10392000096949680847000040000020580000204D
:1039300010B500F01F01074A074BC0F34514C0F350
:10394000C4201B5D105C515C00EB032000EB0140C8
:1039500010BD000040A9000860A9000810B50A4C7D
:10396000606860B920688000FDF770FD606040B15C
:1039700004F10801054808600846FEF789FC0020AC
:1039800010BD012010BD000090000020F16400086F
:103990002DE9F041FFF777FF0746002528E028468C
:1039A000FDF706FF18B32846FEF7A8F9804628461B
:1039B000FFF75AFF082817DC0F48104950F8250078
:1039C0000069884210D02846FFF75AFF06460024B7
:1039D00008E0E0B2FFF79EFF0246E1B2284600F0A1
:1039E00081F8641CB442F4DB4046FEF787F96D1C95
:1039F000BD42D4DBBDE8F0815800002058AA000881
:103A000010B50E4C0E492068407C51F8200050B192
:103A1000C1680968042903D000680028F8D102E0D1
:103A200008B1FDF7C3FE20680021016600F108011E
:103A30004161BDE8104000F02FB8000040000020B8
:103A40005800002001490968496808478C00002097
:103A5000044909680A7C520701D5C96B00E0896BEB
:103A600008607047400000207CB5094C054620687E
:103A7000417C084850F82100C1680A6B69469047AC
:103A800020686A4629460830FEF77BFB7CBD0000B3
:103A900040000020580000200448016804484A7C87
:103AA000083150F82200C268126B10474000002015
:103AB0005800002001490968096808478C00002067
:103AC000044909680A7C520701D5896B00E0C96B7B
:103AD000086070474000002001490968896808476C
:103AE0008C000020F8B515460E460124FDF760FE57
:103AF000009058B1C0681021426A684690470300A0
:103B000004D02A4631460098984700242046F8BD44
:103B1000F8B515460E460124FDF74AFE009058B14F
:103B2000C0680B21426A68469047030004D02A46C9
:103B300031460098984700242046F8BDF8B5154650
:103B40000E460124FDF734FE009058B1C0680A21EA
:103B5000426A68469047030004D02A4631460098DE
:103B6000984700242046F8BD10B5074C2068006B2C
:103B7000FFF7B2FCFFF7A4FF2068406BFFF7ACFC37
:103B8000BDE81040FFF764BF4000002030B59FB093
:103B900014211AA8FCF72FFB68216846FCF72BFBC1
:103BA00000231A4613491448FDF7AAFD04464FF4B2
:103BB000A0752A46F0210020FFF7AAFF2A46F0212F
:103BC0000020FFF7BBFF04201C901AA92046FDF738
:103BD000B8F90A4808900A4809900A480B900A4820
:103BE0000F900A4B0A4A69462046FDF7CAF91FB0F2
:103BF00030BD000010930008849300089B3E00082D
:103C0000813E0008853E00086B3E00081110000848
:103C1000B50F000810B5012902D04FF0FF3010BDDC
:103C200004F0E0FB002010BD2DE9FF4F8DB01746DA
:103C3000674ADDF870901E9E209812681D46002489
:103C40008AB11D9B1F98CDE90293CDE90460DDE99F
:103C50001A03CDE9000314682B463A460D98A04795
:103C600011B0BDE8F08F0D9A01EB050802EB070CCF
:103C7000DDE91A231A43A8F10108ACF1010C012A6D
:103C800006D0C9F108004FF0000B029105909CE0AE
:103C9000504A1268B2F90A40631A002B06DDED1A89
:103CA000002DDDDD21461D9C03FB0466B2F90E30BC
:103CB000A8EB0303002B02DDED1A002DD0DDB2F9D5
:103CC0000C30ACEB0303002B00DDFF1A0D9B1C1A1C
:103CD000B2F90830A3420DDDA3EB040C0CEB00039A
:103CE000181A20F007000444A7EB0C0706EBE306C4
:103CF00003F00700002FB3DD1F9BDDF874C0CDE992
:103D0000040303968DE82012527C33483B4650F85A
:103D10002200C26855680A462146A847A0E71B99B9
:103D20000298084409902B49401E03900A68B2F992
:103D30000A30834243DCB2F90E10029881423EDB26
:103D40004FF0000A0D980B96D046009035E000BF6A
:103D5000BAF1000F05D10B984FF0080A10F8014B8B
:103D60000B900599AAEB090A34FA01F004FA09F458
:103D7000E4B204D117490968097C890717D41549A9
:103D80000968C96B0A680C921F9A0AB152F82000A0
:103D9000086000991A980A180846DDE90213521EB5
:103DA000FFF736FD0B490C980968C96B086000994C
:103DB0001A9808F1010808440090B845C8DB099832
:103DC00002901D980BF1010B0644AB45A7DB47E7BA
:103DD000640000204000002058000020002818D077
:103DE000410817D0810817D0C10817D0010917D092
:103DF000410917D0010A17D0410A17D0010B15D07D
:103E0000C10B13D0010C11D0810C11D0000E11D0B8
:103E10002020704701207047022070470320704720
:103E20000420704705207047082070471020704715
:103E3000122070471820704700B50022FFF7CEFF10
:103E4000012804D0811E062903D808220BE0012294
:103E500009E0A0F10901072901D8102203E0113877
:103E60000F2800D82022104600BD70B50C4605462C
:103E700003E0A1B2284604F0D3FB641EF9D270BD62
:103E800004F034BC70B50D46044603E034F8020B70
:103E900004F02CFC6D1EF9D270BD04F0F9BB0000DB
:103EA0000349024808600846FEF76CBA0030024039
:103EB0000C000020F0B5274885B0816941F0400131
:103EC0008161816901F040010491816941F0100133
:103ED0008161816901F010010491816941F0200143
:103EE0008161816901F020010491816941F004013F
:103EF00081618069184E00F004004FF6FF74049051
:103F0000002221463046FEF752FB144F4FF4604525
:103F1000002229463846FEF74AFB0094032001247C
:103F20000390694601943046FEF75EFA0220CDE91F
:103F30000054039069463846FEF756FA80200090F8
:103F400000200190029069460548FEF74DFA05B041
:103F5000F0BD0000001002400018014000140140B4
:103F6000001001401CB50B4809490024016041F6CE
:103F70001F41C0E9011442F20F71C160FFF7AEF9B1
:103F80002020CDE9000469460248FFF77FF91CBDF7
:103F900000140040240100200907090E002806DA59
:103FA00000F00F0000F1E02080F8141D704700F1D0
:103FB000E02080F80014704710B5FEF703FBBDE861
:103FC0001040FFF75DB9000030B593B0012528041B
:103FD0000421CDE902010224CDE90050CDE90840D9
:103FE0004FF4E010CDE90A044FF4C0600C9040207B
:103FF0000D906846FEF756FD0F20CDE90E04002017
:104000006102CDE91001129002210EA8FEF77AFBA1
:10401000FEF7BCFC4FF47A71B0FBF1F0FFF71CF92E
:104020000420FFF70CF9E00690FAA0F00549B0FA79
:1040300080F041F8205000221146501EFEF730FB60
:1040400013B030BD000042421048016841F0010148
:10405000016041680E4A1140416001680D4A1140FB
:104060000160016821F480210160416821F4FE01B2
:104070004160016821F0A05101604FF47F0181602F
:104080000021C1620449C00308607047001002406B
:104090000000FFF0FFFFF6FE08ED00E010B5044859
:1040A000FFF763F9BDE81040012005F0A5B8000056
:1040B00024010020F0B50268174B184C184D194E1A
:1040C0004FF08047984207D0B84205D0A04203D0B5
:1040D000A84201D0B04204D122F0700C4A6842EAF2
:1040E0000C02984207D0B84205D0A04203D0A842A3
:1040F00001D0B04203D122F44074CA682243026066
:104100008A68C2620A688262984201D109690163C1
:1041100001214161F0BD0000002C0140000400407D
:1041200000080040000C004002490120096881F8A5
:1041300054007047400000202DE9F0418AB004008F
:1041400036D0FDF7D7F90190D0E90012CDE904127D
:10415000876A056A01A8FDF7DBF9204600F0B6FA88
:10416000060025D0204600F004F98046B80704D5A3
:104170002A46414604A800F0F2FB2046FDF7BAF9B2
:1041800001904046FDF7B6F906903046FDF7B2F9CA
:10419000039005620698019AC1691162C46101A881
:1041A000FDF7B6F906A8FDF7B3F903A8FDF7B0F9D6
:1041B0000AB0BDE8F08100002DE9FC5FDFF838A10E
:1041C0000746DDE90C54DAF81400DDF83CB09846F7
:1041D00091460E4604434DB9BAF8020048B3474829
:1041E0000AF138010068407C51F82050681C0ED05C
:1041F000FDB12846FDF77EF90190B0F90010B0F945
:1042000002200F441644B9F1000F02D006E0002549
:104210000FE0B0F90430591A01F10109B8F1000FAB
:1042200004D1B0F90600801A00F1010801A8FDF7D9
:104230006FF90BF12C00FDF7C7F85FEA000B57D0C0
:10424000BAF80200401CAAF802005846FDF752F9DD
:104250000090078007EB09014680491E818006EB2C
:104260000801491EC1800E990161254A816A2240D8
:10427000114381626846FDF74BF9DAF80C005E469F
:1042800050B1FDF75DF907463046FDF759F9014693
:10429000786948617E6101E0CAF80CB02946584649
:1042A00000F0AAFAA00602D5584600F041F9E0074E
:1042B00005D0DAF8201001F10101CAF820106006DB
:1042C00002D55846FFF738FFA0070DD55846FDF731
:1042D00011F90090816A41F0020181626846FDF7A0
:1042E00017F9584600F0F1F80121584600F072FB2A
:1042F0005846BDE8FC9F0000A000002040000020C0
:104300009F3F070010B50446C168D4E90020172A72
:104310000DD004DC0E2A0CD0142A07D104E0222A86
:104320000CD0282A02D10CE000F08BF90020E060CC
:1043300010BD2146BDE8104000F018B96FF0704084
:10434000F5E7BDE8104000F0C0B80000034804499C
:104350000068407C51F820007047000040000020B9
:10436000D800002010B5002802D0FDF7E9F8C06998
:1043700010BD10B5002802D0FDF7E2F8806910BD2D
:104380002DE9FF5F2C4D6878002853D100272B487A
:10439000EF60AF620068DFF8A8903C464764AF80EA
:1043A0006F804FF0020A4FF0FF3B40F6FF7805F1B7
:1043B00038062046FDF7FCF998B1CDE90297CDE922
:1043C00000BA0021424643460846FFF7F5FE1A4A66
:1043D00046F8240040326FF0704142F8241000F09B
:1043E00074F8641C022CE4DB164FDFF85C80DFF805
:1043F0005C90002407EBC40000F0ECF808EBC4006C
:1044000000F0E8F809EBC40000F0E4F8641C022CAA
:10441000F0DB306800F08CF8FFF786FE01200649DB
:10442000687030310A48086004B00846BDE8F05FA3
:10443000FDF72EBFBDE8FF9FA00000204000002038
:10444000E17B000890C60020A0C60020B0C6002076
:104450000565000870B586B00D4606002CD0FDF746
:1044600049F80090846AA10723D5D0E90010CDE96E
:104470000110E00302D5304600F013FA5DB1286860
:1044800003906868049003A9009800F0ABF803A9B2
:1044900001A8FDF759FE314601A800F0ABF840B184
:1044A00040F601000440012C08D001A9304600F07C
:1044B000F5F96846FDF72CF806B070BD0098026A61
:1044C000816901A800F04BFAF3E70021FFF7C2BFB2
:1044D000FEB515460E4604001CD0FDF70BF802464B
:1044E000009090F82800800711D5314601A8FDF70B
:1044F00048FE60B16846FDF70BF82A4601A9204640
:1045000001F054FF2046FFF72DFF04460CE06846FB
:10451000FCF7FEFFFEBD2A4601A92046FFF7D8FFA3
:104520002046FDF70DF8046A002CF4D1FEBD000012
:1045300070B50C4D04002868866C01D10A49CC681E
:104540008464204600F01EFAFFF7A6FA2046FCF726
:10455000F7FF2968B0F90020CA64B0F902000865C5
:10456000304670BD40000020A000002070B50C0057
:10457000054609D0FFF7FDFE002805D02146A560BD
:10458000BDE8704000F008BA70BD00000EB50E48DE
:10459000006890F8541009B10C4811E0806CFCF7E9
:1045A000A9FF0090D0E90010CDE901106846FCF7A2
:1045B000AFFF0748416A11B101A800F01BF801A83C
:1045C00002F0FEF80EBD00004000002010C60020E2
:1045D000A000002002490A680260086070470000DD
:1045E000B00000200B46B0F90220B0F900101846C8
:1045F000FDF74FBB38B50C4605462046FCF77AFF61
:104600000146009090F82800800703D46846FCF724
:104610007FFF12E02846FDF797FD0098806920B1E2
:1046200004466846FCF774FFE7E76846FCF770FF4E
:10463000204600F01BFB002801DA002038BD0120D5
:1046400038BD38B50C4600280AD0002C08D0FCF73D
:1046500051FF2146009000F004F86846FCF758FF2F
:1046600038BD00224A800A8082880388D21A8A8054
:10467000C2884088101AC880704710B5FFF779FECD
:10468000002802D0FCF75CFFC06910BD0D4810B5D2
:10469000006890F85400002806D00B4C606901288F
:1046A00003DD401E6061002010BD2069401C2061B8
:1046B00001F0AEFA18B1FFF769FF012010BD606983
:1046C000EFE700004000002008C6002070B5054656
:1046D000FFF7D3FF08E0AC4201D1002406E0FCF76D
:1046E0002FFF006AA84201D00400F4D1204670BD1B
:1046F00010B50446FCF724FF80690028F9D1204654
:10470000BDE8104000F0B2BAF0B5384E074687B0A9
:10471000306890F8541041B1354C6169491C6161B1
:10472000012905DD012007B0F0BDFFF72FFFF9E7F4
:10473000806CFCF7DFFE2F4D4FF0FF3100902161C0
:10474000297821B181680291C068039007E090F850
:10475000281089073CD5D0E90010CDE902101FB11F
:10476000394602A8FDF7F0FC3068406C78B3009839
:1047700004903068406C0168059140680690686A52
:1047800030B104A8FCF7C4FE686AFCF7B3FE0490DD
:1047900005A90498FFF726FF05A902A8FDF7D4FC98
:1047A0000DF11000FCF7B4FE696A19B102A8FFF719
:1047B00021FFB0B13068816C02A8FFF71BFF80B108
:1047C000DDE90201C4E90001FFF760FFABE706E0A5
:1047D0006069401E60616846FCF79AFE04E0684626
:1047E000E0E76069401E606100209CE74000002017
:1047F00008C60020A0000020FEB50D00044647D0EA
:10480000FCF778FE00900021856101622846FCF7E4
:1048100071FE00990290C56991F8281001F0080610
:104820002DB12846FCF766FE019036B115E0C46153
:104830006846FCF76DFE02A828E090F82800000703
:104840000BD5009805620298C4616846FCF760FECB
:1048500002A8FCF75DFE01A818E002A8FCF758FECC
:1048600001A8FCF755FE2846FCF76AFE11E0046239
:104870000BE02846FCF764FE5EB990F828100907A3
:1048800007D501980462009805626846FCF740FE6F
:10489000FEBD0190056A002DEBD1E8E7202201F072
:1048A00085BD38B504001ED0FCF724FE009090F8BA
:1048B0002810890714D5406A20B1FDF763F90099E3
:1048C000002048622046FFF74DFD044606E02046E2
:1048D000FFF7E7FF2046FCF733FE046A002CF6D111
:1048E0006846FCF715FE38BD2DE9FF41984616468F
:1048F00007460D0031D00846FCF7FCFD0090846AA5
:104900000246A00726D5394601A8FDF73AFC08B3B0
:1049100040F601000440012C07D0424601A9284678
:1049200001F044FD0098C46912E000984346026A11
:10493000816901A8FFF7D8FFF4E7B4420AD04246E4
:1049400001A92046FFF7C4FD2046FCF7F9FD046AE3
:10495000002CF2D16846FCF7DBFDBDE8FF81202387
:10496000FFF7C2BFB0F90010B0F90420914205DC96
:10497000B0F90210B0F90600814201DD0020704755
:104980000120704710B5FFF7B3FE002803DBBDE838
:104990001040FDF7B3B910BD70B50D4C06460D467D
:1049A000206814280DDA3046FCF7CAFD01696E60F4
:1049B00041B12068401C2060284688472068401E7E
:1049C000206070BD2846BDE87040FFF79BBC00002A
:1049D0001C0100201FB5CDE900106946FFF7DCFF80
:1049E0001FBD000030B50B4C23680C2B10DA0A4AAF
:1049F000190009D002EB410535F9025C854203DB61
:104A000022F81150491EF5D122F811005B1C2360D9
:104A100030BD000088000020F0C500202DE9F041E5
:104A20001B4D0C460646A968686B0144491EA01937
:104A3000884205D8016819B941680E4401F046FE64
:104A4000686BA0420AD254F8040C271A386828B9B7
:104A500078680644384601F039FE3C46304601F09D
:104A600093FB05EBC0073246002120463B6C02F069
:104A7000A3F957F8400F083400B1446020600020CB
:104A800060603C602868304428603046BDE8F081B2
:104A9000B0C400202DE9F041054601F035FC2B485B
:104AA000C46BAC4202D8ED1C25F0030480460068BC
:104AB0000C34A04202D20020BDE8F08101F03CFDA0
:104AC0000600F9D0204601F05FFB424611E000BF2E
:104AD00002EBC001096C59B18D686B68A3420BD21F
:104AE000A96829B18D686B68A34205D2002DF7D162
:104AF000401C1028ECD31FE0F5B1D8F83C00191B7E
:104B00000C301F46814200D23C46284601F0DEFDB3
:104B10000421D8F8300001EBC6010023455022469D
:104B20003146284602F048F9A74203DD2919381B0F
:104B3000FFF774FF3046BFE7204601F0E1FD002893
:104B4000C0D0304601F018FDB5E70000B0C4002029
:104B5000C10A01D003207047C00901D0022070476C
:104B60000120704701207047F0B40E4C246814B146
:104B7000A446F0BC60470C4DDFF830C010C8521E90
:104B8000E6B2AF5DC4F30726C4F307441CF8066021
:104B90002C5D04EB461404EBC7240C801944EDD1C2
:104BA000F0BC70472400002040A7000840A800087F
:104BB0002DE9F0478146FEF75BFE4FF000080746FF
:104BC0006FF07F444546FEF76BFE060018D000BF2D
:104BD00056F82510494502D12846BDE8F0876D1CDE
:104BE000BD42F5DB5FF00005484656F82510FCF79E
:104BF000FFFCA04201D20446A8466D1CBD42F3DB77
:104C00004046EAE710B5C1B2064A074BC0F3072495
:104C1000C0F307401B5D105C515C00EB431000EBE0
:104C2000C12010BD40A7000840A800082DE9F05F92
:104C30009A46DDE90A8791460C4605468B4616469C
:104C400035F8020B41468847B84701C4761EF7D1B4
:104C50005046BAF1200F06D2024649465846BDE8F2
:104C6000F05FFDF719B9BDE8F09F00000146064A64
:104C7000002000BF52F820308B4204D0401C022894
:104C8000F8DB4FF0FF307047D8000020F7B515462D
:104C9000184A01A9009812689047174C00902068A4
:104CA000406920B12946FDF703F8002821D00120F2
:104CB000FDF790FA2068C069406920B18268DDE99B
:104CC0000001904712E00D4D0CE06846FDF782F8B8
:104CD00006462068C069016830468847296809B1DE
:104CE000304688470198401E0190EED50020FDF720
:104CF00071FAFEBD0001002040000020600000208D
:104D00002DE9FF4F85B08346DDE91390129ED0E96F
:104D100000A0DBF80850039047488C191F46006834
:104D20004FF08008007C10F0030006D0012865D009
:104D3000022819D0032814D160E0387828FA06F147
:104D4000084201D0039800E05046D5F82C1180B2FB
:104D50008847761C082E01D100267F1CB9F1010975
:104D6000EBD109B0BDE8F08F4FF0000ACDF808A0F4
:104D7000D5F86CB00194397828FA06F0014202980F
:104D80000BD020B90120CDE90140D5F86CB00398D3
:104D90002BF8020B0AF1010012E0012811D1631E69
:104DA00000200290079800900246D5F8A4C028463B
:104DB0000199E047D5F834215146E86E904700202C
:104DC0008246641C761C082E01D100267F1CB9F196
:104DD0000109D0D1BAF1000FC3D00798631E00902B
:104DE0000246D5F8A44028460199A047D5F83421B9
:104DF000E86E09B05146BDE8F04F1047397828FAFF
:104E000006F001420DD0D5F8E83021465846079A01
:104E10009847AB6AD5F8ECC0434021465846079AFC
:104E2000E047641C761C082E01D100267F1CB9F1D6
:104E30000109E3D195E70000400000202DE9FF5F64
:104E40009046DDE90E924B4B99F80050C2F10804F0
:104E50008A465D5DDDE91071D540474A139E1268B0
:104E6000127C12F0030225D0012A03D0022A37D087
:104E7000032A7DD10069806880471FFA80FBBC420D
:104E800000D93C463F1BBAF1000F65D0E8070AD0B5
:104E9000DAF808004146039A03685046984731887B
:104EA00081EA0B013180B61C6D0808F10108641E0F
:104EB000ECD15BE02F4ABC4200D93C46B7EB04077B
:104EC00005F001006D0831F8200026F8020B641E81
:104ED000F6D1002F4CD019F8010F0824155CEAE731
:104EE00088881FFA80FBBC4200D93C463F1BBAF1C0
:104EF000000F16D08DB1E80708D0DAF80800414657
:104F0000039A036850469847A6F800B0B61C08F10B
:104F10000108641E11D06D08ECE706EB4406A044BE
:104F20000BE045B1E80701D0A6F800B0B61C641E3E
:104F300003D06D08F5E706EB4406002F18D019F8EA
:104F4000011F0C480824455CCDE719F8011F0948EA
:104F50000824455C93E70BE0E80703D0308880EA3B
:104F60000B003080B61C6D08641EF5D1002FECD10B
:104F7000BDE8FF9F70AA0008400000202DE9FF4F08
:104F800085B08668DDE9125714989B4600283AD010
:104F90003F489BF800904C1900684FF0C008007C17
:104FA00010F0030016D002282DD14FF0000ACDF8E2
:104FB0000CA0F06ECDE90140C5F103004100C1F144
:104FC000060228FA02F000EA0900C8402ED0039930
:104FD000E1B120E0C5F103004100C1F1060228FA69
:104FE00002F000EA0900C840149931F82000D6F810
:104FF0002C1180B288476D1C042D02D11BF8019F33
:1050000000257F1EE6D109B0BDE8F08F0121019493
:105010000391F16E0291149931F8200002990880F1
:105020000298801C02900AF1010013E00398012805
:1050300011D1631E00200390079800900246D6F815
:10504000A4C030460199E047D6F834215146F06EAD
:10505000904700208246641C6D1C042D02D11BF871
:10506000019F00257F1EA7D1BAF1000FCBD0079872
:10507000631E00900246D6F8A44030460199A0472E
:10508000D6F83421F06E09B05146BDE8F04F104714
:10509000400000202DE9FF5F8B460FA9DDF8388026
:1050A000B1E82104C0F10401CCB298F8001040002E
:1050B00081402F48129F91460068CEB2007C10F0CC
:1050C000030004D001283AD002284FD114E0AC42AA
:1050D00000DDECB22D1BB1093AF8210027F8020BD4
:1050E000B006060E641E14F0FF04F4D1002D3DD06E
:1050F000042418F8016FEAE7AC4200DDECB22D1B86
:10510000B0090DD0B109BBF1000F3AF82100388089
:1051100006D0DBF808004946039A036858469847CA
:10512000B006BF1C060E641E09F1010914F0FF044D
:10513000E6D1002D1AD0042418F8016FDCE7AC4248
:1051400000DDECB22D1BB00903D0388880F0FF00E1
:105150003880B006BF1C060E641E14F0FF04F2D1A6
:10516000002D03D0042418F8016FE8E7BDE8FF9F85
:10517000400000202DE9FF4F85B08668DDE9125719
:1051800014989B4600283AD03F489BF800904C1951
:1051900000684FF0F008007C10F0030016D00228E1
:1051A0002DD14FF0000ACDF80CA0F06ECDE90140F2
:1051B000C5F101008100C1F1040228FA02F000EA01
:1051C0000900C8402ED00399E1B120E0C5F10100EB
:1051D0008100C1F1040228FA02F000EA0900C84087
:1051E000149931F82000D6F82C1180B288476D1C34
:1051F000022D02D11BF8019F00257F1EE6D109B0C8
:10520000BDE8F08F012101940391F16E0291149990
:1052100031F82000029908800298801C02900AF15F
:10522000010013E00398012811D1631E00200390B0
:10523000079800900246D6F8A4C030460199E0478E
:10524000D6F834215146F06E904700208246641C07
:105250006D1C022D02D11BF8019F00257F1EA7D1D6
:10526000BAF1000FCBD00798631E00900246D6F823
:10527000A44030460199A047D6F83421F06E09B019
:105280005146BDE8F04F1047400000202DE9F05F87
:1052900092460BAA8946B2E842010A9F9B468B00C0
:1052A0003A78C1F102009A40D5B24D4A0E9CC0B284
:1052B0001268127C12F003021AD0012A79D0022A55
:1052C00038D100295FD028090DD02909B9F1000F84
:1052D00038F82100208006D0D9F808005A465146F7
:1052E000036848469847A41C0AF1010A761E48E064
:1052F00039B12909761E38F8210024F8020B17F875
:10530000015F022E10DB701006F001062A0938F842
:10531000221005F00F02218038F822106180241D30
:1053200017F8015F401EF1D1002E03D0290938F88B
:1053300021002080BDE8F09F28090DD02909B9F18E
:10534000000F38F82100208006D0D9F808005A460E
:10535000514603684846984715F00F000DD038F8BD
:1053600020006080B9F1000F07D0D9F808005A4634
:105370000AF10101036848469847241D0AF1020A10
:10538000B61E17F8015F022ED6DA002ED2D02809F9
:10539000D0D038F820002080B9F1000FCAD0D9F859
:1053A00008005A46514603684846BDE8F05F184772
:1053B000FFE7B04200DDF0B2361AA90903D0218818
:1053C00081F0FF0121802907A41C0D0E401E10F062
:1053D000FF00F2D1002EADD0022017F8015FE8E700
:1053E000400000202DE9FF4F83B08568DDE9107B88
:1053F0001E460C46BBF1000F20D02E480068007CF2
:1054000010F0030018D0022818D14FF00008D5F88A
:105410006C90C246CDF8044016F8010BE8B1BAF121
:10542000000F0ED012E03078D5F82C113BF8200098
:1054300080B288477F1E761C002FF4DC07B0BDE8E1
:10544000F08F0194D5F86C904FF0010A3BF82000E2
:1054500029F8020B08F1010013E0BAF1010F11D194
:10546000059800900246D5F8A4C0631E4FF0000ACC
:1054700028460199E047D5F834214146E86E904727
:1054800000208046641C7F1EC6D1B8F1000FD5D025
:105490000598631E00900246D5F8A440284601995D
:1054A000A047D5F83421E86E07B04146BDE8F04F7B
:1054B00010470000400000202DE9F04387B08946E6
:1054C0000EA9B1E8F01181688DE8F011D1F8E04043
:1054D0004946A04707B0BDE8F08300002DE9FF4F23
:1054E00083B099460398DDE91075DDE9138B866872
:1054F0009246012D05D0022D03D0042D01D0082D98
:1055000006D132480068007C00F0030002280ED06B
:105510000AEB0700401E00900498D6F8A44000EB68
:105520000B0101EB09035B1E52463046A0470024E5
:1055300046E0042D24D004DC012D07D0022D3CD1FF
:1055400011E0082D29D0102D37D131E01598CDF874
:1055500000B0CDE90190DDE9030104EB0A02434606
:10556000FFF7CEFB29E01598CDF800B0CDE901900A
:10557000DDE9030104EB0A024346FFF7FFFC1CE0F0
:105580001598CDF800B0CDE90190DDE9030104EBF9
:105590000A024346FFF7EEFD0FE0159804EB0A02FE
:1055A000CDE90090DDE903014346FFF71BFF04E06E
:1055B000D6F834214946404690471299641C8844E5
:1055C000BC42B6DB07B0BDE8F08F00004000002011
:1055D0002DE9FF4F8DB0A848DDE91D860068DDE9A3
:1055E0001A970C46006EFBF785FF0690406908B1DC
:1055F000FBF780FF0A900698C068089006A8FBF7A2
:1056000087FFA0190E900A9850B19B490968097C40
:10561000890705D10EACCDF800900ECCFCF704FC48
:10562000DDE90E0101F0E4FE0446102F03D0182F2F
:105630005CDB002056E000251FE000BFDDE90EB076
:105640002844DDF828A0109E02905FEA08010FD0E0
:1056500020000DD07200FAF7A7FDBAF1000F07D0B5
:10566000DAF808003346594647685046029AB84768
:105670001C986D1C8044089804444D45DEDBF1E025
:105680000A980390DDE90EB10B985FEA080508441B
:105690000190DDF840A026461ED0EEB1039830B14F
:1056A0008068534659464768019A0398B8470D9950
:1056B00028680969096888473080039828B180689C
:1056C0005946019A036803989847B61C2D1D0BF1A3
:1056D000010BBAF1010AEAD108981C9904440B980D
:1056E0008844401C0B904845CADBBBE0082F03D020
:1056F0001F9800286CD06DE0002065E01F980028FE
:105700000A9832D0DDE90EA102900BEB0100009067
:105710001F9804905848109F454600682646007C14
:1057200010F0030002D0022848D109E015F8011B4F
:1057300004987F1E30F8210026F8020BF6D13DE0D8
:10574000287858B1049931F820003080029828B1A7
:1057500080685146009A036802989847B61C6D1CF1
:105760000AF1010A7F1EEBD128E0DDE90EA10190CC
:105770000BEB010002904048109F4646006825460A
:10578000007C10F0030002D0022817D105E03A4651
:1057900041462046FAF708FD10E0307840B12880F5
:1057A000019828B1806851460368DDE901029847F5
:1057B000AD1C761C0AF1010A7F1EEED108981C99D7
:1057C000044488440BF101008346484596DB49E0D8
:1057D0002A481F90002543E03846012F04D00228B4
:1057E0001CD0042F37D128E023480068006EFBF757
:1057F00081FE0690CDF80080109A1F990594CDE99E
:105800000310CDE901620F980A992B18DDE90D020A
:10581000FFF714FB06A8FBF77BFE1CE010991F980E
:10582000CDE90086CDE902100F9804942B18DDE92C
:105830000D020A99FFF72EFC0DE010991F98CDE993
:105840000086CDE902100F9804942B18DDE90D02B3
:105850000A99FFF71BFD1C990898884404446D1CA5
:105860004D45B9DB0A98002802D00AA8FBF750FE84
:1058700011B0BDE8F08F000040000020E4A900084E
:1058800038B584680092D4F8E440A04738BD08B524
:10589000009200F067F908BD034A1268527E002AA0
:1058A00001D1FBF7A1B970474000002038B58468EA
:1058B00000930B46D4F8E440A04738BD2DE9FC47DF
:1058C000DFF8AC8081461E46D8F8000015468A46AF
:1058D000006EFBF70FFE0190406908B1FBF70AFE6E
:1058E00000902946504601F083FD04460198C768A0
:1058F000D8F80000017CC90715D0D9F810008068DD
:10590000804787B2009820B181682A460B685146CB
:10591000984720886D1C784020800198B542C06867
:105920000444EFDD19E0C06B0168009870B11FFA04
:1059300081F800982A4681680B6851469847A4F878
:1059400000806D1C3C44B542F3DD06E0701B401C3A
:1059500089B221803C44401EFBD101A8FBF7D8FD51
:105960000098002802D06846FBF7D2FDBDE8FC870E
:105970004000002070B504460D460846FFF7E8F8E1
:10598000012812D0022812D003280DD1E02141EACB
:1059900015312170C5F3851141F08001617005F06A
:1059A0003F0141F08001A17070BD257070BDC02124
:1059B00041EA9511217005F03F0141F080016170CD
:1059C00070BD0170012070472DE9F047224C04267C
:1059D000A06AE0B1E06806EBD0014518E800FFF7E7
:1059E00059F8070036D0216B06EBC700B1460E58B8
:1059F000E0680836C2003046D4F82880FAF7D4FBB5
:105A0000A7622663E0684B4601466A1E0EE0124814
:105A1000BC30D0E901100830B1FBF0F5AD1CDDE77A
:105A2000471C03EBC00C401C46F80C709042F7D3A7
:105A300009EBC0000022325021626068691A0844F4
:105A4000E56060605FEA080001D0FBF7D7FC00204A
:105A5000BDE8F0870120FBE7B0C4002038B58468BA
:105A6000049D0095D4F8E440A04738BD2DE9FF4FD0
:105A700083B03B4F03988B46164685683868DDF83F
:105A800040809946007C1946C207A3EB0B0A35D12A
:105A900039E000BFD5F8C070EC6E3FB1CDE90064CD
:105AA0004B46324659460398B8470DE05F4608E03A
:105AB000D5F8E830324639460398984724F8020B67
:105AC0007F1C4F45F4DDEC6E0AF1010005E02188F2
:105AD0002A8D514024F8021B401E0028F7D1009661
