:020000040800F2
:1000000008020020650100086D0100086F0100086A
:10001000710100087301000875010008000000006C
:100020000000000000000000000000007701000850
:1000300079010008000000007B010008C9100008D9
:100040007F0100087F0100087F0100087F01000890
:100050007F0100087F0100087F0100087F01000880
:100060007F0100087F0100087F0100087F01000870
:100070007F0100087F0100087F0100087F01000860
:100080007F0100087F0100087F0100087F01000850
:100090007F0100087F0100087F0100087F01000840
:1000A0007F0100087F0100087F0100087F01000830
:1000B0007F0100087F0100087F0100087F01000820
:1000C0007F0100087F0100087F0100087F01000810
:1000D0007F0100087F0100087F0100087F01000800
:1000E0007F0100087F0100087F0100080000000078
:1000F0000000000000000000000000000000000000
:1001000000000000000000007F0100087F010008DF
:100110007F0100087F0100087F0100087F010008BF
:100120007F0100087F0100087F0100087F010008AF
:100130007F0100087F0100087F0100087F0100089F
:100140007F0100087F0100087F0100087F0100088F
:10015000DFF80CD000F018F80048004799120008AA
:10016000080200200648804706480047FEE7FEE7F1
:10017000FEE7FEE7FEE7FEE7FEE7FEE7FEE7FEE757
:100180005911000851010008064C074D06E0E068CF
:1001900040F0010394E8070098471034AC42F6D3CE
:1001A000FFF7DAFF281300084813000831B500F004
:1001B000F1F8044600F0EEF80099001B8842F9D3EC
:1001C00038BD00002DE9F84FDFF890A100220AF1B8
:1001D000040B144601274FF00F090BF1040E00BF6A
:1001E0000B6807FA04F52B40AB4274D1DFF870C1FD
:1001F0004E68A6EB0C0866452BD00DDC032E34D0E0
:1002000005DC36B3012E19D0022E2FD11BE0112EA2
:1002100016D0122E2AD119E0B8F5881F19D006DCA5
:10022000B8F5803F15D0B8F5801F1FD111E0B8F5A3
:10023000001F0ED0B8F5041F18D10AE0CA6815E0F7
:10024000CA68121D12E0CA6808320FE0CA680C3290
:100250000CE08A682AB1012A4FF0080203D04561F8
:1002600004E0042202E0056100E00022FF2B01D837
:10027000064601E000F104064FEA840501D9A5F124
:100280002005D6F800C009FA05F82CEA080C02FA95
:1002900005F54CEA050CC6F800C04D68ED0057D5D1
:1002A000304DAE6946F00106AE61AD6924F003063B
:1002B00005F0010500952C4D06EB050CDCF8085007
:1002C000A6074FEA167809FA08F6B543274EB0425A
:1002D00002D1002610E03BE0254EB04201D10126BC
:1002E0000AE0244EB04201D1022605E0224EB0427F
:1002F00001D1032600E0042606FA08F62E43CCF8C6
:1003000008604D68DAF80060ED03554601D51E43DC
:1003100000E09E432E604D68DBF80060AD035D4653
:1003200001D51E4300E09E432E604D68DEF800605C
:10033000ED02754601D51E4300E09E432E604D68D8
:10034000AD020E4D2E6801D51E4300E09E432E6087
:10035000641C102CFFF444AFBDE8F88F000401408A
:100360000000111000100240000001400008014090
:10037000000C014000100140001401400C04014039
:100380008068084000D0012070470AB101617047C1
:100390000904FBE7014800687047000000000020E6
:1003A00002480168491C01607047000000000020FD
:1003B000074810B5016841F010010160032000F00A
:1003C00059F8002000F006F800F016F8002010BDE3
:1003D0000020024010B5044600F0A2F94FF47A71F3
:1003E000B0FBF1F000F002FE00222146501E00F0AA
:1003F00021F8002010BD00000C4808B5816941F0CB
:1004000001018161806900F001000090032000F08B
:1004100031F800221146501E00F00CF804484168E3
:1004200021F0E06141F00071416008BD0010024020
:1004300000000140F0B40E4B1B680C46C3F30223CE
:10044000C3F10705042D00D90425191D072901D280
:10045000002300E0DB1E012606FA05F1491E2140BB
:1004600099409E40761E16403143F0BC00F01CBE01
:100470000CED00E0064900F0070208684FF6FF03A4
:10048000184040EA0220034A104308607047000009
:100490000CED00E00000FA052DE9F047DFF8789256
:1004A00005460E46D9F80000022300F00707012098
:1004B00041044206994C41F28838B74271D2D9F8CA
:1004C00000C02CF0070C4CEA060CC9F800C0D9F8A3
:1004D000007007F00707B7426FD12E78B60705D531
:1004E0006668AF6826F0F0063E4366602E78F60731
:1004F00056D06E68012E0BD0022E1ED093FAA3F1B7
:10050000B1FA81F141F02001490924D0216823E0AA
:1005100091FAA1F2B2FA82F242F02002520901D01D
:10052000226800E0626A91FAA1F1B1FA81F101F06A
:100530001F018840024240D017E092FAA2F1B1FABE
:1005400081F141F02001490901D0216800E0616A90
:1005500092FAA2F202E0616A93FAA3F2B2FA82F28C
:1005600002F01F029040014227D0606820F0030093
:1005700030436060FFF70EFF06466868012809D027
:100580000228474613D01EE0FFF704FF801BB84245
:1005900001D992E047466068C0F381000128F3D199
:1005A000A1E015E0FFF7F6FE801BB84273D8606843
:1005B000C0F381000228F5D195E092E0FFF7EAFE52
:1005C000801BB84279D8606810F00C0FF6D18AE031
:1005D0002F78BF0707D56768D5F808C027F0F00760
:1005E00047EA0C0767602F78FF076DD06F68012F0F
:1005F0000BD0022F1ED093FAA3F1B1FA81F141F092
:100600002001490924D0216823E091FAA1F2B2FA2D
:1006100082F242F02002520901D0226800E0626AB0
:1006200091FAA1F1B1FA81F101F01F018840024273
:1006300057D017E092FAA2F1B1FA81F141F020010E
:10064000490901D0216800E0616A92FAA2F202E051
:10065000616A93FAA3F2B2FA82F202F01F029040AA
:1006600001423ED0606820F0030038436060FFF72D
:1006700091FE07466868012807D0022811D01FE0C4
:10068000FFF788FEC11B414517D86068C0F38100A1
:100690000128F5D118E010E0FFF77CFEC11B4145B1
:1006A0000BD86068C0F381000228F5D10CE000BFD0
:1006B000FFF770FEC11B414502D90320BDE8F0875A
:1006C000606810F00C0FF3D1D9F8001021F0070189
:1006D0003143C9F80010D9F8000000F00700B0421B
:1006E00001D00120EAE72878400705D56068E9686D
:1006F00020F4E060084360602878000706D5606851
:10070000296920F4605040EAC10060600020FFF7D2
:1007100061FE0020D2E700000020024000100240ED
:1007200000B500F017F808494968F02292FAA2F2E1
:1007300001F0F001B2FA82F2D140044A515CC840A3
:100740000349086000BD000000100240E8120008E4
:1007500004000020F0B52DA28AB007CA8DE807007A
:100760002DA103AC0FC984E80F002F494B682F4817
:1007700003F00C02042A02D0082A02D02C480AB046
:10078000F0BD4FF4701595FAA5F403F47012B4FAA5
:1007900084F4E2406E461DF80220DB0333D5CB6AB9
:1007A0000F2494FAA4F403F00F03B4FA84F4E340A2
:1007B00003ACE45CCB6ADB0316D5CB6AF02797FA6F
:1007C000A7F703F0F003B7FA87F7C96AFB40AF1247
:1007D00097FAA7F701F47061B7FA87F7F9405B1C45
:1007E000B0FBF3F0891C4843B0FBF4F095FAA5F395
:1007F00050434FF45011B3FA83F3D940715C9142E6
:10080000BDD14008BBE70B485043B8E700000405E2
:10081000060708090000000D010203040506070889
:10082000090A0B0C0D0E0F100010024040787D01DC
:1008300000127A0000093D002DE9F84F04460078C7
:10084000FC4DC0074FF0010625D068687704C0F35F
:100850008100012807D06868C0F3810002281BD1FD
:100860006868C00318D597FAA7F0B0FA80F040F096
:100870002000400901D0286800E0686A97FAA7F1D3
:10088000B1FA81F101F01F0106FA01F1084202D02C
:10089000A068002876D081E0286820F480302860A5
:1008A000286820F480202860FFF774FD804605E06A
:1008B000FFF770FDA0EB080064287DD897FAA7F039
:1008C000B0FA80F040F02000400901D0286800E034
:1008D000686A97FAA7F1B1FA81F101F01F0106FAEF
:1008E00001F10842E4D1A068B0F5803F0BD010B10F
:1008F000B0F5A02F11D0286820F480302860286837
:1009000020F4802002E0286840F480302860A0684D
:1009100020B3FFF73FFD80460AE0286840F48020BE
:100920002860F0E7FFF736FDA0EB08006428C4D884
:1009300097FAA7F0B0FA80F040F02000400901D00B
:10094000286800E0686A97FAA7F1B1FA81F101F02E
:100950001F0106FA01F10842E4D01FE0FFF71AFD7B
:10096000804605E0FFF716FDA0EB08006428A4D838
:1009700097FAA7F0B0FA80F040F02000400902D0CA
:10098000286801E0B8E0686A97FAA7F1B1FA81F146
:1009900001F01F0106FA01F10842E3D12078A64FC9
:1009A00080074FF002084FF000095BD568684FF0F0
:1009B000F80B10F00C0F00E01DE207D06868C0F3E0
:1009C000810002281BD16868C00318D498FAA8F0E7
:1009D000B0FA80F040F02000400901D0286800E023
:1009E000686A98FAA8F1B1FA81F101F01F0106FADC
:1009F00001F108422BD0606901287DD127E06069B0
:100A000088B396FAA6F0B0FA80F047F82060FFF7B6
:100A1000C1FC824606E000BFFFF7BCFCA0EB0A0069
:100A2000022884D898FAA8F0B0FA80F040F02000AC
:100A3000400901D0286800E0686A98FAA8F1B1FA84
:100A400081F101F01F0106FA01F10842E4D02868A3
:100A50009BFAABF2A169B2FA82F220F0F800914061
:100A60000843286025E0FFE796FAA6F1B1FA81F184
:100A700047F82190FFF78EFC824605E0FFF78AFCDD
:100A8000A0EB0A000228CCD898FAA8F0B0FA80F0BF
:100A900040F02000400901D0286800E0686A98FA18
:100AA000A8F1B1FA81F101F01F0106FA01F1084243
:100AB000E4D1207800076FD5E069C0B396FAA6F0BC
:100AC000B0FA80F007EB8000C0F88064FFF762FCAA
:100AD000824605E0FFF75EFCA0EB0A000228A0D8E2
:100AE00098FAA8F1B1FA81F141F060014046B6EB05
:100AF000511F02D129680CE0A0E190FAA0F1B1FAEF
:100B000081F141F06001B0EB511F01D1296A00E091
:100B1000696A98FAA8F0B0FA80F000F01F0206FAAD
:100B200002F00142D6D00120FFF740FB34E0FFE79E
:100B300096FAA6F1B1FA81F107EB8101C1F8809430
:100B4000FFF728FC824605E0FFF724FCA0EB0A0033
:100B5000022898D898FAA8F1B1FA81F141F0600121
:100B60004046B6EB511F01D129680BE090FAA0F185
:100B7000B1FA81F141F06001B0EB511F01D1296A56
:100B800000E0696A98FAA8F0B0FA80F000F01F025D
:100B900006FA02F00142D7D12078400773D5E86900
:100BA00040F08050E861E869DFF890B000F08050D4
:100BB0000090DBF8001041F48071CBF80010FFF7D3
:100BC000E9FB824606E000BFFFF7E4FBA0EB0A006A
:100BD000642884D8DBF80000C005F5D5286A20F029
:100BE00001002862286A20F004002862FFF7D2FB87
:100BF000834641F2883A05E0FFF7CCFBA0EB0B01FE
:100C00005145A6D898FAA8F1B1FA81F141F0400116
:100C10004046B6EB511F01D1296812E090FAA0F1CD
:100C2000B1FA81F141F04001B0EB511F08D1296ABE
:100C300007E0000000100240000042420070004047
:100C4000696A98FAA8F0B0FA80F000F01F0006FA7E
:100C500000F00142D0D1206901280AD008B105284E
:100C600012D0286A20F001002862286A20F00400CF
:100C700002E0286A40F001002862206998B3FFF77B
:100C800089FB83460CE05BE0286A40F004002862A0
:100C9000EFE700BFFFF77EFBA0EB0B01514598D8B3
:100CA00098FAA8F1B1FA81F141F040014046B6EB63
:100CB000511F01D129680BE090FAA0F1B1FA81F13E
:100CC00041F04001B0EB511F01D1296A00E0696A8F
:100CD00098FAA8F0B0FA80F000F01F0206FA02F0CD
:100CE0000142D7D02CE0FFE7FFF754FB834605E035
:100CF000FFF750FBA0EB0B0151457CD898FAA8F107
:100D0000B1FA81F141F040014046B6EB511F01D1EB
:100D100029680BE090FAA0F1B1FA81F141F04001AD
:100D2000B0EB511F01D1296A00E0696A98FAA8F076
:100D3000B0FA80F000F01F0206FA02F00142D7D1AB
:100D4000E16AA1B36868C00307D56868C0F3810091
:100D5000022802D1E86AC00370D44FF080604FF0DF
:100D6000006B02290DD0E96A21F48031E96290FA22
:100D7000A0F0B0FA80F047F82090FFF70BFB804618
:100D800070E02968C90005D5E96A626B01F0F001DD
:100D9000914253D14FF0806090FAA0F0B0FA80F009
:100DA00047F82090FFF7F6FA8246D84606E06EE054
:100DB000FFF7F0FAA0EB0A0064281CD898FAA8F014
:100DC000B0FA80F040F02000400901D0286800E02F
:100DD000686A98FAA8F1B1FA81F101F01F0106FAE8
:100DE00001F10842E4D1E86A616B20F0F0000843A9
:100DF000E862E86A00E082E0216B20F4706008435A
:100E0000E8624FF0806090FAA0F0B0FA80F047F806
:100E10002060FFF7BFFA824606E000BFFFF7BAFA8C
:100E2000A0EB0A0064286AD898FAA8F0B0FA80F01B
:100E300040F02000400902D0286801E0A7E0686A7D
:100E400098FAA8F1B1FA81F101F01F0106FA01F157
:100E50000842E3D01BE000BFFFF79CFAA0EB0800BC
:100E600064284CD89BFAABF0B0FA80F040F0200038
:100E7000400901D0286800E0686A9BFAABF1B1FA3A
:100E800081F101F01F0106FA01F10842E4D1206A64
:100E9000A0B36968C1F38101022978D002284FF01C
:100EA00080714FF0007A48460AD091FAA1F1B1FA68
:100EB00081F147F82100FFF76DFA074654466FE0CD
:100EC0008B4691FAA1F1B1FA81F1B94647F82100B8
:100ED000FFF760FA8046574606E000BFFFF75AFA70
:100EE000A0EB0800022858D897FAA7F0B0FA80F0D3
:100EF00040F02000400903D0286802E065E04CE0A3
:100F0000686A97FAA7F1B1FA81F101F01F0106FAB8
:100F100001F10842E2D1606AB0F5803F09D1E86A88
:100F200061680843E862E86AE16820F00F0008435E
:100F3000E862D4E909010843696821F4741108439F
:100F400068609BFAABF0B0FA80F049F82060FFF7D8
:100F500021FA044605E000BFFFF71CFA001B022837
:100F60001BD897FAA7F0B0FA80F040F020004009B3
:100F700001D0286800E0686A97FAA7F1B1FA81F118
:100F800001F01F0106FA01F10842E5D01DE01EE064
:100F9000FFF700FAC01B022802D90320BDE8F88F32
:100FA00094FAA4F0B0FA80F040F02000400901D09B
:100FB000286800E0686A94FAA4F1B1FA81F101F0BE
:100FC0001F0106FA01F10842E2D10020E6E7012004
:100FD000E4E74FF0E0210428086903D020F0040082
:100FE0000861704740F00400FAE7704710B5401EF2
:100FF000B0F1807F01D3012010BD4FF0E02460618B
:101000000F21601700F050F80020A0610720206138
:10101000002010BD10B5FFF7E8FF10BD30B51E4829
:1010200085B0816941F010018161816901F0100191
:101030000491816941F004018161816901F0040139
:101040000491816941F0200181618069002400F0F0
:10105000200004904FF40050CDE9000469460F4889
:101060000294FFF7AFF80125CDE9005469460C481A
:101070000294FFF7A7F89C20CDE900050220094C57
:10108000039069462046FFF79DF800229C212046E8
:10109000FFF77BF905B030BD0010024000100140A1
:1010A00000080140001401400907090E002806DA73
:1010B00000F00F0000F1E02080F8141D704700F1EF
:1010C000E02080F80014704710B5FFF769F9BDE81B
:1010D0001040FFF79FBF000030B593B001252804F2
:1010E0000421CDE902010224CDE90050CDE90840F8
:1010F0004FF4E010CDE90A044FF4C0600C9040209A
:101100000D906846FFF798FB0F20CDE90E040020F4
:101110006102CDE91001129002210EA8FFF7BCF97F
:10112000FFF7FEFA4FF47A71B0FBF1F0FFF75EFFC4
:101130000420FFF74EFFE00690FAA0F00549B0FA50
:1011400080F041F8205000221146501EFFF772F93E
:1011500013B030BD000042421048016841F0010167
:10116000016041680E4A1140416001680D4A11401A
:101170000160016821F480210160416821F4FE01D1
:101180004160016821F0A05101604FF47F0181604E
:101190000021C1620449C00308607047001002408A
:1011A0000000FFF0FFFFF6FE08ED00E002E008C8D7
:1011B000121F08C1002AFAD170477047002001E0D1
:1011C00001C1121F002AFBD1704742F6DF6303E022
:1011D0001946491E89B2FCD2401EF9D27047000060
:1011E00070B5FF25084E002406EBC400818856F830
:1011F0003400FFF7C5F828B1641CE4B2022CF3D325
:10120000284670BD2546FBE7F812000810B5FFF729
:10121000E7FF0446FF2808D0642000E03220FFF7F3
:10122000D4FFFFF7DDFFFF28F8D1204610BD0000F6
:101230002DE9F04100240A4E0746012505FA04F085
:10124000384207D006EBC4000022818856F83400EB
:10125000FFF79BF8641CE4B2042CEFD3BDE8F081E7
:10126000081300082DE9F04100240A4E0746012525
:1012700005FA04F0384207D006EBC4000122818849
:1012800056F83400FFF781F8641CE4B2042CEFD365
:10129000BDE8F081081300080024FFF789F8FFF784
:1012A0001BFFFFF7BBFE01254FF4FA764FF6FF77E1
:1012B000FFF7ACFF80B10128FAD19CB1641EE4B203
:1012C00005FA04F080B2FFF7CDFF3046FFF77DFF4F
:1012D0003846FFF7ADFFEBE7032C01D30024EEE720
:1012E000641CECE70324EAE70000000001020304A9
:1012F000010203040607080900080140010000007C
:101300000010014000200000001401400400000013
:10131000001401400800000000140140100000000B
:101320000014014080000000481300080000002065
:1013300008000000AC11000850130008080000204D
:1013400000020000BC1100080000000000A24A04D6
:04000005080001519D
:00000001FF
